{
	"d-app/Voting.sol": {
		"VotingDApp": {
			"abi": [
				{
					"inputs": [],
					"stateMutability": "nonpayable",
					"type": "constructor"
				},
				{
					"inputs": [
						{
							"internalType": "address",
							"name": "_user",
							"type": "address"
						},
						{
							"internalType": "enum VotingDApp.Role",
							"name": "_role",
							"type": "uint8"
						}
					],
					"name": "assignRole",
					"outputs": [],
					"stateMutability": "nonpayable",
					"type": "function"
				},
				{
					"inputs": [
						{
							"internalType": "string",
							"name": "_name",
							"type": "string"
						}
					],
					"name": "createEvent",
					"outputs": [],
					"stateMutability": "nonpayable",
					"type": "function"
				},
				{
					"inputs": [
						{
							"internalType": "uint256",
							"name": "_eventId",
							"type": "uint256"
						}
					],
					"name": "endEvent",
					"outputs": [],
					"stateMutability": "nonpayable",
					"type": "function"
				},
				{
					"inputs": [],
					"name": "eventCount",
					"outputs": [
						{
							"internalType": "uint256",
							"name": "",
							"type": "uint256"
						}
					],
					"stateMutability": "view",
					"type": "function"
				},
				{
					"inputs": [
						{
							"internalType": "uint256",
							"name": "",
							"type": "uint256"
						}
					],
					"name": "events",
					"outputs": [
						{
							"internalType": "uint256",
							"name": "id",
							"type": "uint256"
						},
						{
							"internalType": "string",
							"name": "name",
							"type": "string"
						},
						{
							"internalType": "bool",
							"name": "active",
							"type": "bool"
						},
						{
							"internalType": "uint256",
							"name": "yesVotes",
							"type": "uint256"
						},
						{
							"internalType": "uint256",
							"name": "noVotes",
							"type": "uint256"
						},
						{
							"internalType": "address",
							"name": "organizer",
							"type": "address"
						}
					],
					"stateMutability": "view",
					"type": "function"
				},
				{
					"inputs": [
						{
							"internalType": "uint256",
							"name": "_eventId",
							"type": "uint256"
						}
					],
					"name": "getResults",
					"outputs": [
						{
							"internalType": "string",
							"name": "",
							"type": "string"
						},
						{
							"internalType": "uint256",
							"name": "",
							"type": "uint256"
						},
						{
							"internalType": "uint256",
							"name": "",
							"type": "uint256"
						}
					],
					"stateMutability": "view",
					"type": "function"
				},
				{
					"inputs": [
						{
							"internalType": "address",
							"name": "",
							"type": "address"
						}
					],
					"name": "roles",
					"outputs": [
						{
							"internalType": "enum VotingDApp.Role",
							"name": "",
							"type": "uint8"
						}
					],
					"stateMutability": "view",
					"type": "function"
				},
				{
					"inputs": [
						{
							"internalType": "uint256",
							"name": "_eventId",
							"type": "uint256"
						},
						{
							"internalType": "bool",
							"name": "_voteYes",
							"type": "bool"
						}
					],
					"name": "vote",
					"outputs": [],
					"stateMutability": "nonpayable",
					"type": "function"
				}
			],
			"devdoc": {
				"kind": "dev",
				"methods": {},
				"version": 1
			},
			"evm": {
				"assembly": "    /* \"d-app/Voting.sol\":60:2910  contract VotingDApp {... */\n  mstore(0x40, 0x80)\n    /* \"d-app/Voting.sol\":1063:1130  constructor() {... */\n  callvalue\n  dup1\n  iszero\n  tag_1\n  jumpi\n  0x00\n  dup1\n  revert\ntag_1:\n  pop\n    /* \"d-app/Voting.sol\":1108:1122  Role.Organizer */\n  0x02\n    /* \"d-app/Voting.sol\":1088:1093  roles */\n  0x00\n    /* \"d-app/Voting.sol\":1088:1105  roles[msg.sender] */\n  dup1\n    /* \"d-app/Voting.sol\":1094:1104  msg.sender */\n  caller\n    /* \"d-app/Voting.sol\":1088:1105  roles[msg.sender] */\n  0xffffffffffffffffffffffffffffffffffffffff\n  and\n  0xffffffffffffffffffffffffffffffffffffffff\n  and\n  dup2\n  mstore\n  0x20\n  add\n  swap1\n  dup2\n  mstore\n  0x20\n  add\n  0x00\n  keccak256\n  0x00\n    /* \"d-app/Voting.sol\":1088:1122  roles[msg.sender] = Role.Organizer */\n  0x0100\n  exp\n  dup2\n  sload\n  dup2\n  0xff\n  mul\n  not\n  and\n  swap1\n  dup4\n  0x02\n  dup2\n  gt\n  iszero\n  tag_4\n  jumpi\n  tag_5\n  tag_6\n  jump\t// in\ntag_5:\ntag_4:\n  mul\n  or\n  swap1\n  sstore\n  pop\n    /* \"d-app/Voting.sol\":60:2910  contract VotingDApp {... */\n  jump(tag_7)\n    /* \"#utility.yul\":7:187   */\ntag_6:\n    /* \"#utility.yul\":55:132   */\n  0x4e487b7100000000000000000000000000000000000000000000000000000000\n    /* \"#utility.yul\":52:53   */\n  0x00\n    /* \"#utility.yul\":45:133   */\n  mstore\n    /* \"#utility.yul\":152:156   */\n  0x21\n    /* \"#utility.yul\":149:150   */\n  0x04\n    /* \"#utility.yul\":142:157   */\n  mstore\n    /* \"#utility.yul\":176:180   */\n  0x24\n    /* \"#utility.yul\":173:174   */\n  0x00\n    /* \"#utility.yul\":166:181   */\n  revert\n    /* \"d-app/Voting.sol\":60:2910  contract VotingDApp {... */\ntag_7:\n  dataSize(sub_0)\n  dup1\n  dataOffset(sub_0)\n  0x00\n  codecopy\n  0x00\n  return\nstop\n\nsub_0: assembly {\n        /* \"d-app/Voting.sol\":60:2910  contract VotingDApp {... */\n      mstore(0x40, 0x80)\n      callvalue\n      dup1\n      iszero\n      tag_1\n      jumpi\n      0x00\n      dup1\n      revert\n    tag_1:\n      pop\n      jumpi(tag_2, lt(calldatasize, 0x04))\n      shr(0xe0, calldataload(0x00))\n      dup1\n      0x81a60c0d\n      gt\n      tag_11\n      jumpi\n      dup1\n      0x81a60c0d\n      eq\n      tag_7\n      jumpi\n      dup1\n      0x99374642\n      eq\n      tag_8\n      jumpi\n      dup1\n      0x9bc2bc71\n      eq\n      tag_9\n      jumpi\n      dup1\n      0xc9d27afe\n      eq\n      tag_10\n      jumpi\n      jump(tag_2)\n    tag_11:\n      dup1\n      0x0b791430\n      eq\n      tag_3\n      jumpi\n      dup1\n      0x330a347b\n      eq\n      tag_4\n      jumpi\n      dup1\n      0x630a195b\n      eq\n      tag_5\n      jumpi\n      dup1\n      0x71be2e4a\n      eq\n      tag_6\n      jumpi\n    tag_2:\n      0x00\n      dup1\n      revert\n        /* \"d-app/Voting.sol\":525:561  mapping(uint => Event) public events */\n    tag_3:\n      tag_12\n      0x04\n      dup1\n      calldatasize\n      sub\n      dup2\n      add\n      swap1\n      tag_13\n      swap2\n      swap1\n      tag_14\n      jump\t// in\n    tag_13:\n      tag_15\n      jump\t// in\n    tag_12:\n      mload(0x40)\n      tag_16\n      swap7\n      swap6\n      swap5\n      swap4\n      swap3\n      swap2\n      swap1\n      tag_17\n      jump\t// in\n    tag_16:\n      mload(0x40)\n      dup1\n      swap2\n      sub\n      swap1\n      return\n        /* \"d-app/Voting.sol\":2294:2551  function endEvent(uint _eventId) public onlyOrganizer {... */\n    tag_4:\n      tag_18\n      0x04\n      dup1\n      calldatasize\n      sub\n      dup2\n      add\n      swap1\n      tag_19\n      swap2\n      swap1\n      tag_14\n      jump\t// in\n    tag_19:\n      tag_20\n      jump\t// in\n    tag_18:\n      stop\n        /* \"d-app/Voting.sol\":1171:1351  function assignRole(address _user, Role _role) public onlyOrganizer {... */\n    tag_5:\n      tag_21\n      0x04\n      dup1\n      calldatasize\n      sub\n      dup2\n      add\n      swap1\n      tag_22\n      swap2\n      swap1\n      tag_23\n      jump\t// in\n    tag_22:\n      tag_24\n      jump\t// in\n    tag_21:\n      stop\n        /* \"d-app/Voting.sol\":600:622  uint public eventCount */\n    tag_6:\n      tag_25\n      tag_26\n      jump\t// in\n    tag_25:\n      mload(0x40)\n      tag_27\n      swap2\n      swap1\n      tag_28\n      jump\t// in\n    tag_27:\n      mload(0x40)\n      dup1\n      swap2\n      sub\n      swap1\n      return\n        /* \"d-app/Voting.sol\":2607:2907  function getResults(uint _eventId) public view returns (string memory, uint, uint) {... */\n    tag_7:\n      tag_29\n      0x04\n      dup1\n      calldatasize\n      sub\n      dup2\n      add\n      swap1\n      tag_30\n      swap2\n      swap1\n      tag_14\n      jump\t// in\n    tag_30:\n      tag_31\n      jump\t// in\n    tag_29:\n      mload(0x40)\n      tag_32\n      swap4\n      swap3\n      swap2\n      swap1\n      tag_33\n      jump\t// in\n    tag_32:\n      mload(0x40)\n      dup1\n      swap2\n      sub\n      swap1\n      return\n        /* \"d-app/Voting.sol\":188:225  mapping(address => Role) public roles */\n    tag_8:\n      tag_34\n      0x04\n      dup1\n      calldatasize\n      sub\n      dup2\n      add\n      swap1\n      tag_35\n      swap2\n      swap1\n      tag_36\n      jump\t// in\n    tag_35:\n      tag_37\n      jump\t// in\n    tag_34:\n      mload(0x40)\n      tag_38\n      swap2\n      swap1\n      tag_39\n      jump\t// in\n    tag_38:\n      mload(0x40)\n      dup1\n      swap2\n      sub\n      swap1\n      return\n        /* \"d-app/Voting.sol\":1420:1710  function createEvent(string memory _name) public onlyOrganizer {... */\n    tag_9:\n      tag_40\n      0x04\n      dup1\n      calldatasize\n      sub\n      dup2\n      add\n      swap1\n      tag_41\n      swap2\n      swap1\n      tag_42\n      jump\t// in\n    tag_41:\n      tag_43\n      jump\t// in\n    tag_40:\n      stop\n        /* \"d-app/Voting.sol\":1756:2213  function vote(uint _eventId, bool _voteYes) public onlyVoter {... */\n    tag_10:\n      tag_44\n      0x04\n      dup1\n      calldatasize\n      sub\n      dup2\n      add\n      swap1\n      tag_45\n      swap2\n      swap1\n      tag_46\n      jump\t// in\n    tag_45:\n      tag_47\n      jump\t// in\n    tag_44:\n      stop\n        /* \"d-app/Voting.sol\":525:561  mapping(uint => Event) public events */\n    tag_15:\n      mstore(0x20, 0x01)\n      dup1\n      0x00\n      mstore\n      keccak256(0x00, 0x40)\n      0x00\n      swap2\n      pop\n      swap1\n      pop\n      dup1\n      0x00\n      add\n      sload\n      swap1\n      dup1\n      0x01\n      add\n      dup1\n      sload\n      tag_48\n      swap1\n      tag_49\n      jump\t// in\n    tag_48:\n      dup1\n      0x1f\n      add\n      0x20\n      dup1\n      swap2\n      div\n      mul\n      0x20\n      add\n      mload(0x40)\n      swap1\n      dup2\n      add\n      0x40\n      mstore\n      dup1\n      swap3\n      swap2\n      swap1\n      dup2\n      dup2\n      mstore\n      0x20\n      add\n      dup3\n      dup1\n      sload\n      tag_50\n      swap1\n      tag_49\n      jump\t// in\n    tag_50:\n      dup1\n      iszero\n      tag_51\n      jumpi\n      dup1\n      0x1f\n      lt\n      tag_52\n      jumpi\n      0x0100\n      dup1\n      dup4\n      sload\n      div\n      mul\n      dup4\n      mstore\n      swap2\n      0x20\n      add\n      swap2\n      jump(tag_51)\n    tag_52:\n      dup3\n      add\n      swap2\n      swap1\n      0x00\n      mstore\n      keccak256(0x00, 0x20)\n      swap1\n    tag_53:\n      dup2\n      sload\n      dup2\n      mstore\n      swap1\n      0x01\n      add\n      swap1\n      0x20\n      add\n      dup1\n      dup4\n      gt\n      tag_53\n      jumpi\n      dup3\n      swap1\n      sub\n      0x1f\n      and\n      dup3\n      add\n      swap2\n    tag_51:\n      pop\n      pop\n      pop\n      pop\n      pop\n      swap1\n      dup1\n      0x02\n      add\n      0x00\n      swap1\n      sload\n      swap1\n      0x0100\n      exp\n      swap1\n      div\n      0xff\n      and\n      swap1\n      dup1\n      0x03\n      add\n      sload\n      swap1\n      dup1\n      0x04\n      add\n      sload\n      swap1\n      dup1\n      0x06\n      add\n      0x00\n      swap1\n      sload\n      swap1\n      0x0100\n      exp\n      swap1\n      div\n      0xffffffffffffffffffffffffffffffffffffffff\n      and\n      swap1\n      pop\n      dup7\n      jump\t// out\n        /* \"d-app/Voting.sol\":2294:2551  function endEvent(uint _eventId) public onlyOrganizer {... */\n    tag_20:\n        /* \"d-app/Voting.sol\":754:768  Role.Organizer */\n      0x02\n        /* \"d-app/Voting.sol\":733:768  roles[msg.sender] == Role.Organizer */\n      dup1\n      dup2\n      gt\n      iszero\n      tag_55\n      jumpi\n      tag_56\n      tag_57\n      jump\t// in\n    tag_56:\n    tag_55:\n        /* \"d-app/Voting.sol\":733:738  roles */\n      0x00\n        /* \"d-app/Voting.sol\":733:750  roles[msg.sender] */\n      dup1\n        /* \"d-app/Voting.sol\":739:749  msg.sender */\n      caller\n        /* \"d-app/Voting.sol\":733:750  roles[msg.sender] */\n      0xffffffffffffffffffffffffffffffffffffffff\n      and\n      0xffffffffffffffffffffffffffffffffffffffff\n      and\n      dup2\n      mstore\n      0x20\n      add\n      swap1\n      dup2\n      mstore\n      0x20\n      add\n      0x00\n      keccak256\n      0x00\n      swap1\n      sload\n      swap1\n      0x0100\n      exp\n      swap1\n      div\n      0xff\n      and\n        /* \"d-app/Voting.sol\":733:768  roles[msg.sender] == Role.Organizer */\n      0x02\n      dup2\n      gt\n      iszero\n      tag_58\n      jumpi\n      tag_59\n      tag_57\n      jump\t// in\n    tag_59:\n    tag_58:\n      eq\n        /* \"d-app/Voting.sol\":725:798  require(roles[msg.sender] == Role.Organizer, \"You are not an organizer.\") */\n      tag_60\n      jumpi\n      mload(0x40)\n      0x08c379a000000000000000000000000000000000000000000000000000000000\n      dup2\n      mstore\n      0x04\n      add\n      tag_61\n      swap1\n      tag_62\n      jump\t// in\n    tag_61:\n      mload(0x40)\n      dup1\n      swap2\n      sub\n      swap1\n      revert\n    tag_60:\n        /* \"d-app/Voting.sol\":2359:2386  Event storage eventInstance */\n      0x00\n        /* \"d-app/Voting.sol\":2389:2395  events */\n      0x01\n        /* \"d-app/Voting.sol\":2389:2405  events[_eventId] */\n      0x00\n        /* \"d-app/Voting.sol\":2396:2404  _eventId */\n      dup4\n        /* \"d-app/Voting.sol\":2389:2405  events[_eventId] */\n      dup2\n      mstore\n      0x20\n      add\n      swap1\n      dup2\n      mstore\n      0x20\n      add\n      0x00\n      keccak256\n        /* \"d-app/Voting.sol\":2359:2405  Event storage eventInstance = events[_eventId] */\n      swap1\n      pop\n        /* \"d-app/Voting.sol\":2451:2461  msg.sender */\n      caller\n        /* \"d-app/Voting.sol\":2424:2461  eventInstance.organizer == msg.sender */\n      0xffffffffffffffffffffffffffffffffffffffff\n      and\n        /* \"d-app/Voting.sol\":2424:2437  eventInstance */\n      dup2\n        /* \"d-app/Voting.sol\":2424:2447  eventInstance.organizer */\n      0x06\n      add\n      0x00\n      swap1\n      sload\n      swap1\n      0x0100\n      exp\n      swap1\n      div\n      0xffffffffffffffffffffffffffffffffffffffff\n      and\n        /* \"d-app/Voting.sol\":2424:2461  eventInstance.organizer == msg.sender */\n      0xffffffffffffffffffffffffffffffffffffffff\n      and\n      eq\n        /* \"d-app/Voting.sol\":2416:2504  require(eventInstance.organizer == msg.sender, \"Only the organizer can end this event.\") */\n      tag_64\n      jumpi\n      mload(0x40)\n      0x08c379a000000000000000000000000000000000000000000000000000000000\n      dup2\n      mstore\n      0x04\n      add\n      tag_65\n      swap1\n      tag_66\n      jump\t// in\n    tag_65:\n      mload(0x40)\n      dup1\n      swap2\n      sub\n      swap1\n      revert\n    tag_64:\n        /* \"d-app/Voting.sol\":2538:2543  false */\n      0x00\n        /* \"d-app/Voting.sol\":2515:2528  eventInstance */\n      dup2\n        /* \"d-app/Voting.sol\":2515:2535  eventInstance.active */\n      0x02\n      add\n      0x00\n        /* \"d-app/Voting.sol\":2515:2543  eventInstance.active = false */\n      0x0100\n      exp\n      dup2\n      sload\n      dup2\n      0xff\n      mul\n      not\n      and\n      swap1\n      dup4\n      iszero\n      iszero\n      mul\n      or\n      swap1\n      sstore\n      pop\n        /* \"d-app/Voting.sol\":2348:2551  {... */\n      pop\n        /* \"d-app/Voting.sol\":2294:2551  function endEvent(uint _eventId) public onlyOrganizer {... */\n      pop\n      jump\t// out\n        /* \"d-app/Voting.sol\":1171:1351  function assignRole(address _user, Role _role) public onlyOrganizer {... */\n    tag_24:\n        /* \"d-app/Voting.sol\":754:768  Role.Organizer */\n      0x02\n        /* \"d-app/Voting.sol\":733:768  roles[msg.sender] == Role.Organizer */\n      dup1\n      dup2\n      gt\n      iszero\n      tag_68\n      jumpi\n      tag_69\n      tag_57\n      jump\t// in\n    tag_69:\n    tag_68:\n        /* \"d-app/Voting.sol\":733:738  roles */\n      0x00\n        /* \"d-app/Voting.sol\":733:750  roles[msg.sender] */\n      dup1\n        /* \"d-app/Voting.sol\":739:749  msg.sender */\n      caller\n        /* \"d-app/Voting.sol\":733:750  roles[msg.sender] */\n      0xffffffffffffffffffffffffffffffffffffffff\n      and\n      0xffffffffffffffffffffffffffffffffffffffff\n      and\n      dup2\n      mstore\n      0x20\n      add\n      swap1\n      dup2\n      mstore\n      0x20\n      add\n      0x00\n      keccak256\n      0x00\n      swap1\n      sload\n      swap1\n      0x0100\n      exp\n      swap1\n      div\n      0xff\n      and\n        /* \"d-app/Voting.sol\":733:768  roles[msg.sender] == Role.Organizer */\n      0x02\n      dup2\n      gt\n      iszero\n      tag_70\n      jumpi\n      tag_71\n      tag_57\n      jump\t// in\n    tag_71:\n    tag_70:\n      eq\n        /* \"d-app/Voting.sol\":725:798  require(roles[msg.sender] == Role.Organizer, \"You are not an organizer.\") */\n      tag_72\n      jumpi\n      mload(0x40)\n      0x08c379a000000000000000000000000000000000000000000000000000000000\n      dup2\n      mstore\n      0x04\n      add\n      tag_73\n      swap1\n      tag_62\n      jump\t// in\n    tag_73:\n      mload(0x40)\n      dup1\n      swap2\n      sub\n      swap1\n      revert\n    tag_72:\n        /* \"d-app/Voting.sol\":1274:1283  Role.None */\n      0x00\n        /* \"d-app/Voting.sol\":1258:1283  roles[_user] == Role.None */\n      0x02\n      dup2\n      gt\n      iszero\n      tag_75\n      jumpi\n      tag_76\n      tag_57\n      jump\t// in\n    tag_76:\n    tag_75:\n        /* \"d-app/Voting.sol\":1258:1263  roles */\n      0x00\n        /* \"d-app/Voting.sol\":1258:1270  roles[_user] */\n      dup1\n        /* \"d-app/Voting.sol\":1264:1269  _user */\n      dup5\n        /* \"d-app/Voting.sol\":1258:1270  roles[_user] */\n      0xffffffffffffffffffffffffffffffffffffffff\n      and\n      0xffffffffffffffffffffffffffffffffffffffff\n      and\n      dup2\n      mstore\n      0x20\n      add\n      swap1\n      dup2\n      mstore\n      0x20\n      add\n      0x00\n      keccak256\n      0x00\n      swap1\n      sload\n      swap1\n      0x0100\n      exp\n      swap1\n      div\n      0xff\n      and\n        /* \"d-app/Voting.sol\":1258:1283  roles[_user] == Role.None */\n      0x02\n      dup2\n      gt\n      iszero\n      tag_77\n      jumpi\n      tag_78\n      tag_57\n      jump\t// in\n    tag_78:\n    tag_77:\n      eq\n        /* \"d-app/Voting.sol\":1250:1312  require(roles[_user] == Role.None, \"User already has a role.\") */\n      tag_79\n      jumpi\n      mload(0x40)\n      0x08c379a000000000000000000000000000000000000000000000000000000000\n      dup2\n      mstore\n      0x04\n      add\n      tag_80\n      swap1\n      tag_81\n      jump\t// in\n    tag_80:\n      mload(0x40)\n      dup1\n      swap2\n      sub\n      swap1\n      revert\n    tag_79:\n        /* \"d-app/Voting.sol\":1338:1343  _role */\n      dup1\n        /* \"d-app/Voting.sol\":1323:1328  roles */\n      0x00\n        /* \"d-app/Voting.sol\":1323:1335  roles[_user] */\n      dup1\n        /* \"d-app/Voting.sol\":1329:1334  _user */\n      dup5\n        /* \"d-app/Voting.sol\":1323:1335  roles[_user] */\n      0xffffffffffffffffffffffffffffffffffffffff\n      and\n      0xffffffffffffffffffffffffffffffffffffffff\n      and\n      dup2\n      mstore\n      0x20\n      add\n      swap1\n      dup2\n      mstore\n      0x20\n      add\n      0x00\n      keccak256\n      0x00\n        /* \"d-app/Voting.sol\":1323:1343  roles[_user] = _role */\n      0x0100\n      exp\n      dup2\n      sload\n      dup2\n      0xff\n      mul\n      not\n      and\n      swap1\n      dup4\n      0x02\n      dup2\n      gt\n      iszero\n      tag_82\n      jumpi\n      tag_83\n      tag_57\n      jump\t// in\n    tag_83:\n    tag_82:\n      mul\n      or\n      swap1\n      sstore\n      pop\n        /* \"d-app/Voting.sol\":1171:1351  function assignRole(address _user, Role _role) public onlyOrganizer {... */\n      pop\n      pop\n      jump\t// out\n        /* \"d-app/Voting.sol\":600:622  uint public eventCount */\n    tag_26:\n      sload(0x02)\n      dup2\n      jump\t// out\n        /* \"d-app/Voting.sol\":2607:2907  function getResults(uint _eventId) public view returns (string memory, uint, uint) {... */\n    tag_31:\n        /* \"d-app/Voting.sol\":2663:2676  string memory */\n      0x60\n        /* \"d-app/Voting.sol\":2678:2682  uint */\n      0x00\n        /* \"d-app/Voting.sol\":2684:2688  uint */\n      dup1\n        /* \"d-app/Voting.sol\":2701:2728  Event storage eventInstance */\n      0x00\n        /* \"d-app/Voting.sol\":2731:2737  events */\n      0x01\n        /* \"d-app/Voting.sol\":2731:2747  events[_eventId] */\n      0x00\n        /* \"d-app/Voting.sol\":2738:2746  _eventId */\n      dup7\n        /* \"d-app/Voting.sol\":2731:2747  events[_eventId] */\n      dup2\n      mstore\n      0x20\n      add\n      swap1\n      dup2\n      mstore\n      0x20\n      add\n      0x00\n      keccak256\n        /* \"d-app/Voting.sol\":2701:2747  Event storage eventInstance = events[_eventId] */\n      swap1\n      pop\n        /* \"d-app/Voting.sol\":2767:2780  eventInstance */\n      dup1\n        /* \"d-app/Voting.sol\":2767:2787  eventInstance.active */\n      0x02\n      add\n      0x00\n      swap1\n      sload\n      swap1\n      0x0100\n      exp\n      swap1\n      div\n      0xff\n      and\n        /* \"d-app/Voting.sol\":2766:2787  !eventInstance.active */\n      iszero\n        /* \"d-app/Voting.sol\":2758:2814  require(!eventInstance.active, \"Event is still active.\") */\n      tag_85\n      jumpi\n      mload(0x40)\n      0x08c379a000000000000000000000000000000000000000000000000000000000\n      dup2\n      mstore\n      0x04\n      add\n      tag_86\n      swap1\n      tag_87\n      jump\t// in\n    tag_86:\n      mload(0x40)\n      dup1\n      swap2\n      sub\n      swap1\n      revert\n    tag_85:\n        /* \"d-app/Voting.sol\":2833:2846  eventInstance */\n      dup1\n        /* \"d-app/Voting.sol\":2833:2851  eventInstance.name */\n      0x01\n      add\n        /* \"d-app/Voting.sol\":2853:2866  eventInstance */\n      dup2\n        /* \"d-app/Voting.sol\":2853:2875  eventInstance.yesVotes */\n      0x03\n      add\n      sload\n        /* \"d-app/Voting.sol\":2877:2890  eventInstance */\n      dup3\n        /* \"d-app/Voting.sol\":2877:2898  eventInstance.noVotes */\n      0x04\n      add\n      sload\n        /* \"d-app/Voting.sol\":2825:2899  return (eventInstance.name, eventInstance.yesVotes, eventInstance.noVotes) */\n      dup3\n      dup1\n      sload\n      tag_88\n      swap1\n      tag_49\n      jump\t// in\n    tag_88:\n      dup1\n      0x1f\n      add\n      0x20\n      dup1\n      swap2\n      div\n      mul\n      0x20\n      add\n      mload(0x40)\n      swap1\n      dup2\n      add\n      0x40\n      mstore\n      dup1\n      swap3\n      swap2\n      swap1\n      dup2\n      dup2\n      mstore\n      0x20\n      add\n      dup3\n      dup1\n      sload\n      tag_89\n      swap1\n      tag_49\n      jump\t// in\n    tag_89:\n      dup1\n      iszero\n      tag_90\n      jumpi\n      dup1\n      0x1f\n      lt\n      tag_91\n      jumpi\n      0x0100\n      dup1\n      dup4\n      sload\n      div\n      mul\n      dup4\n      mstore\n      swap2\n      0x20\n      add\n      swap2\n      jump(tag_90)\n    tag_91:\n      dup3\n      add\n      swap2\n      swap1\n      0x00\n      mstore\n      keccak256(0x00, 0x20)\n      swap1\n    tag_92:\n      dup2\n      sload\n      dup2\n      mstore\n      swap1\n      0x01\n      add\n      swap1\n      0x20\n      add\n      dup1\n      dup4\n      gt\n      tag_92\n      jumpi\n      dup3\n      swap1\n      sub\n      0x1f\n      and\n      dup3\n      add\n      swap2\n    tag_90:\n      pop\n      pop\n      pop\n      pop\n      pop\n      swap3\n      pop\n      swap4\n      pop\n      swap4\n      pop\n      swap4\n      pop\n      pop\n        /* \"d-app/Voting.sol\":2607:2907  function getResults(uint _eventId) public view returns (string memory, uint, uint) {... */\n      swap2\n      swap4\n      swap1\n      swap3\n      pop\n      jump\t// out\n        /* \"d-app/Voting.sol\":188:225  mapping(address => Role) public roles */\n    tag_37:\n      mstore(0x20, 0x00)\n      dup1\n      0x00\n      mstore\n      keccak256(0x00, 0x40)\n      0x00\n      swap2\n      pop\n      sload\n      swap1\n      0x0100\n      exp\n      swap1\n      div\n      0xff\n      and\n      dup2\n      jump\t// out\n        /* \"d-app/Voting.sol\":1420:1710  function createEvent(string memory _name) public onlyOrganizer {... */\n    tag_43:\n        /* \"d-app/Voting.sol\":754:768  Role.Organizer */\n      0x02\n        /* \"d-app/Voting.sol\":733:768  roles[msg.sender] == Role.Organizer */\n      dup1\n      dup2\n      gt\n      iszero\n      tag_94\n      jumpi\n      tag_95\n      tag_57\n      jump\t// in\n    tag_95:\n    tag_94:\n        /* \"d-app/Voting.sol\":733:738  roles */\n      0x00\n        /* \"d-app/Voting.sol\":733:750  roles[msg.sender] */\n      dup1\n        /* \"d-app/Voting.sol\":739:749  msg.sender */\n      caller\n        /* \"d-app/Voting.sol\":733:750  roles[msg.sender] */\n      0xffffffffffffffffffffffffffffffffffffffff\n      and\n      0xffffffffffffffffffffffffffffffffffffffff\n      and\n      dup2\n      mstore\n      0x20\n      add\n      swap1\n      dup2\n      mstore\n      0x20\n      add\n      0x00\n      keccak256\n      0x00\n      swap1\n      sload\n      swap1\n      0x0100\n      exp\n      swap1\n      div\n      0xff\n      and\n        /* \"d-app/Voting.sol\":733:768  roles[msg.sender] == Role.Organizer */\n      0x02\n      dup2\n      gt\n      iszero\n      tag_96\n      jumpi\n      tag_97\n      tag_57\n      jump\t// in\n    tag_97:\n    tag_96:\n      eq\n        /* \"d-app/Voting.sol\":725:798  require(roles[msg.sender] == Role.Organizer, \"You are not an organizer.\") */\n      tag_98\n      jumpi\n      mload(0x40)\n      0x08c379a000000000000000000000000000000000000000000000000000000000\n      dup2\n      mstore\n      0x04\n      add\n      tag_99\n      swap1\n      tag_62\n      jump\t// in\n    tag_99:\n      mload(0x40)\n      dup1\n      swap2\n      sub\n      swap1\n      revert\n    tag_98:\n        /* \"d-app/Voting.sol\":1494:1504  eventCount */\n      0x02\n      0x00\n        /* \"d-app/Voting.sol\":1494:1506  eventCount++ */\n      dup2\n      sload\n      dup1\n      swap3\n      swap2\n      swap1\n      tag_101\n      swap1\n      tag_102\n      jump\t// in\n    tag_101:\n      swap2\n      swap1\n      pop\n      sstore\n      pop\n        /* \"d-app/Voting.sol\":1517:1539  Event storage newEvent */\n      0x00\n        /* \"d-app/Voting.sol\":1542:1548  events */\n      0x01\n        /* \"d-app/Voting.sol\":1542:1560  events[eventCount] */\n      0x00\n        /* \"d-app/Voting.sol\":1549:1559  eventCount */\n      sload(0x02)\n        /* \"d-app/Voting.sol\":1542:1560  events[eventCount] */\n      dup2\n      mstore\n      0x20\n      add\n      swap1\n      dup2\n      mstore\n      0x20\n      add\n      0x00\n      keccak256\n        /* \"d-app/Voting.sol\":1517:1560  Event storage newEvent = events[eventCount] */\n      swap1\n      pop\n        /* \"d-app/Voting.sol\":1585:1595  eventCount */\n      sload(0x02)\n        /* \"d-app/Voting.sol\":1571:1579  newEvent */\n      dup2\n        /* \"d-app/Voting.sol\":1571:1582  newEvent.id */\n      0x00\n      add\n        /* \"d-app/Voting.sol\":1571:1595  newEvent.id = eventCount */\n      dup2\n      swap1\n      sstore\n      pop\n        /* \"d-app/Voting.sol\":1622:1627  _name */\n      dup2\n        /* \"d-app/Voting.sol\":1606:1614  newEvent */\n      dup2\n        /* \"d-app/Voting.sol\":1606:1619  newEvent.name */\n      0x01\n      add\n        /* \"d-app/Voting.sol\":1606:1627  newEvent.name = _name */\n      swap1\n      dup2\n      tag_103\n      swap2\n      swap1\n      tag_104\n      jump\t// in\n    tag_103:\n      pop\n        /* \"d-app/Voting.sol\":1656:1660  true */\n      0x01\n        /* \"d-app/Voting.sol\":1638:1646  newEvent */\n      dup2\n        /* \"d-app/Voting.sol\":1638:1653  newEvent.active */\n      0x02\n      add\n      0x00\n        /* \"d-app/Voting.sol\":1638:1660  newEvent.active = true */\n      0x0100\n      exp\n      dup2\n      sload\n      dup2\n      0xff\n      mul\n      not\n      and\n      swap1\n      dup4\n      iszero\n      iszero\n      mul\n      or\n      swap1\n      sstore\n      pop\n        /* \"d-app/Voting.sol\":1692:1702  msg.sender */\n      caller\n        /* \"d-app/Voting.sol\":1671:1679  newEvent */\n      dup2\n        /* \"d-app/Voting.sol\":1671:1689  newEvent.organizer */\n      0x06\n      add\n      0x00\n        /* \"d-app/Voting.sol\":1671:1702  newEvent.organizer = msg.sender */\n      0x0100\n      exp\n      dup2\n      sload\n      dup2\n      0xffffffffffffffffffffffffffffffffffffffff\n      mul\n      not\n      and\n      swap1\n      dup4\n      0xffffffffffffffffffffffffffffffffffffffff\n      and\n      mul\n      or\n      swap1\n      sstore\n      pop\n        /* \"d-app/Voting.sol\":1483:1710  {... */\n      pop\n        /* \"d-app/Voting.sol\":1420:1710  function createEvent(string memory _name) public onlyOrganizer {... */\n      pop\n      jump\t// out\n        /* \"d-app/Voting.sol\":1756:2213  function vote(uint _eventId, bool _voteYes) public onlyVoter {... */\n    tag_47:\n        /* \"d-app/Voting.sol\":941:951  Role.Voter */\n      0x01\n        /* \"d-app/Voting.sol\":920:951  roles[msg.sender] == Role.Voter */\n      0x02\n      dup2\n      gt\n      iszero\n      tag_106\n      jumpi\n      tag_107\n      tag_57\n      jump\t// in\n    tag_107:\n    tag_106:\n        /* \"d-app/Voting.sol\":920:925  roles */\n      0x00\n        /* \"d-app/Voting.sol\":920:937  roles[msg.sender] */\n      dup1\n        /* \"d-app/Voting.sol\":926:936  msg.sender */\n      caller\n        /* \"d-app/Voting.sol\":920:937  roles[msg.sender] */\n      0xffffffffffffffffffffffffffffffffffffffff\n      and\n      0xffffffffffffffffffffffffffffffffffffffff\n      and\n      dup2\n      mstore\n      0x20\n      add\n      swap1\n      dup2\n      mstore\n      0x20\n      add\n      0x00\n      keccak256\n      0x00\n      swap1\n      sload\n      swap1\n      0x0100\n      exp\n      swap1\n      div\n      0xff\n      and\n        /* \"d-app/Voting.sol\":920:951  roles[msg.sender] == Role.Voter */\n      0x02\n      dup2\n      gt\n      iszero\n      tag_108\n      jumpi\n      tag_109\n      tag_57\n      jump\t// in\n    tag_109:\n    tag_108:\n      eq\n        /* \"d-app/Voting.sol\":912:976  require(roles[msg.sender] == Role.Voter, \"You are not a voter.\") */\n      tag_110\n      jumpi\n      mload(0x40)\n      0x08c379a000000000000000000000000000000000000000000000000000000000\n      dup2\n      mstore\n      0x04\n      add\n      tag_111\n      swap1\n      tag_112\n      jump\t// in\n    tag_111:\n      mload(0x40)\n      dup1\n      swap2\n      sub\n      swap1\n      revert\n    tag_110:\n        /* \"d-app/Voting.sol\":1828:1855  Event storage eventInstance */\n      0x00\n        /* \"d-app/Voting.sol\":1858:1864  events */\n      0x01\n        /* \"d-app/Voting.sol\":1858:1874  events[_eventId] */\n      0x00\n        /* \"d-app/Voting.sol\":1865:1873  _eventId */\n      dup5\n        /* \"d-app/Voting.sol\":1858:1874  events[_eventId] */\n      dup2\n      mstore\n      0x20\n      add\n      swap1\n      dup2\n      mstore\n      0x20\n      add\n      0x00\n      keccak256\n        /* \"d-app/Voting.sol\":1828:1874  Event storage eventInstance = events[_eventId] */\n      swap1\n      pop\n        /* \"d-app/Voting.sol\":1893:1906  eventInstance */\n      dup1\n        /* \"d-app/Voting.sol\":1893:1913  eventInstance.active */\n      0x02\n      add\n      0x00\n      swap1\n      sload\n      swap1\n      0x0100\n      exp\n      swap1\n      div\n      0xff\n      and\n        /* \"d-app/Voting.sol\":1885:1938  require(eventInstance.active, \"Event is not active.\") */\n      tag_114\n      jumpi\n      mload(0x40)\n      0x08c379a000000000000000000000000000000000000000000000000000000000\n      dup2\n      mstore\n      0x04\n      add\n      tag_115\n      swap1\n      tag_116\n      jump\t// in\n    tag_115:\n      mload(0x40)\n      dup1\n      swap2\n      sub\n      swap1\n      revert\n    tag_114:\n        /* \"d-app/Voting.sol\":1958:1971  eventInstance */\n      dup1\n        /* \"d-app/Voting.sol\":1958:1980  eventInstance.hasVoted */\n      0x05\n      add\n        /* \"d-app/Voting.sol\":1958:1992  eventInstance.hasVoted[msg.sender] */\n      0x00\n        /* \"d-app/Voting.sol\":1981:1991  msg.sender */\n      caller\n        /* \"d-app/Voting.sol\":1958:1992  eventInstance.hasVoted[msg.sender] */\n      0xffffffffffffffffffffffffffffffffffffffff\n      and\n      0xffffffffffffffffffffffffffffffffffffffff\n      and\n      dup2\n      mstore\n      0x20\n      add\n      swap1\n      dup2\n      mstore\n      0x20\n      add\n      0x00\n      keccak256\n      0x00\n      swap1\n      sload\n      swap1\n      0x0100\n      exp\n      swap1\n      div\n      0xff\n      and\n        /* \"d-app/Voting.sol\":1957:1992  !eventInstance.hasVoted[msg.sender] */\n      iszero\n        /* \"d-app/Voting.sol\":1949:2020  require(!eventInstance.hasVoted[msg.sender], \"You have already voted.\") */\n      tag_117\n      jumpi\n      mload(0x40)\n      0x08c379a000000000000000000000000000000000000000000000000000000000\n      dup2\n      mstore\n      0x04\n      add\n      tag_118\n      swap1\n      tag_119\n      jump\t// in\n    tag_118:\n      mload(0x40)\n      dup1\n      swap2\n      sub\n      swap1\n      revert\n    tag_117:\n        /* \"d-app/Voting.sol\":2037:2045  _voteYes */\n      dup2\n        /* \"d-app/Voting.sol\":2033:2154  if (_voteYes) {... */\n      iszero\n      tag_120\n      jumpi\n        /* \"d-app/Voting.sol\":2062:2075  eventInstance */\n      dup1\n        /* \"d-app/Voting.sol\":2062:2084  eventInstance.yesVotes */\n      0x03\n      add\n      0x00\n        /* \"d-app/Voting.sol\":2062:2086  eventInstance.yesVotes++ */\n      dup2\n      sload\n      dup1\n      swap3\n      swap2\n      swap1\n      tag_121\n      swap1\n      tag_102\n      jump\t// in\n    tag_121:\n      swap2\n      swap1\n      pop\n      sstore\n      pop\n        /* \"d-app/Voting.sol\":2033:2154  if (_voteYes) {... */\n      jump(tag_122)\n    tag_120:\n        /* \"d-app/Voting.sol\":2119:2132  eventInstance */\n      dup1\n        /* \"d-app/Voting.sol\":2119:2140  eventInstance.noVotes */\n      0x04\n      add\n      0x00\n        /* \"d-app/Voting.sol\":2119:2142  eventInstance.noVotes++ */\n      dup2\n      sload\n      dup1\n      swap3\n      swap2\n      swap1\n      tag_123\n      swap1\n      tag_102\n      jump\t// in\n    tag_123:\n      swap2\n      swap1\n      pop\n      sstore\n      pop\n        /* \"d-app/Voting.sol\":2033:2154  if (_voteYes) {... */\n    tag_122:\n        /* \"d-app/Voting.sol\":2201:2205  true */\n      0x01\n        /* \"d-app/Voting.sol\":2164:2177  eventInstance */\n      dup2\n        /* \"d-app/Voting.sol\":2164:2186  eventInstance.hasVoted */\n      0x05\n      add\n        /* \"d-app/Voting.sol\":2164:2198  eventInstance.hasVoted[msg.sender] */\n      0x00\n        /* \"d-app/Voting.sol\":2187:2197  msg.sender */\n      caller\n        /* \"d-app/Voting.sol\":2164:2198  eventInstance.hasVoted[msg.sender] */\n      0xffffffffffffffffffffffffffffffffffffffff\n      and\n      0xffffffffffffffffffffffffffffffffffffffff\n      and\n      dup2\n      mstore\n      0x20\n      add\n      swap1\n      dup2\n      mstore\n      0x20\n      add\n      0x00\n      keccak256\n      0x00\n        /* \"d-app/Voting.sol\":2164:2205  eventInstance.hasVoted[msg.sender] = true */\n      0x0100\n      exp\n      dup2\n      sload\n      dup2\n      0xff\n      mul\n      not\n      and\n      swap1\n      dup4\n      iszero\n      iszero\n      mul\n      or\n      swap1\n      sstore\n      pop\n        /* \"d-app/Voting.sol\":1817:2213  {... */\n      pop\n        /* \"d-app/Voting.sol\":1756:2213  function vote(uint _eventId, bool _voteYes) public onlyVoter {... */\n      pop\n      pop\n      jump\t// out\n        /* \"#utility.yul\":7:82   */\n    tag_124:\n        /* \"#utility.yul\":40:46   */\n      0x00\n        /* \"#utility.yul\":73:75   */\n      0x40\n        /* \"#utility.yul\":67:76   */\n      mload\n        /* \"#utility.yul\":57:76   */\n      swap1\n      pop\n        /* \"#utility.yul\":7:82   */\n      swap1\n      jump\t// out\n        /* \"#utility.yul\":88:205   */\n    tag_125:\n        /* \"#utility.yul\":197:198   */\n      0x00\n        /* \"#utility.yul\":194:195   */\n      dup1\n        /* \"#utility.yul\":187:199   */\n      revert\n        /* \"#utility.yul\":211:328   */\n    tag_126:\n        /* \"#utility.yul\":320:321   */\n      0x00\n        /* \"#utility.yul\":317:318   */\n      dup1\n        /* \"#utility.yul\":310:322   */\n      revert\n        /* \"#utility.yul\":334:411   */\n    tag_127:\n        /* \"#utility.yul\":371:378   */\n      0x00\n        /* \"#utility.yul\":400:405   */\n      dup2\n        /* \"#utility.yul\":389:405   */\n      swap1\n      pop\n        /* \"#utility.yul\":334:411   */\n      swap2\n      swap1\n      pop\n      jump\t// out\n        /* \"#utility.yul\":417:539   */\n    tag_128:\n        /* \"#utility.yul\":490:514   */\n      tag_197\n        /* \"#utility.yul\":508:513   */\n      dup2\n        /* \"#utility.yul\":490:514   */\n      tag_127\n      jump\t// in\n    tag_197:\n        /* \"#utility.yul\":483:488   */\n      dup2\n        /* \"#utility.yul\":480:515   */\n      eq\n        /* \"#utility.yul\":470:533   */\n      tag_198\n      jumpi\n        /* \"#utility.yul\":529:530   */\n      0x00\n        /* \"#utility.yul\":526:527   */\n      dup1\n        /* \"#utility.yul\":519:531   */\n      revert\n        /* \"#utility.yul\":470:533   */\n    tag_198:\n        /* \"#utility.yul\":417:539   */\n      pop\n      jump\t// out\n        /* \"#utility.yul\":545:684   */\n    tag_129:\n        /* \"#utility.yul\":591:596   */\n      0x00\n        /* \"#utility.yul\":629:635   */\n      dup2\n        /* \"#utility.yul\":616:636   */\n      calldataload\n        /* \"#utility.yul\":607:636   */\n      swap1\n      pop\n        /* \"#utility.yul\":645:678   */\n      tag_200\n        /* \"#utility.yul\":672:677   */\n      dup2\n        /* \"#utility.yul\":645:678   */\n      tag_128\n      jump\t// in\n    tag_200:\n        /* \"#utility.yul\":545:684   */\n      swap3\n      swap2\n      pop\n      pop\n      jump\t// out\n        /* \"#utility.yul\":690:1019   */\n    tag_14:\n        /* \"#utility.yul\":749:755   */\n      0x00\n        /* \"#utility.yul\":798:800   */\n      0x20\n        /* \"#utility.yul\":786:795   */\n      dup3\n        /* \"#utility.yul\":777:784   */\n      dup5\n        /* \"#utility.yul\":773:796   */\n      sub\n        /* \"#utility.yul\":769:801   */\n      slt\n        /* \"#utility.yul\":766:885   */\n      iszero\n      tag_202\n      jumpi\n        /* \"#utility.yul\":804:883   */\n      tag_203\n      tag_125\n      jump\t// in\n    tag_203:\n        /* \"#utility.yul\":766:885   */\n    tag_202:\n        /* \"#utility.yul\":924:925   */\n      0x00\n        /* \"#utility.yul\":949:1002   */\n      tag_204\n        /* \"#utility.yul\":994:1001   */\n      dup5\n        /* \"#utility.yul\":985:991   */\n      dup3\n        /* \"#utility.yul\":974:983   */\n      dup6\n        /* \"#utility.yul\":970:992   */\n      add\n        /* \"#utility.yul\":949:1002   */\n      tag_129\n      jump\t// in\n    tag_204:\n        /* \"#utility.yul\":939:1002   */\n      swap2\n      pop\n        /* \"#utility.yul\":895:1012   */\n      pop\n        /* \"#utility.yul\":690:1019   */\n      swap3\n      swap2\n      pop\n      pop\n      jump\t// out\n        /* \"#utility.yul\":1025:1143   */\n    tag_130:\n        /* \"#utility.yul\":1112:1136   */\n      tag_206\n        /* \"#utility.yul\":1130:1135   */\n      dup2\n        /* \"#utility.yul\":1112:1136   */\n      tag_127\n      jump\t// in\n    tag_206:\n        /* \"#utility.yul\":1107:1110   */\n      dup3\n        /* \"#utility.yul\":1100:1137   */\n      mstore\n        /* \"#utility.yul\":1025:1143   */\n      pop\n      pop\n      jump\t// out\n        /* \"#utility.yul\":1149:1248   */\n    tag_131:\n        /* \"#utility.yul\":1201:1207   */\n      0x00\n        /* \"#utility.yul\":1235:1240   */\n      dup2\n        /* \"#utility.yul\":1229:1241   */\n      mload\n        /* \"#utility.yul\":1219:1241   */\n      swap1\n      pop\n        /* \"#utility.yul\":1149:1248   */\n      swap2\n      swap1\n      pop\n      jump\t// out\n        /* \"#utility.yul\":1254:1423   */\n    tag_132:\n        /* \"#utility.yul\":1338:1349   */\n      0x00\n        /* \"#utility.yul\":1372:1378   */\n      dup3\n        /* \"#utility.yul\":1367:1370   */\n      dup3\n        /* \"#utility.yul\":1360:1379   */\n      mstore\n        /* \"#utility.yul\":1412:1416   */\n      0x20\n        /* \"#utility.yul\":1407:1410   */\n      dup3\n        /* \"#utility.yul\":1403:1417   */\n      add\n        /* \"#utility.yul\":1388:1417   */\n      swap1\n      pop\n        /* \"#utility.yul\":1254:1423   */\n      swap3\n      swap2\n      pop\n      pop\n      jump\t// out\n        /* \"#utility.yul\":1429:1568   */\n    tag_133:\n        /* \"#utility.yul\":1518:1524   */\n      dup3\n        /* \"#utility.yul\":1513:1516   */\n      dup2\n        /* \"#utility.yul\":1508:1511   */\n      dup4\n        /* \"#utility.yul\":1502:1525   */\n      mcopy\n        /* \"#utility.yul\":1559:1560   */\n      0x00\n        /* \"#utility.yul\":1550:1556   */\n      dup4\n        /* \"#utility.yul\":1545:1548   */\n      dup4\n        /* \"#utility.yul\":1541:1557   */\n      add\n        /* \"#utility.yul\":1534:1561   */\n      mstore\n        /* \"#utility.yul\":1429:1568   */\n      pop\n      pop\n      pop\n      jump\t// out\n        /* \"#utility.yul\":1574:1676   */\n    tag_134:\n        /* \"#utility.yul\":1615:1621   */\n      0x00\n        /* \"#utility.yul\":1666:1668   */\n      0x1f\n        /* \"#utility.yul\":1662:1669   */\n      not\n        /* \"#utility.yul\":1657:1659   */\n      0x1f\n        /* \"#utility.yul\":1650:1655   */\n      dup4\n        /* \"#utility.yul\":1646:1660   */\n      add\n        /* \"#utility.yul\":1642:1670   */\n      and\n        /* \"#utility.yul\":1632:1670   */\n      swap1\n      pop\n        /* \"#utility.yul\":1574:1676   */\n      swap2\n      swap1\n      pop\n      jump\t// out\n        /* \"#utility.yul\":1682:2059   */\n    tag_135:\n        /* \"#utility.yul\":1770:1773   */\n      0x00\n        /* \"#utility.yul\":1798:1837   */\n      tag_212\n        /* \"#utility.yul\":1831:1836   */\n      dup3\n        /* \"#utility.yul\":1798:1837   */\n      tag_131\n      jump\t// in\n    tag_212:\n        /* \"#utility.yul\":1853:1924   */\n      tag_213\n        /* \"#utility.yul\":1917:1923   */\n      dup2\n        /* \"#utility.yul\":1912:1915   */\n      dup6\n        /* \"#utility.yul\":1853:1924   */\n      tag_132\n      jump\t// in\n    tag_213:\n        /* \"#utility.yul\":1846:1924   */\n      swap4\n      pop\n        /* \"#utility.yul\":1933:1998   */\n      tag_214\n        /* \"#utility.yul\":1991:1997   */\n      dup2\n        /* \"#utility.yul\":1986:1989   */\n      dup6\n        /* \"#utility.yul\":1979:1983   */\n      0x20\n        /* \"#utility.yul\":1972:1977   */\n      dup7\n        /* \"#utility.yul\":1968:1984   */\n      add\n        /* \"#utility.yul\":1933:1998   */\n      tag_133\n      jump\t// in\n    tag_214:\n        /* \"#utility.yul\":2023:2052   */\n      tag_215\n        /* \"#utility.yul\":2045:2051   */\n      dup2\n        /* \"#utility.yul\":2023:2052   */\n      tag_134\n      jump\t// in\n    tag_215:\n        /* \"#utility.yul\":2018:2021   */\n      dup5\n        /* \"#utility.yul\":2014:2053   */\n      add\n        /* \"#utility.yul\":2007:2053   */\n      swap2\n      pop\n        /* \"#utility.yul\":1774:2059   */\n      pop\n        /* \"#utility.yul\":1682:2059   */\n      swap3\n      swap2\n      pop\n      pop\n      jump\t// out\n        /* \"#utility.yul\":2065:2155   */\n    tag_136:\n        /* \"#utility.yul\":2099:2106   */\n      0x00\n        /* \"#utility.yul\":2142:2147   */\n      dup2\n        /* \"#utility.yul\":2135:2148   */\n      iszero\n        /* \"#utility.yul\":2128:2149   */\n      iszero\n        /* \"#utility.yul\":2117:2149   */\n      swap1\n      pop\n        /* \"#utility.yul\":2065:2155   */\n      swap2\n      swap1\n      pop\n      jump\t// out\n        /* \"#utility.yul\":2161:2270   */\n    tag_137:\n        /* \"#utility.yul\":2242:2263   */\n      tag_218\n        /* \"#utility.yul\":2257:2262   */\n      dup2\n        /* \"#utility.yul\":2242:2263   */\n      tag_136\n      jump\t// in\n    tag_218:\n        /* \"#utility.yul\":2237:2240   */\n      dup3\n        /* \"#utility.yul\":2230:2264   */\n      mstore\n        /* \"#utility.yul\":2161:2270   */\n      pop\n      pop\n      jump\t// out\n        /* \"#utility.yul\":2276:2402   */\n    tag_138:\n        /* \"#utility.yul\":2313:2320   */\n      0x00\n        /* \"#utility.yul\":2353:2395   */\n      0xffffffffffffffffffffffffffffffffffffffff\n        /* \"#utility.yul\":2346:2351   */\n      dup3\n        /* \"#utility.yul\":2342:2396   */\n      and\n        /* \"#utility.yul\":2331:2396   */\n      swap1\n      pop\n        /* \"#utility.yul\":2276:2402   */\n      swap2\n      swap1\n      pop\n      jump\t// out\n        /* \"#utility.yul\":2408:2504   */\n    tag_139:\n        /* \"#utility.yul\":2445:2452   */\n      0x00\n        /* \"#utility.yul\":2474:2498   */\n      tag_221\n        /* \"#utility.yul\":2492:2497   */\n      dup3\n        /* \"#utility.yul\":2474:2498   */\n      tag_138\n      jump\t// in\n    tag_221:\n        /* \"#utility.yul\":2463:2498   */\n      swap1\n      pop\n        /* \"#utility.yul\":2408:2504   */\n      swap2\n      swap1\n      pop\n      jump\t// out\n        /* \"#utility.yul\":2510:2628   */\n    tag_140:\n        /* \"#utility.yul\":2597:2621   */\n      tag_223\n        /* \"#utility.yul\":2615:2620   */\n      dup2\n        /* \"#utility.yul\":2597:2621   */\n      tag_139\n      jump\t// in\n    tag_223:\n        /* \"#utility.yul\":2592:2595   */\n      dup3\n        /* \"#utility.yul\":2585:2622   */\n      mstore\n        /* \"#utility.yul\":2510:2628   */\n      pop\n      pop\n      jump\t// out\n        /* \"#utility.yul\":2634:3488   */\n    tag_17:\n        /* \"#utility.yul\":2881:2885   */\n      0x00\n        /* \"#utility.yul\":2919:2922   */\n      0xc0\n        /* \"#utility.yul\":2908:2917   */\n      dup3\n        /* \"#utility.yul\":2904:2923   */\n      add\n        /* \"#utility.yul\":2896:2923   */\n      swap1\n      pop\n        /* \"#utility.yul\":2933:3004   */\n      tag_225\n        /* \"#utility.yul\":3001:3002   */\n      0x00\n        /* \"#utility.yul\":2990:2999   */\n      dup4\n        /* \"#utility.yul\":2986:3003   */\n      add\n        /* \"#utility.yul\":2977:2983   */\n      dup10\n        /* \"#utility.yul\":2933:3004   */\n      tag_130\n      jump\t// in\n    tag_225:\n        /* \"#utility.yul\":3051:3060   */\n      dup2\n        /* \"#utility.yul\":3045:3049   */\n      dup2\n        /* \"#utility.yul\":3041:3061   */\n      sub\n        /* \"#utility.yul\":3036:3038   */\n      0x20\n        /* \"#utility.yul\":3025:3034   */\n      dup4\n        /* \"#utility.yul\":3021:3039   */\n      add\n        /* \"#utility.yul\":3014:3062   */\n      mstore\n        /* \"#utility.yul\":3079:3157   */\n      tag_226\n        /* \"#utility.yul\":3152:3156   */\n      dup2\n        /* \"#utility.yul\":3143:3149   */\n      dup9\n        /* \"#utility.yul\":3079:3157   */\n      tag_135\n      jump\t// in\n    tag_226:\n        /* \"#utility.yul\":3071:3157   */\n      swap1\n      pop\n        /* \"#utility.yul\":3167:3233   */\n      tag_227\n        /* \"#utility.yul\":3229:3231   */\n      0x40\n        /* \"#utility.yul\":3218:3227   */\n      dup4\n        /* \"#utility.yul\":3214:3232   */\n      add\n        /* \"#utility.yul\":3205:3211   */\n      dup8\n        /* \"#utility.yul\":3167:3233   */\n      tag_137\n      jump\t// in\n    tag_227:\n        /* \"#utility.yul\":3243:3315   */\n      tag_228\n        /* \"#utility.yul\":3311:3313   */\n      0x60\n        /* \"#utility.yul\":3300:3309   */\n      dup4\n        /* \"#utility.yul\":3296:3314   */\n      add\n        /* \"#utility.yul\":3287:3293   */\n      dup7\n        /* \"#utility.yul\":3243:3315   */\n      tag_130\n      jump\t// in\n    tag_228:\n        /* \"#utility.yul\":3325:3398   */\n      tag_229\n        /* \"#utility.yul\":3393:3396   */\n      0x80\n        /* \"#utility.yul\":3382:3391   */\n      dup4\n        /* \"#utility.yul\":3378:3397   */\n      add\n        /* \"#utility.yul\":3369:3375   */\n      dup6\n        /* \"#utility.yul\":3325:3398   */\n      tag_130\n      jump\t// in\n    tag_229:\n        /* \"#utility.yul\":3408:3481   */\n      tag_230\n        /* \"#utility.yul\":3476:3479   */\n      0xa0\n        /* \"#utility.yul\":3465:3474   */\n      dup4\n        /* \"#utility.yul\":3461:3480   */\n      add\n        /* \"#utility.yul\":3452:3458   */\n      dup5\n        /* \"#utility.yul\":3408:3481   */\n      tag_140\n      jump\t// in\n    tag_230:\n        /* \"#utility.yul\":2634:3488   */\n      swap8\n      swap7\n      pop\n      pop\n      pop\n      pop\n      pop\n      pop\n      pop\n      jump\t// out\n        /* \"#utility.yul\":3494:3616   */\n    tag_141:\n        /* \"#utility.yul\":3567:3591   */\n      tag_232\n        /* \"#utility.yul\":3585:3590   */\n      dup2\n        /* \"#utility.yul\":3567:3591   */\n      tag_139\n      jump\t// in\n    tag_232:\n        /* \"#utility.yul\":3560:3565   */\n      dup2\n        /* \"#utility.yul\":3557:3592   */\n      eq\n        /* \"#utility.yul\":3547:3610   */\n      tag_233\n      jumpi\n        /* \"#utility.yul\":3606:3607   */\n      0x00\n        /* \"#utility.yul\":3603:3604   */\n      dup1\n        /* \"#utility.yul\":3596:3608   */\n      revert\n        /* \"#utility.yul\":3547:3610   */\n    tag_233:\n        /* \"#utility.yul\":3494:3616   */\n      pop\n      jump\t// out\n        /* \"#utility.yul\":3622:3761   */\n    tag_142:\n        /* \"#utility.yul\":3668:3673   */\n      0x00\n        /* \"#utility.yul\":3706:3712   */\n      dup2\n        /* \"#utility.yul\":3693:3713   */\n      calldataload\n        /* \"#utility.yul\":3684:3713   */\n      swap1\n      pop\n        /* \"#utility.yul\":3722:3755   */\n      tag_235\n        /* \"#utility.yul\":3749:3754   */\n      dup2\n        /* \"#utility.yul\":3722:3755   */\n      tag_141\n      jump\t// in\n    tag_235:\n        /* \"#utility.yul\":3622:3761   */\n      swap3\n      swap2\n      pop\n      pop\n      jump\t// out\n        /* \"#utility.yul\":3767:3872   */\n    tag_143:\n        /* \"#utility.yul\":3846:3847   */\n      0x03\n        /* \"#utility.yul\":3839:3844   */\n      dup2\n        /* \"#utility.yul\":3836:3848   */\n      lt\n        /* \"#utility.yul\":3826:3866   */\n      tag_237\n      jumpi\n        /* \"#utility.yul\":3862:3863   */\n      0x00\n        /* \"#utility.yul\":3859:3860   */\n      dup1\n        /* \"#utility.yul\":3852:3864   */\n      revert\n        /* \"#utility.yul\":3826:3866   */\n    tag_237:\n        /* \"#utility.yul\":3767:3872   */\n      pop\n      jump\t// out\n        /* \"#utility.yul\":3878:4029   */\n    tag_144:\n        /* \"#utility.yul\":3930:3935   */\n      0x00\n        /* \"#utility.yul\":3968:3974   */\n      dup2\n        /* \"#utility.yul\":3955:3975   */\n      calldataload\n        /* \"#utility.yul\":3946:3975   */\n      swap1\n      pop\n        /* \"#utility.yul\":3984:4023   */\n      tag_239\n        /* \"#utility.yul\":4017:4022   */\n      dup2\n        /* \"#utility.yul\":3984:4023   */\n      tag_143\n      jump\t// in\n    tag_239:\n        /* \"#utility.yul\":3878:4029   */\n      swap3\n      swap2\n      pop\n      pop\n      jump\t// out\n        /* \"#utility.yul\":4035:4521   */\n    tag_23:\n        /* \"#utility.yul\":4109:4115   */\n      0x00\n        /* \"#utility.yul\":4117:4123   */\n      dup1\n        /* \"#utility.yul\":4166:4168   */\n      0x40\n        /* \"#utility.yul\":4154:4163   */\n      dup4\n        /* \"#utility.yul\":4145:4152   */\n      dup6\n        /* \"#utility.yul\":4141:4164   */\n      sub\n        /* \"#utility.yul\":4137:4169   */\n      slt\n        /* \"#utility.yul\":4134:4253   */\n      iszero\n      tag_241\n      jumpi\n        /* \"#utility.yul\":4172:4251   */\n      tag_242\n      tag_125\n      jump\t// in\n    tag_242:\n        /* \"#utility.yul\":4134:4253   */\n    tag_241:\n        /* \"#utility.yul\":4292:4293   */\n      0x00\n        /* \"#utility.yul\":4317:4370   */\n      tag_243\n        /* \"#utility.yul\":4362:4369   */\n      dup6\n        /* \"#utility.yul\":4353:4359   */\n      dup3\n        /* \"#utility.yul\":4342:4351   */\n      dup7\n        /* \"#utility.yul\":4338:4360   */\n      add\n        /* \"#utility.yul\":4317:4370   */\n      tag_142\n      jump\t// in\n    tag_243:\n        /* \"#utility.yul\":4307:4370   */\n      swap3\n      pop\n        /* \"#utility.yul\":4263:4380   */\n      pop\n        /* \"#utility.yul\":4419:4421   */\n      0x20\n        /* \"#utility.yul\":4445:4504   */\n      tag_244\n        /* \"#utility.yul\":4496:4503   */\n      dup6\n        /* \"#utility.yul\":4487:4493   */\n      dup3\n        /* \"#utility.yul\":4476:4485   */\n      dup7\n        /* \"#utility.yul\":4472:4494   */\n      add\n        /* \"#utility.yul\":4445:4504   */\n      tag_144\n      jump\t// in\n    tag_244:\n        /* \"#utility.yul\":4435:4504   */\n      swap2\n      pop\n        /* \"#utility.yul\":4390:4514   */\n      pop\n        /* \"#utility.yul\":4035:4521   */\n      swap3\n      pop\n      swap3\n      swap1\n      pop\n      jump\t// out\n        /* \"#utility.yul\":4527:4749   */\n    tag_28:\n        /* \"#utility.yul\":4620:4624   */\n      0x00\n        /* \"#utility.yul\":4658:4660   */\n      0x20\n        /* \"#utility.yul\":4647:4656   */\n      dup3\n        /* \"#utility.yul\":4643:4661   */\n      add\n        /* \"#utility.yul\":4635:4661   */\n      swap1\n      pop\n        /* \"#utility.yul\":4671:4742   */\n      tag_246\n        /* \"#utility.yul\":4739:4740   */\n      0x00\n        /* \"#utility.yul\":4728:4737   */\n      dup4\n        /* \"#utility.yul\":4724:4741   */\n      add\n        /* \"#utility.yul\":4715:4721   */\n      dup5\n        /* \"#utility.yul\":4671:4742   */\n      tag_130\n      jump\t// in\n    tag_246:\n        /* \"#utility.yul\":4527:4749   */\n      swap3\n      swap2\n      pop\n      pop\n      jump\t// out\n        /* \"#utility.yul\":4755:5288   */\n    tag_33:\n        /* \"#utility.yul\":4924:4928   */\n      0x00\n        /* \"#utility.yul\":4962:4964   */\n      0x60\n        /* \"#utility.yul\":4951:4960   */\n      dup3\n        /* \"#utility.yul\":4947:4965   */\n      add\n        /* \"#utility.yul\":4939:4965   */\n      swap1\n      pop\n        /* \"#utility.yul\":5011:5020   */\n      dup2\n        /* \"#utility.yul\":5005:5009   */\n      dup2\n        /* \"#utility.yul\":5001:5021   */\n      sub\n        /* \"#utility.yul\":4997:4998   */\n      0x00\n        /* \"#utility.yul\":4986:4995   */\n      dup4\n        /* \"#utility.yul\":4982:4999   */\n      add\n        /* \"#utility.yul\":4975:5022   */\n      mstore\n        /* \"#utility.yul\":5039:5117   */\n      tag_248\n        /* \"#utility.yul\":5112:5116   */\n      dup2\n        /* \"#utility.yul\":5103:5109   */\n      dup7\n        /* \"#utility.yul\":5039:5117   */\n      tag_135\n      jump\t// in\n    tag_248:\n        /* \"#utility.yul\":5031:5117   */\n      swap1\n      pop\n        /* \"#utility.yul\":5127:5199   */\n      tag_249\n        /* \"#utility.yul\":5195:5197   */\n      0x20\n        /* \"#utility.yul\":5184:5193   */\n      dup4\n        /* \"#utility.yul\":5180:5198   */\n      add\n        /* \"#utility.yul\":5171:5177   */\n      dup6\n        /* \"#utility.yul\":5127:5199   */\n      tag_130\n      jump\t// in\n    tag_249:\n        /* \"#utility.yul\":5209:5281   */\n      tag_250\n        /* \"#utility.yul\":5277:5279   */\n      0x40\n        /* \"#utility.yul\":5266:5275   */\n      dup4\n        /* \"#utility.yul\":5262:5280   */\n      add\n        /* \"#utility.yul\":5253:5259   */\n      dup5\n        /* \"#utility.yul\":5209:5281   */\n      tag_130\n      jump\t// in\n    tag_250:\n        /* \"#utility.yul\":4755:5288   */\n      swap5\n      swap4\n      pop\n      pop\n      pop\n      pop\n      jump\t// out\n        /* \"#utility.yul\":5294:5623   */\n    tag_36:\n        /* \"#utility.yul\":5353:5359   */\n      0x00\n        /* \"#utility.yul\":5402:5404   */\n      0x20\n        /* \"#utility.yul\":5390:5399   */\n      dup3\n        /* \"#utility.yul\":5381:5388   */\n      dup5\n        /* \"#utility.yul\":5377:5400   */\n      sub\n        /* \"#utility.yul\":5373:5405   */\n      slt\n        /* \"#utility.yul\":5370:5489   */\n      iszero\n      tag_252\n      jumpi\n        /* \"#utility.yul\":5408:5487   */\n      tag_253\n      tag_125\n      jump\t// in\n    tag_253:\n        /* \"#utility.yul\":5370:5489   */\n    tag_252:\n        /* \"#utility.yul\":5528:5529   */\n      0x00\n        /* \"#utility.yul\":5553:5606   */\n      tag_254\n        /* \"#utility.yul\":5598:5605   */\n      dup5\n        /* \"#utility.yul\":5589:5595   */\n      dup3\n        /* \"#utility.yul\":5578:5587   */\n      dup6\n        /* \"#utility.yul\":5574:5596   */\n      add\n        /* \"#utility.yul\":5553:5606   */\n      tag_142\n      jump\t// in\n    tag_254:\n        /* \"#utility.yul\":5543:5606   */\n      swap2\n      pop\n        /* \"#utility.yul\":5499:5616   */\n      pop\n        /* \"#utility.yul\":5294:5623   */\n      swap3\n      swap2\n      pop\n      pop\n      jump\t// out\n        /* \"#utility.yul\":5629:5809   */\n    tag_57:\n        /* \"#utility.yul\":5677:5754   */\n      0x4e487b7100000000000000000000000000000000000000000000000000000000\n        /* \"#utility.yul\":5674:5675   */\n      0x00\n        /* \"#utility.yul\":5667:5755   */\n      mstore\n        /* \"#utility.yul\":5774:5778   */\n      0x21\n        /* \"#utility.yul\":5771:5772   */\n      0x04\n        /* \"#utility.yul\":5764:5779   */\n      mstore\n        /* \"#utility.yul\":5798:5802   */\n      0x24\n        /* \"#utility.yul\":5795:5796   */\n      0x00\n        /* \"#utility.yul\":5788:5803   */\n      revert\n        /* \"#utility.yul\":5815:5926   */\n    tag_145:\n        /* \"#utility.yul\":5894:5895   */\n      0x03\n        /* \"#utility.yul\":5887:5892   */\n      dup2\n        /* \"#utility.yul\":5884:5896   */\n      lt\n        /* \"#utility.yul\":5874:5920   */\n      tag_257\n      jumpi\n        /* \"#utility.yul\":5900:5918   */\n      tag_258\n      tag_57\n      jump\t// in\n    tag_258:\n        /* \"#utility.yul\":5874:5920   */\n    tag_257:\n        /* \"#utility.yul\":5815:5926   */\n      pop\n      jump\t// out\n        /* \"#utility.yul\":5932:6055   */\n    tag_146:\n        /* \"#utility.yul\":5975:5982   */\n      0x00\n        /* \"#utility.yul\":6004:6009   */\n      dup2\n        /* \"#utility.yul\":5993:6009   */\n      swap1\n      pop\n        /* \"#utility.yul\":6010:6049   */\n      tag_260\n        /* \"#utility.yul\":6043:6048   */\n      dup3\n        /* \"#utility.yul\":6010:6049   */\n      tag_145\n      jump\t// in\n    tag_260:\n        /* \"#utility.yul\":5932:6055   */\n      swap2\n      swap1\n      pop\n      jump\t// out\n        /* \"#utility.yul\":6061:6184   */\n    tag_147:\n        /* \"#utility.yul\":6115:6124   */\n      0x00\n        /* \"#utility.yul\":6148:6178   */\n      tag_262\n        /* \"#utility.yul\":6172:6177   */\n      dup3\n        /* \"#utility.yul\":6148:6178   */\n      tag_146\n      jump\t// in\n    tag_262:\n        /* \"#utility.yul\":6135:6178   */\n      swap1\n      pop\n        /* \"#utility.yul\":6061:6184   */\n      swap2\n      swap1\n      pop\n      jump\t// out\n        /* \"#utility.yul\":6190:6329   */\n    tag_148:\n        /* \"#utility.yul\":6281:6322   */\n      tag_264\n        /* \"#utility.yul\":6316:6321   */\n      dup2\n        /* \"#utility.yul\":6281:6322   */\n      tag_147\n      jump\t// in\n    tag_264:\n        /* \"#utility.yul\":6276:6279   */\n      dup3\n        /* \"#utility.yul\":6269:6323   */\n      mstore\n        /* \"#utility.yul\":6190:6329   */\n      pop\n      pop\n      jump\t// out\n        /* \"#utility.yul\":6335:6565   */\n    tag_39:\n        /* \"#utility.yul\":6432:6436   */\n      0x00\n        /* \"#utility.yul\":6470:6472   */\n      0x20\n        /* \"#utility.yul\":6459:6468   */\n      dup3\n        /* \"#utility.yul\":6455:6473   */\n      add\n        /* \"#utility.yul\":6447:6473   */\n      swap1\n      pop\n        /* \"#utility.yul\":6483:6558   */\n      tag_266\n        /* \"#utility.yul\":6555:6556   */\n      0x00\n        /* \"#utility.yul\":6544:6553   */\n      dup4\n        /* \"#utility.yul\":6540:6557   */\n      add\n        /* \"#utility.yul\":6531:6537   */\n      dup5\n        /* \"#utility.yul\":6483:6558   */\n      tag_148\n      jump\t// in\n    tag_266:\n        /* \"#utility.yul\":6335:6565   */\n      swap3\n      swap2\n      pop\n      pop\n      jump\t// out\n        /* \"#utility.yul\":6571:6688   */\n    tag_149:\n        /* \"#utility.yul\":6680:6681   */\n      0x00\n        /* \"#utility.yul\":6677:6678   */\n      dup1\n        /* \"#utility.yul\":6670:6682   */\n      revert\n        /* \"#utility.yul\":6694:6811   */\n    tag_150:\n        /* \"#utility.yul\":6803:6804   */\n      0x00\n        /* \"#utility.yul\":6800:6801   */\n      dup1\n        /* \"#utility.yul\":6793:6805   */\n      revert\n        /* \"#utility.yul\":6817:6997   */\n    tag_151:\n        /* \"#utility.yul\":6865:6942   */\n      0x4e487b7100000000000000000000000000000000000000000000000000000000\n        /* \"#utility.yul\":6862:6863   */\n      0x00\n        /* \"#utility.yul\":6855:6943   */\n      mstore\n        /* \"#utility.yul\":6962:6966   */\n      0x41\n        /* \"#utility.yul\":6959:6960   */\n      0x04\n        /* \"#utility.yul\":6952:6967   */\n      mstore\n        /* \"#utility.yul\":6986:6990   */\n      0x24\n        /* \"#utility.yul\":6983:6984   */\n      0x00\n        /* \"#utility.yul\":6976:6991   */\n      revert\n        /* \"#utility.yul\":7003:7284   */\n    tag_152:\n        /* \"#utility.yul\":7086:7113   */\n      tag_271\n        /* \"#utility.yul\":7108:7112   */\n      dup3\n        /* \"#utility.yul\":7086:7113   */\n      tag_134\n      jump\t// in\n    tag_271:\n        /* \"#utility.yul\":7078:7084   */\n      dup2\n        /* \"#utility.yul\":7074:7114   */\n      add\n        /* \"#utility.yul\":7216:7222   */\n      dup2\n        /* \"#utility.yul\":7204:7214   */\n      dup2\n        /* \"#utility.yul\":7201:7223   */\n      lt\n        /* \"#utility.yul\":7180:7198   */\n      0xffffffffffffffff\n        /* \"#utility.yul\":7168:7178   */\n      dup3\n        /* \"#utility.yul\":7165:7199   */\n      gt\n        /* \"#utility.yul\":7162:7224   */\n      or\n        /* \"#utility.yul\":7159:7247   */\n      iszero\n      tag_272\n      jumpi\n        /* \"#utility.yul\":7227:7245   */\n      tag_273\n      tag_151\n      jump\t// in\n    tag_273:\n        /* \"#utility.yul\":7159:7247   */\n    tag_272:\n        /* \"#utility.yul\":7267:7277   */\n      dup1\n        /* \"#utility.yul\":7263:7265   */\n      0x40\n        /* \"#utility.yul\":7256:7278   */\n      mstore\n        /* \"#utility.yul\":7046:7284   */\n      pop\n        /* \"#utility.yul\":7003:7284   */\n      pop\n      pop\n      jump\t// out\n        /* \"#utility.yul\":7290:7419   */\n    tag_153:\n        /* \"#utility.yul\":7324:7330   */\n      0x00\n        /* \"#utility.yul\":7351:7371   */\n      tag_275\n      tag_124\n      jump\t// in\n    tag_275:\n        /* \"#utility.yul\":7341:7371   */\n      swap1\n      pop\n        /* \"#utility.yul\":7380:7413   */\n      tag_276\n        /* \"#utility.yul\":7408:7412   */\n      dup3\n        /* \"#utility.yul\":7400:7406   */\n      dup3\n        /* \"#utility.yul\":7380:7413   */\n      tag_152\n      jump\t// in\n    tag_276:\n        /* \"#utility.yul\":7290:7419   */\n      swap2\n      swap1\n      pop\n      jump\t// out\n        /* \"#utility.yul\":7425:7733   */\n    tag_154:\n        /* \"#utility.yul\":7487:7491   */\n      0x00\n        /* \"#utility.yul\":7577:7595   */\n      0xffffffffffffffff\n        /* \"#utility.yul\":7569:7575   */\n      dup3\n        /* \"#utility.yul\":7566:7596   */\n      gt\n        /* \"#utility.yul\":7563:7619   */\n      iszero\n      tag_278\n      jumpi\n        /* \"#utility.yul\":7599:7617   */\n      tag_279\n      tag_151\n      jump\t// in\n    tag_279:\n        /* \"#utility.yul\":7563:7619   */\n    tag_278:\n        /* \"#utility.yul\":7637:7666   */\n      tag_280\n        /* \"#utility.yul\":7659:7665   */\n      dup3\n        /* \"#utility.yul\":7637:7666   */\n      tag_134\n      jump\t// in\n    tag_280:\n        /* \"#utility.yul\":7629:7666   */\n      swap1\n      pop\n        /* \"#utility.yul\":7721:7725   */\n      0x20\n        /* \"#utility.yul\":7715:7719   */\n      dup2\n        /* \"#utility.yul\":7711:7726   */\n      add\n        /* \"#utility.yul\":7703:7726   */\n      swap1\n      pop\n        /* \"#utility.yul\":7425:7733   */\n      swap2\n      swap1\n      pop\n      jump\t// out\n        /* \"#utility.yul\":7739:7887   */\n    tag_155:\n        /* \"#utility.yul\":7837:7843   */\n      dup3\n        /* \"#utility.yul\":7832:7835   */\n      dup2\n        /* \"#utility.yul\":7827:7830   */\n      dup4\n        /* \"#utility.yul\":7814:7844   */\n      calldatacopy\n        /* \"#utility.yul\":7878:7879   */\n      0x00\n        /* \"#utility.yul\":7869:7875   */\n      dup4\n        /* \"#utility.yul\":7864:7867   */\n      dup4\n        /* \"#utility.yul\":7860:7876   */\n      add\n        /* \"#utility.yul\":7853:7880   */\n      mstore\n        /* \"#utility.yul\":7739:7887   */\n      pop\n      pop\n      pop\n      jump\t// out\n        /* \"#utility.yul\":7893:8318   */\n    tag_156:\n        /* \"#utility.yul\":7971:7976   */\n      0x00\n        /* \"#utility.yul\":7996:8062   */\n      tag_283\n        /* \"#utility.yul\":8012:8061   */\n      tag_284\n        /* \"#utility.yul\":8054:8060   */\n      dup5\n        /* \"#utility.yul\":8012:8061   */\n      tag_154\n      jump\t// in\n    tag_284:\n        /* \"#utility.yul\":7996:8062   */\n      tag_153\n      jump\t// in\n    tag_283:\n        /* \"#utility.yul\":7987:8062   */\n      swap1\n      pop\n        /* \"#utility.yul\":8085:8091   */\n      dup3\n        /* \"#utility.yul\":8078:8083   */\n      dup2\n        /* \"#utility.yul\":8071:8092   */\n      mstore\n        /* \"#utility.yul\":8123:8127   */\n      0x20\n        /* \"#utility.yul\":8116:8121   */\n      dup2\n        /* \"#utility.yul\":8112:8128   */\n      add\n        /* \"#utility.yul\":8161:8164   */\n      dup5\n        /* \"#utility.yul\":8152:8158   */\n      dup5\n        /* \"#utility.yul\":8147:8150   */\n      dup5\n        /* \"#utility.yul\":8143:8159   */\n      add\n        /* \"#utility.yul\":8140:8165   */\n      gt\n        /* \"#utility.yul\":8137:8249   */\n      iszero\n      tag_285\n      jumpi\n        /* \"#utility.yul\":8168:8247   */\n      tag_286\n      tag_150\n      jump\t// in\n    tag_286:\n        /* \"#utility.yul\":8137:8249   */\n    tag_285:\n        /* \"#utility.yul\":8258:8312   */\n      tag_287\n        /* \"#utility.yul\":8305:8311   */\n      dup5\n        /* \"#utility.yul\":8300:8303   */\n      dup3\n        /* \"#utility.yul\":8295:8298   */\n      dup6\n        /* \"#utility.yul\":8258:8312   */\n      tag_155\n      jump\t// in\n    tag_287:\n        /* \"#utility.yul\":7977:8318   */\n      pop\n        /* \"#utility.yul\":7893:8318   */\n      swap4\n      swap3\n      pop\n      pop\n      pop\n      jump\t// out\n        /* \"#utility.yul\":8338:8678   */\n    tag_157:\n        /* \"#utility.yul\":8394:8399   */\n      0x00\n        /* \"#utility.yul\":8443:8446   */\n      dup3\n        /* \"#utility.yul\":8436:8440   */\n      0x1f\n        /* \"#utility.yul\":8428:8434   */\n      dup4\n        /* \"#utility.yul\":8424:8441   */\n      add\n        /* \"#utility.yul\":8420:8447   */\n      slt\n        /* \"#utility.yul\":8410:8532   */\n      tag_289\n      jumpi\n        /* \"#utility.yul\":8451:8530   */\n      tag_290\n      tag_149\n      jump\t// in\n    tag_290:\n        /* \"#utility.yul\":8410:8532   */\n    tag_289:\n        /* \"#utility.yul\":8568:8574   */\n      dup2\n        /* \"#utility.yul\":8555:8575   */\n      calldataload\n        /* \"#utility.yul\":8593:8672   */\n      tag_291\n        /* \"#utility.yul\":8668:8671   */\n      dup5\n        /* \"#utility.yul\":8660:8666   */\n      dup3\n        /* \"#utility.yul\":8653:8657   */\n      0x20\n        /* \"#utility.yul\":8645:8651   */\n      dup7\n        /* \"#utility.yul\":8641:8658   */\n      add\n        /* \"#utility.yul\":8593:8672   */\n      tag_156\n      jump\t// in\n    tag_291:\n        /* \"#utility.yul\":8584:8672   */\n      swap2\n      pop\n        /* \"#utility.yul\":8400:8678   */\n      pop\n        /* \"#utility.yul\":8338:8678   */\n      swap3\n      swap2\n      pop\n      pop\n      jump\t// out\n        /* \"#utility.yul\":8684:9193   */\n    tag_42:\n        /* \"#utility.yul\":8753:8759   */\n      0x00\n        /* \"#utility.yul\":8802:8804   */\n      0x20\n        /* \"#utility.yul\":8790:8799   */\n      dup3\n        /* \"#utility.yul\":8781:8788   */\n      dup5\n        /* \"#utility.yul\":8777:8800   */\n      sub\n        /* \"#utility.yul\":8773:8805   */\n      slt\n        /* \"#utility.yul\":8770:8889   */\n      iszero\n      tag_293\n      jumpi\n        /* \"#utility.yul\":8808:8887   */\n      tag_294\n      tag_125\n      jump\t// in\n    tag_294:\n        /* \"#utility.yul\":8770:8889   */\n    tag_293:\n        /* \"#utility.yul\":8956:8957   */\n      0x00\n        /* \"#utility.yul\":8945:8954   */\n      dup3\n        /* \"#utility.yul\":8941:8958   */\n      add\n        /* \"#utility.yul\":8928:8959   */\n      calldataload\n        /* \"#utility.yul\":8986:9004   */\n      0xffffffffffffffff\n        /* \"#utility.yul\":8978:8984   */\n      dup2\n        /* \"#utility.yul\":8975:9005   */\n      gt\n        /* \"#utility.yul\":8972:9089   */\n      iszero\n      tag_295\n      jumpi\n        /* \"#utility.yul\":9008:9087   */\n      tag_296\n      tag_126\n      jump\t// in\n    tag_296:\n        /* \"#utility.yul\":8972:9089   */\n    tag_295:\n        /* \"#utility.yul\":9113:9176   */\n      tag_297\n        /* \"#utility.yul\":9168:9175   */\n      dup5\n        /* \"#utility.yul\":9159:9165   */\n      dup3\n        /* \"#utility.yul\":9148:9157   */\n      dup6\n        /* \"#utility.yul\":9144:9166   */\n      add\n        /* \"#utility.yul\":9113:9176   */\n      tag_157\n      jump\t// in\n    tag_297:\n        /* \"#utility.yul\":9103:9176   */\n      swap2\n      pop\n        /* \"#utility.yul\":8899:9186   */\n      pop\n        /* \"#utility.yul\":8684:9193   */\n      swap3\n      swap2\n      pop\n      pop\n      jump\t// out\n        /* \"#utility.yul\":9199:9315   */\n    tag_158:\n        /* \"#utility.yul\":9269:9290   */\n      tag_299\n        /* \"#utility.yul\":9284:9289   */\n      dup2\n        /* \"#utility.yul\":9269:9290   */\n      tag_136\n      jump\t// in\n    tag_299:\n        /* \"#utility.yul\":9262:9267   */\n      dup2\n        /* \"#utility.yul\":9259:9291   */\n      eq\n        /* \"#utility.yul\":9249:9309   */\n      tag_300\n      jumpi\n        /* \"#utility.yul\":9305:9306   */\n      0x00\n        /* \"#utility.yul\":9302:9303   */\n      dup1\n        /* \"#utility.yul\":9295:9307   */\n      revert\n        /* \"#utility.yul\":9249:9309   */\n    tag_300:\n        /* \"#utility.yul\":9199:9315   */\n      pop\n      jump\t// out\n        /* \"#utility.yul\":9321:9454   */\n    tag_159:\n        /* \"#utility.yul\":9364:9369   */\n      0x00\n        /* \"#utility.yul\":9402:9408   */\n      dup2\n        /* \"#utility.yul\":9389:9409   */\n      calldataload\n        /* \"#utility.yul\":9380:9409   */\n      swap1\n      pop\n        /* \"#utility.yul\":9418:9448   */\n      tag_302\n        /* \"#utility.yul\":9442:9447   */\n      dup2\n        /* \"#utility.yul\":9418:9448   */\n      tag_158\n      jump\t// in\n    tag_302:\n        /* \"#utility.yul\":9321:9454   */\n      swap3\n      swap2\n      pop\n      pop\n      jump\t// out\n        /* \"#utility.yul\":9460:9928   */\n    tag_46:\n        /* \"#utility.yul\":9525:9531   */\n      0x00\n        /* \"#utility.yul\":9533:9539   */\n      dup1\n        /* \"#utility.yul\":9582:9584   */\n      0x40\n        /* \"#utility.yul\":9570:9579   */\n      dup4\n        /* \"#utility.yul\":9561:9568   */\n      dup6\n        /* \"#utility.yul\":9557:9580   */\n      sub\n        /* \"#utility.yul\":9553:9585   */\n      slt\n        /* \"#utility.yul\":9550:9669   */\n      iszero\n      tag_304\n      jumpi\n        /* \"#utility.yul\":9588:9667   */\n      tag_305\n      tag_125\n      jump\t// in\n    tag_305:\n        /* \"#utility.yul\":9550:9669   */\n    tag_304:\n        /* \"#utility.yul\":9708:9709   */\n      0x00\n        /* \"#utility.yul\":9733:9786   */\n      tag_306\n        /* \"#utility.yul\":9778:9785   */\n      dup6\n        /* \"#utility.yul\":9769:9775   */\n      dup3\n        /* \"#utility.yul\":9758:9767   */\n      dup7\n        /* \"#utility.yul\":9754:9776   */\n      add\n        /* \"#utility.yul\":9733:9786   */\n      tag_129\n      jump\t// in\n    tag_306:\n        /* \"#utility.yul\":9723:9786   */\n      swap3\n      pop\n        /* \"#utility.yul\":9679:9796   */\n      pop\n        /* \"#utility.yul\":9835:9837   */\n      0x20\n        /* \"#utility.yul\":9861:9911   */\n      tag_307\n        /* \"#utility.yul\":9903:9910   */\n      dup6\n        /* \"#utility.yul\":9894:9900   */\n      dup3\n        /* \"#utility.yul\":9883:9892   */\n      dup7\n        /* \"#utility.yul\":9879:9901   */\n      add\n        /* \"#utility.yul\":9861:9911   */\n      tag_159\n      jump\t// in\n    tag_307:\n        /* \"#utility.yul\":9851:9911   */\n      swap2\n      pop\n        /* \"#utility.yul\":9806:9921   */\n      pop\n        /* \"#utility.yul\":9460:9928   */\n      swap3\n      pop\n      swap3\n      swap1\n      pop\n      jump\t// out\n        /* \"#utility.yul\":9934:10114   */\n    tag_160:\n        /* \"#utility.yul\":9982:10059   */\n      0x4e487b7100000000000000000000000000000000000000000000000000000000\n        /* \"#utility.yul\":9979:9980   */\n      0x00\n        /* \"#utility.yul\":9972:10060   */\n      mstore\n        /* \"#utility.yul\":10079:10083   */\n      0x22\n        /* \"#utility.yul\":10076:10077   */\n      0x04\n        /* \"#utility.yul\":10069:10084   */\n      mstore\n        /* \"#utility.yul\":10103:10107   */\n      0x24\n        /* \"#utility.yul\":10100:10101   */\n      0x00\n        /* \"#utility.yul\":10093:10108   */\n      revert\n        /* \"#utility.yul\":10120:10440   */\n    tag_49:\n        /* \"#utility.yul\":10164:10170   */\n      0x00\n        /* \"#utility.yul\":10201:10202   */\n      0x02\n        /* \"#utility.yul\":10195:10199   */\n      dup3\n        /* \"#utility.yul\":10191:10203   */\n      div\n        /* \"#utility.yul\":10181:10203   */\n      swap1\n      pop\n        /* \"#utility.yul\":10248:10249   */\n      0x01\n        /* \"#utility.yul\":10242:10246   */\n      dup3\n        /* \"#utility.yul\":10238:10250   */\n      and\n        /* \"#utility.yul\":10269:10287   */\n      dup1\n        /* \"#utility.yul\":10259:10340   */\n      tag_310\n      jumpi\n        /* \"#utility.yul\":10325:10329   */\n      0x7f\n        /* \"#utility.yul\":10317:10323   */\n      dup3\n        /* \"#utility.yul\":10313:10330   */\n      and\n        /* \"#utility.yul\":10303:10330   */\n      swap2\n      pop\n        /* \"#utility.yul\":10259:10340   */\n    tag_310:\n        /* \"#utility.yul\":10387:10389   */\n      0x20\n        /* \"#utility.yul\":10379:10385   */\n      dup3\n        /* \"#utility.yul\":10376:10390   */\n      lt\n        /* \"#utility.yul\":10356:10374   */\n      dup2\n        /* \"#utility.yul\":10353:10391   */\n      sub\n        /* \"#utility.yul\":10350:10434   */\n      tag_311\n      jumpi\n        /* \"#utility.yul\":10406:10424   */\n      tag_312\n      tag_160\n      jump\t// in\n    tag_312:\n        /* \"#utility.yul\":10350:10434   */\n    tag_311:\n        /* \"#utility.yul\":10171:10440   */\n      pop\n        /* \"#utility.yul\":10120:10440   */\n      swap2\n      swap1\n      pop\n      jump\t// out\n        /* \"#utility.yul\":10446:10621   */\n    tag_161:\n        /* \"#utility.yul\":10586:10613   */\n      0x596f7520617265206e6f7420616e206f7267616e697a65722e00000000000000\n        /* \"#utility.yul\":10582:10583   */\n      0x00\n        /* \"#utility.yul\":10574:10580   */\n      dup3\n        /* \"#utility.yul\":10570:10584   */\n      add\n        /* \"#utility.yul\":10563:10614   */\n      mstore\n        /* \"#utility.yul\":10446:10621   */\n      pop\n      jump\t// out\n        /* \"#utility.yul\":10627:10993   */\n    tag_162:\n        /* \"#utility.yul\":10769:10772   */\n      0x00\n        /* \"#utility.yul\":10790:10857   */\n      tag_315\n        /* \"#utility.yul\":10854:10856   */\n      0x19\n        /* \"#utility.yul\":10849:10852   */\n      dup4\n        /* \"#utility.yul\":10790:10857   */\n      tag_132\n      jump\t// in\n    tag_315:\n        /* \"#utility.yul\":10783:10857   */\n      swap2\n      pop\n        /* \"#utility.yul\":10866:10959   */\n      tag_316\n        /* \"#utility.yul\":10955:10958   */\n      dup3\n        /* \"#utility.yul\":10866:10959   */\n      tag_161\n      jump\t// in\n    tag_316:\n        /* \"#utility.yul\":10984:10986   */\n      0x20\n        /* \"#utility.yul\":10979:10982   */\n      dup3\n        /* \"#utility.yul\":10975:10987   */\n      add\n        /* \"#utility.yul\":10968:10987   */\n      swap1\n      pop\n        /* \"#utility.yul\":10627:10993   */\n      swap2\n      swap1\n      pop\n      jump\t// out\n        /* \"#utility.yul\":10999:11418   */\n    tag_62:\n        /* \"#utility.yul\":11165:11169   */\n      0x00\n        /* \"#utility.yul\":11203:11205   */\n      0x20\n        /* \"#utility.yul\":11192:11201   */\n      dup3\n        /* \"#utility.yul\":11188:11206   */\n      add\n        /* \"#utility.yul\":11180:11206   */\n      swap1\n      pop\n        /* \"#utility.yul\":11252:11261   */\n      dup2\n        /* \"#utility.yul\":11246:11250   */\n      dup2\n        /* \"#utility.yul\":11242:11262   */\n      sub\n        /* \"#utility.yul\":11238:11239   */\n      0x00\n        /* \"#utility.yul\":11227:11236   */\n      dup4\n        /* \"#utility.yul\":11223:11240   */\n      add\n        /* \"#utility.yul\":11216:11263   */\n      mstore\n        /* \"#utility.yul\":11280:11411   */\n      tag_318\n        /* \"#utility.yul\":11406:11410   */\n      dup2\n        /* \"#utility.yul\":11280:11411   */\n      tag_162\n      jump\t// in\n    tag_318:\n        /* \"#utility.yul\":11272:11411   */\n      swap1\n      pop\n        /* \"#utility.yul\":10999:11418   */\n      swap2\n      swap1\n      pop\n      jump\t// out\n        /* \"#utility.yul\":11424:11649   */\n    tag_163:\n        /* \"#utility.yul\":11564:11598   */\n      0x4f6e6c7920746865206f7267616e697a65722063616e20656e64207468697320\n        /* \"#utility.yul\":11560:11561   */\n      0x00\n        /* \"#utility.yul\":11552:11558   */\n      dup3\n        /* \"#utility.yul\":11548:11562   */\n      add\n        /* \"#utility.yul\":11541:11599   */\n      mstore\n        /* \"#utility.yul\":11633:11641   */\n      0x6576656e742e0000000000000000000000000000000000000000000000000000\n        /* \"#utility.yul\":11628:11630   */\n      0x20\n        /* \"#utility.yul\":11620:11626   */\n      dup3\n        /* \"#utility.yul\":11616:11631   */\n      add\n        /* \"#utility.yul\":11609:11642   */\n      mstore\n        /* \"#utility.yul\":11424:11649   */\n      pop\n      jump\t// out\n        /* \"#utility.yul\":11655:12021   */\n    tag_164:\n        /* \"#utility.yul\":11797:11800   */\n      0x00\n        /* \"#utility.yul\":11818:11885   */\n      tag_321\n        /* \"#utility.yul\":11882:11884   */\n      0x26\n        /* \"#utility.yul\":11877:11880   */\n      dup4\n        /* \"#utility.yul\":11818:11885   */\n      tag_132\n      jump\t// in\n    tag_321:\n        /* \"#utility.yul\":11811:11885   */\n      swap2\n      pop\n        /* \"#utility.yul\":11894:11987   */\n      tag_322\n        /* \"#utility.yul\":11983:11986   */\n      dup3\n        /* \"#utility.yul\":11894:11987   */\n      tag_163\n      jump\t// in\n    tag_322:\n        /* \"#utility.yul\":12012:12014   */\n      0x40\n        /* \"#utility.yul\":12007:12010   */\n      dup3\n        /* \"#utility.yul\":12003:12015   */\n      add\n        /* \"#utility.yul\":11996:12015   */\n      swap1\n      pop\n        /* \"#utility.yul\":11655:12021   */\n      swap2\n      swap1\n      pop\n      jump\t// out\n        /* \"#utility.yul\":12027:12446   */\n    tag_66:\n        /* \"#utility.yul\":12193:12197   */\n      0x00\n        /* \"#utility.yul\":12231:12233   */\n      0x20\n        /* \"#utility.yul\":12220:12229   */\n      dup3\n        /* \"#utility.yul\":12216:12234   */\n      add\n        /* \"#utility.yul\":12208:12234   */\n      swap1\n      pop\n        /* \"#utility.yul\":12280:12289   */\n      dup2\n        /* \"#utility.yul\":12274:12278   */\n      dup2\n        /* \"#utility.yul\":12270:12290   */\n      sub\n        /* \"#utility.yul\":12266:12267   */\n      0x00\n        /* \"#utility.yul\":12255:12264   */\n      dup4\n        /* \"#utility.yul\":12251:12268   */\n      add\n        /* \"#utility.yul\":12244:12291   */\n      mstore\n        /* \"#utility.yul\":12308:12439   */\n      tag_324\n        /* \"#utility.yul\":12434:12438   */\n      dup2\n        /* \"#utility.yul\":12308:12439   */\n      tag_164\n      jump\t// in\n    tag_324:\n        /* \"#utility.yul\":12300:12439   */\n      swap1\n      pop\n        /* \"#utility.yul\":12027:12446   */\n      swap2\n      swap1\n      pop\n      jump\t// out\n        /* \"#utility.yul\":12452:12626   */\n    tag_165:\n        /* \"#utility.yul\":12592:12618   */\n      0x5573657220616c726561647920686173206120726f6c652e0000000000000000\n        /* \"#utility.yul\":12588:12589   */\n      0x00\n        /* \"#utility.yul\":12580:12586   */\n      dup3\n        /* \"#utility.yul\":12576:12590   */\n      add\n        /* \"#utility.yul\":12569:12619   */\n      mstore\n        /* \"#utility.yul\":12452:12626   */\n      pop\n      jump\t// out\n        /* \"#utility.yul\":12632:12998   */\n    tag_166:\n        /* \"#utility.yul\":12774:12777   */\n      0x00\n        /* \"#utility.yul\":12795:12862   */\n      tag_327\n        /* \"#utility.yul\":12859:12861   */\n      0x18\n        /* \"#utility.yul\":12854:12857   */\n      dup4\n        /* \"#utility.yul\":12795:12862   */\n      tag_132\n      jump\t// in\n    tag_327:\n        /* \"#utility.yul\":12788:12862   */\n      swap2\n      pop\n        /* \"#utility.yul\":12871:12964   */\n      tag_328\n        /* \"#utility.yul\":12960:12963   */\n      dup3\n        /* \"#utility.yul\":12871:12964   */\n      tag_165\n      jump\t// in\n    tag_328:\n        /* \"#utility.yul\":12989:12991   */\n      0x20\n        /* \"#utility.yul\":12984:12987   */\n      dup3\n        /* \"#utility.yul\":12980:12992   */\n      add\n        /* \"#utility.yul\":12973:12992   */\n      swap1\n      pop\n        /* \"#utility.yul\":12632:12998   */\n      swap2\n      swap1\n      pop\n      jump\t// out\n        /* \"#utility.yul\":13004:13423   */\n    tag_81:\n        /* \"#utility.yul\":13170:13174   */\n      0x00\n        /* \"#utility.yul\":13208:13210   */\n      0x20\n        /* \"#utility.yul\":13197:13206   */\n      dup3\n        /* \"#utility.yul\":13193:13211   */\n      add\n        /* \"#utility.yul\":13185:13211   */\n      swap1\n      pop\n        /* \"#utility.yul\":13257:13266   */\n      dup2\n        /* \"#utility.yul\":13251:13255   */\n      dup2\n        /* \"#utility.yul\":13247:13267   */\n      sub\n        /* \"#utility.yul\":13243:13244   */\n      0x00\n        /* \"#utility.yul\":13232:13241   */\n      dup4\n        /* \"#utility.yul\":13228:13245   */\n      add\n        /* \"#utility.yul\":13221:13268   */\n      mstore\n        /* \"#utility.yul\":13285:13416   */\n      tag_330\n        /* \"#utility.yul\":13411:13415   */\n      dup2\n        /* \"#utility.yul\":13285:13416   */\n      tag_166\n      jump\t// in\n    tag_330:\n        /* \"#utility.yul\":13277:13416   */\n      swap1\n      pop\n        /* \"#utility.yul\":13004:13423   */\n      swap2\n      swap1\n      pop\n      jump\t// out\n        /* \"#utility.yul\":13429:13601   */\n    tag_167:\n        /* \"#utility.yul\":13569:13593   */\n      0x4576656e74206973207374696c6c206163746976652e00000000000000000000\n        /* \"#utility.yul\":13565:13566   */\n      0x00\n        /* \"#utility.yul\":13557:13563   */\n      dup3\n        /* \"#utility.yul\":13553:13567   */\n      add\n        /* \"#utility.yul\":13546:13594   */\n      mstore\n        /* \"#utility.yul\":13429:13601   */\n      pop\n      jump\t// out\n        /* \"#utility.yul\":13607:13973   */\n    tag_168:\n        /* \"#utility.yul\":13749:13752   */\n      0x00\n        /* \"#utility.yul\":13770:13837   */\n      tag_333\n        /* \"#utility.yul\":13834:13836   */\n      0x16\n        /* \"#utility.yul\":13829:13832   */\n      dup4\n        /* \"#utility.yul\":13770:13837   */\n      tag_132\n      jump\t// in\n    tag_333:\n        /* \"#utility.yul\":13763:13837   */\n      swap2\n      pop\n        /* \"#utility.yul\":13846:13939   */\n      tag_334\n        /* \"#utility.yul\":13935:13938   */\n      dup3\n        /* \"#utility.yul\":13846:13939   */\n      tag_167\n      jump\t// in\n    tag_334:\n        /* \"#utility.yul\":13964:13966   */\n      0x20\n        /* \"#utility.yul\":13959:13962   */\n      dup3\n        /* \"#utility.yul\":13955:13967   */\n      add\n        /* \"#utility.yul\":13948:13967   */\n      swap1\n      pop\n        /* \"#utility.yul\":13607:13973   */\n      swap2\n      swap1\n      pop\n      jump\t// out\n        /* \"#utility.yul\":13979:14398   */\n    tag_87:\n        /* \"#utility.yul\":14145:14149   */\n      0x00\n        /* \"#utility.yul\":14183:14185   */\n      0x20\n        /* \"#utility.yul\":14172:14181   */\n      dup3\n        /* \"#utility.yul\":14168:14186   */\n      add\n        /* \"#utility.yul\":14160:14186   */\n      swap1\n      pop\n        /* \"#utility.yul\":14232:14241   */\n      dup2\n        /* \"#utility.yul\":14226:14230   */\n      dup2\n        /* \"#utility.yul\":14222:14242   */\n      sub\n        /* \"#utility.yul\":14218:14219   */\n      0x00\n        /* \"#utility.yul\":14207:14216   */\n      dup4\n        /* \"#utility.yul\":14203:14220   */\n      add\n        /* \"#utility.yul\":14196:14243   */\n      mstore\n        /* \"#utility.yul\":14260:14391   */\n      tag_336\n        /* \"#utility.yul\":14386:14390   */\n      dup2\n        /* \"#utility.yul\":14260:14391   */\n      tag_168\n      jump\t// in\n    tag_336:\n        /* \"#utility.yul\":14252:14391   */\n      swap1\n      pop\n        /* \"#utility.yul\":13979:14398   */\n      swap2\n      swap1\n      pop\n      jump\t// out\n        /* \"#utility.yul\":14404:14584   */\n    tag_169:\n        /* \"#utility.yul\":14452:14529   */\n      0x4e487b7100000000000000000000000000000000000000000000000000000000\n        /* \"#utility.yul\":14449:14450   */\n      0x00\n        /* \"#utility.yul\":14442:14530   */\n      mstore\n        /* \"#utility.yul\":14549:14553   */\n      0x11\n        /* \"#utility.yul\":14546:14547   */\n      0x04\n        /* \"#utility.yul\":14539:14554   */\n      mstore\n        /* \"#utility.yul\":14573:14577   */\n      0x24\n        /* \"#utility.yul\":14570:14571   */\n      0x00\n        /* \"#utility.yul\":14563:14578   */\n      revert\n        /* \"#utility.yul\":14590:14823   */\n    tag_102:\n        /* \"#utility.yul\":14629:14632   */\n      0x00\n        /* \"#utility.yul\":14652:14676   */\n      tag_339\n        /* \"#utility.yul\":14670:14675   */\n      dup3\n        /* \"#utility.yul\":14652:14676   */\n      tag_127\n      jump\t// in\n    tag_339:\n        /* \"#utility.yul\":14643:14676   */\n      swap2\n      pop\n        /* \"#utility.yul\":14698:14764   */\n      0xffffffffffffffffffffffffffffffffffffffffffffffffffffffffffffffff\n        /* \"#utility.yul\":14691:14696   */\n      dup3\n        /* \"#utility.yul\":14688:14765   */\n      sub\n        /* \"#utility.yul\":14685:14788   */\n      tag_340\n      jumpi\n        /* \"#utility.yul\":14768:14786   */\n      tag_341\n      tag_169\n      jump\t// in\n    tag_341:\n        /* \"#utility.yul\":14685:14788   */\n    tag_340:\n        /* \"#utility.yul\":14815:14816   */\n      0x01\n        /* \"#utility.yul\":14808:14813   */\n      dup3\n        /* \"#utility.yul\":14804:14817   */\n      add\n        /* \"#utility.yul\":14797:14817   */\n      swap1\n      pop\n        /* \"#utility.yul\":14590:14823   */\n      swap2\n      swap1\n      pop\n      jump\t// out\n        /* \"#utility.yul\":14829:14970   */\n    tag_170:\n        /* \"#utility.yul\":14878:14882   */\n      0x00\n        /* \"#utility.yul\":14901:14904   */\n      dup2\n        /* \"#utility.yul\":14893:14904   */\n      swap1\n      pop\n        /* \"#utility.yul\":14924:14927   */\n      dup2\n        /* \"#utility.yul\":14921:14922   */\n      0x00\n        /* \"#utility.yul\":14914:14928   */\n      mstore\n        /* \"#utility.yul\":14958:14962   */\n      0x20\n        /* \"#utility.yul\":14955:14956   */\n      0x00\n        /* \"#utility.yul\":14945:14963   */\n      keccak256\n        /* \"#utility.yul\":14937:14963   */\n      swap1\n      pop\n        /* \"#utility.yul\":14829:14970   */\n      swap2\n      swap1\n      pop\n      jump\t// out\n        /* \"#utility.yul\":14976:15069   */\n    tag_171:\n        /* \"#utility.yul\":15013:15019   */\n      0x00\n        /* \"#utility.yul\":15060:15062   */\n      0x20\n        /* \"#utility.yul\":15055:15057   */\n      0x1f\n        /* \"#utility.yul\":15048:15053   */\n      dup4\n        /* \"#utility.yul\":15044:15058   */\n      add\n        /* \"#utility.yul\":15040:15063   */\n      div\n        /* \"#utility.yul\":15030:15063   */\n      swap1\n      pop\n        /* \"#utility.yul\":14976:15069   */\n      swap2\n      swap1\n      pop\n      jump\t// out\n        /* \"#utility.yul\":15075:15182   */\n    tag_172:\n        /* \"#utility.yul\":15119:15127   */\n      0x00\n        /* \"#utility.yul\":15169:15174   */\n      dup3\n        /* \"#utility.yul\":15163:15167   */\n      dup3\n        /* \"#utility.yul\":15159:15175   */\n      shl\n        /* \"#utility.yul\":15138:15175   */\n      swap1\n      pop\n        /* \"#utility.yul\":15075:15182   */\n      swap3\n      swap2\n      pop\n      pop\n      jump\t// out\n        /* \"#utility.yul\":15188:15581   */\n    tag_173:\n        /* \"#utility.yul\":15257:15263   */\n      0x00\n        /* \"#utility.yul\":15307:15308   */\n      0x08\n        /* \"#utility.yul\":15295:15305   */\n      dup4\n        /* \"#utility.yul\":15291:15309   */\n      mul\n        /* \"#utility.yul\":15330:15427   */\n      tag_346\n        /* \"#utility.yul\":15360:15426   */\n      0xffffffffffffffffffffffffffffffffffffffffffffffffffffffffffffffff\n        /* \"#utility.yul\":15349:15358   */\n      dup3\n        /* \"#utility.yul\":15330:15427   */\n      tag_172\n      jump\t// in\n    tag_346:\n        /* \"#utility.yul\":15448:15487   */\n      tag_347\n        /* \"#utility.yul\":15478:15486   */\n      dup7\n        /* \"#utility.yul\":15467:15476   */\n      dup4\n        /* \"#utility.yul\":15448:15487   */\n      tag_172\n      jump\t// in\n    tag_347:\n        /* \"#utility.yul\":15436:15487   */\n      swap6\n      pop\n        /* \"#utility.yul\":15520:15524   */\n      dup1\n        /* \"#utility.yul\":15516:15525   */\n      not\n        /* \"#utility.yul\":15509:15514   */\n      dup5\n        /* \"#utility.yul\":15505:15526   */\n      and\n        /* \"#utility.yul\":15496:15526   */\n      swap4\n      pop\n        /* \"#utility.yul\":15569:15573   */\n      dup1\n        /* \"#utility.yul\":15559:15567   */\n      dup7\n        /* \"#utility.yul\":15555:15574   */\n      and\n        /* \"#utility.yul\":15548:15553   */\n      dup5\n        /* \"#utility.yul\":15545:15575   */\n      or\n        /* \"#utility.yul\":15535:15575   */\n      swap3\n      pop\n        /* \"#utility.yul\":15264:15581   */\n      pop\n      pop\n        /* \"#utility.yul\":15188:15581   */\n      swap4\n      swap3\n      pop\n      pop\n      pop\n      jump\t// out\n        /* \"#utility.yul\":15587:15647   */\n    tag_174:\n        /* \"#utility.yul\":15615:15618   */\n      0x00\n        /* \"#utility.yul\":15636:15641   */\n      dup2\n        /* \"#utility.yul\":15629:15641   */\n      swap1\n      pop\n        /* \"#utility.yul\":15587:15647   */\n      swap2\n      swap1\n      pop\n      jump\t// out\n        /* \"#utility.yul\":15653:15795   */\n    tag_175:\n        /* \"#utility.yul\":15703:15712   */\n      0x00\n        /* \"#utility.yul\":15736:15789   */\n      tag_350\n        /* \"#utility.yul\":15754:15788   */\n      tag_351\n        /* \"#utility.yul\":15763:15787   */\n      tag_352\n        /* \"#utility.yul\":15781:15786   */\n      dup5\n        /* \"#utility.yul\":15763:15787   */\n      tag_127\n      jump\t// in\n    tag_352:\n        /* \"#utility.yul\":15754:15788   */\n      tag_174\n      jump\t// in\n    tag_351:\n        /* \"#utility.yul\":15736:15789   */\n      tag_127\n      jump\t// in\n    tag_350:\n        /* \"#utility.yul\":15723:15789   */\n      swap1\n      pop\n        /* \"#utility.yul\":15653:15795   */\n      swap2\n      swap1\n      pop\n      jump\t// out\n        /* \"#utility.yul\":15801:15876   */\n    tag_176:\n        /* \"#utility.yul\":15844:15847   */\n      0x00\n        /* \"#utility.yul\":15865:15870   */\n      dup2\n        /* \"#utility.yul\":15858:15870   */\n      swap1\n      pop\n        /* \"#utility.yul\":15801:15876   */\n      swap2\n      swap1\n      pop\n      jump\t// out\n        /* \"#utility.yul\":15882:16151   */\n    tag_177:\n        /* \"#utility.yul\":15992:16031   */\n      tag_355\n        /* \"#utility.yul\":16023:16030   */\n      dup4\n        /* \"#utility.yul\":15992:16031   */\n      tag_175\n      jump\t// in\n    tag_355:\n        /* \"#utility.yul\":16053:16144   */\n      tag_356\n        /* \"#utility.yul\":16102:16143   */\n      tag_357\n        /* \"#utility.yul\":16126:16142   */\n      dup3\n        /* \"#utility.yul\":16102:16143   */\n      tag_176\n      jump\t// in\n    tag_357:\n        /* \"#utility.yul\":16094:16100   */\n      dup5\n        /* \"#utility.yul\":16087:16091   */\n      dup5\n        /* \"#utility.yul\":16081:16092   */\n      sload\n        /* \"#utility.yul\":16053:16144   */\n      tag_173\n      jump\t// in\n    tag_356:\n        /* \"#utility.yul\":16047:16051   */\n      dup3\n        /* \"#utility.yul\":16040:16145   */\n      sstore\n        /* \"#utility.yul\":15958:16151   */\n      pop\n        /* \"#utility.yul\":15882:16151   */\n      pop\n      pop\n      pop\n      jump\t// out\n        /* \"#utility.yul\":16157:16230   */\n    tag_178:\n        /* \"#utility.yul\":16202:16205   */\n      0x00\n        /* \"#utility.yul\":16157:16230   */\n      swap1\n      jump\t// out\n        /* \"#utility.yul\":16236:16425   */\n    tag_179:\n        /* \"#utility.yul\":16313:16345   */\n      tag_360\n      tag_178\n      jump\t// in\n    tag_360:\n        /* \"#utility.yul\":16354:16419   */\n      tag_361\n        /* \"#utility.yul\":16412:16418   */\n      dup2\n        /* \"#utility.yul\":16404:16410   */\n      dup5\n        /* \"#utility.yul\":16398:16402   */\n      dup5\n        /* \"#utility.yul\":16354:16419   */\n      tag_177\n      jump\t// in\n    tag_361:\n        /* \"#utility.yul\":16289:16425   */\n      pop\n        /* \"#utility.yul\":16236:16425   */\n      pop\n      pop\n      jump\t// out\n        /* \"#utility.yul\":16431:16617   */\n    tag_180:\n        /* \"#utility.yul\":16491:16611   */\n    tag_363:\n        /* \"#utility.yul\":16508:16511   */\n      dup2\n        /* \"#utility.yul\":16501:16506   */\n      dup2\n        /* \"#utility.yul\":16498:16512   */\n      lt\n        /* \"#utility.yul\":16491:16611   */\n      iszero\n      tag_365\n      jumpi\n        /* \"#utility.yul\":16562:16601   */\n      tag_366\n        /* \"#utility.yul\":16599:16600   */\n      0x00\n        /* \"#utility.yul\":16592:16597   */\n      dup3\n        /* \"#utility.yul\":16562:16601   */\n      tag_179\n      jump\t// in\n    tag_366:\n        /* \"#utility.yul\":16535:16536   */\n      0x01\n        /* \"#utility.yul\":16528:16533   */\n      dup2\n        /* \"#utility.yul\":16524:16537   */\n      add\n        /* \"#utility.yul\":16515:16537   */\n      swap1\n      pop\n        /* \"#utility.yul\":16491:16611   */\n      jump(tag_363)\n    tag_365:\n        /* \"#utility.yul\":16431:16617   */\n      pop\n      pop\n      jump\t// out\n        /* \"#utility.yul\":16623:17166   */\n    tag_181:\n        /* \"#utility.yul\":16724:16726   */\n      0x1f\n        /* \"#utility.yul\":16719:16722   */\n      dup3\n        /* \"#utility.yul\":16716:16727   */\n      gt\n        /* \"#utility.yul\":16713:17159   */\n      iszero\n      tag_368\n      jumpi\n        /* \"#utility.yul\":16758:16796   */\n      tag_369\n        /* \"#utility.yul\":16790:16795   */\n      dup2\n        /* \"#utility.yul\":16758:16796   */\n      tag_170\n      jump\t// in\n    tag_369:\n        /* \"#utility.yul\":16842:16871   */\n      tag_370\n        /* \"#utility.yul\":16860:16870   */\n      dup5\n        /* \"#utility.yul\":16842:16871   */\n      tag_171\n      jump\t// in\n    tag_370:\n        /* \"#utility.yul\":16832:16840   */\n      dup2\n        /* \"#utility.yul\":16828:16872   */\n      add\n        /* \"#utility.yul\":17025:17027   */\n      0x20\n        /* \"#utility.yul\":17013:17023   */\n      dup6\n        /* \"#utility.yul\":17010:17028   */\n      lt\n        /* \"#utility.yul\":17007:17056   */\n      iszero\n      tag_371\n      jumpi\n        /* \"#utility.yul\":17046:17054   */\n      dup2\n        /* \"#utility.yul\":17031:17054   */\n      swap1\n      pop\n        /* \"#utility.yul\":17007:17056   */\n    tag_371:\n        /* \"#utility.yul\":17069:17149   */\n      tag_372\n        /* \"#utility.yul\":17125:17147   */\n      tag_373\n        /* \"#utility.yul\":17143:17146   */\n      dup6\n        /* \"#utility.yul\":17125:17147   */\n      tag_171\n      jump\t// in\n    tag_373:\n        /* \"#utility.yul\":17115:17123   */\n      dup4\n        /* \"#utility.yul\":17111:17148   */\n      add\n        /* \"#utility.yul\":17098:17109   */\n      dup3\n        /* \"#utility.yul\":17069:17149   */\n      tag_180\n      jump\t// in\n    tag_372:\n        /* \"#utility.yul\":16728:17159   */\n      pop\n      pop\n        /* \"#utility.yul\":16713:17159   */\n    tag_368:\n        /* \"#utility.yul\":16623:17166   */\n      pop\n      pop\n      pop\n      jump\t// out\n        /* \"#utility.yul\":17172:17289   */\n    tag_182:\n        /* \"#utility.yul\":17226:17234   */\n      0x00\n        /* \"#utility.yul\":17276:17281   */\n      dup3\n        /* \"#utility.yul\":17270:17274   */\n      dup3\n        /* \"#utility.yul\":17266:17282   */\n      shr\n        /* \"#utility.yul\":17245:17282   */\n      swap1\n      pop\n        /* \"#utility.yul\":17172:17289   */\n      swap3\n      swap2\n      pop\n      pop\n      jump\t// out\n        /* \"#utility.yul\":17295:17464   */\n    tag_183:\n        /* \"#utility.yul\":17339:17345   */\n      0x00\n        /* \"#utility.yul\":17372:17423   */\n      tag_376\n        /* \"#utility.yul\":17420:17421   */\n      0x00\n        /* \"#utility.yul\":17416:17422   */\n      not\n        /* \"#utility.yul\":17408:17413   */\n      dup5\n        /* \"#utility.yul\":17405:17406   */\n      0x08\n        /* \"#utility.yul\":17401:17414   */\n      mul\n        /* \"#utility.yul\":17372:17423   */\n      tag_182\n      jump\t// in\n    tag_376:\n        /* \"#utility.yul\":17368:17424   */\n      not\n        /* \"#utility.yul\":17453:17457   */\n      dup1\n        /* \"#utility.yul\":17447:17451   */\n      dup4\n        /* \"#utility.yul\":17443:17458   */\n      and\n        /* \"#utility.yul\":17433:17458   */\n      swap2\n      pop\n        /* \"#utility.yul\":17346:17464   */\n      pop\n        /* \"#utility.yul\":17295:17464   */\n      swap3\n      swap2\n      pop\n      pop\n      jump\t// out\n        /* \"#utility.yul\":17469:17764   */\n    tag_184:\n        /* \"#utility.yul\":17545:17549   */\n      0x00\n        /* \"#utility.yul\":17691:17720   */\n      tag_378\n        /* \"#utility.yul\":17716:17719   */\n      dup4\n        /* \"#utility.yul\":17710:17714   */\n      dup4\n        /* \"#utility.yul\":17691:17720   */\n      tag_183\n      jump\t// in\n    tag_378:\n        /* \"#utility.yul\":17683:17720   */\n      swap2\n      pop\n        /* \"#utility.yul\":17753:17756   */\n      dup3\n        /* \"#utility.yul\":17750:17751   */\n      0x02\n        /* \"#utility.yul\":17746:17757   */\n      mul\n        /* \"#utility.yul\":17740:17744   */\n      dup3\n        /* \"#utility.yul\":17737:17758   */\n      or\n        /* \"#utility.yul\":17729:17758   */\n      swap1\n      pop\n        /* \"#utility.yul\":17469:17764   */\n      swap3\n      swap2\n      pop\n      pop\n      jump\t// out\n        /* \"#utility.yul\":17769:19164   */\n    tag_104:\n        /* \"#utility.yul\":17886:17923   */\n      tag_380\n        /* \"#utility.yul\":17919:17922   */\n      dup3\n        /* \"#utility.yul\":17886:17923   */\n      tag_131\n      jump\t// in\n    tag_380:\n        /* \"#utility.yul\":17988:18006   */\n      0xffffffffffffffff\n        /* \"#utility.yul\":17980:17986   */\n      dup2\n        /* \"#utility.yul\":17977:18007   */\n      gt\n        /* \"#utility.yul\":17974:18030   */\n      iszero\n      tag_381\n      jumpi\n        /* \"#utility.yul\":18010:18028   */\n      tag_382\n      tag_151\n      jump\t// in\n    tag_382:\n        /* \"#utility.yul\":17974:18030   */\n    tag_381:\n        /* \"#utility.yul\":18054:18092   */\n      tag_383\n        /* \"#utility.yul\":18086:18090   */\n      dup3\n        /* \"#utility.yul\":18080:18091   */\n      sload\n        /* \"#utility.yul\":18054:18092   */\n      tag_49\n      jump\t// in\n    tag_383:\n        /* \"#utility.yul\":18139:18206   */\n      tag_384\n        /* \"#utility.yul\":18199:18205   */\n      dup3\n        /* \"#utility.yul\":18191:18197   */\n      dup3\n        /* \"#utility.yul\":18185:18189   */\n      dup6\n        /* \"#utility.yul\":18139:18206   */\n      tag_181\n      jump\t// in\n    tag_384:\n        /* \"#utility.yul\":18233:18234   */\n      0x00\n        /* \"#utility.yul\":18257:18261   */\n      0x20\n        /* \"#utility.yul\":18244:18261   */\n      swap1\n      pop\n        /* \"#utility.yul\":18289:18291   */\n      0x1f\n        /* \"#utility.yul\":18281:18287   */\n      dup4\n        /* \"#utility.yul\":18278:18292   */\n      gt\n        /* \"#utility.yul\":18306:18307   */\n      0x01\n        /* \"#utility.yul\":18301:18919   */\n      dup2\n      eq\n      tag_386\n      jumpi\n        /* \"#utility.yul\":18963:18964   */\n      0x00\n        /* \"#utility.yul\":18980:18986   */\n      dup5\n        /* \"#utility.yul\":18977:19054   */\n      iszero\n      tag_387\n      jumpi\n        /* \"#utility.yul\":19029:19038   */\n      dup3\n        /* \"#utility.yul\":19024:19027   */\n      dup8\n        /* \"#utility.yul\":19020:19039   */\n      add\n        /* \"#utility.yul\":19014:19040   */\n      mload\n        /* \"#utility.yul\":19005:19040   */\n      swap1\n      pop\n        /* \"#utility.yul\":18977:19054   */\n    tag_387:\n        /* \"#utility.yul\":19080:19147   */\n      tag_388\n        /* \"#utility.yul\":19140:19146   */\n      dup6\n        /* \"#utility.yul\":19133:19138   */\n      dup3\n        /* \"#utility.yul\":19080:19147   */\n      tag_184\n      jump\t// in\n    tag_388:\n        /* \"#utility.yul\":19074:19078   */\n      dup7\n        /* \"#utility.yul\":19067:19148   */\n      sstore\n        /* \"#utility.yul\":18936:19158   */\n      pop\n        /* \"#utility.yul\":18271:19158   */\n      jump(tag_385)\n        /* \"#utility.yul\":18301:18919   */\n    tag_386:\n        /* \"#utility.yul\":18353:18357   */\n      0x1f\n        /* \"#utility.yul\":18349:18358   */\n      not\n        /* \"#utility.yul\":18341:18347   */\n      dup5\n        /* \"#utility.yul\":18337:18359   */\n      and\n        /* \"#utility.yul\":18387:18424   */\n      tag_389\n        /* \"#utility.yul\":18419:18423   */\n      dup7\n        /* \"#utility.yul\":18387:18424   */\n      tag_170\n      jump\t// in\n    tag_389:\n        /* \"#utility.yul\":18446:18447   */\n      0x00\n        /* \"#utility.yul\":18460:18668   */\n    tag_390:\n        /* \"#utility.yul\":18474:18481   */\n      dup3\n        /* \"#utility.yul\":18471:18472   */\n      dup2\n        /* \"#utility.yul\":18468:18482   */\n      lt\n        /* \"#utility.yul\":18460:18668   */\n      iszero\n      tag_392\n      jumpi\n        /* \"#utility.yul\":18553:18562   */\n      dup5\n        /* \"#utility.yul\":18548:18551   */\n      dup10\n        /* \"#utility.yul\":18544:18563   */\n      add\n        /* \"#utility.yul\":18538:18564   */\n      mload\n        /* \"#utility.yul\":18530:18536   */\n      dup3\n        /* \"#utility.yul\":18523:18565   */\n      sstore\n        /* \"#utility.yul\":18604:18605   */\n      0x01\n        /* \"#utility.yul\":18596:18602   */\n      dup3\n        /* \"#utility.yul\":18592:18606   */\n      add\n        /* \"#utility.yul\":18582:18606   */\n      swap2\n      pop\n        /* \"#utility.yul\":18651:18653   */\n      0x20\n        /* \"#utility.yul\":18640:18649   */\n      dup6\n        /* \"#utility.yul\":18636:18654   */\n      add\n        /* \"#utility.yul\":18623:18654   */\n      swap5\n      pop\n        /* \"#utility.yul\":18497:18501   */\n      0x20\n        /* \"#utility.yul\":18494:18495   */\n      dup2\n        /* \"#utility.yul\":18490:18502   */\n      add\n        /* \"#utility.yul\":18485:18502   */\n      swap1\n      pop\n        /* \"#utility.yul\":18460:18668   */\n      jump(tag_390)\n    tag_392:\n        /* \"#utility.yul\":18696:18702   */\n      dup7\n        /* \"#utility.yul\":18687:18694   */\n      dup4\n        /* \"#utility.yul\":18684:18703   */\n      lt\n        /* \"#utility.yul\":18681:18860   */\n      iszero\n      tag_393\n      jumpi\n        /* \"#utility.yul\":18754:18763   */\n      dup5\n        /* \"#utility.yul\":18749:18752   */\n      dup10\n        /* \"#utility.yul\":18745:18764   */\n      add\n        /* \"#utility.yul\":18739:18765   */\n      mload\n        /* \"#utility.yul\":18797:18845   */\n      tag_394\n        /* \"#utility.yul\":18839:18843   */\n      0x1f\n        /* \"#utility.yul\":18831:18837   */\n      dup10\n        /* \"#utility.yul\":18827:18844   */\n      and\n        /* \"#utility.yul\":18816:18825   */\n      dup3\n        /* \"#utility.yul\":18797:18845   */\n      tag_183\n      jump\t// in\n    tag_394:\n        /* \"#utility.yul\":18789:18795   */\n      dup4\n        /* \"#utility.yul\":18782:18846   */\n      sstore\n        /* \"#utility.yul\":18704:18860   */\n      pop\n        /* \"#utility.yul\":18681:18860   */\n    tag_393:\n        /* \"#utility.yul\":18906:18907   */\n      0x01\n        /* \"#utility.yul\":18902:18903   */\n      0x02\n        /* \"#utility.yul\":18894:18900   */\n      dup9\n        /* \"#utility.yul\":18890:18904   */\n      mul\n        /* \"#utility.yul\":18886:18908   */\n      add\n        /* \"#utility.yul\":18880:18884   */\n      dup9\n        /* \"#utility.yul\":18873:18909   */\n      sstore\n        /* \"#utility.yul\":18308:18919   */\n      pop\n      pop\n      pop\n        /* \"#utility.yul\":18271:19158   */\n    tag_385:\n      pop\n        /* \"#utility.yul\":17861:19164   */\n      pop\n      pop\n      pop\n        /* \"#utility.yul\":17769:19164   */\n      pop\n      pop\n      jump\t// out\n        /* \"#utility.yul\":19170:19340   */\n    tag_185:\n        /* \"#utility.yul\":19310:19332   */\n      0x596f7520617265206e6f74206120766f7465722e000000000000000000000000\n        /* \"#utility.yul\":19306:19307   */\n      0x00\n        /* \"#utility.yul\":19298:19304   */\n      dup3\n        /* \"#utility.yul\":19294:19308   */\n      add\n        /* \"#utility.yul\":19287:19333   */\n      mstore\n        /* \"#utility.yul\":19170:19340   */\n      pop\n      jump\t// out\n        /* \"#utility.yul\":19346:19712   */\n    tag_186:\n        /* \"#utility.yul\":19488:19491   */\n      0x00\n        /* \"#utility.yul\":19509:19576   */\n      tag_397\n        /* \"#utility.yul\":19573:19575   */\n      0x14\n        /* \"#utility.yul\":19568:19571   */\n      dup4\n        /* \"#utility.yul\":19509:19576   */\n      tag_132\n      jump\t// in\n    tag_397:\n        /* \"#utility.yul\":19502:19576   */\n      swap2\n      pop\n        /* \"#utility.yul\":19585:19678   */\n      tag_398\n        /* \"#utility.yul\":19674:19677   */\n      dup3\n        /* \"#utility.yul\":19585:19678   */\n      tag_185\n      jump\t// in\n    tag_398:\n        /* \"#utility.yul\":19703:19705   */\n      0x20\n        /* \"#utility.yul\":19698:19701   */\n      dup3\n        /* \"#utility.yul\":19694:19706   */\n      add\n        /* \"#utility.yul\":19687:19706   */\n      swap1\n      pop\n        /* \"#utility.yul\":19346:19712   */\n      swap2\n      swap1\n      pop\n      jump\t// out\n        /* \"#utility.yul\":19718:20137   */\n    tag_112:\n        /* \"#utility.yul\":19884:19888   */\n      0x00\n        /* \"#utility.yul\":19922:19924   */\n      0x20\n        /* \"#utility.yul\":19911:19920   */\n      dup3\n        /* \"#utility.yul\":19907:19925   */\n      add\n        /* \"#utility.yul\":19899:19925   */\n      swap1\n      pop\n        /* \"#utility.yul\":19971:19980   */\n      dup2\n        /* \"#utility.yul\":19965:19969   */\n      dup2\n        /* \"#utility.yul\":19961:19981   */\n      sub\n        /* \"#utility.yul\":19957:19958   */\n      0x00\n        /* \"#utility.yul\":19946:19955   */\n      dup4\n        /* \"#utility.yul\":19942:19959   */\n      add\n        /* \"#utility.yul\":19935:19982   */\n      mstore\n        /* \"#utility.yul\":19999:20130   */\n      tag_400\n        /* \"#utility.yul\":20125:20129   */\n      dup2\n        /* \"#utility.yul\":19999:20130   */\n      tag_186\n      jump\t// in\n    tag_400:\n        /* \"#utility.yul\":19991:20130   */\n      swap1\n      pop\n        /* \"#utility.yul\":19718:20137   */\n      swap2\n      swap1\n      pop\n      jump\t// out\n        /* \"#utility.yul\":20143:20313   */\n    tag_187:\n        /* \"#utility.yul\":20283:20305   */\n      0x4576656e74206973206e6f74206163746976652e000000000000000000000000\n        /* \"#utility.yul\":20279:20280   */\n      0x00\n        /* \"#utility.yul\":20271:20277   */\n      dup3\n        /* \"#utility.yul\":20267:20281   */\n      add\n        /* \"#utility.yul\":20260:20306   */\n      mstore\n        /* \"#utility.yul\":20143:20313   */\n      pop\n      jump\t// out\n        /* \"#utility.yul\":20319:20685   */\n    tag_188:\n        /* \"#utility.yul\":20461:20464   */\n      0x00\n        /* \"#utility.yul\":20482:20549   */\n      tag_403\n        /* \"#utility.yul\":20546:20548   */\n      0x14\n        /* \"#utility.yul\":20541:20544   */\n      dup4\n        /* \"#utility.yul\":20482:20549   */\n      tag_132\n      jump\t// in\n    tag_403:\n        /* \"#utility.yul\":20475:20549   */\n      swap2\n      pop\n        /* \"#utility.yul\":20558:20651   */\n      tag_404\n        /* \"#utility.yul\":20647:20650   */\n      dup3\n        /* \"#utility.yul\":20558:20651   */\n      tag_187\n      jump\t// in\n    tag_404:\n        /* \"#utility.yul\":20676:20678   */\n      0x20\n        /* \"#utility.yul\":20671:20674   */\n      dup3\n        /* \"#utility.yul\":20667:20679   */\n      add\n        /* \"#utility.yul\":20660:20679   */\n      swap1\n      pop\n        /* \"#utility.yul\":20319:20685   */\n      swap2\n      swap1\n      pop\n      jump\t// out\n        /* \"#utility.yul\":20691:21110   */\n    tag_116:\n        /* \"#utility.yul\":20857:20861   */\n      0x00\n        /* \"#utility.yul\":20895:20897   */\n      0x20\n        /* \"#utility.yul\":20884:20893   */\n      dup3\n        /* \"#utility.yul\":20880:20898   */\n      add\n        /* \"#utility.yul\":20872:20898   */\n      swap1\n      pop\n        /* \"#utility.yul\":20944:20953   */\n      dup2\n        /* \"#utility.yul\":20938:20942   */\n      dup2\n        /* \"#utility.yul\":20934:20954   */\n      sub\n        /* \"#utility.yul\":20930:20931   */\n      0x00\n        /* \"#utility.yul\":20919:20928   */\n      dup4\n        /* \"#utility.yul\":20915:20932   */\n      add\n        /* \"#utility.yul\":20908:20955   */\n      mstore\n        /* \"#utility.yul\":20972:21103   */\n      tag_406\n        /* \"#utility.yul\":21098:21102   */\n      dup2\n        /* \"#utility.yul\":20972:21103   */\n      tag_188\n      jump\t// in\n    tag_406:\n        /* \"#utility.yul\":20964:21103   */\n      swap1\n      pop\n        /* \"#utility.yul\":20691:21110   */\n      swap2\n      swap1\n      pop\n      jump\t// out\n        /* \"#utility.yul\":21116:21289   */\n    tag_189:\n        /* \"#utility.yul\":21256:21281   */\n      0x596f75206861766520616c726561647920766f7465642e000000000000000000\n        /* \"#utility.yul\":21252:21253   */\n      0x00\n        /* \"#utility.yul\":21244:21250   */\n      dup3\n        /* \"#utility.yul\":21240:21254   */\n      add\n        /* \"#utility.yul\":21233:21282   */\n      mstore\n        /* \"#utility.yul\":21116:21289   */\n      pop\n      jump\t// out\n        /* \"#utility.yul\":21295:21661   */\n    tag_190:\n        /* \"#utility.yul\":21437:21440   */\n      0x00\n        /* \"#utility.yul\":21458:21525   */\n      tag_409\n        /* \"#utility.yul\":21522:21524   */\n      0x17\n        /* \"#utility.yul\":21517:21520   */\n      dup4\n        /* \"#utility.yul\":21458:21525   */\n      tag_132\n      jump\t// in\n    tag_409:\n        /* \"#utility.yul\":21451:21525   */\n      swap2\n      pop\n        /* \"#utility.yul\":21534:21627   */\n      tag_410\n        /* \"#utility.yul\":21623:21626   */\n      dup3\n        /* \"#utility.yul\":21534:21627   */\n      tag_189\n      jump\t// in\n    tag_410:\n        /* \"#utility.yul\":21652:21654   */\n      0x20\n        /* \"#utility.yul\":21647:21650   */\n      dup3\n        /* \"#utility.yul\":21643:21655   */\n      add\n        /* \"#utility.yul\":21636:21655   */\n      swap1\n      pop\n        /* \"#utility.yul\":21295:21661   */\n      swap2\n      swap1\n      pop\n      jump\t// out\n        /* \"#utility.yul\":21667:22086   */\n    tag_119:\n        /* \"#utility.yul\":21833:21837   */\n      0x00\n        /* \"#utility.yul\":21871:21873   */\n      0x20\n        /* \"#utility.yul\":21860:21869   */\n      dup3\n        /* \"#utility.yul\":21856:21874   */\n      add\n        /* \"#utility.yul\":21848:21874   */\n      swap1\n      pop\n        /* \"#utility.yul\":21920:21929   */\n      dup2\n        /* \"#utility.yul\":21914:21918   */\n      dup2\n        /* \"#utility.yul\":21910:21930   */\n      sub\n        /* \"#utility.yul\":21906:21907   */\n      0x00\n        /* \"#utility.yul\":21895:21904   */\n      dup4\n        /* \"#utility.yul\":21891:21908   */\n      add\n        /* \"#utility.yul\":21884:21931   */\n      mstore\n        /* \"#utility.yul\":21948:22079   */\n      tag_412\n        /* \"#utility.yul\":22074:22078   */\n      dup2\n        /* \"#utility.yul\":21948:22079   */\n      tag_190\n      jump\t// in\n    tag_412:\n        /* \"#utility.yul\":21940:22079   */\n      swap1\n      pop\n        /* \"#utility.yul\":21667:22086   */\n      swap2\n      swap1\n      pop\n      jump\t// out\n\n    auxdata: 0xa264697066735822122089825f010712839d65076ad28d26349f22839e9fb97e0c6d98425ee6178d2f5164736f6c634300081a0033\n}\n",
				"bytecode": {
					"linkReferences": {},
					"object": "6080604052348015600e575f80fd5b5060025f803373ffffffffffffffffffffffffffffffffffffffff1673ffffffffffffffffffffffffffffffffffffffff1681526020019081526020015f205f6101000a81548160ff02191690836002811115606b57606a6074565b5b021790555060a1565b7f4e487b71000000000000000000000000000000000000000000000000000000005f52602160045260245ffd5b611620806100ae5f395ff3fe608060405234801561000f575f80fd5b5060043610610086575f3560e01c806381a60c0d1161005957806381a60c0d1461011557806399374642146101475780639bc2bc7114610177578063c9d27afe1461019357610086565b80630b7914301461008a578063330a347b146100bf578063630a195b146100db57806371be2e4a146100f7575b5f80fd5b6100a4600480360381019061009f9190610ad4565b6101af565b6040516100b696959493929190610bd7565b60405180910390f35b6100d960048036038101906100d49190610ad4565b610298565b005b6100f560048036038101906100f09190610c8a565b61040a565b005b6100ff6105cd565b60405161010c9190610cc8565b60405180910390f35b61012f600480360381019061012a9190610ad4565b6105d3565b60405161013e93929190610ce1565b60405180910390f35b610161600480360381019061015c9190610d1d565b6106e2565b60405161016e9190610dbb565b60405180910390f35b610191600480360381019061018c9190610f00565b6106fe565b005b6101ad60048036038101906101a89190610f71565b610857565b005b6001602052805f5260405f205f91509050805f0154908060010180546101d490610fdc565b80601f016020809104026020016040519081016040528092919081815260200182805461020090610fdc565b801561024b5780601f106102225761010080835404028352916020019161024b565b820191905f5260205f20905b81548152906001019060200180831161022e57829003601f168201915b505050505090806002015f9054906101000a900460ff1690806003015490806004015490806006015f9054906101000a900473ffffffffffffffffffffffffffffffffffffffff16905086565b6002808111156102ab576102aa610d48565b5b5f803373ffffffffffffffffffffffffffffffffffffffff1673ffffffffffffffffffffffffffffffffffffffff1681526020019081526020015f205f9054906101000a900460ff16600281111561030657610305610d48565b5b14610346576040517f08c379a000000000000000000000000000000000000000000000000000000000815260040161033d90611056565b60405180910390fd5b5f60015f8381526020019081526020015f2090503373ffffffffffffffffffffffffffffffffffffffff16816006015f9054906101000a900473ffffffffffffffffffffffffffffffffffffffff1673ffffffffffffffffffffffffffffffffffffffff16146103eb576040517f08c379a00000000000000000000000000000000000000000000000000000000081526004016103e2906110e4565b60405180910390fd5b5f816002015f6101000a81548160ff0219169083151502179055505050565b60028081111561041d5761041c610d48565b5b5f803373ffffffffffffffffffffffffffffffffffffffff1673ffffffffffffffffffffffffffffffffffffffff1681526020019081526020015f205f9054906101000a900460ff16600281111561047857610477610d48565b5b146104b8576040517f08c379a00000000000000000000000000000000000000000000000000000000081526004016104af90611056565b60405180910390fd5b5f60028111156104cb576104ca610d48565b5b5f808473ffffffffffffffffffffffffffffffffffffffff1673ffffffffffffffffffffffffffffffffffffffff1681526020019081526020015f205f9054906101000a900460ff16600281111561052657610525610d48565b5b14610566576040517f08c379a000000000000000000000000000000000000000000000000000000000815260040161055d9061114c565b60405180910390fd5b805f808473ffffffffffffffffffffffffffffffffffffffff1673ffffffffffffffffffffffffffffffffffffffff1681526020019081526020015f205f6101000a81548160ff021916908360028111156105c4576105c3610d48565b5b02179055505050565b60025481565b60605f805f60015f8681526020019081526020015f209050806002015f9054906101000a900460ff161561063c576040517f08c379a0000000000000000000000000000000000000000000000000000000008152600401610633906111b4565b60405180910390fd5b806001018160030154826004015482805461065690610fdc565b80601f016020809104026020016040519081016040528092919081815260200182805461068290610fdc565b80156106cd5780601f106106a4576101008083540402835291602001916106cd565b820191905f5260205f20905b8154815290600101906020018083116106b057829003601f168201915b50505050509250935093509350509193909250565b5f602052805f5260405f205f915054906101000a900460ff1681565b60028081111561071157610710610d48565b5b5f803373ffffffffffffffffffffffffffffffffffffffff1673ffffffffffffffffffffffffffffffffffffffff1681526020019081526020015f205f9054906101000a900460ff16600281111561076c5761076b610d48565b5b146107ac576040517f08c379a00000000000000000000000000000000000000000000000000000000081526004016107a390611056565b60405180910390fd5b60025f8154809291906107be906111ff565b91905055505f60015f60025481526020019081526020015f209050600254815f0181905550818160010190816107f491906113e3565b506001816002015f6101000a81548160ff02191690831515021790555033816006015f6101000a81548173ffffffffffffffffffffffffffffffffffffffff021916908373ffffffffffffffffffffffffffffffffffffffff1602179055505050565b6001600281111561086b5761086a610d48565b5b5f803373ffffffffffffffffffffffffffffffffffffffff1673ffffffffffffffffffffffffffffffffffffffff1681526020019081526020015f205f9054906101000a900460ff1660028111156108c6576108c5610d48565b5b14610906576040517f08c379a00000000000000000000000000000000000000000000000000000000081526004016108fd906114fc565b60405180910390fd5b5f60015f8481526020019081526020015f209050806002015f9054906101000a900460ff1661096a576040517f08c379a000000000000000000000000000000000000000000000000000000000815260040161096190611564565b60405180910390fd5b806005015f3373ffffffffffffffffffffffffffffffffffffffff1673ffffffffffffffffffffffffffffffffffffffff1681526020019081526020015f205f9054906101000a900460ff16156109f6576040517f08c379a00000000000000000000000000000000000000000000000000000000081526004016109ed906115cc565b60405180910390fd5b8115610a1a57806003015f815480929190610a10906111ff565b9190505550610a34565b806004015f815480929190610a2e906111ff565b91905055505b6001816005015f3373ffffffffffffffffffffffffffffffffffffffff1673ffffffffffffffffffffffffffffffffffffffff1681526020019081526020015f205f6101000a81548160ff021916908315150217905550505050565b5f604051905090565b5f80fd5b5f80fd5b5f819050919050565b610ab381610aa1565b8114610abd575f80fd5b50565b5f81359050610ace81610aaa565b92915050565b5f60208284031215610ae957610ae8610a99565b5b5f610af684828501610ac0565b91505092915050565b610b0881610aa1565b82525050565b5f81519050919050565b5f82825260208201905092915050565b8281835e5f83830152505050565b5f601f19601f8301169050919050565b5f610b5082610b0e565b610b5a8185610b18565b9350610b6a818560208601610b28565b610b7381610b36565b840191505092915050565b5f8115159050919050565b610b9281610b7e565b82525050565b5f73ffffffffffffffffffffffffffffffffffffffff82169050919050565b5f610bc182610b98565b9050919050565b610bd181610bb7565b82525050565b5f60c082019050610bea5f830189610aff565b8181036020830152610bfc8188610b46565b9050610c0b6040830187610b89565b610c186060830186610aff565b610c256080830185610aff565b610c3260a0830184610bc8565b979650505050505050565b610c4681610bb7565b8114610c50575f80fd5b50565b5f81359050610c6181610c3d565b92915050565b60038110610c73575f80fd5b50565b5f81359050610c8481610c67565b92915050565b5f8060408385031215610ca057610c9f610a99565b5b5f610cad85828601610c53565b9250506020610cbe85828601610c76565b9150509250929050565b5f602082019050610cdb5f830184610aff565b92915050565b5f6060820190508181035f830152610cf98186610b46565b9050610d086020830185610aff565b610d156040830184610aff565b949350505050565b5f60208284031215610d3257610d31610a99565b5b5f610d3f84828501610c53565b91505092915050565b7f4e487b71000000000000000000000000000000000000000000000000000000005f52602160045260245ffd5b60038110610d8657610d85610d48565b5b50565b5f819050610d9682610d75565b919050565b5f610da582610d89565b9050919050565b610db581610d9b565b82525050565b5f602082019050610dce5f830184610dac565b92915050565b5f80fd5b5f80fd5b7f4e487b71000000000000000000000000000000000000000000000000000000005f52604160045260245ffd5b610e1282610b36565b810181811067ffffffffffffffff82111715610e3157610e30610ddc565b5b80604052505050565b5f610e43610a90565b9050610e4f8282610e09565b919050565b5f67ffffffffffffffff821115610e6e57610e6d610ddc565b5b610e7782610b36565b9050602081019050919050565b828183375f83830152505050565b5f610ea4610e9f84610e54565b610e3a565b905082815260208101848484011115610ec057610ebf610dd8565b5b610ecb848285610e84565b509392505050565b5f82601f830112610ee757610ee6610dd4565b5b8135610ef7848260208601610e92565b91505092915050565b5f60208284031215610f1557610f14610a99565b5b5f82013567ffffffffffffffff811115610f3257610f31610a9d565b5b610f3e84828501610ed3565b91505092915050565b610f5081610b7e565b8114610f5a575f80fd5b50565b5f81359050610f6b81610f47565b92915050565b5f8060408385031215610f8757610f86610a99565b5b5f610f9485828601610ac0565b9250506020610fa585828601610f5d565b9150509250929050565b7f4e487b71000000000000000000000000000000000000000000000000000000005f52602260045260245ffd5b5f6002820490506001821680610ff357607f821691505b60208210810361100657611005610faf565b5b50919050565b7f596f7520617265206e6f7420616e206f7267616e697a65722e000000000000005f82015250565b5f611040601983610b18565b915061104b8261100c565b602082019050919050565b5f6020820190508181035f83015261106d81611034565b9050919050565b7f4f6e6c7920746865206f7267616e697a65722063616e20656e642074686973205f8201527f6576656e742e0000000000000000000000000000000000000000000000000000602082015250565b5f6110ce602683610b18565b91506110d982611074565b604082019050919050565b5f6020820190508181035f8301526110fb816110c2565b9050919050565b7f5573657220616c726561647920686173206120726f6c652e00000000000000005f82015250565b5f611136601883610b18565b915061114182611102565b602082019050919050565b5f6020820190508181035f8301526111638161112a565b9050919050565b7f4576656e74206973207374696c6c206163746976652e000000000000000000005f82015250565b5f61119e601683610b18565b91506111a98261116a565b602082019050919050565b5f6020820190508181035f8301526111cb81611192565b9050919050565b7f4e487b71000000000000000000000000000000000000000000000000000000005f52601160045260245ffd5b5f61120982610aa1565b91507fffffffffffffffffffffffffffffffffffffffffffffffffffffffffffffffff820361123b5761123a6111d2565b5b600182019050919050565b5f819050815f5260205f209050919050565b5f6020601f8301049050919050565b5f82821b905092915050565b5f600883026112a27fffffffffffffffffffffffffffffffffffffffffffffffffffffffffffffffff82611267565b6112ac8683611267565b95508019841693508086168417925050509392505050565b5f819050919050565b5f6112e76112e26112dd84610aa1565b6112c4565b610aa1565b9050919050565b5f819050919050565b611300836112cd565b61131461130c826112ee565b848454611273565b825550505050565b5f90565b61132861131c565b6113338184846112f7565b505050565b5b818110156113565761134b5f82611320565b600181019050611339565b5050565b601f82111561139b5761136c81611246565b61137584611258565b81016020851015611384578190505b61139861139085611258565b830182611338565b50505b505050565b5f82821c905092915050565b5f6113bb5f19846008026113a0565b1980831691505092915050565b5f6113d383836113ac565b9150826002028217905092915050565b6113ec82610b0e565b67ffffffffffffffff81111561140557611404610ddc565b5b61140f8254610fdc565b61141a82828561135a565b5f60209050601f83116001811461144b575f8415611439578287015190505b61144385826113c8565b8655506114aa565b601f19841661145986611246565b5f5b828110156114805784890151825560018201915060208501945060208101905061145b565b8683101561149d5784890151611499601f8916826113ac565b8355505b6001600288020188555050505b505050505050565b7f596f7520617265206e6f74206120766f7465722e0000000000000000000000005f82015250565b5f6114e6601483610b18565b91506114f1826114b2565b602082019050919050565b5f6020820190508181035f830152611513816114da565b9050919050565b7f4576656e74206973206e6f74206163746976652e0000000000000000000000005f82015250565b5f61154e601483610b18565b91506115598261151a565b602082019050919050565b5f6020820190508181035f83015261157b81611542565b9050919050565b7f596f75206861766520616c726561647920766f7465642e0000000000000000005f82015250565b5f6115b6601783610b18565b91506115c182611582565b602082019050919050565b5f6020820190508181035f8301526115e3816115aa565b905091905056fea264697066735822122089825f010712839d65076ad28d26349f22839e9fb97e0c6d98425ee6178d2f5164736f6c634300081a0033",
					"opcodes": "PUSH1 0x80 PUSH1 0x40 MSTORE CALLVALUE DUP1 ISZERO PUSH1 0xE JUMPI PUSH0 DUP1 REVERT JUMPDEST POP PUSH1 0x2 PUSH0 DUP1 CALLER PUSH20 0xFFFFFFFFFFFFFFFFFFFFFFFFFFFFFFFFFFFFFFFF AND PUSH20 0xFFFFFFFFFFFFFFFFFFFFFFFFFFFFFFFFFFFFFFFF AND DUP2 MSTORE PUSH1 0x20 ADD SWAP1 DUP2 MSTORE PUSH1 0x20 ADD PUSH0 KECCAK256 PUSH0 PUSH2 0x100 EXP DUP2 SLOAD DUP2 PUSH1 0xFF MUL NOT AND SWAP1 DUP4 PUSH1 0x2 DUP2 GT ISZERO PUSH1 0x6B JUMPI PUSH1 0x6A PUSH1 0x74 JUMP JUMPDEST JUMPDEST MUL OR SWAP1 SSTORE POP PUSH1 0xA1 JUMP JUMPDEST PUSH32 0x4E487B7100000000000000000000000000000000000000000000000000000000 PUSH0 MSTORE PUSH1 0x21 PUSH1 0x4 MSTORE PUSH1 0x24 PUSH0 REVERT JUMPDEST PUSH2 0x1620 DUP1 PUSH2 0xAE PUSH0 CODECOPY PUSH0 RETURN INVALID PUSH1 0x80 PUSH1 0x40 MSTORE CALLVALUE DUP1 ISZERO PUSH2 0xF JUMPI PUSH0 DUP1 REVERT JUMPDEST POP PUSH1 0x4 CALLDATASIZE LT PUSH2 0x86 JUMPI PUSH0 CALLDATALOAD PUSH1 0xE0 SHR DUP1 PUSH4 0x81A60C0D GT PUSH2 0x59 JUMPI DUP1 PUSH4 0x81A60C0D EQ PUSH2 0x115 JUMPI DUP1 PUSH4 0x99374642 EQ PUSH2 0x147 JUMPI DUP1 PUSH4 0x9BC2BC71 EQ PUSH2 0x177 JUMPI DUP1 PUSH4 0xC9D27AFE EQ PUSH2 0x193 JUMPI PUSH2 0x86 JUMP JUMPDEST DUP1 PUSH4 0xB791430 EQ PUSH2 0x8A JUMPI DUP1 PUSH4 0x330A347B EQ PUSH2 0xBF JUMPI DUP1 PUSH4 0x630A195B EQ PUSH2 0xDB JUMPI DUP1 PUSH4 0x71BE2E4A EQ PUSH2 0xF7 JUMPI JUMPDEST PUSH0 DUP1 REVERT JUMPDEST PUSH2 0xA4 PUSH1 0x4 DUP1 CALLDATASIZE SUB DUP2 ADD SWAP1 PUSH2 0x9F SWAP2 SWAP1 PUSH2 0xAD4 JUMP JUMPDEST PUSH2 0x1AF JUMP JUMPDEST PUSH1 0x40 MLOAD PUSH2 0xB6 SWAP7 SWAP6 SWAP5 SWAP4 SWAP3 SWAP2 SWAP1 PUSH2 0xBD7 JUMP JUMPDEST PUSH1 0x40 MLOAD DUP1 SWAP2 SUB SWAP1 RETURN JUMPDEST PUSH2 0xD9 PUSH1 0x4 DUP1 CALLDATASIZE SUB DUP2 ADD SWAP1 PUSH2 0xD4 SWAP2 SWAP1 PUSH2 0xAD4 JUMP JUMPDEST PUSH2 0x298 JUMP JUMPDEST STOP JUMPDEST PUSH2 0xF5 PUSH1 0x4 DUP1 CALLDATASIZE SUB DUP2 ADD SWAP1 PUSH2 0xF0 SWAP2 SWAP1 PUSH2 0xC8A JUMP JUMPDEST PUSH2 0x40A JUMP JUMPDEST STOP JUMPDEST PUSH2 0xFF PUSH2 0x5CD JUMP JUMPDEST PUSH1 0x40 MLOAD PUSH2 0x10C SWAP2 SWAP1 PUSH2 0xCC8 JUMP JUMPDEST PUSH1 0x40 MLOAD DUP1 SWAP2 SUB SWAP1 RETURN JUMPDEST PUSH2 0x12F PUSH1 0x4 DUP1 CALLDATASIZE SUB DUP2 ADD SWAP1 PUSH2 0x12A SWAP2 SWAP1 PUSH2 0xAD4 JUMP JUMPDEST PUSH2 0x5D3 JUMP JUMPDEST PUSH1 0x40 MLOAD PUSH2 0x13E SWAP4 SWAP3 SWAP2 SWAP1 PUSH2 0xCE1 JUMP JUMPDEST PUSH1 0x40 MLOAD DUP1 SWAP2 SUB SWAP1 RETURN JUMPDEST PUSH2 0x161 PUSH1 0x4 DUP1 CALLDATASIZE SUB DUP2 ADD SWAP1 PUSH2 0x15C SWAP2 SWAP1 PUSH2 0xD1D JUMP JUMPDEST PUSH2 0x6E2 JUMP JUMPDEST PUSH1 0x40 MLOAD PUSH2 0x16E SWAP2 SWAP1 PUSH2 0xDBB JUMP JUMPDEST PUSH1 0x40 MLOAD DUP1 SWAP2 SUB SWAP1 RETURN JUMPDEST PUSH2 0x191 PUSH1 0x4 DUP1 CALLDATASIZE SUB DUP2 ADD SWAP1 PUSH2 0x18C SWAP2 SWAP1 PUSH2 0xF00 JUMP JUMPDEST PUSH2 0x6FE JUMP JUMPDEST STOP JUMPDEST PUSH2 0x1AD PUSH1 0x4 DUP1 CALLDATASIZE SUB DUP2 ADD SWAP1 PUSH2 0x1A8 SWAP2 SWAP1 PUSH2 0xF71 JUMP JUMPDEST PUSH2 0x857 JUMP JUMPDEST STOP JUMPDEST PUSH1 0x1 PUSH1 0x20 MSTORE DUP1 PUSH0 MSTORE PUSH1 0x40 PUSH0 KECCAK256 PUSH0 SWAP2 POP SWAP1 POP DUP1 PUSH0 ADD SLOAD SWAP1 DUP1 PUSH1 0x1 ADD DUP1 SLOAD PUSH2 0x1D4 SWAP1 PUSH2 0xFDC JUMP JUMPDEST DUP1 PUSH1 0x1F ADD PUSH1 0x20 DUP1 SWAP2 DIV MUL PUSH1 0x20 ADD PUSH1 0x40 MLOAD SWAP1 DUP2 ADD PUSH1 0x40 MSTORE DUP1 SWAP3 SWAP2 SWAP1 DUP2 DUP2 MSTORE PUSH1 0x20 ADD DUP3 DUP1 SLOAD PUSH2 0x200 SWAP1 PUSH2 0xFDC JUMP JUMPDEST DUP1 ISZERO PUSH2 0x24B JUMPI DUP1 PUSH1 0x1F LT PUSH2 0x222 JUMPI PUSH2 0x100 DUP1 DUP4 SLOAD DIV MUL DUP4 MSTORE SWAP2 PUSH1 0x20 ADD SWAP2 PUSH2 0x24B JUMP JUMPDEST DUP3 ADD SWAP2 SWAP1 PUSH0 MSTORE PUSH1 0x20 PUSH0 KECCAK256 SWAP1 JUMPDEST DUP2 SLOAD DUP2 MSTORE SWAP1 PUSH1 0x1 ADD SWAP1 PUSH1 0x20 ADD DUP1 DUP4 GT PUSH2 0x22E JUMPI DUP3 SWAP1 SUB PUSH1 0x1F AND DUP3 ADD SWAP2 JUMPDEST POP POP POP POP POP SWAP1 DUP1 PUSH1 0x2 ADD PUSH0 SWAP1 SLOAD SWAP1 PUSH2 0x100 EXP SWAP1 DIV PUSH1 0xFF AND SWAP1 DUP1 PUSH1 0x3 ADD SLOAD SWAP1 DUP1 PUSH1 0x4 ADD SLOAD SWAP1 DUP1 PUSH1 0x6 ADD PUSH0 SWAP1 SLOAD SWAP1 PUSH2 0x100 EXP SWAP1 DIV PUSH20 0xFFFFFFFFFFFFFFFFFFFFFFFFFFFFFFFFFFFFFFFF AND SWAP1 POP DUP7 JUMP JUMPDEST PUSH1 0x2 DUP1 DUP2 GT ISZERO PUSH2 0x2AB JUMPI PUSH2 0x2AA PUSH2 0xD48 JUMP JUMPDEST JUMPDEST PUSH0 DUP1 CALLER PUSH20 0xFFFFFFFFFFFFFFFFFFFFFFFFFFFFFFFFFFFFFFFF AND PUSH20 0xFFFFFFFFFFFFFFFFFFFFFFFFFFFFFFFFFFFFFFFF AND DUP2 MSTORE PUSH1 0x20 ADD SWAP1 DUP2 MSTORE PUSH1 0x20 ADD PUSH0 KECCAK256 PUSH0 SWAP1 SLOAD SWAP1 PUSH2 0x100 EXP SWAP1 DIV PUSH1 0xFF AND PUSH1 0x2 DUP2 GT ISZERO PUSH2 0x306 JUMPI PUSH2 0x305 PUSH2 0xD48 JUMP JUMPDEST JUMPDEST EQ PUSH2 0x346 JUMPI PUSH1 0x40 MLOAD PUSH32 0x8C379A000000000000000000000000000000000000000000000000000000000 DUP2 MSTORE PUSH1 0x4 ADD PUSH2 0x33D SWAP1 PUSH2 0x1056 JUMP JUMPDEST PUSH1 0x40 MLOAD DUP1 SWAP2 SUB SWAP1 REVERT JUMPDEST PUSH0 PUSH1 0x1 PUSH0 DUP4 DUP2 MSTORE PUSH1 0x20 ADD SWAP1 DUP2 MSTORE PUSH1 0x20 ADD PUSH0 KECCAK256 SWAP1 POP CALLER PUSH20 0xFFFFFFFFFFFFFFFFFFFFFFFFFFFFFFFFFFFFFFFF AND DUP2 PUSH1 0x6 ADD PUSH0 SWAP1 SLOAD SWAP1 PUSH2 0x100 EXP SWAP1 DIV PUSH20 0xFFFFFFFFFFFFFFFFFFFFFFFFFFFFFFFFFFFFFFFF AND PUSH20 0xFFFFFFFFFFFFFFFFFFFFFFFFFFFFFFFFFFFFFFFF AND EQ PUSH2 0x3EB JUMPI PUSH1 0x40 MLOAD PUSH32 0x8C379A000000000000000000000000000000000000000000000000000000000 DUP2 MSTORE PUSH1 0x4 ADD PUSH2 0x3E2 SWAP1 PUSH2 0x10E4 JUMP JUMPDEST PUSH1 0x40 MLOAD DUP1 SWAP2 SUB SWAP1 REVERT JUMPDEST PUSH0 DUP2 PUSH1 0x2 ADD PUSH0 PUSH2 0x100 EXP DUP2 SLOAD DUP2 PUSH1 0xFF MUL NOT AND SWAP1 DUP4 ISZERO ISZERO MUL OR SWAP1 SSTORE POP POP POP JUMP JUMPDEST PUSH1 0x2 DUP1 DUP2 GT ISZERO PUSH2 0x41D JUMPI PUSH2 0x41C PUSH2 0xD48 JUMP JUMPDEST JUMPDEST PUSH0 DUP1 CALLER PUSH20 0xFFFFFFFFFFFFFFFFFFFFFFFFFFFFFFFFFFFFFFFF AND PUSH20 0xFFFFFFFFFFFFFFFFFFFFFFFFFFFFFFFFFFFFFFFF AND DUP2 MSTORE PUSH1 0x20 ADD SWAP1 DUP2 MSTORE PUSH1 0x20 ADD PUSH0 KECCAK256 PUSH0 SWAP1 SLOAD SWAP1 PUSH2 0x100 EXP SWAP1 DIV PUSH1 0xFF AND PUSH1 0x2 DUP2 GT ISZERO PUSH2 0x478 JUMPI PUSH2 0x477 PUSH2 0xD48 JUMP JUMPDEST JUMPDEST EQ PUSH2 0x4B8 JUMPI PUSH1 0x40 MLOAD PUSH32 0x8C379A000000000000000000000000000000000000000000000000000000000 DUP2 MSTORE PUSH1 0x4 ADD PUSH2 0x4AF SWAP1 PUSH2 0x1056 JUMP JUMPDEST PUSH1 0x40 MLOAD DUP1 SWAP2 SUB SWAP1 REVERT JUMPDEST PUSH0 PUSH1 0x2 DUP2 GT ISZERO PUSH2 0x4CB JUMPI PUSH2 0x4CA PUSH2 0xD48 JUMP JUMPDEST JUMPDEST PUSH0 DUP1 DUP5 PUSH20 0xFFFFFFFFFFFFFFFFFFFFFFFFFFFFFFFFFFFFFFFF AND PUSH20 0xFFFFFFFFFFFFFFFFFFFFFFFFFFFFFFFFFFFFFFFF AND DUP2 MSTORE PUSH1 0x20 ADD SWAP1 DUP2 MSTORE PUSH1 0x20 ADD PUSH0 KECCAK256 PUSH0 SWAP1 SLOAD SWAP1 PUSH2 0x100 EXP SWAP1 DIV PUSH1 0xFF AND PUSH1 0x2 DUP2 GT ISZERO PUSH2 0x526 JUMPI PUSH2 0x525 PUSH2 0xD48 JUMP JUMPDEST JUMPDEST EQ PUSH2 0x566 JUMPI PUSH1 0x40 MLOAD PUSH32 0x8C379A000000000000000000000000000000000000000000000000000000000 DUP2 MSTORE PUSH1 0x4 ADD PUSH2 0x55D SWAP1 PUSH2 0x114C JUMP JUMPDEST PUSH1 0x40 MLOAD DUP1 SWAP2 SUB SWAP1 REVERT JUMPDEST DUP1 PUSH0 DUP1 DUP5 PUSH20 0xFFFFFFFFFFFFFFFFFFFFFFFFFFFFFFFFFFFFFFFF AND PUSH20 0xFFFFFFFFFFFFFFFFFFFFFFFFFFFFFFFFFFFFFFFF AND DUP2 MSTORE PUSH1 0x20 ADD SWAP1 DUP2 MSTORE PUSH1 0x20 ADD PUSH0 KECCAK256 PUSH0 PUSH2 0x100 EXP DUP2 SLOAD DUP2 PUSH1 0xFF MUL NOT AND SWAP1 DUP4 PUSH1 0x2 DUP2 GT ISZERO PUSH2 0x5C4 JUMPI PUSH2 0x5C3 PUSH2 0xD48 JUMP JUMPDEST JUMPDEST MUL OR SWAP1 SSTORE POP POP POP JUMP JUMPDEST PUSH1 0x2 SLOAD DUP2 JUMP JUMPDEST PUSH1 0x60 PUSH0 DUP1 PUSH0 PUSH1 0x1 PUSH0 DUP7 DUP2 MSTORE PUSH1 0x20 ADD SWAP1 DUP2 MSTORE PUSH1 0x20 ADD PUSH0 KECCAK256 SWAP1 POP DUP1 PUSH1 0x2 ADD PUSH0 SWAP1 SLOAD SWAP1 PUSH2 0x100 EXP SWAP1 DIV PUSH1 0xFF AND ISZERO PUSH2 0x63C JUMPI PUSH1 0x40 MLOAD PUSH32 0x8C379A000000000000000000000000000000000000000000000000000000000 DUP2 MSTORE PUSH1 0x4 ADD PUSH2 0x633 SWAP1 PUSH2 0x11B4 JUMP JUMPDEST PUSH1 0x40 MLOAD DUP1 SWAP2 SUB SWAP1 REVERT JUMPDEST DUP1 PUSH1 0x1 ADD DUP2 PUSH1 0x3 ADD SLOAD DUP3 PUSH1 0x4 ADD SLOAD DUP3 DUP1 SLOAD PUSH2 0x656 SWAP1 PUSH2 0xFDC JUMP JUMPDEST DUP1 PUSH1 0x1F ADD PUSH1 0x20 DUP1 SWAP2 DIV MUL PUSH1 0x20 ADD PUSH1 0x40 MLOAD SWAP1 DUP2 ADD PUSH1 0x40 MSTORE DUP1 SWAP3 SWAP2 SWAP1 DUP2 DUP2 MSTORE PUSH1 0x20 ADD DUP3 DUP1 SLOAD PUSH2 0x682 SWAP1 PUSH2 0xFDC JUMP JUMPDEST DUP1 ISZERO PUSH2 0x6CD JUMPI DUP1 PUSH1 0x1F LT PUSH2 0x6A4 JUMPI PUSH2 0x100 DUP1 DUP4 SLOAD DIV MUL DUP4 MSTORE SWAP2 PUSH1 0x20 ADD SWAP2 PUSH2 0x6CD JUMP JUMPDEST DUP3 ADD SWAP2 SWAP1 PUSH0 MSTORE PUSH1 0x20 PUSH0 KECCAK256 SWAP1 JUMPDEST DUP2 SLOAD DUP2 MSTORE SWAP1 PUSH1 0x1 ADD SWAP1 PUSH1 0x20 ADD DUP1 DUP4 GT PUSH2 0x6B0 JUMPI DUP3 SWAP1 SUB PUSH1 0x1F AND DUP3 ADD SWAP2 JUMPDEST POP POP POP POP POP SWAP3 POP SWAP4 POP SWAP4 POP SWAP4 POP POP SWAP2 SWAP4 SWAP1 SWAP3 POP JUMP JUMPDEST PUSH0 PUSH1 0x20 MSTORE DUP1 PUSH0 MSTORE PUSH1 0x40 PUSH0 KECCAK256 PUSH0 SWAP2 POP SLOAD SWAP1 PUSH2 0x100 EXP SWAP1 DIV PUSH1 0xFF AND DUP2 JUMP JUMPDEST PUSH1 0x2 DUP1 DUP2 GT ISZERO PUSH2 0x711 JUMPI PUSH2 0x710 PUSH2 0xD48 JUMP JUMPDEST JUMPDEST PUSH0 DUP1 CALLER PUSH20 0xFFFFFFFFFFFFFFFFFFFFFFFFFFFFFFFFFFFFFFFF AND PUSH20 0xFFFFFFFFFFFFFFFFFFFFFFFFFFFFFFFFFFFFFFFF AND DUP2 MSTORE PUSH1 0x20 ADD SWAP1 DUP2 MSTORE PUSH1 0x20 ADD PUSH0 KECCAK256 PUSH0 SWAP1 SLOAD SWAP1 PUSH2 0x100 EXP SWAP1 DIV PUSH1 0xFF AND PUSH1 0x2 DUP2 GT ISZERO PUSH2 0x76C JUMPI PUSH2 0x76B PUSH2 0xD48 JUMP JUMPDEST JUMPDEST EQ PUSH2 0x7AC JUMPI PUSH1 0x40 MLOAD PUSH32 0x8C379A000000000000000000000000000000000000000000000000000000000 DUP2 MSTORE PUSH1 0x4 ADD PUSH2 0x7A3 SWAP1 PUSH2 0x1056 JUMP JUMPDEST PUSH1 0x40 MLOAD DUP1 SWAP2 SUB SWAP1 REVERT JUMPDEST PUSH1 0x2 PUSH0 DUP2 SLOAD DUP1 SWAP3 SWAP2 SWAP1 PUSH2 0x7BE SWAP1 PUSH2 0x11FF JUMP JUMPDEST SWAP2 SWAP1 POP SSTORE POP PUSH0 PUSH1 0x1 PUSH0 PUSH1 0x2 SLOAD DUP2 MSTORE PUSH1 0x20 ADD SWAP1 DUP2 MSTORE PUSH1 0x20 ADD PUSH0 KECCAK256 SWAP1 POP PUSH1 0x2 SLOAD DUP2 PUSH0 ADD DUP2 SWAP1 SSTORE POP DUP2 DUP2 PUSH1 0x1 ADD SWAP1 DUP2 PUSH2 0x7F4 SWAP2 SWAP1 PUSH2 0x13E3 JUMP JUMPDEST POP PUSH1 0x1 DUP2 PUSH1 0x2 ADD PUSH0 PUSH2 0x100 EXP DUP2 SLOAD DUP2 PUSH1 0xFF MUL NOT AND SWAP1 DUP4 ISZERO ISZERO MUL OR SWAP1 SSTORE POP CALLER DUP2 PUSH1 0x6 ADD PUSH0 PUSH2 0x100 EXP DUP2 SLOAD DUP2 PUSH20 0xFFFFFFFFFFFFFFFFFFFFFFFFFFFFFFFFFFFFFFFF MUL NOT AND SWAP1 DUP4 PUSH20 0xFFFFFFFFFFFFFFFFFFFFFFFFFFFFFFFFFFFFFFFF AND MUL OR SWAP1 SSTORE POP POP POP JUMP JUMPDEST PUSH1 0x1 PUSH1 0x2 DUP2 GT ISZERO PUSH2 0x86B JUMPI PUSH2 0x86A PUSH2 0xD48 JUMP JUMPDEST JUMPDEST PUSH0 DUP1 CALLER PUSH20 0xFFFFFFFFFFFFFFFFFFFFFFFFFFFFFFFFFFFFFFFF AND PUSH20 0xFFFFFFFFFFFFFFFFFFFFFFFFFFFFFFFFFFFFFFFF AND DUP2 MSTORE PUSH1 0x20 ADD SWAP1 DUP2 MSTORE PUSH1 0x20 ADD PUSH0 KECCAK256 PUSH0 SWAP1 SLOAD SWAP1 PUSH2 0x100 EXP SWAP1 DIV PUSH1 0xFF AND PUSH1 0x2 DUP2 GT ISZERO PUSH2 0x8C6 JUMPI PUSH2 0x8C5 PUSH2 0xD48 JUMP JUMPDEST JUMPDEST EQ PUSH2 0x906 JUMPI PUSH1 0x40 MLOAD PUSH32 0x8C379A000000000000000000000000000000000000000000000000000000000 DUP2 MSTORE PUSH1 0x4 ADD PUSH2 0x8FD SWAP1 PUSH2 0x14FC JUMP JUMPDEST PUSH1 0x40 MLOAD DUP1 SWAP2 SUB SWAP1 REVERT JUMPDEST PUSH0 PUSH1 0x1 PUSH0 DUP5 DUP2 MSTORE PUSH1 0x20 ADD SWAP1 DUP2 MSTORE PUSH1 0x20 ADD PUSH0 KECCAK256 SWAP1 POP DUP1 PUSH1 0x2 ADD PUSH0 SWAP1 SLOAD SWAP1 PUSH2 0x100 EXP SWAP1 DIV PUSH1 0xFF AND PUSH2 0x96A JUMPI PUSH1 0x40 MLOAD PUSH32 0x8C379A000000000000000000000000000000000000000000000000000000000 DUP2 MSTORE PUSH1 0x4 ADD PUSH2 0x961 SWAP1 PUSH2 0x1564 JUMP JUMPDEST PUSH1 0x40 MLOAD DUP1 SWAP2 SUB SWAP1 REVERT JUMPDEST DUP1 PUSH1 0x5 ADD PUSH0 CALLER PUSH20 0xFFFFFFFFFFFFFFFFFFFFFFFFFFFFFFFFFFFFFFFF AND PUSH20 0xFFFFFFFFFFFFFFFFFFFFFFFFFFFFFFFFFFFFFFFF AND DUP2 MSTORE PUSH1 0x20 ADD SWAP1 DUP2 MSTORE PUSH1 0x20 ADD PUSH0 KECCAK256 PUSH0 SWAP1 SLOAD SWAP1 PUSH2 0x100 EXP SWAP1 DIV PUSH1 0xFF AND ISZERO PUSH2 0x9F6 JUMPI PUSH1 0x40 MLOAD PUSH32 0x8C379A000000000000000000000000000000000000000000000000000000000 DUP2 MSTORE PUSH1 0x4 ADD PUSH2 0x9ED SWAP1 PUSH2 0x15CC JUMP JUMPDEST PUSH1 0x40 MLOAD DUP1 SWAP2 SUB SWAP1 REVERT JUMPDEST DUP2 ISZERO PUSH2 0xA1A JUMPI DUP1 PUSH1 0x3 ADD PUSH0 DUP2 SLOAD DUP1 SWAP3 SWAP2 SWAP1 PUSH2 0xA10 SWAP1 PUSH2 0x11FF JUMP JUMPDEST SWAP2 SWAP1 POP SSTORE POP PUSH2 0xA34 JUMP JUMPDEST DUP1 PUSH1 0x4 ADD PUSH0 DUP2 SLOAD DUP1 SWAP3 SWAP2 SWAP1 PUSH2 0xA2E SWAP1 PUSH2 0x11FF JUMP JUMPDEST SWAP2 SWAP1 POP SSTORE POP JUMPDEST PUSH1 0x1 DUP2 PUSH1 0x5 ADD PUSH0 CALLER PUSH20 0xFFFFFFFFFFFFFFFFFFFFFFFFFFFFFFFFFFFFFFFF AND PUSH20 0xFFFFFFFFFFFFFFFFFFFFFFFFFFFFFFFFFFFFFFFF AND DUP2 MSTORE PUSH1 0x20 ADD SWAP1 DUP2 MSTORE PUSH1 0x20 ADD PUSH0 KECCAK256 PUSH0 PUSH2 0x100 EXP DUP2 SLOAD DUP2 PUSH1 0xFF MUL NOT AND SWAP1 DUP4 ISZERO ISZERO MUL OR SWAP1 SSTORE POP POP POP POP JUMP JUMPDEST PUSH0 PUSH1 0x40 MLOAD SWAP1 POP SWAP1 JUMP JUMPDEST PUSH0 DUP1 REVERT JUMPDEST PUSH0 DUP1 REVERT JUMPDEST PUSH0 DUP2 SWAP1 POP SWAP2 SWAP1 POP JUMP JUMPDEST PUSH2 0xAB3 DUP2 PUSH2 0xAA1 JUMP JUMPDEST DUP2 EQ PUSH2 0xABD JUMPI PUSH0 DUP1 REVERT JUMPDEST POP JUMP JUMPDEST PUSH0 DUP2 CALLDATALOAD SWAP1 POP PUSH2 0xACE DUP2 PUSH2 0xAAA JUMP JUMPDEST SWAP3 SWAP2 POP POP JUMP JUMPDEST PUSH0 PUSH1 0x20 DUP3 DUP5 SUB SLT ISZERO PUSH2 0xAE9 JUMPI PUSH2 0xAE8 PUSH2 0xA99 JUMP JUMPDEST JUMPDEST PUSH0 PUSH2 0xAF6 DUP5 DUP3 DUP6 ADD PUSH2 0xAC0 JUMP JUMPDEST SWAP2 POP POP SWAP3 SWAP2 POP POP JUMP JUMPDEST PUSH2 0xB08 DUP2 PUSH2 0xAA1 JUMP JUMPDEST DUP3 MSTORE POP POP JUMP JUMPDEST PUSH0 DUP2 MLOAD SWAP1 POP SWAP2 SWAP1 POP JUMP JUMPDEST PUSH0 DUP3 DUP3 MSTORE PUSH1 0x20 DUP3 ADD SWAP1 POP SWAP3 SWAP2 POP POP JUMP JUMPDEST DUP3 DUP2 DUP4 MCOPY PUSH0 DUP4 DUP4 ADD MSTORE POP POP POP JUMP JUMPDEST PUSH0 PUSH1 0x1F NOT PUSH1 0x1F DUP4 ADD AND SWAP1 POP SWAP2 SWAP1 POP JUMP JUMPDEST PUSH0 PUSH2 0xB50 DUP3 PUSH2 0xB0E JUMP JUMPDEST PUSH2 0xB5A DUP2 DUP6 PUSH2 0xB18 JUMP JUMPDEST SWAP4 POP PUSH2 0xB6A DUP2 DUP6 PUSH1 0x20 DUP7 ADD PUSH2 0xB28 JUMP JUMPDEST PUSH2 0xB73 DUP2 PUSH2 0xB36 JUMP JUMPDEST DUP5 ADD SWAP2 POP POP SWAP3 SWAP2 POP POP JUMP JUMPDEST PUSH0 DUP2 ISZERO ISZERO SWAP1 POP SWAP2 SWAP1 POP JUMP JUMPDEST PUSH2 0xB92 DUP2 PUSH2 0xB7E JUMP JUMPDEST DUP3 MSTORE POP POP JUMP JUMPDEST PUSH0 PUSH20 0xFFFFFFFFFFFFFFFFFFFFFFFFFFFFFFFFFFFFFFFF DUP3 AND SWAP1 POP SWAP2 SWAP1 POP JUMP JUMPDEST PUSH0 PUSH2 0xBC1 DUP3 PUSH2 0xB98 JUMP JUMPDEST SWAP1 POP SWAP2 SWAP1 POP JUMP JUMPDEST PUSH2 0xBD1 DUP2 PUSH2 0xBB7 JUMP JUMPDEST DUP3 MSTORE POP POP JUMP JUMPDEST PUSH0 PUSH1 0xC0 DUP3 ADD SWAP1 POP PUSH2 0xBEA PUSH0 DUP4 ADD DUP10 PUSH2 0xAFF JUMP JUMPDEST DUP2 DUP2 SUB PUSH1 0x20 DUP4 ADD MSTORE PUSH2 0xBFC DUP2 DUP9 PUSH2 0xB46 JUMP JUMPDEST SWAP1 POP PUSH2 0xC0B PUSH1 0x40 DUP4 ADD DUP8 PUSH2 0xB89 JUMP JUMPDEST PUSH2 0xC18 PUSH1 0x60 DUP4 ADD DUP7 PUSH2 0xAFF JUMP JUMPDEST PUSH2 0xC25 PUSH1 0x80 DUP4 ADD DUP6 PUSH2 0xAFF JUMP JUMPDEST PUSH2 0xC32 PUSH1 0xA0 DUP4 ADD DUP5 PUSH2 0xBC8 JUMP JUMPDEST SWAP8 SWAP7 POP POP POP POP POP POP POP JUMP JUMPDEST PUSH2 0xC46 DUP2 PUSH2 0xBB7 JUMP JUMPDEST DUP2 EQ PUSH2 0xC50 JUMPI PUSH0 DUP1 REVERT JUMPDEST POP JUMP JUMPDEST PUSH0 DUP2 CALLDATALOAD SWAP1 POP PUSH2 0xC61 DUP2 PUSH2 0xC3D JUMP JUMPDEST SWAP3 SWAP2 POP POP JUMP JUMPDEST PUSH1 0x3 DUP2 LT PUSH2 0xC73 JUMPI PUSH0 DUP1 REVERT JUMPDEST POP JUMP JUMPDEST PUSH0 DUP2 CALLDATALOAD SWAP1 POP PUSH2 0xC84 DUP2 PUSH2 0xC67 JUMP JUMPDEST SWAP3 SWAP2 POP POP JUMP JUMPDEST PUSH0 DUP1 PUSH1 0x40 DUP4 DUP6 SUB SLT ISZERO PUSH2 0xCA0 JUMPI PUSH2 0xC9F PUSH2 0xA99 JUMP JUMPDEST JUMPDEST PUSH0 PUSH2 0xCAD DUP6 DUP3 DUP7 ADD PUSH2 0xC53 JUMP JUMPDEST SWAP3 POP POP PUSH1 0x20 PUSH2 0xCBE DUP6 DUP3 DUP7 ADD PUSH2 0xC76 JUMP JUMPDEST SWAP2 POP POP SWAP3 POP SWAP3 SWAP1 POP JUMP JUMPDEST PUSH0 PUSH1 0x20 DUP3 ADD SWAP1 POP PUSH2 0xCDB PUSH0 DUP4 ADD DUP5 PUSH2 0xAFF JUMP JUMPDEST SWAP3 SWAP2 POP POP JUMP JUMPDEST PUSH0 PUSH1 0x60 DUP3 ADD SWAP1 POP DUP2 DUP2 SUB PUSH0 DUP4 ADD MSTORE PUSH2 0xCF9 DUP2 DUP7 PUSH2 0xB46 JUMP JUMPDEST SWAP1 POP PUSH2 0xD08 PUSH1 0x20 DUP4 ADD DUP6 PUSH2 0xAFF JUMP JUMPDEST PUSH2 0xD15 PUSH1 0x40 DUP4 ADD DUP5 PUSH2 0xAFF JUMP JUMPDEST SWAP5 SWAP4 POP POP POP POP JUMP JUMPDEST PUSH0 PUSH1 0x20 DUP3 DUP5 SUB SLT ISZERO PUSH2 0xD32 JUMPI PUSH2 0xD31 PUSH2 0xA99 JUMP JUMPDEST JUMPDEST PUSH0 PUSH2 0xD3F DUP5 DUP3 DUP6 ADD PUSH2 0xC53 JUMP JUMPDEST SWAP2 POP POP SWAP3 SWAP2 POP POP JUMP JUMPDEST PUSH32 0x4E487B7100000000000000000000000000000000000000000000000000000000 PUSH0 MSTORE PUSH1 0x21 PUSH1 0x4 MSTORE PUSH1 0x24 PUSH0 REVERT JUMPDEST PUSH1 0x3 DUP2 LT PUSH2 0xD86 JUMPI PUSH2 0xD85 PUSH2 0xD48 JUMP JUMPDEST JUMPDEST POP JUMP JUMPDEST PUSH0 DUP2 SWAP1 POP PUSH2 0xD96 DUP3 PUSH2 0xD75 JUMP JUMPDEST SWAP2 SWAP1 POP JUMP JUMPDEST PUSH0 PUSH2 0xDA5 DUP3 PUSH2 0xD89 JUMP JUMPDEST SWAP1 POP SWAP2 SWAP1 POP JUMP JUMPDEST PUSH2 0xDB5 DUP2 PUSH2 0xD9B JUMP JUMPDEST DUP3 MSTORE POP POP JUMP JUMPDEST PUSH0 PUSH1 0x20 DUP3 ADD SWAP1 POP PUSH2 0xDCE PUSH0 DUP4 ADD DUP5 PUSH2 0xDAC JUMP JUMPDEST SWAP3 SWAP2 POP POP JUMP JUMPDEST PUSH0 DUP1 REVERT JUMPDEST PUSH0 DUP1 REVERT JUMPDEST PUSH32 0x4E487B7100000000000000000000000000000000000000000000000000000000 PUSH0 MSTORE PUSH1 0x41 PUSH1 0x4 MSTORE PUSH1 0x24 PUSH0 REVERT JUMPDEST PUSH2 0xE12 DUP3 PUSH2 0xB36 JUMP JUMPDEST DUP2 ADD DUP2 DUP2 LT PUSH8 0xFFFFFFFFFFFFFFFF DUP3 GT OR ISZERO PUSH2 0xE31 JUMPI PUSH2 0xE30 PUSH2 0xDDC JUMP JUMPDEST JUMPDEST DUP1 PUSH1 0x40 MSTORE POP POP POP JUMP JUMPDEST PUSH0 PUSH2 0xE43 PUSH2 0xA90 JUMP JUMPDEST SWAP1 POP PUSH2 0xE4F DUP3 DUP3 PUSH2 0xE09 JUMP JUMPDEST SWAP2 SWAP1 POP JUMP JUMPDEST PUSH0 PUSH8 0xFFFFFFFFFFFFFFFF DUP3 GT ISZERO PUSH2 0xE6E JUMPI PUSH2 0xE6D PUSH2 0xDDC JUMP JUMPDEST JUMPDEST PUSH2 0xE77 DUP3 PUSH2 0xB36 JUMP JUMPDEST SWAP1 POP PUSH1 0x20 DUP2 ADD SWAP1 POP SWAP2 SWAP1 POP JUMP JUMPDEST DUP3 DUP2 DUP4 CALLDATACOPY PUSH0 DUP4 DUP4 ADD MSTORE POP POP POP JUMP JUMPDEST PUSH0 PUSH2 0xEA4 PUSH2 0xE9F DUP5 PUSH2 0xE54 JUMP JUMPDEST PUSH2 0xE3A JUMP JUMPDEST SWAP1 POP DUP3 DUP2 MSTORE PUSH1 0x20 DUP2 ADD DUP5 DUP5 DUP5 ADD GT ISZERO PUSH2 0xEC0 JUMPI PUSH2 0xEBF PUSH2 0xDD8 JUMP JUMPDEST JUMPDEST PUSH2 0xECB DUP5 DUP3 DUP6 PUSH2 0xE84 JUMP JUMPDEST POP SWAP4 SWAP3 POP POP POP JUMP JUMPDEST PUSH0 DUP3 PUSH1 0x1F DUP4 ADD SLT PUSH2 0xEE7 JUMPI PUSH2 0xEE6 PUSH2 0xDD4 JUMP JUMPDEST JUMPDEST DUP2 CALLDATALOAD PUSH2 0xEF7 DUP5 DUP3 PUSH1 0x20 DUP7 ADD PUSH2 0xE92 JUMP JUMPDEST SWAP2 POP POP SWAP3 SWAP2 POP POP JUMP JUMPDEST PUSH0 PUSH1 0x20 DUP3 DUP5 SUB SLT ISZERO PUSH2 0xF15 JUMPI PUSH2 0xF14 PUSH2 0xA99 JUMP JUMPDEST JUMPDEST PUSH0 DUP3 ADD CALLDATALOAD PUSH8 0xFFFFFFFFFFFFFFFF DUP2 GT ISZERO PUSH2 0xF32 JUMPI PUSH2 0xF31 PUSH2 0xA9D JUMP JUMPDEST JUMPDEST PUSH2 0xF3E DUP5 DUP3 DUP6 ADD PUSH2 0xED3 JUMP JUMPDEST SWAP2 POP POP SWAP3 SWAP2 POP POP JUMP JUMPDEST PUSH2 0xF50 DUP2 PUSH2 0xB7E JUMP JUMPDEST DUP2 EQ PUSH2 0xF5A JUMPI PUSH0 DUP1 REVERT JUMPDEST POP JUMP JUMPDEST PUSH0 DUP2 CALLDATALOAD SWAP1 POP PUSH2 0xF6B DUP2 PUSH2 0xF47 JUMP JUMPDEST SWAP3 SWAP2 POP POP JUMP JUMPDEST PUSH0 DUP1 PUSH1 0x40 DUP4 DUP6 SUB SLT ISZERO PUSH2 0xF87 JUMPI PUSH2 0xF86 PUSH2 0xA99 JUMP JUMPDEST JUMPDEST PUSH0 PUSH2 0xF94 DUP6 DUP3 DUP7 ADD PUSH2 0xAC0 JUMP JUMPDEST SWAP3 POP POP PUSH1 0x20 PUSH2 0xFA5 DUP6 DUP3 DUP7 ADD PUSH2 0xF5D JUMP JUMPDEST SWAP2 POP POP SWAP3 POP SWAP3 SWAP1 POP JUMP JUMPDEST PUSH32 0x4E487B7100000000000000000000000000000000000000000000000000000000 PUSH0 MSTORE PUSH1 0x22 PUSH1 0x4 MSTORE PUSH1 0x24 PUSH0 REVERT JUMPDEST PUSH0 PUSH1 0x2 DUP3 DIV SWAP1 POP PUSH1 0x1 DUP3 AND DUP1 PUSH2 0xFF3 JUMPI PUSH1 0x7F DUP3 AND SWAP2 POP JUMPDEST PUSH1 0x20 DUP3 LT DUP2 SUB PUSH2 0x1006 JUMPI PUSH2 0x1005 PUSH2 0xFAF JUMP JUMPDEST JUMPDEST POP SWAP2 SWAP1 POP JUMP JUMPDEST PUSH32 0x596F7520617265206E6F7420616E206F7267616E697A65722E00000000000000 PUSH0 DUP3 ADD MSTORE POP JUMP JUMPDEST PUSH0 PUSH2 0x1040 PUSH1 0x19 DUP4 PUSH2 0xB18 JUMP JUMPDEST SWAP2 POP PUSH2 0x104B DUP3 PUSH2 0x100C JUMP JUMPDEST PUSH1 0x20 DUP3 ADD SWAP1 POP SWAP2 SWAP1 POP JUMP JUMPDEST PUSH0 PUSH1 0x20 DUP3 ADD SWAP1 POP DUP2 DUP2 SUB PUSH0 DUP4 ADD MSTORE PUSH2 0x106D DUP2 PUSH2 0x1034 JUMP JUMPDEST SWAP1 POP SWAP2 SWAP1 POP JUMP JUMPDEST PUSH32 0x4F6E6C7920746865206F7267616E697A65722063616E20656E64207468697320 PUSH0 DUP3 ADD MSTORE PUSH32 0x6576656E742E0000000000000000000000000000000000000000000000000000 PUSH1 0x20 DUP3 ADD MSTORE POP JUMP JUMPDEST PUSH0 PUSH2 0x10CE PUSH1 0x26 DUP4 PUSH2 0xB18 JUMP JUMPDEST SWAP2 POP PUSH2 0x10D9 DUP3 PUSH2 0x1074 JUMP JUMPDEST PUSH1 0x40 DUP3 ADD SWAP1 POP SWAP2 SWAP1 POP JUMP JUMPDEST PUSH0 PUSH1 0x20 DUP3 ADD SWAP1 POP DUP2 DUP2 SUB PUSH0 DUP4 ADD MSTORE PUSH2 0x10FB DUP2 PUSH2 0x10C2 JUMP JUMPDEST SWAP1 POP SWAP2 SWAP1 POP JUMP JUMPDEST PUSH32 0x5573657220616C726561647920686173206120726F6C652E0000000000000000 PUSH0 DUP3 ADD MSTORE POP JUMP JUMPDEST PUSH0 PUSH2 0x1136 PUSH1 0x18 DUP4 PUSH2 0xB18 JUMP JUMPDEST SWAP2 POP PUSH2 0x1141 DUP3 PUSH2 0x1102 JUMP JUMPDEST PUSH1 0x20 DUP3 ADD SWAP1 POP SWAP2 SWAP1 POP JUMP JUMPDEST PUSH0 PUSH1 0x20 DUP3 ADD SWAP1 POP DUP2 DUP2 SUB PUSH0 DUP4 ADD MSTORE PUSH2 0x1163 DUP2 PUSH2 0x112A JUMP JUMPDEST SWAP1 POP SWAP2 SWAP1 POP JUMP JUMPDEST PUSH32 0x4576656E74206973207374696C6C206163746976652E00000000000000000000 PUSH0 DUP3 ADD MSTORE POP JUMP JUMPDEST PUSH0 PUSH2 0x119E PUSH1 0x16 DUP4 PUSH2 0xB18 JUMP JUMPDEST SWAP2 POP PUSH2 0x11A9 DUP3 PUSH2 0x116A JUMP JUMPDEST PUSH1 0x20 DUP3 ADD SWAP1 POP SWAP2 SWAP1 POP JUMP JUMPDEST PUSH0 PUSH1 0x20 DUP3 ADD SWAP1 POP DUP2 DUP2 SUB PUSH0 DUP4 ADD MSTORE PUSH2 0x11CB DUP2 PUSH2 0x1192 JUMP JUMPDEST SWAP1 POP SWAP2 SWAP1 POP JUMP JUMPDEST PUSH32 0x4E487B7100000000000000000000000000000000000000000000000000000000 PUSH0 MSTORE PUSH1 0x11 PUSH1 0x4 MSTORE PUSH1 0x24 PUSH0 REVERT JUMPDEST PUSH0 PUSH2 0x1209 DUP3 PUSH2 0xAA1 JUMP JUMPDEST SWAP2 POP PUSH32 0xFFFFFFFFFFFFFFFFFFFFFFFFFFFFFFFFFFFFFFFFFFFFFFFFFFFFFFFFFFFFFFFF DUP3 SUB PUSH2 0x123B JUMPI PUSH2 0x123A PUSH2 0x11D2 JUMP JUMPDEST JUMPDEST PUSH1 0x1 DUP3 ADD SWAP1 POP SWAP2 SWAP1 POP JUMP JUMPDEST PUSH0 DUP2 SWAP1 POP DUP2 PUSH0 MSTORE PUSH1 0x20 PUSH0 KECCAK256 SWAP1 POP SWAP2 SWAP1 POP JUMP JUMPDEST PUSH0 PUSH1 0x20 PUSH1 0x1F DUP4 ADD DIV SWAP1 POP SWAP2 SWAP1 POP JUMP JUMPDEST PUSH0 DUP3 DUP3 SHL SWAP1 POP SWAP3 SWAP2 POP POP JUMP JUMPDEST PUSH0 PUSH1 0x8 DUP4 MUL PUSH2 0x12A2 PUSH32 0xFFFFFFFFFFFFFFFFFFFFFFFFFFFFFFFFFFFFFFFFFFFFFFFFFFFFFFFFFFFFFFFF DUP3 PUSH2 0x1267 JUMP JUMPDEST PUSH2 0x12AC DUP7 DUP4 PUSH2 0x1267 JUMP JUMPDEST SWAP6 POP DUP1 NOT DUP5 AND SWAP4 POP DUP1 DUP7 AND DUP5 OR SWAP3 POP POP POP SWAP4 SWAP3 POP POP POP JUMP JUMPDEST PUSH0 DUP2 SWAP1 POP SWAP2 SWAP1 POP JUMP JUMPDEST PUSH0 PUSH2 0x12E7 PUSH2 0x12E2 PUSH2 0x12DD DUP5 PUSH2 0xAA1 JUMP JUMPDEST PUSH2 0x12C4 JUMP JUMPDEST PUSH2 0xAA1 JUMP JUMPDEST SWAP1 POP SWAP2 SWAP1 POP JUMP JUMPDEST PUSH0 DUP2 SWAP1 POP SWAP2 SWAP1 POP JUMP JUMPDEST PUSH2 0x1300 DUP4 PUSH2 0x12CD JUMP JUMPDEST PUSH2 0x1314 PUSH2 0x130C DUP3 PUSH2 0x12EE JUMP JUMPDEST DUP5 DUP5 SLOAD PUSH2 0x1273 JUMP JUMPDEST DUP3 SSTORE POP POP POP POP JUMP JUMPDEST PUSH0 SWAP1 JUMP JUMPDEST PUSH2 0x1328 PUSH2 0x131C JUMP JUMPDEST PUSH2 0x1333 DUP2 DUP5 DUP5 PUSH2 0x12F7 JUMP JUMPDEST POP POP POP JUMP JUMPDEST JUMPDEST DUP2 DUP2 LT ISZERO PUSH2 0x1356 JUMPI PUSH2 0x134B PUSH0 DUP3 PUSH2 0x1320 JUMP JUMPDEST PUSH1 0x1 DUP2 ADD SWAP1 POP PUSH2 0x1339 JUMP JUMPDEST POP POP JUMP JUMPDEST PUSH1 0x1F DUP3 GT ISZERO PUSH2 0x139B JUMPI PUSH2 0x136C DUP2 PUSH2 0x1246 JUMP JUMPDEST PUSH2 0x1375 DUP5 PUSH2 0x1258 JUMP JUMPDEST DUP2 ADD PUSH1 0x20 DUP6 LT ISZERO PUSH2 0x1384 JUMPI DUP2 SWAP1 POP JUMPDEST PUSH2 0x1398 PUSH2 0x1390 DUP6 PUSH2 0x1258 JUMP JUMPDEST DUP4 ADD DUP3 PUSH2 0x1338 JUMP JUMPDEST POP POP JUMPDEST POP POP POP JUMP JUMPDEST PUSH0 DUP3 DUP3 SHR SWAP1 POP SWAP3 SWAP2 POP POP JUMP JUMPDEST PUSH0 PUSH2 0x13BB PUSH0 NOT DUP5 PUSH1 0x8 MUL PUSH2 0x13A0 JUMP JUMPDEST NOT DUP1 DUP4 AND SWAP2 POP POP SWAP3 SWAP2 POP POP JUMP JUMPDEST PUSH0 PUSH2 0x13D3 DUP4 DUP4 PUSH2 0x13AC JUMP JUMPDEST SWAP2 POP DUP3 PUSH1 0x2 MUL DUP3 OR SWAP1 POP SWAP3 SWAP2 POP POP JUMP JUMPDEST PUSH2 0x13EC DUP3 PUSH2 0xB0E JUMP JUMPDEST PUSH8 0xFFFFFFFFFFFFFFFF DUP2 GT ISZERO PUSH2 0x1405 JUMPI PUSH2 0x1404 PUSH2 0xDDC JUMP JUMPDEST JUMPDEST PUSH2 0x140F DUP3 SLOAD PUSH2 0xFDC JUMP JUMPDEST PUSH2 0x141A DUP3 DUP3 DUP6 PUSH2 0x135A JUMP JUMPDEST PUSH0 PUSH1 0x20 SWAP1 POP PUSH1 0x1F DUP4 GT PUSH1 0x1 DUP2 EQ PUSH2 0x144B JUMPI PUSH0 DUP5 ISZERO PUSH2 0x1439 JUMPI DUP3 DUP8 ADD MLOAD SWAP1 POP JUMPDEST PUSH2 0x1443 DUP6 DUP3 PUSH2 0x13C8 JUMP JUMPDEST DUP7 SSTORE POP PUSH2 0x14AA JUMP JUMPDEST PUSH1 0x1F NOT DUP5 AND PUSH2 0x1459 DUP7 PUSH2 0x1246 JUMP JUMPDEST PUSH0 JUMPDEST DUP3 DUP2 LT ISZERO PUSH2 0x1480 JUMPI DUP5 DUP10 ADD MLOAD DUP3 SSTORE PUSH1 0x1 DUP3 ADD SWAP2 POP PUSH1 0x20 DUP6 ADD SWAP5 POP PUSH1 0x20 DUP2 ADD SWAP1 POP PUSH2 0x145B JUMP JUMPDEST DUP7 DUP4 LT ISZERO PUSH2 0x149D JUMPI DUP5 DUP10 ADD MLOAD PUSH2 0x1499 PUSH1 0x1F DUP10 AND DUP3 PUSH2 0x13AC JUMP JUMPDEST DUP4 SSTORE POP JUMPDEST PUSH1 0x1 PUSH1 0x2 DUP9 MUL ADD DUP9 SSTORE POP POP POP JUMPDEST POP POP POP POP POP POP JUMP JUMPDEST PUSH32 0x596F7520617265206E6F74206120766F7465722E000000000000000000000000 PUSH0 DUP3 ADD MSTORE POP JUMP JUMPDEST PUSH0 PUSH2 0x14E6 PUSH1 0x14 DUP4 PUSH2 0xB18 JUMP JUMPDEST SWAP2 POP PUSH2 0x14F1 DUP3 PUSH2 0x14B2 JUMP JUMPDEST PUSH1 0x20 DUP3 ADD SWAP1 POP SWAP2 SWAP1 POP JUMP JUMPDEST PUSH0 PUSH1 0x20 DUP3 ADD SWAP1 POP DUP2 DUP2 SUB PUSH0 DUP4 ADD MSTORE PUSH2 0x1513 DUP2 PUSH2 0x14DA JUMP JUMPDEST SWAP1 POP SWAP2 SWAP1 POP JUMP JUMPDEST PUSH32 0x4576656E74206973206E6F74206163746976652E000000000000000000000000 PUSH0 DUP3 ADD MSTORE POP JUMP JUMPDEST PUSH0 PUSH2 0x154E PUSH1 0x14 DUP4 PUSH2 0xB18 JUMP JUMPDEST SWAP2 POP PUSH2 0x1559 DUP3 PUSH2 0x151A JUMP JUMPDEST PUSH1 0x20 DUP3 ADD SWAP1 POP SWAP2 SWAP1 POP JUMP JUMPDEST PUSH0 PUSH1 0x20 DUP3 ADD SWAP1 POP DUP2 DUP2 SUB PUSH0 DUP4 ADD MSTORE PUSH2 0x157B DUP2 PUSH2 0x1542 JUMP JUMPDEST SWAP1 POP SWAP2 SWAP1 POP JUMP JUMPDEST PUSH32 0x596F75206861766520616C726561647920766F7465642E000000000000000000 PUSH0 DUP3 ADD MSTORE POP JUMP JUMPDEST PUSH0 PUSH2 0x15B6 PUSH1 0x17 DUP4 PUSH2 0xB18 JUMP JUMPDEST SWAP2 POP PUSH2 0x15C1 DUP3 PUSH2 0x1582 JUMP JUMPDEST PUSH1 0x20 DUP3 ADD SWAP1 POP SWAP2 SWAP1 POP JUMP JUMPDEST PUSH0 PUSH1 0x20 DUP3 ADD SWAP1 POP DUP2 DUP2 SUB PUSH0 DUP4 ADD MSTORE PUSH2 0x15E3 DUP2 PUSH2 0x15AA JUMP JUMPDEST SWAP1 POP SWAP2 SWAP1 POP JUMP INVALID LOG2 PUSH5 0x6970667358 0x22 SLT KECCAK256 DUP10 DUP3 PUSH0 ADD SMOD SLT DUP4 SWAP14 PUSH6 0x76AD28D2634 SWAP16 0x22 DUP4 SWAP15 SWAP16 0xB9 PUSH31 0xC6D98425EE6178D2F5164736F6C634300081A003300000000000000000000 "
				},
				"gasEstimates": {
					"creation": {
						"codeDepositCost": "1132800",
						"executionCost": "25557",
						"totalCost": "1158357"
					},
					"external": {
						"assignRole(address,uint8)": "29591",
						"createEvent(string)": "infinite",
						"endEvent(uint256)": "29255",
						"eventCount()": "2492",
						"events(uint256)": "infinite",
						"getResults(uint256)": "infinite",
						"roles(address)": "2942",
						"vote(uint256,bool)": "infinite"
					}
				},
				"methodIdentifiers": {
					"assignRole(address,uint8)": "630a195b",
					"createEvent(string)": "9bc2bc71",
					"endEvent(uint256)": "330a347b",
					"eventCount()": "71be2e4a",
					"events(uint256)": "0b791430",
					"getResults(uint256)": "81a60c0d",
					"roles(address)": "99374642",
					"vote(uint256,bool)": "c9d27afe"
				}
			},
			"storageLayout": {
				"storage": [
					{
						"astId": 10,
						"contract": "d-app/Voting.sol:VotingDApp",
						"label": "roles",
						"offset": 0,
						"slot": "0",
						"type": "t_mapping(t_address,t_enum(Role)5)"
					},
					{
						"astId": 32,
						"contract": "d-app/Voting.sol:VotingDApp",
						"label": "events",
						"offset": 0,
						"slot": "1",
						"type": "t_mapping(t_uint256,t_struct(Event)27_storage)"
					},
					{
						"astId": 34,
						"contract": "d-app/Voting.sol:VotingDApp",
						"label": "eventCount",
						"offset": 0,
						"slot": "2",
						"type": "t_uint256"
					}
				],
				"types": {
					"t_address": {
						"encoding": "inplace",
						"label": "address",
						"numberOfBytes": "20"
					},
					"t_bool": {
						"encoding": "inplace",
						"label": "bool",
						"numberOfBytes": "1"
					},
					"t_enum(Role)5": {
						"encoding": "inplace",
						"label": "enum VotingDApp.Role",
						"numberOfBytes": "1"
					},
					"t_mapping(t_address,t_bool)": {
						"encoding": "mapping",
						"key": "t_address",
						"label": "mapping(address => bool)",
						"numberOfBytes": "32",
						"value": "t_bool"
					},
					"t_mapping(t_address,t_enum(Role)5)": {
						"encoding": "mapping",
						"key": "t_address",
						"label": "mapping(address => enum VotingDApp.Role)",
						"numberOfBytes": "32",
						"value": "t_enum(Role)5"
					},
					"t_mapping(t_uint256,t_struct(Event)27_storage)": {
						"encoding": "mapping",
						"key": "t_uint256",
						"label": "mapping(uint256 => struct VotingDApp.Event)",
						"numberOfBytes": "32",
						"value": "t_struct(Event)27_storage"
					},
					"t_string_storage": {
						"encoding": "bytes",
						"label": "string",
						"numberOfBytes": "32"
					},
					"t_struct(Event)27_storage": {
						"encoding": "inplace",
						"label": "struct VotingDApp.Event",
						"members": [
							{
								"astId": 12,
								"contract": "d-app/Voting.sol:VotingDApp",
								"label": "id",
								"offset": 0,
								"slot": "0",
								"type": "t_uint256"
							},
							{
								"astId": 14,
								"contract": "d-app/Voting.sol:VotingDApp",
								"label": "name",
								"offset": 0,
								"slot": "1",
								"type": "t_string_storage"
							},
							{
								"astId": 16,
								"contract": "d-app/Voting.sol:VotingDApp",
								"label": "active",
								"offset": 0,
								"slot": "2",
								"type": "t_bool"
							},
							{
								"astId": 18,
								"contract": "d-app/Voting.sol:VotingDApp",
								"label": "yesVotes",
								"offset": 0,
								"slot": "3",
								"type": "t_uint256"
							},
							{
								"astId": 20,
								"contract": "d-app/Voting.sol:VotingDApp",
								"label": "noVotes",
								"offset": 0,
								"slot": "4",
								"type": "t_uint256"
							},
							{
								"astId": 24,
								"contract": "d-app/Voting.sol:VotingDApp",
								"label": "hasVoted",
								"offset": 0,
								"slot": "5",
								"type": "t_mapping(t_address,t_bool)"
							},
							{
								"astId": 26,
								"contract": "d-app/Voting.sol:VotingDApp",
								"label": "organizer",
								"offset": 0,
								"slot": "6",
								"type": "t_address"
							}
						],
						"numberOfBytes": "224"
					},
					"t_uint256": {
						"encoding": "inplace",
						"label": "uint256",
						"numberOfBytes": "32"
					}
				}
			},
			"userdoc": {
				"kind": "user",
				"methods": {},
				"version": 1
			}
		}
	}
}