{
	"d-app/Voting.sol": {
		"VotingDApp": {
			"abi": [
				{
					"inputs": [],
					"stateMutability": "nonpayable",
					"type": "constructor"
				},
				{
					"inputs": [
						{
							"internalType": "string",
							"name": "_name",
							"type": "string"
						},
						{
							"internalType": "string",
							"name": "_description",
							"type": "string"
						}
					],
					"name": "createEvent",
					"outputs": [],
					"stateMutability": "nonpayable",
					"type": "function"
				},
				{
					"inputs": [
						{
							"internalType": "uint256",
							"name": "_eventId",
							"type": "uint256"
						}
					],
					"name": "endEvent",
					"outputs": [],
					"stateMutability": "nonpayable",
					"type": "function"
				},
				{
					"inputs": [],
					"name": "eventCount",
					"outputs": [
						{
							"internalType": "uint256",
							"name": "",
							"type": "uint256"
						}
					],
					"stateMutability": "view",
					"type": "function"
				},
				{
					"inputs": [
						{
							"internalType": "uint256",
							"name": "",
							"type": "uint256"
						}
					],
					"name": "events",
					"outputs": [
						{
							"internalType": "uint256",
							"name": "id",
							"type": "uint256"
						},
						{
							"internalType": "string",
							"name": "name",
							"type": "string"
						},
						{
							"internalType": "string",
							"name": "description",
							"type": "string"
						},
						{
							"internalType": "uint256",
							"name": "totalVotes",
							"type": "uint256"
						},
						{
							"internalType": "bool",
							"name": "active",
							"type": "bool"
						},
						{
							"internalType": "uint256",
							"name": "vote1",
							"type": "uint256"
						},
						{
							"internalType": "uint256",
							"name": "vote2",
							"type": "uint256"
						},
						{
							"internalType": "uint256",
							"name": "vote3",
							"type": "uint256"
						},
						{
							"internalType": "uint256",
							"name": "vote4",
							"type": "uint256"
						},
						{
							"internalType": "address",
							"name": "organizer",
							"type": "address"
						}
					],
					"stateMutability": "view",
					"type": "function"
				},
				{
					"inputs": [],
					"name": "getAllEvents",
					"outputs": [
						{
							"internalType": "uint256[]",
							"name": "",
							"type": "uint256[]"
						},
						{
							"internalType": "string[]",
							"name": "",
							"type": "string[]"
						},
						{
							"internalType": "string[]",
							"name": "",
							"type": "string[]"
						},
						{
							"internalType": "uint256[]",
							"name": "",
							"type": "uint256[]"
						},
						{
							"internalType": "uint256[]",
							"name": "",
							"type": "uint256[]"
						},
						{
							"internalType": "uint256[]",
							"name": "",
							"type": "uint256[]"
						},
						{
							"internalType": "uint256[]",
							"name": "",
							"type": "uint256[]"
						},
						{
							"internalType": "uint256[]",
							"name": "",
							"type": "uint256[]"
						}
					],
					"stateMutability": "view",
					"type": "function"
				},
				{
					"inputs": [
						{
							"internalType": "uint256",
							"name": "_eventId",
							"type": "uint256"
						}
					],
					"name": "getResults",
					"outputs": [
						{
							"internalType": "string",
							"name": "",
							"type": "string"
						},
						{
							"internalType": "uint256",
							"name": "",
							"type": "uint256"
						},
						{
							"internalType": "uint256",
							"name": "",
							"type": "uint256"
						},
						{
							"internalType": "uint256",
							"name": "",
							"type": "uint256"
						},
						{
							"internalType": "uint256",
							"name": "",
							"type": "uint256"
						}
					],
					"stateMutability": "view",
					"type": "function"
				},
				{
					"inputs": [],
					"name": "getTop5EventIds",
					"outputs": [
						{
							"internalType": "uint256[]",
							"name": "",
							"type": "uint256[]"
						}
					],
					"stateMutability": "view",
					"type": "function"
				},
				{
					"inputs": [
						{
							"internalType": "uint256",
							"name": "_eventId",
							"type": "uint256"
						},
						{
							"internalType": "uint256",
							"name": "_optionIndex",
							"type": "uint256"
						}
					],
					"name": "vote",
					"outputs": [],
					"stateMutability": "nonpayable",
					"type": "function"
				}
			],
			"devdoc": {
				"kind": "dev",
				"methods": {},
				"version": 1
			},
			"evm": {
				"assembly": "    /* \"d-app/Voting.sol\":60:6470  contract VotingDApp {... */\n  mstore(0x40, 0x80)\n    /* \"d-app/Voting.sol\":2044:2603  constructor() {... */\n  callvalue\n  dup1\n  iszero\n  tag_1\n  jumpi\n  0x00\n  dup1\n  revert\ntag_1:\n  pop\n    /* \"d-app/Voting.sol\":2069:2170  createEventWithVotes(\"The Great Cookie Debate\", \"A heated debate over the best cookie.\", 1, 10, 3, 2) */\n  tag_4\n  mload(0x40)\n  dup1\n  0x40\n  add\n  0x40\n  mstore\n  dup1\n  0x17\n  dup2\n  mstore\n  0x20\n  add\n  0x54686520477265617420436f6f6b696520446562617465000000000000000000\n  dup2\n  mstore\n  pop\n  mload(0x40)\n  dup1\n  0x60\n  add\n  0x40\n  mstore\n  dup1\n  0x25\n  dup2\n  mstore\n  0x20\n  add\n  data_c899ff16b9c369ed86a1800d00bbb65ed328c8d2b5b93346f9ea12f7e6fa59fc\n  0x25\n  swap2\n  codecopy\n    /* \"d-app/Voting.sol\":2158:2159  1 */\n  0x01\n    /* \"d-app/Voting.sol\":2161:2163  10 */\n  0x0a\n    /* \"d-app/Voting.sol\":2165:2166  3 */\n  0x03\n    /* \"d-app/Voting.sol\":2168:2169  2 */\n  0x02\n    /* \"d-app/Voting.sol\":2069:2089  createEventWithVotes */\n  shl(0x20, tag_5)\n    /* \"d-app/Voting.sol\":2069:2170  createEventWithVotes(\"The Great Cookie Debate\", \"A heated debate over the best cookie.\", 1, 10, 3, 2) */\n  0x20\n  shr\n  jump\t// in\ntag_4:\n    /* \"d-app/Voting.sol\":2181:2276  createEventWithVotes(\"Dance-Off at the Office\", \"A fun dance competition at work.\", 8, 1, 4, 0) */\n  tag_6\n  mload(0x40)\n  dup1\n  0x40\n  add\n  0x40\n  mstore\n  dup1\n  0x17\n  dup2\n  mstore\n  0x20\n  add\n  0x44616e63652d4f666620617420746865204f6666696365000000000000000000\n  dup2\n  mstore\n  pop\n  mload(0x40)\n  dup1\n  0x40\n  add\n  0x40\n  mstore\n  dup1\n  0x20\n  dup2\n  mstore\n  0x20\n  add\n  0x412066756e2064616e636520636f6d7065746974696f6e20617420776f726b2e\n  dup2\n  mstore\n  pop\n    /* \"d-app/Voting.sol\":2265:2266  8 */\n  0x08\n    /* \"d-app/Voting.sol\":2268:2269  1 */\n  0x01\n    /* \"d-app/Voting.sol\":2271:2272  4 */\n  0x04\n    /* \"d-app/Voting.sol\":2274:2275  0 */\n  0x00\n    /* \"d-app/Voting.sol\":2181:2201  createEventWithVotes */\n  shl(0x20, tag_5)\n    /* \"d-app/Voting.sol\":2181:2276  createEventWithVotes(\"Dance-Off at the Office\", \"A fun dance competition at work.\", 8, 1, 4, 0) */\n  0x20\n  shr\n  jump\t// in\ntag_6:\n    /* \"d-app/Voting.sol\":2287:2387  createEventWithVotes(\"Battle of the Couch Potatoes\", \"Who's the ultimate couch potato?\", 2, 1, 9, 3) */\n  tag_7\n  mload(0x40)\n  dup1\n  0x40\n  add\n  0x40\n  mstore\n  dup1\n  0x1c\n  dup2\n  mstore\n  0x20\n  add\n  0x426174746c65206f662074686520436f75636820506f7461746f657300000000\n  dup2\n  mstore\n  pop\n  mload(0x40)\n  dup1\n  0x40\n  add\n  0x40\n  mstore\n  dup1\n  0x20\n  dup2\n  mstore\n  0x20\n  add\n  0x57686f27732074686520756c74696d61746520636f75636820706f7461746f3f\n  dup2\n  mstore\n  pop\n    /* \"d-app/Voting.sol\":2376:2377  2 */\n  0x02\n    /* \"d-app/Voting.sol\":2379:2380  1 */\n  0x01\n    /* \"d-app/Voting.sol\":2382:2383  9 */\n  0x09\n    /* \"d-app/Voting.sol\":2385:2386  3 */\n  0x03\n    /* \"d-app/Voting.sol\":2287:2307  createEventWithVotes */\n  shl(0x20, tag_5)\n    /* \"d-app/Voting.sol\":2287:2387  createEventWithVotes(\"Battle of the Couch Potatoes\", \"Who's the ultimate couch potato?\", 2, 1, 9, 3) */\n  0x20\n  shr\n  jump\t// in\ntag_7:\n    /* \"d-app/Voting.sol\":2398:2488  createEventWithVotes(\"Pajama Fashion Showdown\", \"Show off your best pajamas!\", 0, 1, 5, 8) */\n  tag_8\n  mload(0x40)\n  dup1\n  0x40\n  add\n  0x40\n  mstore\n  dup1\n  0x17\n  dup2\n  mstore\n  0x20\n  add\n  0x50616a616d612046617368696f6e2053686f77646f776e000000000000000000\n  dup2\n  mstore\n  pop\n  mload(0x40)\n  dup1\n  0x40\n  add\n  0x40\n  mstore\n  dup1\n  0x1b\n  dup2\n  mstore\n  0x20\n  add\n  0x53686f77206f666620796f757220626573742070616a616d6173210000000000\n  dup2\n  mstore\n  pop\n    /* \"d-app/Voting.sol\":2477:2478  0 */\n  0x00\n    /* \"d-app/Voting.sol\":2480:2481  1 */\n  0x01\n    /* \"d-app/Voting.sol\":2483:2484  5 */\n  0x05\n    /* \"d-app/Voting.sol\":2486:2487  8 */\n  0x08\n    /* \"d-app/Voting.sol\":2398:2418  createEventWithVotes */\n  shl(0x20, tag_5)\n    /* \"d-app/Voting.sol\":2398:2488  createEventWithVotes(\"Pajama Fashion Showdown\", \"Show off your best pajamas!\", 0, 1, 5, 8) */\n  0x20\n  shr\n  jump\t// in\ntag_8:\n    /* \"d-app/Voting.sol\":2499:2595  createEventWithVotes(\"The Epic Paper Airplane Contest\", \"Who can fly the furthest?\", 4, 3, 2, 4) */\n  tag_9\n  mload(0x40)\n  dup1\n  0x40\n  add\n  0x40\n  mstore\n  dup1\n  0x1f\n  dup2\n  mstore\n  0x20\n  add\n  0x546865204570696320506170657220416972706c616e6520436f6e7465737400\n  dup2\n  mstore\n  pop\n  mload(0x40)\n  dup1\n  0x40\n  add\n  0x40\n  mstore\n  dup1\n  0x19\n  dup2\n  mstore\n  0x20\n  add\n  0x57686f2063616e20666c79207468652066757274686573743f00000000000000\n  dup2\n  mstore\n  pop\n    /* \"d-app/Voting.sol\":2584:2585  4 */\n  0x04\n    /* \"d-app/Voting.sol\":2587:2588  3 */\n  0x03\n    /* \"d-app/Voting.sol\":2590:2591  2 */\n  0x02\n    /* \"d-app/Voting.sol\":2593:2594  4 */\n  0x04\n    /* \"d-app/Voting.sol\":2499:2519  createEventWithVotes */\n  shl(0x20, tag_5)\n    /* \"d-app/Voting.sol\":2499:2595  createEventWithVotes(\"The Epic Paper Airplane Contest\", \"Who can fly the furthest?\", 4, 3, 2, 4) */\n  0x20\n  shr\n  jump\t// in\ntag_9:\n    /* \"d-app/Voting.sol\":60:6470  contract VotingDApp {... */\n  jump(tag_10)\n    /* \"d-app/Voting.sol\":828:1470  function createEventWithVotes(string memory _name, string memory _description, uint _vote1, uint _vote2, uint _vote3, uint _vote4) internal {... */\ntag_5:\n    /* \"d-app/Voting.sol\":979:989  eventCount */\n  0x01\n  0x00\n    /* \"d-app/Voting.sol\":979:991  eventCount++ */\n  dup2\n  sload\n  dup1\n  swap3\n  swap2\n  swap1\n  tag_12\n  swap1\n  tag_13\n  jump\t// in\ntag_12:\n  swap2\n  swap1\n  pop\n  sstore\n  pop\n    /* \"d-app/Voting.sol\":1002:1024  Event storage newEvent */\n  0x00\n    /* \"d-app/Voting.sol\":1027:1033  events */\n  dup1\n    /* \"d-app/Voting.sol\":1027:1045  events[eventCount] */\n  0x00\n    /* \"d-app/Voting.sol\":1034:1044  eventCount */\n  sload(0x01)\n    /* \"d-app/Voting.sol\":1027:1045  events[eventCount] */\n  dup2\n  mstore\n  0x20\n  add\n  swap1\n  dup2\n  mstore\n  0x20\n  add\n  0x00\n  keccak256\n    /* \"d-app/Voting.sol\":1002:1045  Event storage newEvent = events[eventCount] */\n  swap1\n  pop\n    /* \"d-app/Voting.sol\":1070:1080  eventCount */\n  sload(0x01)\n    /* \"d-app/Voting.sol\":1056:1064  newEvent */\n  dup2\n    /* \"d-app/Voting.sol\":1056:1067  newEvent.id */\n  0x00\n  add\n    /* \"d-app/Voting.sol\":1056:1080  newEvent.id = eventCount */\n  dup2\n  swap1\n  sstore\n  pop\n    /* \"d-app/Voting.sol\":1107:1112  _name */\n  dup7\n    /* \"d-app/Voting.sol\":1091:1099  newEvent */\n  dup2\n    /* \"d-app/Voting.sol\":1091:1104  newEvent.name */\n  0x01\n  add\n    /* \"d-app/Voting.sol\":1091:1112  newEvent.name = _name */\n  swap1\n  dup2\n  tag_14\n  swap2\n  swap1\n  tag_15\n  jump\t// in\ntag_14:\n  pop\n    /* \"d-app/Voting.sol\":1146:1158  _description */\n  dup6\n    /* \"d-app/Voting.sol\":1123:1131  newEvent */\n  dup2\n    /* \"d-app/Voting.sol\":1123:1143  newEvent.description */\n  0x02\n  add\n    /* \"d-app/Voting.sol\":1123:1158  newEvent.description = _description */\n  swap1\n  dup2\n  tag_16\n  swap2\n  swap1\n  tag_15\n  jump\t// in\ntag_16:\n  pop\n    /* \"d-app/Voting.sol\":1214:1218  true */\n  0x01\n    /* \"d-app/Voting.sol\":1196:1204  newEvent */\n  dup2\n    /* \"d-app/Voting.sol\":1196:1211  newEvent.active */\n  0x04\n  add\n  0x00\n    /* \"d-app/Voting.sol\":1196:1218  newEvent.active = true */\n  0x0100\n  exp\n  dup2\n  sload\n  dup2\n  0xff\n  mul\n  not\n  and\n  swap1\n  dup4\n  iszero\n  iszero\n  mul\n  or\n  swap1\n  sstore\n  pop\n    /* \"d-app/Voting.sol\":1250:1260  msg.sender */\n  caller\n    /* \"d-app/Voting.sol\":1229:1237  newEvent */\n  dup2\n    /* \"d-app/Voting.sol\":1229:1247  newEvent.organizer */\n  0x0a\n  add\n  0x00\n    /* \"d-app/Voting.sol\":1229:1260  newEvent.organizer = msg.sender */\n  0x0100\n  exp\n  dup2\n  sload\n  dup2\n  0xffffffffffffffffffffffffffffffffffffffff\n  mul\n  not\n  and\n  swap1\n  dup4\n  0xffffffffffffffffffffffffffffffffffffffff\n  and\n  mul\n  or\n  swap1\n  sstore\n  pop\n    /* \"d-app/Voting.sol\":1288:1294  _vote1 */\n  dup5\n    /* \"d-app/Voting.sol\":1271:1279  newEvent */\n  dup2\n    /* \"d-app/Voting.sol\":1271:1285  newEvent.vote1 */\n  0x05\n  add\n    /* \"d-app/Voting.sol\":1271:1294  newEvent.vote1 = _vote1 */\n  dup2\n  swap1\n  sstore\n  pop\n    /* \"d-app/Voting.sol\":1322:1328  _vote2 */\n  dup4\n    /* \"d-app/Voting.sol\":1305:1313  newEvent */\n  dup2\n    /* \"d-app/Voting.sol\":1305:1319  newEvent.vote2 */\n  0x06\n  add\n    /* \"d-app/Voting.sol\":1305:1328  newEvent.vote2 = _vote2 */\n  dup2\n  swap1\n  sstore\n  pop\n    /* \"d-app/Voting.sol\":1356:1362  _vote3 */\n  dup3\n    /* \"d-app/Voting.sol\":1339:1347  newEvent */\n  dup2\n    /* \"d-app/Voting.sol\":1339:1353  newEvent.vote3 */\n  0x07\n  add\n    /* \"d-app/Voting.sol\":1339:1362  newEvent.vote3 = _vote3 */\n  dup2\n  swap1\n  sstore\n  pop\n    /* \"d-app/Voting.sol\":1390:1396  _vote4 */\n  dup2\n    /* \"d-app/Voting.sol\":1373:1381  newEvent */\n  dup2\n    /* \"d-app/Voting.sol\":1373:1387  newEvent.vote4 */\n  0x08\n  add\n    /* \"d-app/Voting.sol\":1373:1396  newEvent.vote4 = _vote4 */\n  dup2\n  swap1\n  sstore\n  pop\n    /* \"d-app/Voting.sol\":1456:1462  _vote4 */\n  dup2\n    /* \"d-app/Voting.sol\":1447:1453  _vote3 */\n  dup4\n    /* \"d-app/Voting.sol\":1438:1444  _vote2 */\n  dup6\n    /* \"d-app/Voting.sol\":1429:1435  _vote1 */\n  dup8\n    /* \"d-app/Voting.sol\":1429:1444  _vote1 + _vote2 */\n  tag_17\n  swap2\n  swap1\n  tag_18\n  jump\t// in\ntag_17:\n    /* \"d-app/Voting.sol\":1429:1453  _vote1 + _vote2 + _vote3 */\n  tag_19\n  swap2\n  swap1\n  tag_18\n  jump\t// in\ntag_19:\n    /* \"d-app/Voting.sol\":1429:1462  _vote1 + _vote2 + _vote3 + _vote4 */\n  tag_20\n  swap2\n  swap1\n  tag_18\n  jump\t// in\ntag_20:\n    /* \"d-app/Voting.sol\":1407:1415  newEvent */\n  dup2\n    /* \"d-app/Voting.sol\":1407:1426  newEvent.totalVotes */\n  0x03\n  add\n    /* \"d-app/Voting.sol\":1407:1462  newEvent.totalVotes = _vote1 + _vote2 + _vote3 + _vote4 */\n  dup2\n  swap1\n  sstore\n  pop\n    /* \"d-app/Voting.sol\":968:1470  {... */\n  pop\n    /* \"d-app/Voting.sol\":828:1470  function createEventWithVotes(string memory _name, string memory _description, uint _vote1, uint _vote2, uint _vote3, uint _vote4) internal {... */\n  pop\n  pop\n  pop\n  pop\n  pop\n  pop\n  jump\t// out\n    /* \"#utility.yul\":7:187   */\ntag_21:\n    /* \"#utility.yul\":55:132   */\n  0x4e487b7100000000000000000000000000000000000000000000000000000000\n    /* \"#utility.yul\":52:53   */\n  0x00\n    /* \"#utility.yul\":45:133   */\n  mstore\n    /* \"#utility.yul\":152:156   */\n  0x11\n    /* \"#utility.yul\":149:150   */\n  0x04\n    /* \"#utility.yul\":142:157   */\n  mstore\n    /* \"#utility.yul\":176:180   */\n  0x24\n    /* \"#utility.yul\":173:174   */\n  0x00\n    /* \"#utility.yul\":166:181   */\n  revert\n    /* \"#utility.yul\":193:270   */\ntag_22:\n    /* \"#utility.yul\":230:237   */\n  0x00\n    /* \"#utility.yul\":259:264   */\n  dup2\n    /* \"#utility.yul\":248:264   */\n  swap1\n  pop\n    /* \"#utility.yul\":193:270   */\n  swap2\n  swap1\n  pop\n  jump\t// out\n    /* \"#utility.yul\":276:509   */\ntag_13:\n    /* \"#utility.yul\":315:318   */\n  0x00\n    /* \"#utility.yul\":338:362   */\n  tag_46\n    /* \"#utility.yul\":356:361   */\n  dup3\n    /* \"#utility.yul\":338:362   */\n  tag_22\n  jump\t// in\ntag_46:\n    /* \"#utility.yul\":329:362   */\n  swap2\n  pop\n    /* \"#utility.yul\":384:450   */\n  0xffffffffffffffffffffffffffffffffffffffffffffffffffffffffffffffff\n    /* \"#utility.yul\":377:382   */\n  dup3\n    /* \"#utility.yul\":374:451   */\n  sub\n    /* \"#utility.yul\":371:474   */\n  tag_47\n  jumpi\n    /* \"#utility.yul\":454:472   */\n  tag_48\n  tag_21\n  jump\t// in\ntag_48:\n    /* \"#utility.yul\":371:474   */\ntag_47:\n    /* \"#utility.yul\":501:502   */\n  0x01\n    /* \"#utility.yul\":494:499   */\n  dup3\n    /* \"#utility.yul\":490:503   */\n  add\n    /* \"#utility.yul\":483:503   */\n  swap1\n  pop\n    /* \"#utility.yul\":276:509   */\n  swap2\n  swap1\n  pop\n  jump\t// out\n    /* \"#utility.yul\":515:614   */\ntag_23:\n    /* \"#utility.yul\":567:573   */\n  0x00\n    /* \"#utility.yul\":601:606   */\n  dup2\n    /* \"#utility.yul\":595:607   */\n  mload\n    /* \"#utility.yul\":585:607   */\n  swap1\n  pop\n    /* \"#utility.yul\":515:614   */\n  swap2\n  swap1\n  pop\n  jump\t// out\n    /* \"#utility.yul\":620:800   */\ntag_24:\n    /* \"#utility.yul\":668:745   */\n  0x4e487b7100000000000000000000000000000000000000000000000000000000\n    /* \"#utility.yul\":665:666   */\n  0x00\n    /* \"#utility.yul\":658:746   */\n  mstore\n    /* \"#utility.yul\":765:769   */\n  0x41\n    /* \"#utility.yul\":762:763   */\n  0x04\n    /* \"#utility.yul\":755:770   */\n  mstore\n    /* \"#utility.yul\":789:793   */\n  0x24\n    /* \"#utility.yul\":786:787   */\n  0x00\n    /* \"#utility.yul\":779:794   */\n  revert\n    /* \"#utility.yul\":806:986   */\ntag_25:\n    /* \"#utility.yul\":854:931   */\n  0x4e487b7100000000000000000000000000000000000000000000000000000000\n    /* \"#utility.yul\":851:852   */\n  0x00\n    /* \"#utility.yul\":844:932   */\n  mstore\n    /* \"#utility.yul\":951:955   */\n  0x22\n    /* \"#utility.yul\":948:949   */\n  0x04\n    /* \"#utility.yul\":941:956   */\n  mstore\n    /* \"#utility.yul\":975:979   */\n  0x24\n    /* \"#utility.yul\":972:973   */\n  0x00\n    /* \"#utility.yul\":965:980   */\n  revert\n    /* \"#utility.yul\":992:1312   */\ntag_26:\n    /* \"#utility.yul\":1036:1042   */\n  0x00\n    /* \"#utility.yul\":1073:1074   */\n  0x02\n    /* \"#utility.yul\":1067:1071   */\n  dup3\n    /* \"#utility.yul\":1063:1075   */\n  div\n    /* \"#utility.yul\":1053:1075   */\n  swap1\n  pop\n    /* \"#utility.yul\":1120:1121   */\n  0x01\n    /* \"#utility.yul\":1114:1118   */\n  dup3\n    /* \"#utility.yul\":1110:1122   */\n  and\n    /* \"#utility.yul\":1141:1159   */\n  dup1\n    /* \"#utility.yul\":1131:1212   */\n  tag_53\n  jumpi\n    /* \"#utility.yul\":1197:1201   */\n  0x7f\n    /* \"#utility.yul\":1189:1195   */\n  dup3\n    /* \"#utility.yul\":1185:1202   */\n  and\n    /* \"#utility.yul\":1175:1202   */\n  swap2\n  pop\n    /* \"#utility.yul\":1131:1212   */\ntag_53:\n    /* \"#utility.yul\":1259:1261   */\n  0x20\n    /* \"#utility.yul\":1251:1257   */\n  dup3\n    /* \"#utility.yul\":1248:1262   */\n  lt\n    /* \"#utility.yul\":1228:1246   */\n  dup2\n    /* \"#utility.yul\":1225:1263   */\n  sub\n    /* \"#utility.yul\":1222:1306   */\n  tag_54\n  jumpi\n    /* \"#utility.yul\":1278:1296   */\n  tag_55\n  tag_25\n  jump\t// in\ntag_55:\n    /* \"#utility.yul\":1222:1306   */\ntag_54:\n    /* \"#utility.yul\":1043:1312   */\n  pop\n    /* \"#utility.yul\":992:1312   */\n  swap2\n  swap1\n  pop\n  jump\t// out\n    /* \"#utility.yul\":1318:1459   */\ntag_27:\n    /* \"#utility.yul\":1367:1371   */\n  0x00\n    /* \"#utility.yul\":1390:1393   */\n  dup2\n    /* \"#utility.yul\":1382:1393   */\n  swap1\n  pop\n    /* \"#utility.yul\":1413:1416   */\n  dup2\n    /* \"#utility.yul\":1410:1411   */\n  0x00\n    /* \"#utility.yul\":1403:1417   */\n  mstore\n    /* \"#utility.yul\":1447:1451   */\n  0x20\n    /* \"#utility.yul\":1444:1445   */\n  0x00\n    /* \"#utility.yul\":1434:1452   */\n  keccak256\n    /* \"#utility.yul\":1426:1452   */\n  swap1\n  pop\n    /* \"#utility.yul\":1318:1459   */\n  swap2\n  swap1\n  pop\n  jump\t// out\n    /* \"#utility.yul\":1465:1558   */\ntag_28:\n    /* \"#utility.yul\":1502:1508   */\n  0x00\n    /* \"#utility.yul\":1549:1551   */\n  0x20\n    /* \"#utility.yul\":1544:1546   */\n  0x1f\n    /* \"#utility.yul\":1537:1542   */\n  dup4\n    /* \"#utility.yul\":1533:1547   */\n  add\n    /* \"#utility.yul\":1529:1552   */\n  div\n    /* \"#utility.yul\":1519:1552   */\n  swap1\n  pop\n    /* \"#utility.yul\":1465:1558   */\n  swap2\n  swap1\n  pop\n  jump\t// out\n    /* \"#utility.yul\":1564:1671   */\ntag_29:\n    /* \"#utility.yul\":1608:1616   */\n  0x00\n    /* \"#utility.yul\":1658:1663   */\n  dup3\n    /* \"#utility.yul\":1652:1656   */\n  dup3\n    /* \"#utility.yul\":1648:1664   */\n  shl\n    /* \"#utility.yul\":1627:1664   */\n  swap1\n  pop\n    /* \"#utility.yul\":1564:1671   */\n  swap3\n  swap2\n  pop\n  pop\n  jump\t// out\n    /* \"#utility.yul\":1677:2070   */\ntag_30:\n    /* \"#utility.yul\":1746:1752   */\n  0x00\n    /* \"#utility.yul\":1796:1797   */\n  0x08\n    /* \"#utility.yul\":1784:1794   */\n  dup4\n    /* \"#utility.yul\":1780:1798   */\n  mul\n    /* \"#utility.yul\":1819:1916   */\n  tag_60\n    /* \"#utility.yul\":1849:1915   */\n  0xffffffffffffffffffffffffffffffffffffffffffffffffffffffffffffffff\n    /* \"#utility.yul\":1838:1847   */\n  dup3\n    /* \"#utility.yul\":1819:1916   */\n  tag_29\n  jump\t// in\ntag_60:\n    /* \"#utility.yul\":1937:1976   */\n  tag_61\n    /* \"#utility.yul\":1967:1975   */\n  dup7\n    /* \"#utility.yul\":1956:1965   */\n  dup4\n    /* \"#utility.yul\":1937:1976   */\n  tag_29\n  jump\t// in\ntag_61:\n    /* \"#utility.yul\":1925:1976   */\n  swap6\n  pop\n    /* \"#utility.yul\":2009:2013   */\n  dup1\n    /* \"#utility.yul\":2005:2014   */\n  not\n    /* \"#utility.yul\":1998:2003   */\n  dup5\n    /* \"#utility.yul\":1994:2015   */\n  and\n    /* \"#utility.yul\":1985:2015   */\n  swap4\n  pop\n    /* \"#utility.yul\":2058:2062   */\n  dup1\n    /* \"#utility.yul\":2048:2056   */\n  dup7\n    /* \"#utility.yul\":2044:2063   */\n  and\n    /* \"#utility.yul\":2037:2042   */\n  dup5\n    /* \"#utility.yul\":2034:2064   */\n  or\n    /* \"#utility.yul\":2024:2064   */\n  swap3\n  pop\n    /* \"#utility.yul\":1753:2070   */\n  pop\n  pop\n    /* \"#utility.yul\":1677:2070   */\n  swap4\n  swap3\n  pop\n  pop\n  pop\n  jump\t// out\n    /* \"#utility.yul\":2076:2136   */\ntag_31:\n    /* \"#utility.yul\":2104:2107   */\n  0x00\n    /* \"#utility.yul\":2125:2130   */\n  dup2\n    /* \"#utility.yul\":2118:2130   */\n  swap1\n  pop\n    /* \"#utility.yul\":2076:2136   */\n  swap2\n  swap1\n  pop\n  jump\t// out\n    /* \"#utility.yul\":2142:2284   */\ntag_32:\n    /* \"#utility.yul\":2192:2201   */\n  0x00\n    /* \"#utility.yul\":2225:2278   */\n  tag_64\n    /* \"#utility.yul\":2243:2277   */\n  tag_65\n    /* \"#utility.yul\":2252:2276   */\n  tag_66\n    /* \"#utility.yul\":2270:2275   */\n  dup5\n    /* \"#utility.yul\":2252:2276   */\n  tag_22\n  jump\t// in\ntag_66:\n    /* \"#utility.yul\":2243:2277   */\n  tag_31\n  jump\t// in\ntag_65:\n    /* \"#utility.yul\":2225:2278   */\n  tag_22\n  jump\t// in\ntag_64:\n    /* \"#utility.yul\":2212:2278   */\n  swap1\n  pop\n    /* \"#utility.yul\":2142:2284   */\n  swap2\n  swap1\n  pop\n  jump\t// out\n    /* \"#utility.yul\":2290:2365   */\ntag_33:\n    /* \"#utility.yul\":2333:2336   */\n  0x00\n    /* \"#utility.yul\":2354:2359   */\n  dup2\n    /* \"#utility.yul\":2347:2359   */\n  swap1\n  pop\n    /* \"#utility.yul\":2290:2365   */\n  swap2\n  swap1\n  pop\n  jump\t// out\n    /* \"#utility.yul\":2371:2640   */\ntag_34:\n    /* \"#utility.yul\":2481:2520   */\n  tag_69\n    /* \"#utility.yul\":2512:2519   */\n  dup4\n    /* \"#utility.yul\":2481:2520   */\n  tag_32\n  jump\t// in\ntag_69:\n    /* \"#utility.yul\":2542:2633   */\n  tag_70\n    /* \"#utility.yul\":2591:2632   */\n  tag_71\n    /* \"#utility.yul\":2615:2631   */\n  dup3\n    /* \"#utility.yul\":2591:2632   */\n  tag_33\n  jump\t// in\ntag_71:\n    /* \"#utility.yul\":2583:2589   */\n  dup5\n    /* \"#utility.yul\":2576:2580   */\n  dup5\n    /* \"#utility.yul\":2570:2581   */\n  sload\n    /* \"#utility.yul\":2542:2633   */\n  tag_30\n  jump\t// in\ntag_70:\n    /* \"#utility.yul\":2536:2540   */\n  dup3\n    /* \"#utility.yul\":2529:2634   */\n  sstore\n    /* \"#utility.yul\":2447:2640   */\n  pop\n    /* \"#utility.yul\":2371:2640   */\n  pop\n  pop\n  pop\n  jump\t// out\n    /* \"#utility.yul\":2646:2719   */\ntag_35:\n    /* \"#utility.yul\":2691:2694   */\n  0x00\n    /* \"#utility.yul\":2646:2719   */\n  swap1\n  jump\t// out\n    /* \"#utility.yul\":2725:2914   */\ntag_36:\n    /* \"#utility.yul\":2802:2834   */\n  tag_74\n  tag_35\n  jump\t// in\ntag_74:\n    /* \"#utility.yul\":2843:2908   */\n  tag_75\n    /* \"#utility.yul\":2901:2907   */\n  dup2\n    /* \"#utility.yul\":2893:2899   */\n  dup5\n    /* \"#utility.yul\":2887:2891   */\n  dup5\n    /* \"#utility.yul\":2843:2908   */\n  tag_34\n  jump\t// in\ntag_75:\n    /* \"#utility.yul\":2778:2914   */\n  pop\n    /* \"#utility.yul\":2725:2914   */\n  pop\n  pop\n  jump\t// out\n    /* \"#utility.yul\":2920:3106   */\ntag_37:\n    /* \"#utility.yul\":2980:3100   */\ntag_77:\n    /* \"#utility.yul\":2997:3000   */\n  dup2\n    /* \"#utility.yul\":2990:2995   */\n  dup2\n    /* \"#utility.yul\":2987:3001   */\n  lt\n    /* \"#utility.yul\":2980:3100   */\n  iszero\n  tag_79\n  jumpi\n    /* \"#utility.yul\":3051:3090   */\n  tag_80\n    /* \"#utility.yul\":3088:3089   */\n  0x00\n    /* \"#utility.yul\":3081:3086   */\n  dup3\n    /* \"#utility.yul\":3051:3090   */\n  tag_36\n  jump\t// in\ntag_80:\n    /* \"#utility.yul\":3024:3025   */\n  0x01\n    /* \"#utility.yul\":3017:3022   */\n  dup2\n    /* \"#utility.yul\":3013:3026   */\n  add\n    /* \"#utility.yul\":3004:3026   */\n  swap1\n  pop\n    /* \"#utility.yul\":2980:3100   */\n  jump(tag_77)\ntag_79:\n    /* \"#utility.yul\":2920:3106   */\n  pop\n  pop\n  jump\t// out\n    /* \"#utility.yul\":3112:3655   */\ntag_38:\n    /* \"#utility.yul\":3213:3215   */\n  0x1f\n    /* \"#utility.yul\":3208:3211   */\n  dup3\n    /* \"#utility.yul\":3205:3216   */\n  gt\n    /* \"#utility.yul\":3202:3648   */\n  iszero\n  tag_82\n  jumpi\n    /* \"#utility.yul\":3247:3285   */\n  tag_83\n    /* \"#utility.yul\":3279:3284   */\n  dup2\n    /* \"#utility.yul\":3247:3285   */\n  tag_27\n  jump\t// in\ntag_83:\n    /* \"#utility.yul\":3331:3360   */\n  tag_84\n    /* \"#utility.yul\":3349:3359   */\n  dup5\n    /* \"#utility.yul\":3331:3360   */\n  tag_28\n  jump\t// in\ntag_84:\n    /* \"#utility.yul\":3321:3329   */\n  dup2\n    /* \"#utility.yul\":3317:3361   */\n  add\n    /* \"#utility.yul\":3514:3516   */\n  0x20\n    /* \"#utility.yul\":3502:3512   */\n  dup6\n    /* \"#utility.yul\":3499:3517   */\n  lt\n    /* \"#utility.yul\":3496:3545   */\n  iszero\n  tag_85\n  jumpi\n    /* \"#utility.yul\":3535:3543   */\n  dup2\n    /* \"#utility.yul\":3520:3543   */\n  swap1\n  pop\n    /* \"#utility.yul\":3496:3545   */\ntag_85:\n    /* \"#utility.yul\":3558:3638   */\n  tag_86\n    /* \"#utility.yul\":3614:3636   */\n  tag_87\n    /* \"#utility.yul\":3632:3635   */\n  dup6\n    /* \"#utility.yul\":3614:3636   */\n  tag_28\n  jump\t// in\ntag_87:\n    /* \"#utility.yul\":3604:3612   */\n  dup4\n    /* \"#utility.yul\":3600:3637   */\n  add\n    /* \"#utility.yul\":3587:3598   */\n  dup3\n    /* \"#utility.yul\":3558:3638   */\n  tag_37\n  jump\t// in\ntag_86:\n    /* \"#utility.yul\":3217:3648   */\n  pop\n  pop\n    /* \"#utility.yul\":3202:3648   */\ntag_82:\n    /* \"#utility.yul\":3112:3655   */\n  pop\n  pop\n  pop\n  jump\t// out\n    /* \"#utility.yul\":3661:3778   */\ntag_39:\n    /* \"#utility.yul\":3715:3723   */\n  0x00\n    /* \"#utility.yul\":3765:3770   */\n  dup3\n    /* \"#utility.yul\":3759:3763   */\n  dup3\n    /* \"#utility.yul\":3755:3771   */\n  shr\n    /* \"#utility.yul\":3734:3771   */\n  swap1\n  pop\n    /* \"#utility.yul\":3661:3778   */\n  swap3\n  swap2\n  pop\n  pop\n  jump\t// out\n    /* \"#utility.yul\":3784:3953   */\ntag_40:\n    /* \"#utility.yul\":3828:3834   */\n  0x00\n    /* \"#utility.yul\":3861:3912   */\n  tag_90\n    /* \"#utility.yul\":3909:3910   */\n  0x00\n    /* \"#utility.yul\":3905:3911   */\n  not\n    /* \"#utility.yul\":3897:3902   */\n  dup5\n    /* \"#utility.yul\":3894:3895   */\n  0x08\n    /* \"#utility.yul\":3890:3903   */\n  mul\n    /* \"#utility.yul\":3861:3912   */\n  tag_39\n  jump\t// in\ntag_90:\n    /* \"#utility.yul\":3857:3913   */\n  not\n    /* \"#utility.yul\":3942:3946   */\n  dup1\n    /* \"#utility.yul\":3936:3940   */\n  dup4\n    /* \"#utility.yul\":3932:3947   */\n  and\n    /* \"#utility.yul\":3922:3947   */\n  swap2\n  pop\n    /* \"#utility.yul\":3835:3953   */\n  pop\n    /* \"#utility.yul\":3784:3953   */\n  swap3\n  swap2\n  pop\n  pop\n  jump\t// out\n    /* \"#utility.yul\":3958:4253   */\ntag_41:\n    /* \"#utility.yul\":4034:4038   */\n  0x00\n    /* \"#utility.yul\":4180:4209   */\n  tag_92\n    /* \"#utility.yul\":4205:4208   */\n  dup4\n    /* \"#utility.yul\":4199:4203   */\n  dup4\n    /* \"#utility.yul\":4180:4209   */\n  tag_40\n  jump\t// in\ntag_92:\n    /* \"#utility.yul\":4172:4209   */\n  swap2\n  pop\n    /* \"#utility.yul\":4242:4245   */\n  dup3\n    /* \"#utility.yul\":4239:4240   */\n  0x02\n    /* \"#utility.yul\":4235:4246   */\n  mul\n    /* \"#utility.yul\":4229:4233   */\n  dup3\n    /* \"#utility.yul\":4226:4247   */\n  or\n    /* \"#utility.yul\":4218:4247   */\n  swap1\n  pop\n    /* \"#utility.yul\":3958:4253   */\n  swap3\n  swap2\n  pop\n  pop\n  jump\t// out\n    /* \"#utility.yul\":4258:5653   */\ntag_15:\n    /* \"#utility.yul\":4375:4412   */\n  tag_94\n    /* \"#utility.yul\":4408:4411   */\n  dup3\n    /* \"#utility.yul\":4375:4412   */\n  tag_23\n  jump\t// in\ntag_94:\n    /* \"#utility.yul\":4477:4495   */\n  0xffffffffffffffff\n    /* \"#utility.yul\":4469:4475   */\n  dup2\n    /* \"#utility.yul\":4466:4496   */\n  gt\n    /* \"#utility.yul\":4463:4519   */\n  iszero\n  tag_95\n  jumpi\n    /* \"#utility.yul\":4499:4517   */\n  tag_96\n  tag_24\n  jump\t// in\ntag_96:\n    /* \"#utility.yul\":4463:4519   */\ntag_95:\n    /* \"#utility.yul\":4543:4581   */\n  tag_97\n    /* \"#utility.yul\":4575:4579   */\n  dup3\n    /* \"#utility.yul\":4569:4580   */\n  sload\n    /* \"#utility.yul\":4543:4581   */\n  tag_26\n  jump\t// in\ntag_97:\n    /* \"#utility.yul\":4628:4695   */\n  tag_98\n    /* \"#utility.yul\":4688:4694   */\n  dup3\n    /* \"#utility.yul\":4680:4686   */\n  dup3\n    /* \"#utility.yul\":4674:4678   */\n  dup6\n    /* \"#utility.yul\":4628:4695   */\n  tag_38\n  jump\t// in\ntag_98:\n    /* \"#utility.yul\":4722:4723   */\n  0x00\n    /* \"#utility.yul\":4746:4750   */\n  0x20\n    /* \"#utility.yul\":4733:4750   */\n  swap1\n  pop\n    /* \"#utility.yul\":4778:4780   */\n  0x1f\n    /* \"#utility.yul\":4770:4776   */\n  dup4\n    /* \"#utility.yul\":4767:4781   */\n  gt\n    /* \"#utility.yul\":4795:4796   */\n  0x01\n    /* \"#utility.yul\":4790:5408   */\n  dup2\n  eq\n  tag_100\n  jumpi\n    /* \"#utility.yul\":5452:5453   */\n  0x00\n    /* \"#utility.yul\":5469:5475   */\n  dup5\n    /* \"#utility.yul\":5466:5543   */\n  iszero\n  tag_101\n  jumpi\n    /* \"#utility.yul\":5518:5527   */\n  dup3\n    /* \"#utility.yul\":5513:5516   */\n  dup8\n    /* \"#utility.yul\":5509:5528   */\n  add\n    /* \"#utility.yul\":5503:5529   */\n  mload\n    /* \"#utility.yul\":5494:5529   */\n  swap1\n  pop\n    /* \"#utility.yul\":5466:5543   */\ntag_101:\n    /* \"#utility.yul\":5569:5636   */\n  tag_102\n    /* \"#utility.yul\":5629:5635   */\n  dup6\n    /* \"#utility.yul\":5622:5627   */\n  dup3\n    /* \"#utility.yul\":5569:5636   */\n  tag_41\n  jump\t// in\ntag_102:\n    /* \"#utility.yul\":5563:5567   */\n  dup7\n    /* \"#utility.yul\":5556:5637   */\n  sstore\n    /* \"#utility.yul\":5425:5647   */\n  pop\n    /* \"#utility.yul\":4760:5647   */\n  jump(tag_99)\n    /* \"#utility.yul\":4790:5408   */\ntag_100:\n    /* \"#utility.yul\":4842:4846   */\n  0x1f\n    /* \"#utility.yul\":4838:4847   */\n  not\n    /* \"#utility.yul\":4830:4836   */\n  dup5\n    /* \"#utility.yul\":4826:4848   */\n  and\n    /* \"#utility.yul\":4876:4913   */\n  tag_103\n    /* \"#utility.yul\":4908:4912   */\n  dup7\n    /* \"#utility.yul\":4876:4913   */\n  tag_27\n  jump\t// in\ntag_103:\n    /* \"#utility.yul\":4935:4936   */\n  0x00\n    /* \"#utility.yul\":4949:5157   */\ntag_104:\n    /* \"#utility.yul\":4963:4970   */\n  dup3\n    /* \"#utility.yul\":4960:4961   */\n  dup2\n    /* \"#utility.yul\":4957:4971   */\n  lt\n    /* \"#utility.yul\":4949:5157   */\n  iszero\n  tag_106\n  jumpi\n    /* \"#utility.yul\":5042:5051   */\n  dup5\n    /* \"#utility.yul\":5037:5040   */\n  dup10\n    /* \"#utility.yul\":5033:5052   */\n  add\n    /* \"#utility.yul\":5027:5053   */\n  mload\n    /* \"#utility.yul\":5019:5025   */\n  dup3\n    /* \"#utility.yul\":5012:5054   */\n  sstore\n    /* \"#utility.yul\":5093:5094   */\n  0x01\n    /* \"#utility.yul\":5085:5091   */\n  dup3\n    /* \"#utility.yul\":5081:5095   */\n  add\n    /* \"#utility.yul\":5071:5095   */\n  swap2\n  pop\n    /* \"#utility.yul\":5140:5142   */\n  0x20\n    /* \"#utility.yul\":5129:5138   */\n  dup6\n    /* \"#utility.yul\":5125:5143   */\n  add\n    /* \"#utility.yul\":5112:5143   */\n  swap5\n  pop\n    /* \"#utility.yul\":4986:4990   */\n  0x20\n    /* \"#utility.yul\":4983:4984   */\n  dup2\n    /* \"#utility.yul\":4979:4991   */\n  add\n    /* \"#utility.yul\":4974:4991   */\n  swap1\n  pop\n    /* \"#utility.yul\":4949:5157   */\n  jump(tag_104)\ntag_106:\n    /* \"#utility.yul\":5185:5191   */\n  dup7\n    /* \"#utility.yul\":5176:5183   */\n  dup4\n    /* \"#utility.yul\":5173:5192   */\n  lt\n    /* \"#utility.yul\":5170:5349   */\n  iszero\n  tag_107\n  jumpi\n    /* \"#utility.yul\":5243:5252   */\n  dup5\n    /* \"#utility.yul\":5238:5241   */\n  dup10\n    /* \"#utility.yul\":5234:5253   */\n  add\n    /* \"#utility.yul\":5228:5254   */\n  mload\n    /* \"#utility.yul\":5286:5334   */\n  tag_108\n    /* \"#utility.yul\":5328:5332   */\n  0x1f\n    /* \"#utility.yul\":5320:5326   */\n  dup10\n    /* \"#utility.yul\":5316:5333   */\n  and\n    /* \"#utility.yul\":5305:5314   */\n  dup3\n    /* \"#utility.yul\":5286:5334   */\n  tag_40\n  jump\t// in\ntag_108:\n    /* \"#utility.yul\":5278:5284   */\n  dup4\n    /* \"#utility.yul\":5271:5335   */\n  sstore\n    /* \"#utility.yul\":5193:5349   */\n  pop\n    /* \"#utility.yul\":5170:5349   */\ntag_107:\n    /* \"#utility.yul\":5395:5396   */\n  0x01\n    /* \"#utility.yul\":5391:5392   */\n  0x02\n    /* \"#utility.yul\":5383:5389   */\n  dup9\n    /* \"#utility.yul\":5379:5393   */\n  mul\n    /* \"#utility.yul\":5375:5397   */\n  add\n    /* \"#utility.yul\":5369:5373   */\n  dup9\n    /* \"#utility.yul\":5362:5398   */\n  sstore\n    /* \"#utility.yul\":4797:5408   */\n  pop\n  pop\n  pop\n    /* \"#utility.yul\":4760:5647   */\ntag_99:\n  pop\n    /* \"#utility.yul\":4350:5653   */\n  pop\n  pop\n  pop\n    /* \"#utility.yul\":4258:5653   */\n  pop\n  pop\n  jump\t// out\n    /* \"#utility.yul\":5659:5850   */\ntag_18:\n    /* \"#utility.yul\":5699:5702   */\n  0x00\n    /* \"#utility.yul\":5718:5738   */\n  tag_110\n    /* \"#utility.yul\":5736:5737   */\n  dup3\n    /* \"#utility.yul\":5718:5738   */\n  tag_22\n  jump\t// in\ntag_110:\n    /* \"#utility.yul\":5713:5738   */\n  swap2\n  pop\n    /* \"#utility.yul\":5752:5772   */\n  tag_111\n    /* \"#utility.yul\":5770:5771   */\n  dup4\n    /* \"#utility.yul\":5752:5772   */\n  tag_22\n  jump\t// in\ntag_111:\n    /* \"#utility.yul\":5747:5772   */\n  swap3\n  pop\n    /* \"#utility.yul\":5795:5796   */\n  dup3\n    /* \"#utility.yul\":5792:5793   */\n  dup3\n    /* \"#utility.yul\":5788:5797   */\n  add\n    /* \"#utility.yul\":5781:5797   */\n  swap1\n  pop\n    /* \"#utility.yul\":5816:5819   */\n  dup1\n    /* \"#utility.yul\":5813:5814   */\n  dup3\n    /* \"#utility.yul\":5810:5820   */\n  gt\n    /* \"#utility.yul\":5807:5843   */\n  iszero\n  tag_112\n  jumpi\n    /* \"#utility.yul\":5823:5841   */\n  tag_113\n  tag_21\n  jump\t// in\ntag_113:\n    /* \"#utility.yul\":5807:5843   */\ntag_112:\n    /* \"#utility.yul\":5659:5850   */\n  swap3\n  swap2\n  pop\n  pop\n  jump\t// out\n    /* \"d-app/Voting.sol\":60:6470  contract VotingDApp {... */\ntag_10:\n  dataSize(sub_0)\n  dup1\n  dataOffset(sub_0)\n  0x00\n  codecopy\n  0x00\n  return\nstop\ndata_c899ff16b9c369ed86a1800d00bbb65ed328c8d2b5b93346f9ea12f7e6fa59fc 412068656174656420646562617465206f76657220746865206265737420636f6f6b69652e\n\nsub_0: assembly {\n        /* \"d-app/Voting.sol\":60:6470  contract VotingDApp {... */\n      mstore(0x40, 0x80)\n      callvalue\n      dup1\n      iszero\n      tag_1\n      jumpi\n      0x00\n      dup1\n      revert\n    tag_1:\n      pop\n      jumpi(tag_2, lt(calldatasize, 0x04))\n      shr(0xe0, calldataload(0x00))\n      dup1\n      0x81a60c0d\n      gt\n      tag_11\n      jumpi\n      dup1\n      0x81a60c0d\n      eq\n      tag_7\n      jumpi\n      dup1\n      0xb384abef\n      eq\n      tag_8\n      jumpi\n      dup1\n      0xc27a500d\n      eq\n      tag_9\n      jumpi\n      dup1\n      0xe257a94c\n      eq\n      tag_10\n      jumpi\n      jump(tag_2)\n    tag_11:\n      dup1\n      0x0b791430\n      eq\n      tag_3\n      jumpi\n      dup1\n      0x330a347b\n      eq\n      tag_4\n      jumpi\n      dup1\n      0x71be2e4a\n      eq\n      tag_5\n      jumpi\n      dup1\n      0x761e1af3\n      eq\n      tag_6\n      jumpi\n    tag_2:\n      0x00\n      dup1\n      revert\n        /* \"d-app/Voting.sol\":638:674  mapping(uint => Event) public events */\n    tag_3:\n      tag_12\n      0x04\n      dup1\n      calldatasize\n      sub\n      dup2\n      add\n      swap1\n      tag_13\n      swap2\n      swap1\n      tag_14\n      jump\t// in\n    tag_13:\n      tag_15\n      jump\t// in\n    tag_12:\n      mload(0x40)\n      tag_16\n      swap11\n      swap10\n      swap9\n      swap8\n      swap7\n      swap6\n      swap5\n      swap4\n      swap3\n      swap2\n      swap1\n      tag_17\n      jump\t// in\n    tag_16:\n      mload(0x40)\n      dup1\n      swap2\n      sub\n      swap1\n      return\n        /* \"d-app/Voting.sol\":3586:3829  function endEvent(uint _eventId) public {... */\n    tag_4:\n      tag_18\n      0x04\n      dup1\n      calldatasize\n      sub\n      dup2\n      add\n      swap1\n      tag_19\n      swap2\n      swap1\n      tag_14\n      jump\t// in\n    tag_19:\n      tag_20\n      jump\t// in\n    tag_18:\n      stop\n        /* \"d-app/Voting.sol\":713:735  uint public eventCount */\n    tag_5:\n      tag_21\n      tag_22\n      jump\t// in\n    tag_21:\n      mload(0x40)\n      tag_23\n      swap2\n      swap1\n      tag_24\n      jump\t// in\n    tag_23:\n      mload(0x40)\n      dup1\n      swap2\n      sub\n      swap1\n      return\n        /* \"d-app/Voting.sol\":5443:6453  function getTop5EventIds() public view returns (uint[] memory) {... */\n    tag_6:\n      tag_25\n      tag_26\n      jump\t// in\n    tag_25:\n      mload(0x40)\n      tag_27\n      swap2\n      swap1\n      tag_28\n      jump\t// in\n    tag_27:\n      mload(0x40)\n      dup1\n      swap2\n      sub\n      swap1\n      return\n        /* \"d-app/Voting.sol\":3885:4167  function getResults(uint _eventId) public view returns (string memory, uint, uint, uint, uint) {... */\n    tag_7:\n      tag_29\n      0x04\n      dup1\n      calldatasize\n      sub\n      dup2\n      add\n      swap1\n      tag_30\n      swap2\n      swap1\n      tag_14\n      jump\t// in\n    tag_30:\n      tag_31\n      jump\t// in\n    tag_29:\n      mload(0x40)\n      tag_32\n      swap6\n      swap5\n      swap4\n      swap3\n      swap2\n      swap1\n      tag_33\n      jump\t// in\n    tag_32:\n      mload(0x40)\n      dup1\n      swap2\n      sub\n      swap1\n      return\n        /* \"d-app/Voting.sol\":2720:3486  function vote(uint _eventId, uint _optionIndex) public {... */\n    tag_8:\n      tag_34\n      0x04\n      dup1\n      calldatasize\n      sub\n      dup2\n      add\n      swap1\n      tag_35\n      swap2\n      swap1\n      tag_36\n      jump\t// in\n    tag_35:\n      tag_37\n      jump\t// in\n    tag_34:\n      stop\n        /* \"d-app/Voting.sol\":4220:5431  function getAllEvents() public view returns (uint[] memory, string[] memory, string[] memory, uint[] memory, uint[] memory, uint[] memory, uint[] memory, uint[] memory) {   ... */\n    tag_9:\n      tag_38\n      tag_39\n      jump\t// in\n    tag_38:\n      mload(0x40)\n      tag_40\n      swap9\n      swap8\n      swap7\n      swap6\n      swap5\n      swap4\n      swap3\n      swap2\n      swap1\n      tag_41\n      jump\t// in\n    tag_40:\n      mload(0x40)\n      dup1\n      swap2\n      sub\n      swap1\n      return\n        /* \"d-app/Voting.sol\":1546:1923  function createEvent(string memory _name, string memory _description) public {... */\n    tag_10:\n      tag_42\n      0x04\n      dup1\n      calldatasize\n      sub\n      dup2\n      add\n      swap1\n      tag_43\n      swap2\n      swap1\n      tag_44\n      jump\t// in\n    tag_43:\n      tag_45\n      jump\t// in\n    tag_42:\n      stop\n        /* \"d-app/Voting.sol\":638:674  mapping(uint => Event) public events */\n    tag_15:\n      mstore(0x20, 0x00)\n      dup1\n      0x00\n      mstore\n      keccak256(0x00, 0x40)\n      0x00\n      swap2\n      pop\n      swap1\n      pop\n      dup1\n      0x00\n      add\n      sload\n      swap1\n      dup1\n      0x01\n      add\n      dup1\n      sload\n      tag_46\n      swap1\n      tag_47\n      jump\t// in\n    tag_46:\n      dup1\n      0x1f\n      add\n      0x20\n      dup1\n      swap2\n      div\n      mul\n      0x20\n      add\n      mload(0x40)\n      swap1\n      dup2\n      add\n      0x40\n      mstore\n      dup1\n      swap3\n      swap2\n      swap1\n      dup2\n      dup2\n      mstore\n      0x20\n      add\n      dup3\n      dup1\n      sload\n      tag_48\n      swap1\n      tag_47\n      jump\t// in\n    tag_48:\n      dup1\n      iszero\n      tag_49\n      jumpi\n      dup1\n      0x1f\n      lt\n      tag_50\n      jumpi\n      0x0100\n      dup1\n      dup4\n      sload\n      div\n      mul\n      dup4\n      mstore\n      swap2\n      0x20\n      add\n      swap2\n      jump(tag_49)\n    tag_50:\n      dup3\n      add\n      swap2\n      swap1\n      0x00\n      mstore\n      keccak256(0x00, 0x20)\n      swap1\n    tag_51:\n      dup2\n      sload\n      dup2\n      mstore\n      swap1\n      0x01\n      add\n      swap1\n      0x20\n      add\n      dup1\n      dup4\n      gt\n      tag_51\n      jumpi\n      dup3\n      swap1\n      sub\n      0x1f\n      and\n      dup3\n      add\n      swap2\n    tag_49:\n      pop\n      pop\n      pop\n      pop\n      pop\n      swap1\n      dup1\n      0x02\n      add\n      dup1\n      sload\n      tag_52\n      swap1\n      tag_47\n      jump\t// in\n    tag_52:\n      dup1\n      0x1f\n      add\n      0x20\n      dup1\n      swap2\n      div\n      mul\n      0x20\n      add\n      mload(0x40)\n      swap1\n      dup2\n      add\n      0x40\n      mstore\n      dup1\n      swap3\n      swap2\n      swap1\n      dup2\n      dup2\n      mstore\n      0x20\n      add\n      dup3\n      dup1\n      sload\n      tag_53\n      swap1\n      tag_47\n      jump\t// in\n    tag_53:\n      dup1\n      iszero\n      tag_54\n      jumpi\n      dup1\n      0x1f\n      lt\n      tag_55\n      jumpi\n      0x0100\n      dup1\n      dup4\n      sload\n      div\n      mul\n      dup4\n      mstore\n      swap2\n      0x20\n      add\n      swap2\n      jump(tag_54)\n    tag_55:\n      dup3\n      add\n      swap2\n      swap1\n      0x00\n      mstore\n      keccak256(0x00, 0x20)\n      swap1\n    tag_56:\n      dup2\n      sload\n      dup2\n      mstore\n      swap1\n      0x01\n      add\n      swap1\n      0x20\n      add\n      dup1\n      dup4\n      gt\n      tag_56\n      jumpi\n      dup3\n      swap1\n      sub\n      0x1f\n      and\n      dup3\n      add\n      swap2\n    tag_54:\n      pop\n      pop\n      pop\n      pop\n      pop\n      swap1\n      dup1\n      0x03\n      add\n      sload\n      swap1\n      dup1\n      0x04\n      add\n      0x00\n      swap1\n      sload\n      swap1\n      0x0100\n      exp\n      swap1\n      div\n      0xff\n      and\n      swap1\n      dup1\n      0x05\n      add\n      sload\n      swap1\n      dup1\n      0x06\n      add\n      sload\n      swap1\n      dup1\n      0x07\n      add\n      sload\n      swap1\n      dup1\n      0x08\n      add\n      sload\n      swap1\n      dup1\n      0x0a\n      add\n      0x00\n      swap1\n      sload\n      swap1\n      0x0100\n      exp\n      swap1\n      div\n      0xffffffffffffffffffffffffffffffffffffffff\n      and\n      swap1\n      pop\n      dup11\n      jump\t// out\n        /* \"d-app/Voting.sol\":3586:3829  function endEvent(uint _eventId) public {... */\n    tag_20:\n        /* \"d-app/Voting.sol\":3637:3664  Event storage eventInstance */\n      0x00\n        /* \"d-app/Voting.sol\":3667:3673  events */\n      dup1\n        /* \"d-app/Voting.sol\":3667:3683  events[_eventId] */\n      0x00\n        /* \"d-app/Voting.sol\":3674:3682  _eventId */\n      dup4\n        /* \"d-app/Voting.sol\":3667:3683  events[_eventId] */\n      dup2\n      mstore\n      0x20\n      add\n      swap1\n      dup2\n      mstore\n      0x20\n      add\n      0x00\n      keccak256\n        /* \"d-app/Voting.sol\":3637:3683  Event storage eventInstance = events[_eventId] */\n      swap1\n      pop\n        /* \"d-app/Voting.sol\":3729:3739  msg.sender */\n      caller\n        /* \"d-app/Voting.sol\":3702:3739  eventInstance.organizer == msg.sender */\n      0xffffffffffffffffffffffffffffffffffffffff\n      and\n        /* \"d-app/Voting.sol\":3702:3715  eventInstance */\n      dup2\n        /* \"d-app/Voting.sol\":3702:3725  eventInstance.organizer */\n      0x0a\n      add\n      0x00\n      swap1\n      sload\n      swap1\n      0x0100\n      exp\n      swap1\n      div\n      0xffffffffffffffffffffffffffffffffffffffff\n      and\n        /* \"d-app/Voting.sol\":3702:3739  eventInstance.organizer == msg.sender */\n      0xffffffffffffffffffffffffffffffffffffffff\n      and\n      eq\n        /* \"d-app/Voting.sol\":3694:3782  require(eventInstance.organizer == msg.sender, \"Only the organizer can end this event.\") */\n      tag_58\n      jumpi\n      mload(0x40)\n      0x08c379a000000000000000000000000000000000000000000000000000000000\n      dup2\n      mstore\n      0x04\n      add\n      tag_59\n      swap1\n      tag_60\n      jump\t// in\n    tag_59:\n      mload(0x40)\n      dup1\n      swap2\n      sub\n      swap1\n      revert\n    tag_58:\n        /* \"d-app/Voting.sol\":3816:3821  false */\n      0x00\n        /* \"d-app/Voting.sol\":3793:3806  eventInstance */\n      dup2\n        /* \"d-app/Voting.sol\":3793:3813  eventInstance.active */\n      0x04\n      add\n      0x00\n        /* \"d-app/Voting.sol\":3793:3821  eventInstance.active = false */\n      0x0100\n      exp\n      dup2\n      sload\n      dup2\n      0xff\n      mul\n      not\n      and\n      swap1\n      dup4\n      iszero\n      iszero\n      mul\n      or\n      swap1\n      sstore\n      pop\n        /* \"d-app/Voting.sol\":3626:3829  {... */\n      pop\n        /* \"d-app/Voting.sol\":3586:3829  function endEvent(uint _eventId) public {... */\n      pop\n      jump\t// out\n        /* \"d-app/Voting.sol\":713:735  uint public eventCount */\n    tag_22:\n      sload(0x01)\n      dup2\n      jump\t// out\n        /* \"d-app/Voting.sol\":5443:6453  function getTop5EventIds() public view returns (uint[] memory) {... */\n    tag_26:\n        /* \"d-app/Voting.sol\":5491:5504  uint[] memory */\n      0x60\n        /* \"d-app/Voting.sol\":5518:5545  uint[] memory topTotalVotes */\n      0x00\n        /* \"d-app/Voting.sol\":5559:5569  eventCount */\n      sload(0x01)\n        /* \"d-app/Voting.sol\":5548:5570  new uint[](eventCount) */\n      0xffffffffffffffff\n      dup2\n      gt\n      iszero\n      tag_62\n      jumpi\n      tag_63\n      tag_64\n      jump\t// in\n    tag_63:\n    tag_62:\n      mload(0x40)\n      swap1\n      dup1\n      dup3\n      mstore\n      dup1\n      0x20\n      mul\n      0x20\n      add\n      dup3\n      add\n      0x40\n      mstore\n      dup1\n      iszero\n      tag_65\n      jumpi\n      dup2\n      0x20\n      add\n      0x20\n      dup3\n      mul\n      dup1\n      calldatasize\n      dup4\n      calldatacopy\n      dup1\n      dup3\n      add\n      swap2\n      pop\n      pop\n      swap1\n      pop\n    tag_65:\n      pop\n        /* \"d-app/Voting.sol\":5518:5570  uint[] memory topTotalVotes = new uint[](eventCount) */\n      swap1\n      pop\n        /* \"d-app/Voting.sol\":5577:5597  uint[] memory topIds */\n      0x00\n        /* \"d-app/Voting.sol\":5611:5621  eventCount */\n      sload(0x01)\n        /* \"d-app/Voting.sol\":5600:5622  new uint[](eventCount) */\n      0xffffffffffffffff\n      dup2\n      gt\n      iszero\n      tag_66\n      jumpi\n      tag_67\n      tag_64\n      jump\t// in\n    tag_67:\n    tag_66:\n      mload(0x40)\n      swap1\n      dup1\n      dup3\n      mstore\n      dup1\n      0x20\n      mul\n      0x20\n      add\n      dup3\n      add\n      0x40\n      mstore\n      dup1\n      iszero\n      tag_68\n      jumpi\n      dup2\n      0x20\n      add\n      0x20\n      dup3\n      mul\n      dup1\n      calldatasize\n      dup4\n      calldatacopy\n      dup1\n      dup3\n      add\n      swap2\n      pop\n      pop\n      swap1\n      pop\n    tag_68:\n      pop\n        /* \"d-app/Voting.sol\":5577:5622  uint[] memory topIds = new uint[](eventCount) */\n      swap1\n      pop\n        /* \"d-app/Voting.sol\":5638:5644  uint i */\n      0x00\n        /* \"d-app/Voting.sol\":5647:5648  1 */\n      0x01\n        /* \"d-app/Voting.sol\":5638:5648  uint i = 1 */\n      swap1\n      pop\n        /* \"d-app/Voting.sol\":5633:6420  for (uint i = 1; i <= eventCount; i++) {... */\n    tag_69:\n        /* \"d-app/Voting.sol\":5655:5665  eventCount */\n      sload(0x01)\n        /* \"d-app/Voting.sol\":5650:5651  i */\n      dup2\n        /* \"d-app/Voting.sol\":5650:5665  i <= eventCount */\n      gt\n        /* \"d-app/Voting.sol\":5633:6420  for (uint i = 1; i <= eventCount; i++) {... */\n      tag_70\n      jumpi\n        /* \"d-app/Voting.sol\":5683:5710  Event storage eventInstance */\n      0x00\n        /* \"d-app/Voting.sol\":5713:5719  events */\n      dup1\n        /* \"d-app/Voting.sol\":5713:5722  events[i] */\n      0x00\n        /* \"d-app/Voting.sol\":5720:5721  i */\n      dup4\n        /* \"d-app/Voting.sol\":5713:5722  events[i] */\n      dup2\n      mstore\n      0x20\n      add\n      swap1\n      dup2\n      mstore\n      0x20\n      add\n      0x00\n      keccak256\n        /* \"d-app/Voting.sol\":5683:5722  Event storage eventInstance = events[i] */\n      swap1\n      pop\n        /* \"d-app/Voting.sol\":5733:5750  uint currentVotes */\n      0x00\n        /* \"d-app/Voting.sol\":5753:5766  eventInstance */\n      dup2\n        /* \"d-app/Voting.sol\":5753:5777  eventInstance.totalVotes */\n      0x03\n      add\n      sload\n        /* \"d-app/Voting.sol\":5733:5777  uint currentVotes = eventInstance.totalVotes */\n      swap1\n      pop\n        /* \"d-app/Voting.sol\":5870:5876  uint j */\n      0x00\n        /* \"d-app/Voting.sol\":5865:6413  for (uint j = 0; j < 5; j++) {... */\n    tag_72:\n        /* \"d-app/Voting.sol\":5886:5887  5 */\n      0x05\n        /* \"d-app/Voting.sol\":5882:5883  j */\n      dup2\n        /* \"d-app/Voting.sol\":5882:5887  j < 5 */\n      lt\n        /* \"d-app/Voting.sol\":5865:6413  for (uint j = 0; j < 5; j++) {... */\n      iszero\n      tag_73\n      jumpi\n        /* \"d-app/Voting.sol\":5928:5941  topTotalVotes */\n      dup6\n        /* \"d-app/Voting.sol\":5942:5943  j */\n      dup2\n        /* \"d-app/Voting.sol\":5928:5944  topTotalVotes[j] */\n      dup2\n      mload\n      dup2\n      lt\n      tag_75\n      jumpi\n      tag_76\n      tag_77\n      jump\t// in\n    tag_76:\n    tag_75:\n      0x20\n      mul\n      0x20\n      add\n      add\n      mload\n        /* \"d-app/Voting.sol\":5913:5925  currentVotes */\n      dup3\n        /* \"d-app/Voting.sol\":5913:5944  currentVotes > topTotalVotes[j] */\n      gt\n        /* \"d-app/Voting.sol\":5909:6402  if (currentVotes > topTotalVotes[j]) {... */\n      iszero\n      tag_78\n      jumpi\n        /* \"d-app/Voting.sol\":6053:6059  uint k */\n      0x00\n        /* \"d-app/Voting.sol\":6062:6063  4 */\n      0x04\n        /* \"d-app/Voting.sol\":6053:6063  uint k = 4 */\n      swap1\n      pop\n        /* \"d-app/Voting.sol\":6048:6203  for (uint k = 4; k > j; k--) {... */\n    tag_79:\n        /* \"d-app/Voting.sol\":6069:6070  j */\n      dup2\n        /* \"d-app/Voting.sol\":6065:6066  k */\n      dup2\n        /* \"d-app/Voting.sol\":6065:6070  k > j */\n      gt\n        /* \"d-app/Voting.sol\":6048:6203  for (uint k = 4; k > j; k--) {... */\n      iszero\n      tag_80\n      jumpi\n        /* \"d-app/Voting.sol\":6112:6118  topIds */\n      dup6\n        /* \"d-app/Voting.sol\":6121:6122  1 */\n      0x01\n        /* \"d-app/Voting.sol\":6119:6120  k */\n      dup3\n        /* \"d-app/Voting.sol\":6119:6122  k-1 */\n      tag_82\n      swap2\n      swap1\n      tag_83\n      jump\t// in\n    tag_82:\n        /* \"d-app/Voting.sol\":6112:6123  topIds[k-1] */\n      dup2\n      mload\n      dup2\n      lt\n      tag_84\n      jumpi\n      tag_85\n      tag_77\n      jump\t// in\n    tag_85:\n    tag_84:\n      0x20\n      mul\n      0x20\n      add\n      add\n      mload\n        /* \"d-app/Voting.sol\":6100:6106  topIds */\n      dup7\n        /* \"d-app/Voting.sol\":6107:6108  k */\n      dup3\n        /* \"d-app/Voting.sol\":6100:6109  topIds[k] */\n      dup2\n      mload\n      dup2\n      lt\n      tag_86\n      jumpi\n      tag_87\n      tag_77\n      jump\t// in\n    tag_87:\n    tag_86:\n      0x20\n      mul\n      0x20\n      add\n      add\n        /* \"d-app/Voting.sol\":6100:6123  topIds[k] = topIds[k-1] */\n      dup2\n      dup2\n      mstore\n      pop\n      pop\n        /* \"d-app/Voting.sol\":6165:6178  topTotalVotes */\n      dup7\n        /* \"d-app/Voting.sol\":6181:6182  1 */\n      0x01\n        /* \"d-app/Voting.sol\":6179:6180  k */\n      dup3\n        /* \"d-app/Voting.sol\":6179:6182  k-1 */\n      tag_88\n      swap2\n      swap1\n      tag_83\n      jump\t// in\n    tag_88:\n        /* \"d-app/Voting.sol\":6165:6183  topTotalVotes[k-1] */\n      dup2\n      mload\n      dup2\n      lt\n      tag_89\n      jumpi\n      tag_90\n      tag_77\n      jump\t// in\n    tag_90:\n    tag_89:\n      0x20\n      mul\n      0x20\n      add\n      add\n      mload\n        /* \"d-app/Voting.sol\":6146:6159  topTotalVotes */\n      dup8\n        /* \"d-app/Voting.sol\":6160:6161  k */\n      dup3\n        /* \"d-app/Voting.sol\":6146:6162  topTotalVotes[k] */\n      dup2\n      mload\n      dup2\n      lt\n      tag_91\n      jumpi\n      tag_92\n      tag_77\n      jump\t// in\n    tag_92:\n    tag_91:\n      0x20\n      mul\n      0x20\n      add\n      add\n        /* \"d-app/Voting.sol\":6146:6183  topTotalVotes[k] = topTotalVotes[k-1] */\n      dup2\n      dup2\n      mstore\n      pop\n      pop\n        /* \"d-app/Voting.sol\":6072:6075  k-- */\n      dup1\n      dup1\n      tag_93\n      swap1\n      tag_94\n      jump\t// in\n    tag_93:\n      swap2\n      pop\n      pop\n        /* \"d-app/Voting.sol\":6048:6203  for (uint k = 4; k > j; k--) {... */\n      jump(tag_79)\n    tag_80:\n      pop\n        /* \"d-app/Voting.sol\":6296:6309  eventInstance */\n      dup3\n        /* \"d-app/Voting.sol\":6296:6312  eventInstance.id */\n      0x00\n      add\n      sload\n        /* \"d-app/Voting.sol\":6284:6290  topIds */\n      dup6\n        /* \"d-app/Voting.sol\":6291:6292  j */\n      dup3\n        /* \"d-app/Voting.sol\":6284:6293  topIds[j] */\n      dup2\n      mload\n      dup2\n      lt\n      tag_95\n      jumpi\n      tag_96\n      tag_77\n      jump\t// in\n    tag_96:\n    tag_95:\n      0x20\n      mul\n      0x20\n      add\n      add\n        /* \"d-app/Voting.sol\":6284:6312  topIds[j] = eventInstance.id */\n      dup2\n      dup2\n      mstore\n      pop\n      pop\n        /* \"d-app/Voting.sol\":6350:6362  currentVotes */\n      dup2\n        /* \"d-app/Voting.sol\":6331:6344  topTotalVotes */\n      dup7\n        /* \"d-app/Voting.sol\":6345:6346  j */\n      dup3\n        /* \"d-app/Voting.sol\":6331:6347  topTotalVotes[j] */\n      dup2\n      mload\n      dup2\n      lt\n      tag_97\n      jumpi\n      tag_98\n      tag_77\n      jump\t// in\n    tag_98:\n    tag_97:\n      0x20\n      mul\n      0x20\n      add\n      add\n        /* \"d-app/Voting.sol\":6331:6362  topTotalVotes[j] = currentVotes */\n      dup2\n      dup2\n      mstore\n      pop\n      pop\n        /* \"d-app/Voting.sol\":6381:6386  break */\n      jump(tag_73)\n        /* \"d-app/Voting.sol\":5909:6402  if (currentVotes > topTotalVotes[j]) {... */\n    tag_78:\n        /* \"d-app/Voting.sol\":5889:5892  j++ */\n      dup1\n      dup1\n      tag_99\n      swap1\n      tag_100\n      jump\t// in\n    tag_99:\n      swap2\n      pop\n      pop\n        /* \"d-app/Voting.sol\":5865:6413  for (uint j = 0; j < 5; j++) {... */\n      jump(tag_72)\n    tag_73:\n      pop\n        /* \"d-app/Voting.sol\":5672:6420  {... */\n      pop\n      pop\n        /* \"d-app/Voting.sol\":5667:5670  i++ */\n      dup1\n      dup1\n      tag_101\n      swap1\n      tag_100\n      jump\t// in\n    tag_101:\n      swap2\n      pop\n      pop\n        /* \"d-app/Voting.sol\":5633:6420  for (uint i = 1; i <= eventCount; i++) {... */\n      jump(tag_69)\n    tag_70:\n      pop\n        /* \"d-app/Voting.sol\":6443:6449  topIds */\n      dup1\n        /* \"d-app/Voting.sol\":6436:6449  return topIds */\n      swap3\n      pop\n      pop\n      pop\n        /* \"d-app/Voting.sol\":5443:6453  function getTop5EventIds() public view returns (uint[] memory) {... */\n      swap1\n      jump\t// out\n        /* \"d-app/Voting.sol\":3885:4167  function getResults(uint _eventId) public view returns (string memory, uint, uint, uint, uint) {... */\n    tag_31:\n        /* \"d-app/Voting.sol\":3941:3954  string memory */\n      0x60\n        /* \"d-app/Voting.sol\":3956:3960  uint */\n      0x00\n        /* \"d-app/Voting.sol\":3962:3966  uint */\n      dup1\n        /* \"d-app/Voting.sol\":3968:3972  uint */\n      0x00\n        /* \"d-app/Voting.sol\":3974:3978  uint */\n      dup1\n        /* \"d-app/Voting.sol\":3991:4018  Event storage eventInstance */\n      0x00\n        /* \"d-app/Voting.sol\":4021:4027  events */\n      dup1\n        /* \"d-app/Voting.sol\":4021:4037  events[_eventId] */\n      0x00\n        /* \"d-app/Voting.sol\":4028:4036  _eventId */\n      dup9\n        /* \"d-app/Voting.sol\":4021:4037  events[_eventId] */\n      dup2\n      mstore\n      0x20\n      add\n      swap1\n      dup2\n      mstore\n      0x20\n      add\n      0x00\n      keccak256\n        /* \"d-app/Voting.sol\":3991:4037  Event storage eventInstance = events[_eventId] */\n      swap1\n      pop\n        /* \"d-app/Voting.sol\":4056:4069  eventInstance */\n      dup1\n        /* \"d-app/Voting.sol\":4056:4074  eventInstance.name */\n      0x01\n      add\n        /* \"d-app/Voting.sol\":4076:4089  eventInstance */\n      dup2\n        /* \"d-app/Voting.sol\":4076:4095  eventInstance.vote1 */\n      0x05\n      add\n      sload\n        /* \"d-app/Voting.sol\":4097:4110  eventInstance */\n      dup3\n        /* \"d-app/Voting.sol\":4097:4116  eventInstance.vote2 */\n      0x06\n      add\n      sload\n        /* \"d-app/Voting.sol\":4118:4131  eventInstance */\n      dup4\n        /* \"d-app/Voting.sol\":4118:4137  eventInstance.vote3 */\n      0x07\n      add\n      sload\n        /* \"d-app/Voting.sol\":4139:4152  eventInstance */\n      dup5\n        /* \"d-app/Voting.sol\":4139:4158  eventInstance.vote4 */\n      0x08\n      add\n      sload\n        /* \"d-app/Voting.sol\":4048:4159  return (eventInstance.name, eventInstance.vote1, eventInstance.vote2, eventInstance.vote3, eventInstance.vote4) */\n      dup5\n      dup1\n      sload\n      tag_103\n      swap1\n      tag_47\n      jump\t// in\n    tag_103:\n      dup1\n      0x1f\n      add\n      0x20\n      dup1\n      swap2\n      div\n      mul\n      0x20\n      add\n      mload(0x40)\n      swap1\n      dup2\n      add\n      0x40\n      mstore\n      dup1\n      swap3\n      swap2\n      swap1\n      dup2\n      dup2\n      mstore\n      0x20\n      add\n      dup3\n      dup1\n      sload\n      tag_104\n      swap1\n      tag_47\n      jump\t// in\n    tag_104:\n      dup1\n      iszero\n      tag_105\n      jumpi\n      dup1\n      0x1f\n      lt\n      tag_106\n      jumpi\n      0x0100\n      dup1\n      dup4\n      sload\n      div\n      mul\n      dup4\n      mstore\n      swap2\n      0x20\n      add\n      swap2\n      jump(tag_105)\n    tag_106:\n      dup3\n      add\n      swap2\n      swap1\n      0x00\n      mstore\n      keccak256(0x00, 0x20)\n      swap1\n    tag_107:\n      dup2\n      sload\n      dup2\n      mstore\n      swap1\n      0x01\n      add\n      swap1\n      0x20\n      add\n      dup1\n      dup4\n      gt\n      tag_107\n      jumpi\n      dup3\n      swap1\n      sub\n      0x1f\n      and\n      dup3\n      add\n      swap2\n    tag_105:\n      pop\n      pop\n      pop\n      pop\n      pop\n      swap5\n      pop\n      swap6\n      pop\n      swap6\n      pop\n      swap6\n      pop\n      swap6\n      pop\n      swap6\n      pop\n      pop\n        /* \"d-app/Voting.sol\":3885:4167  function getResults(uint _eventId) public view returns (string memory, uint, uint, uint, uint) {... */\n      swap2\n      swap4\n      swap6\n      swap1\n      swap3\n      swap5\n      pop\n      jump\t// out\n        /* \"d-app/Voting.sol\":2720:3486  function vote(uint _eventId, uint _optionIndex) public {... */\n    tag_37:\n        /* \"d-app/Voting.sol\":2809:2810  4 */\n      0x04\n        /* \"d-app/Voting.sol\":2794:2806  _optionIndex */\n      dup2\n        /* \"d-app/Voting.sol\":2794:2810  _optionIndex < 4 */\n      lt\n        /* \"d-app/Voting.sol\":2786:2836  require(_optionIndex < 4, \"Invalid option index.\") */\n      tag_109\n      jumpi\n      mload(0x40)\n      0x08c379a000000000000000000000000000000000000000000000000000000000\n      dup2\n      mstore\n      0x04\n      add\n      tag_110\n      swap1\n      tag_111\n      jump\t// in\n    tag_110:\n      mload(0x40)\n      dup1\n      swap2\n      sub\n      swap1\n      revert\n    tag_109:\n        /* \"d-app/Voting.sol\":2847:2874  Event storage eventInstance */\n      0x00\n        /* \"d-app/Voting.sol\":2877:2883  events */\n      dup1\n        /* \"d-app/Voting.sol\":2877:2893  events[_eventId] */\n      0x00\n        /* \"d-app/Voting.sol\":2884:2892  _eventId */\n      dup5\n        /* \"d-app/Voting.sol\":2877:2893  events[_eventId] */\n      dup2\n      mstore\n      0x20\n      add\n      swap1\n      dup2\n      mstore\n      0x20\n      add\n      0x00\n      keccak256\n        /* \"d-app/Voting.sol\":2847:2893  Event storage eventInstance = events[_eventId] */\n      swap1\n      pop\n        /* \"d-app/Voting.sol\":2912:2925  eventInstance */\n      dup1\n        /* \"d-app/Voting.sol\":2912:2932  eventInstance.active */\n      0x04\n      add\n      0x00\n      swap1\n      sload\n      swap1\n      0x0100\n      exp\n      swap1\n      div\n      0xff\n      and\n        /* \"d-app/Voting.sol\":2904:2957  require(eventInstance.active, \"Event is not active.\") */\n      tag_112\n      jumpi\n      mload(0x40)\n      0x08c379a000000000000000000000000000000000000000000000000000000000\n      dup2\n      mstore\n      0x04\n      add\n      tag_113\n      swap1\n      tag_114\n      jump\t// in\n    tag_113:\n      mload(0x40)\n      dup1\n      swap2\n      sub\n      swap1\n      revert\n    tag_112:\n        /* \"d-app/Voting.sol\":2977:2990  eventInstance */\n      dup1\n        /* \"d-app/Voting.sol\":2977:2999  eventInstance.hasVoted */\n      0x09\n      add\n        /* \"d-app/Voting.sol\":2977:3011  eventInstance.hasVoted[msg.sender] */\n      0x00\n        /* \"d-app/Voting.sol\":3000:3010  msg.sender */\n      caller\n        /* \"d-app/Voting.sol\":2977:3011  eventInstance.hasVoted[msg.sender] */\n      0xffffffffffffffffffffffffffffffffffffffff\n      and\n      0xffffffffffffffffffffffffffffffffffffffff\n      and\n      dup2\n      mstore\n      0x20\n      add\n      swap1\n      dup2\n      mstore\n      0x20\n      add\n      0x00\n      keccak256\n      0x00\n      swap1\n      sload\n      swap1\n      0x0100\n      exp\n      swap1\n      div\n      0xff\n      and\n        /* \"d-app/Voting.sol\":2976:3011  !eventInstance.hasVoted[msg.sender] */\n      iszero\n        /* \"d-app/Voting.sol\":2968:3039  require(!eventInstance.hasVoted[msg.sender], \"You have already voted.\") */\n      tag_115\n      jumpi\n      mload(0x40)\n      0x08c379a000000000000000000000000000000000000000000000000000000000\n      dup2\n      mstore\n      0x04\n      add\n      tag_116\n      swap1\n      tag_117\n      jump\t// in\n    tag_116:\n      mload(0x40)\n      dup1\n      swap2\n      sub\n      swap1\n      revert\n    tag_115:\n        /* \"d-app/Voting.sol\":3072:3073  0 */\n      0x00\n        /* \"d-app/Voting.sol\":3056:3068  _optionIndex */\n      dup3\n        /* \"d-app/Voting.sol\":3056:3073  _optionIndex == 0 */\n      sub\n        /* \"d-app/Voting.sol\":3052:3354  if (_optionIndex == 0) {... */\n      tag_118\n      jumpi\n        /* \"d-app/Voting.sol\":3090:3103  eventInstance */\n      dup1\n        /* \"d-app/Voting.sol\":3090:3109  eventInstance.vote1 */\n      0x05\n      add\n      0x00\n        /* \"d-app/Voting.sol\":3090:3111  eventInstance.vote1++ */\n      dup2\n      sload\n      dup1\n      swap3\n      swap2\n      swap1\n      tag_119\n      swap1\n      tag_100\n      jump\t// in\n    tag_119:\n      swap2\n      swap1\n      pop\n      sstore\n      pop\n        /* \"d-app/Voting.sol\":3052:3354  if (_optionIndex == 0) {... */\n      jump(tag_120)\n    tag_118:\n        /* \"d-app/Voting.sol\":3149:3150  1 */\n      0x01\n        /* \"d-app/Voting.sol\":3133:3145  _optionIndex */\n      dup3\n        /* \"d-app/Voting.sol\":3133:3150  _optionIndex == 1 */\n      sub\n        /* \"d-app/Voting.sol\":3129:3354  if (_optionIndex == 1) {... */\n      tag_121\n      jumpi\n        /* \"d-app/Voting.sol\":3167:3180  eventInstance */\n      dup1\n        /* \"d-app/Voting.sol\":3167:3186  eventInstance.vote2 */\n      0x06\n      add\n      0x00\n        /* \"d-app/Voting.sol\":3167:3188  eventInstance.vote2++ */\n      dup2\n      sload\n      dup1\n      swap3\n      swap2\n      swap1\n      tag_122\n      swap1\n      tag_100\n      jump\t// in\n    tag_122:\n      swap2\n      swap1\n      pop\n      sstore\n      pop\n        /* \"d-app/Voting.sol\":3129:3354  if (_optionIndex == 1) {... */\n      jump(tag_123)\n    tag_121:\n        /* \"d-app/Voting.sol\":3226:3227  2 */\n      0x02\n        /* \"d-app/Voting.sol\":3210:3222  _optionIndex */\n      dup3\n        /* \"d-app/Voting.sol\":3210:3227  _optionIndex == 2 */\n      sub\n        /* \"d-app/Voting.sol\":3206:3354  if (_optionIndex == 2) {... */\n      tag_124\n      jumpi\n        /* \"d-app/Voting.sol\":3244:3257  eventInstance */\n      dup1\n        /* \"d-app/Voting.sol\":3244:3263  eventInstance.vote3 */\n      0x07\n      add\n      0x00\n        /* \"d-app/Voting.sol\":3244:3265  eventInstance.vote3++ */\n      dup2\n      sload\n      dup1\n      swap3\n      swap2\n      swap1\n      tag_125\n      swap1\n      tag_100\n      jump\t// in\n    tag_125:\n      swap2\n      swap1\n      pop\n      sstore\n      pop\n        /* \"d-app/Voting.sol\":3206:3354  if (_optionIndex == 2) {... */\n      jump(tag_126)\n    tag_124:\n        /* \"d-app/Voting.sol\":3303:3304  3 */\n      0x03\n        /* \"d-app/Voting.sol\":3287:3299  _optionIndex */\n      dup3\n        /* \"d-app/Voting.sol\":3287:3304  _optionIndex == 3 */\n      sub\n        /* \"d-app/Voting.sol\":3283:3354  if (_optionIndex == 3) {... */\n      tag_127\n      jumpi\n        /* \"d-app/Voting.sol\":3321:3334  eventInstance */\n      dup1\n        /* \"d-app/Voting.sol\":3321:3340  eventInstance.vote4 */\n      0x08\n      add\n      0x00\n        /* \"d-app/Voting.sol\":3321:3342  eventInstance.vote4++ */\n      dup2\n      sload\n      dup1\n      swap3\n      swap2\n      swap1\n      tag_128\n      swap1\n      tag_100\n      jump\t// in\n    tag_128:\n      swap2\n      swap1\n      pop\n      sstore\n      pop\n        /* \"d-app/Voting.sol\":3283:3354  if (_optionIndex == 3) {... */\n    tag_127:\n        /* \"d-app/Voting.sol\":3206:3354  if (_optionIndex == 2) {... */\n    tag_126:\n        /* \"d-app/Voting.sol\":3129:3354  if (_optionIndex == 1) {... */\n    tag_123:\n        /* \"d-app/Voting.sol\":3052:3354  if (_optionIndex == 0) {... */\n    tag_120:\n        /* \"d-app/Voting.sol\":3366:3379  eventInstance */\n      dup1\n        /* \"d-app/Voting.sol\":3366:3390  eventInstance.totalVotes */\n      0x03\n      add\n      0x00\n        /* \"d-app/Voting.sol\":3366:3392  eventInstance.totalVotes++ */\n      dup2\n      sload\n      dup1\n      swap3\n      swap2\n      swap1\n      tag_129\n      swap1\n      tag_100\n      jump\t// in\n    tag_129:\n      swap2\n      swap1\n      pop\n      sstore\n      pop\n        /* \"d-app/Voting.sol\":3474:3478  true */\n      0x01\n        /* \"d-app/Voting.sol\":3437:3450  eventInstance */\n      dup2\n        /* \"d-app/Voting.sol\":3437:3459  eventInstance.hasVoted */\n      0x09\n      add\n        /* \"d-app/Voting.sol\":3437:3471  eventInstance.hasVoted[msg.sender] */\n      0x00\n        /* \"d-app/Voting.sol\":3460:3470  msg.sender */\n      caller\n        /* \"d-app/Voting.sol\":3437:3471  eventInstance.hasVoted[msg.sender] */\n      0xffffffffffffffffffffffffffffffffffffffff\n      and\n      0xffffffffffffffffffffffffffffffffffffffff\n      and\n      dup2\n      mstore\n      0x20\n      add\n      swap1\n      dup2\n      mstore\n      0x20\n      add\n      0x00\n      keccak256\n      0x00\n        /* \"d-app/Voting.sol\":3437:3478  eventInstance.hasVoted[msg.sender] = true */\n      0x0100\n      exp\n      dup2\n      sload\n      dup2\n      0xff\n      mul\n      not\n      and\n      swap1\n      dup4\n      iszero\n      iszero\n      mul\n      or\n      swap1\n      sstore\n      pop\n        /* \"d-app/Voting.sol\":2775:3486  {... */\n      pop\n        /* \"d-app/Voting.sol\":2720:3486  function vote(uint _eventId, uint _optionIndex) public {... */\n      pop\n      pop\n      jump\t// out\n        /* \"d-app/Voting.sol\":4220:5431  function getAllEvents() public view returns (uint[] memory, string[] memory, string[] memory, uint[] memory, uint[] memory, uint[] memory, uint[] memory, uint[] memory) {   ... */\n    tag_39:\n        /* \"d-app/Voting.sol\":4265:4278  uint[] memory */\n      0x60\n        /* \"d-app/Voting.sol\":4280:4295  string[] memory */\n      dup1\n        /* \"d-app/Voting.sol\":4297:4312  string[] memory */\n      0x60\n        /* \"d-app/Voting.sol\":4314:4327  uint[] memory */\n      dup1\n        /* \"d-app/Voting.sol\":4329:4342  uint[] memory */\n      0x60\n        /* \"d-app/Voting.sol\":4344:4357  uint[] memory */\n      dup1\n        /* \"d-app/Voting.sol\":4359:4372  uint[] memory */\n      0x60\n        /* \"d-app/Voting.sol\":4374:4387  uint[] memory */\n      dup1\n        /* \"d-app/Voting.sol\":4399:4416  uint[] memory ids */\n      0x00\n        /* \"d-app/Voting.sol\":4430:4440  eventCount */\n      sload(0x01)\n        /* \"d-app/Voting.sol\":4419:4441  new uint[](eventCount) */\n      0xffffffffffffffff\n      dup2\n      gt\n      iszero\n      tag_131\n      jumpi\n      tag_132\n      tag_64\n      jump\t// in\n    tag_132:\n    tag_131:\n      mload(0x40)\n      swap1\n      dup1\n      dup3\n      mstore\n      dup1\n      0x20\n      mul\n      0x20\n      add\n      dup3\n      add\n      0x40\n      mstore\n      dup1\n      iszero\n      tag_133\n      jumpi\n      dup2\n      0x20\n      add\n      0x20\n      dup3\n      mul\n      dup1\n      calldatasize\n      dup4\n      calldatacopy\n      dup1\n      dup3\n      add\n      swap2\n      pop\n      pop\n      swap1\n      pop\n    tag_133:\n      pop\n        /* \"d-app/Voting.sol\":4399:4441  uint[] memory ids = new uint[](eventCount) */\n      swap1\n      pop\n        /* \"d-app/Voting.sol\":4448:4469  string[] memory names */\n      0x00\n        /* \"d-app/Voting.sol\":4485:4495  eventCount */\n      sload(0x01)\n        /* \"d-app/Voting.sol\":4472:4496  new string[](eventCount) */\n      0xffffffffffffffff\n      dup2\n      gt\n      iszero\n      tag_134\n      jumpi\n      tag_135\n      tag_64\n      jump\t// in\n    tag_135:\n    tag_134:\n      mload(0x40)\n      swap1\n      dup1\n      dup3\n      mstore\n      dup1\n      0x20\n      mul\n      0x20\n      add\n      dup3\n      add\n      0x40\n      mstore\n      dup1\n      iszero\n      tag_136\n      jumpi\n      dup2\n      0x20\n      add\n    tag_137:\n      0x60\n      dup2\n      mstore\n      0x20\n      add\n      swap1\n      0x01\n      swap1\n      sub\n      swap1\n      dup2\n      tag_137\n      jumpi\n      swap1\n      pop\n    tag_136:\n      pop\n        /* \"d-app/Voting.sol\":4448:4496  string[] memory names = new string[](eventCount) */\n      swap1\n      pop\n        /* \"d-app/Voting.sol\":4503:4531  string[] memory descriptions */\n      0x00\n        /* \"d-app/Voting.sol\":4547:4557  eventCount */\n      sload(0x01)\n        /* \"d-app/Voting.sol\":4534:4558  new string[](eventCount) */\n      0xffffffffffffffff\n      dup2\n      gt\n      iszero\n      tag_138\n      jumpi\n      tag_139\n      tag_64\n      jump\t// in\n    tag_139:\n    tag_138:\n      mload(0x40)\n      swap1\n      dup1\n      dup3\n      mstore\n      dup1\n      0x20\n      mul\n      0x20\n      add\n      dup3\n      add\n      0x40\n      mstore\n      dup1\n      iszero\n      tag_140\n      jumpi\n      dup2\n      0x20\n      add\n    tag_141:\n      0x60\n      dup2\n      mstore\n      0x20\n      add\n      swap1\n      0x01\n      swap1\n      sub\n      swap1\n      dup2\n      tag_141\n      jumpi\n      swap1\n      pop\n    tag_140:\n      pop\n        /* \"d-app/Voting.sol\":4503:4558  string[] memory descriptions = new string[](eventCount) */\n      swap1\n      pop\n        /* \"d-app/Voting.sol\":4591:4611  uint[] memory vote1s */\n      0x00\n        /* \"d-app/Voting.sol\":4625:4635  eventCount */\n      sload(0x01)\n        /* \"d-app/Voting.sol\":4614:4636  new uint[](eventCount) */\n      0xffffffffffffffff\n      dup2\n      gt\n      iszero\n      tag_142\n      jumpi\n      tag_143\n      tag_64\n      jump\t// in\n    tag_143:\n    tag_142:\n      mload(0x40)\n      swap1\n      dup1\n      dup3\n      mstore\n      dup1\n      0x20\n      mul\n      0x20\n      add\n      dup3\n      add\n      0x40\n      mstore\n      dup1\n      iszero\n      tag_144\n      jumpi\n      dup2\n      0x20\n      add\n      0x20\n      dup3\n      mul\n      dup1\n      calldatasize\n      dup4\n      calldatacopy\n      dup1\n      dup3\n      add\n      swap2\n      pop\n      pop\n      swap1\n      pop\n    tag_144:\n      pop\n        /* \"d-app/Voting.sol\":4591:4636  uint[] memory vote1s = new uint[](eventCount) */\n      swap1\n      pop\n        /* \"d-app/Voting.sol\":4643:4663  uint[] memory vote2s */\n      0x00\n        /* \"d-app/Voting.sol\":4677:4687  eventCount */\n      sload(0x01)\n        /* \"d-app/Voting.sol\":4666:4688  new uint[](eventCount) */\n      0xffffffffffffffff\n      dup2\n      gt\n      iszero\n      tag_145\n      jumpi\n      tag_146\n      tag_64\n      jump\t// in\n    tag_146:\n    tag_145:\n      mload(0x40)\n      swap1\n      dup1\n      dup3\n      mstore\n      dup1\n      0x20\n      mul\n      0x20\n      add\n      dup3\n      add\n      0x40\n      mstore\n      dup1\n      iszero\n      tag_147\n      jumpi\n      dup2\n      0x20\n      add\n      0x20\n      dup3\n      mul\n      dup1\n      calldatasize\n      dup4\n      calldatacopy\n      dup1\n      dup3\n      add\n      swap2\n      pop\n      pop\n      swap1\n      pop\n    tag_147:\n      pop\n        /* \"d-app/Voting.sol\":4643:4688  uint[] memory vote2s = new uint[](eventCount) */\n      swap1\n      pop\n        /* \"d-app/Voting.sol\":4695:4715  uint[] memory vote3s */\n      0x00\n        /* \"d-app/Voting.sol\":4729:4739  eventCount */\n      sload(0x01)\n        /* \"d-app/Voting.sol\":4718:4740  new uint[](eventCount) */\n      0xffffffffffffffff\n      dup2\n      gt\n      iszero\n      tag_148\n      jumpi\n      tag_149\n      tag_64\n      jump\t// in\n    tag_149:\n    tag_148:\n      mload(0x40)\n      swap1\n      dup1\n      dup3\n      mstore\n      dup1\n      0x20\n      mul\n      0x20\n      add\n      dup3\n      add\n      0x40\n      mstore\n      dup1\n      iszero\n      tag_150\n      jumpi\n      dup2\n      0x20\n      add\n      0x20\n      dup3\n      mul\n      dup1\n      calldatasize\n      dup4\n      calldatacopy\n      dup1\n      dup3\n      add\n      swap2\n      pop\n      pop\n      swap1\n      pop\n    tag_150:\n      pop\n        /* \"d-app/Voting.sol\":4695:4740  uint[] memory vote3s = new uint[](eventCount) */\n      swap1\n      pop\n        /* \"d-app/Voting.sol\":4747:4767  uint[] memory vote4s */\n      0x00\n        /* \"d-app/Voting.sol\":4781:4791  eventCount */\n      sload(0x01)\n        /* \"d-app/Voting.sol\":4770:4792  new uint[](eventCount) */\n      0xffffffffffffffff\n      dup2\n      gt\n      iszero\n      tag_151\n      jumpi\n      tag_152\n      tag_64\n      jump\t// in\n    tag_152:\n    tag_151:\n      mload(0x40)\n      swap1\n      dup1\n      dup3\n      mstore\n      dup1\n      0x20\n      mul\n      0x20\n      add\n      dup3\n      add\n      0x40\n      mstore\n      dup1\n      iszero\n      tag_153\n      jumpi\n      dup2\n      0x20\n      add\n      0x20\n      dup3\n      mul\n      dup1\n      calldatasize\n      dup4\n      calldatacopy\n      dup1\n      dup3\n      add\n      swap2\n      pop\n      pop\n      swap1\n      pop\n    tag_153:\n      pop\n        /* \"d-app/Voting.sol\":4747:4792  uint[] memory vote4s = new uint[](eventCount) */\n      swap1\n      pop\n        /* \"d-app/Voting.sol\":4799:4823  uint[] memory totalVotes */\n      0x00\n        /* \"d-app/Voting.sol\":4837:4847  eventCount */\n      sload(0x01)\n        /* \"d-app/Voting.sol\":4826:4848  new uint[](eventCount) */\n      0xffffffffffffffff\n      dup2\n      gt\n      iszero\n      tag_154\n      jumpi\n      tag_155\n      tag_64\n      jump\t// in\n    tag_155:\n    tag_154:\n      mload(0x40)\n      swap1\n      dup1\n      dup3\n      mstore\n      dup1\n      0x20\n      mul\n      0x20\n      add\n      dup3\n      add\n      0x40\n      mstore\n      dup1\n      iszero\n      tag_156\n      jumpi\n      dup2\n      0x20\n      add\n      0x20\n      dup3\n      mul\n      dup1\n      calldatasize\n      dup4\n      calldatacopy\n      dup1\n      dup3\n      add\n      swap2\n      pop\n      pop\n      swap1\n      pop\n    tag_156:\n      pop\n        /* \"d-app/Voting.sol\":4799:4848  uint[] memory totalVotes = new uint[](eventCount) */\n      swap1\n      pop\n        /* \"d-app/Voting.sol\":4862:4868  uint i */\n      0x00\n        /* \"d-app/Voting.sol\":4871:4872  1 */\n      0x01\n        /* \"d-app/Voting.sol\":4862:4872  uint i = 1 */\n      swap1\n      pop\n        /* \"d-app/Voting.sol\":4857:5342  for (uint i = 1; i <= eventCount; i++) {... */\n    tag_157:\n        /* \"d-app/Voting.sol\":4879:4889  eventCount */\n      sload(0x01)\n        /* \"d-app/Voting.sol\":4874:4875  i */\n      dup2\n        /* \"d-app/Voting.sol\":4874:4889  i <= eventCount */\n      gt\n        /* \"d-app/Voting.sol\":4857:5342  for (uint i = 1; i <= eventCount; i++) {... */\n      tag_158\n      jumpi\n        /* \"d-app/Voting.sol\":4907:4934  Event storage eventInstance */\n      0x00\n        /* \"d-app/Voting.sol\":4937:4943  events */\n      dup1\n        /* \"d-app/Voting.sol\":4937:4946  events[i] */\n      0x00\n        /* \"d-app/Voting.sol\":4944:4945  i */\n      dup4\n        /* \"d-app/Voting.sol\":4937:4946  events[i] */\n      dup2\n      mstore\n      0x20\n      add\n      swap1\n      dup2\n      mstore\n      0x20\n      add\n      0x00\n      keccak256\n        /* \"d-app/Voting.sol\":4907:4946  Event storage eventInstance = events[i] */\n      swap1\n      pop\n        /* \"d-app/Voting.sol\":4968:4981  eventInstance */\n      dup1\n        /* \"d-app/Voting.sol\":4968:4984  eventInstance.id */\n      0x00\n      add\n      sload\n        /* \"d-app/Voting.sol\":4957:4960  ids */\n      dup11\n        /* \"d-app/Voting.sol\":4963:4964  1 */\n      0x01\n        /* \"d-app/Voting.sol\":4961:4962  i */\n      dup5\n        /* \"d-app/Voting.sol\":4961:4964  i-1 */\n      tag_160\n      swap2\n      swap1\n      tag_83\n      jump\t// in\n    tag_160:\n        /* \"d-app/Voting.sol\":4957:4965  ids[i-1] */\n      dup2\n      mload\n      dup2\n      lt\n      tag_161\n      jumpi\n      tag_162\n      tag_77\n      jump\t// in\n    tag_162:\n    tag_161:\n      0x20\n      mul\n      0x20\n      add\n      add\n        /* \"d-app/Voting.sol\":4957:4984  ids[i-1] = eventInstance.id */\n      dup2\n      dup2\n      mstore\n      pop\n      pop\n        /* \"d-app/Voting.sol\":5008:5021  eventInstance */\n      dup1\n        /* \"d-app/Voting.sol\":5008:5026  eventInstance.name */\n      0x01\n      add\n        /* \"d-app/Voting.sol\":4995:5026  names[i-1] = eventInstance.name */\n      dup1\n      sload\n      tag_163\n      swap1\n      tag_47\n      jump\t// in\n    tag_163:\n      dup1\n      0x1f\n      add\n      0x20\n      dup1\n      swap2\n      div\n      mul\n      0x20\n      add\n      mload(0x40)\n      swap1\n      dup2\n      add\n      0x40\n      mstore\n      dup1\n      swap3\n      swap2\n      swap1\n      dup2\n      dup2\n      mstore\n      0x20\n      add\n      dup3\n      dup1\n      sload\n      tag_164\n      swap1\n      tag_47\n      jump\t// in\n    tag_164:\n      dup1\n      iszero\n      tag_165\n      jumpi\n      dup1\n      0x1f\n      lt\n      tag_166\n      jumpi\n      0x0100\n      dup1\n      dup4\n      sload\n      div\n      mul\n      dup4\n      mstore\n      swap2\n      0x20\n      add\n      swap2\n      jump(tag_165)\n    tag_166:\n      dup3\n      add\n      swap2\n      swap1\n      0x00\n      mstore\n      keccak256(0x00, 0x20)\n      swap1\n    tag_167:\n      dup2\n      sload\n      dup2\n      mstore\n      swap1\n      0x01\n      add\n      swap1\n      0x20\n      add\n      dup1\n      dup4\n      gt\n      tag_167\n      jumpi\n      dup3\n      swap1\n      sub\n      0x1f\n      and\n      dup3\n      add\n      swap2\n    tag_165:\n      pop\n      pop\n      pop\n      pop\n      pop\n        /* \"d-app/Voting.sol\":4995:5000  names */\n      dup10\n        /* \"d-app/Voting.sol\":5003:5004  1 */\n      0x01\n        /* \"d-app/Voting.sol\":5001:5002  i */\n      dup5\n        /* \"d-app/Voting.sol\":5001:5004  i-1 */\n      tag_168\n      swap2\n      swap1\n      tag_83\n      jump\t// in\n    tag_168:\n        /* \"d-app/Voting.sol\":4995:5005  names[i-1] */\n      dup2\n      mload\n      dup2\n      lt\n      tag_169\n      jumpi\n      tag_170\n      tag_77\n      jump\t// in\n    tag_170:\n    tag_169:\n      0x20\n      mul\n      0x20\n      add\n      add\n        /* \"d-app/Voting.sol\":4995:5026  names[i-1] = eventInstance.name */\n      dup2\n      swap1\n      mstore\n      pop\n        /* \"d-app/Voting.sol\":5057:5070  eventInstance */\n      dup1\n        /* \"d-app/Voting.sol\":5057:5082  eventInstance.description */\n      0x02\n      add\n        /* \"d-app/Voting.sol\":5037:5082  descriptions[i-1] = eventInstance.description */\n      dup1\n      sload\n      tag_171\n      swap1\n      tag_47\n      jump\t// in\n    tag_171:\n      dup1\n      0x1f\n      add\n      0x20\n      dup1\n      swap2\n      div\n      mul\n      0x20\n      add\n      mload(0x40)\n      swap1\n      dup2\n      add\n      0x40\n      mstore\n      dup1\n      swap3\n      swap2\n      swap1\n      dup2\n      dup2\n      mstore\n      0x20\n      add\n      dup3\n      dup1\n      sload\n      tag_172\n      swap1\n      tag_47\n      jump\t// in\n    tag_172:\n      dup1\n      iszero\n      tag_173\n      jumpi\n      dup1\n      0x1f\n      lt\n      tag_174\n      jumpi\n      0x0100\n      dup1\n      dup4\n      sload\n      div\n      mul\n      dup4\n      mstore\n      swap2\n      0x20\n      add\n      swap2\n      jump(tag_173)\n    tag_174:\n      dup3\n      add\n      swap2\n      swap1\n      0x00\n      mstore\n      keccak256(0x00, 0x20)\n      swap1\n    tag_175:\n      dup2\n      sload\n      dup2\n      mstore\n      swap1\n      0x01\n      add\n      swap1\n      0x20\n      add\n      dup1\n      dup4\n      gt\n      tag_175\n      jumpi\n      dup3\n      swap1\n      sub\n      0x1f\n      and\n      dup3\n      add\n      swap2\n    tag_173:\n      pop\n      pop\n      pop\n      pop\n      pop\n        /* \"d-app/Voting.sol\":5037:5049  descriptions */\n      dup9\n        /* \"d-app/Voting.sol\":5052:5053  1 */\n      0x01\n        /* \"d-app/Voting.sol\":5050:5051  i */\n      dup5\n        /* \"d-app/Voting.sol\":5050:5053  i-1 */\n      tag_176\n      swap2\n      swap1\n      tag_83\n      jump\t// in\n    tag_176:\n        /* \"d-app/Voting.sol\":5037:5054  descriptions[i-1] */\n      dup2\n      mload\n      dup2\n      lt\n      tag_177\n      jumpi\n      tag_178\n      tag_77\n      jump\t// in\n    tag_178:\n    tag_177:\n      0x20\n      mul\n      0x20\n      add\n      add\n        /* \"d-app/Voting.sol\":5037:5082  descriptions[i-1] = eventInstance.description */\n      dup2\n      swap1\n      mstore\n      pop\n        /* \"d-app/Voting.sol\":5130:5143  eventInstance */\n      dup1\n        /* \"d-app/Voting.sol\":5130:5149  eventInstance.vote1 */\n      0x05\n      add\n      sload\n        /* \"d-app/Voting.sol\":5116:5122  vote1s */\n      dup8\n        /* \"d-app/Voting.sol\":5125:5126  1 */\n      0x01\n        /* \"d-app/Voting.sol\":5123:5124  i */\n      dup5\n        /* \"d-app/Voting.sol\":5123:5126  i-1 */\n      tag_179\n      swap2\n      swap1\n      tag_83\n      jump\t// in\n    tag_179:\n        /* \"d-app/Voting.sol\":5116:5127  vote1s[i-1] */\n      dup2\n      mload\n      dup2\n      lt\n      tag_180\n      jumpi\n      tag_181\n      tag_77\n      jump\t// in\n    tag_181:\n    tag_180:\n      0x20\n      mul\n      0x20\n      add\n      add\n        /* \"d-app/Voting.sol\":5116:5149  vote1s[i-1] = eventInstance.vote1 */\n      dup2\n      dup2\n      mstore\n      pop\n      pop\n        /* \"d-app/Voting.sol\":5174:5187  eventInstance */\n      dup1\n        /* \"d-app/Voting.sol\":5174:5193  eventInstance.vote2 */\n      0x06\n      add\n      sload\n        /* \"d-app/Voting.sol\":5160:5166  vote2s */\n      dup7\n        /* \"d-app/Voting.sol\":5169:5170  1 */\n      0x01\n        /* \"d-app/Voting.sol\":5167:5168  i */\n      dup5\n        /* \"d-app/Voting.sol\":5167:5170  i-1 */\n      tag_182\n      swap2\n      swap1\n      tag_83\n      jump\t// in\n    tag_182:\n        /* \"d-app/Voting.sol\":5160:5171  vote2s[i-1] */\n      dup2\n      mload\n      dup2\n      lt\n      tag_183\n      jumpi\n      tag_184\n      tag_77\n      jump\t// in\n    tag_184:\n    tag_183:\n      0x20\n      mul\n      0x20\n      add\n      add\n        /* \"d-app/Voting.sol\":5160:5193  vote2s[i-1] = eventInstance.vote2 */\n      dup2\n      dup2\n      mstore\n      pop\n      pop\n        /* \"d-app/Voting.sol\":5218:5231  eventInstance */\n      dup1\n        /* \"d-app/Voting.sol\":5218:5237  eventInstance.vote3 */\n      0x07\n      add\n      sload\n        /* \"d-app/Voting.sol\":5204:5210  vote3s */\n      dup6\n        /* \"d-app/Voting.sol\":5213:5214  1 */\n      0x01\n        /* \"d-app/Voting.sol\":5211:5212  i */\n      dup5\n        /* \"d-app/Voting.sol\":5211:5214  i-1 */\n      tag_185\n      swap2\n      swap1\n      tag_83\n      jump\t// in\n    tag_185:\n        /* \"d-app/Voting.sol\":5204:5215  vote3s[i-1] */\n      dup2\n      mload\n      dup2\n      lt\n      tag_186\n      jumpi\n      tag_187\n      tag_77\n      jump\t// in\n    tag_187:\n    tag_186:\n      0x20\n      mul\n      0x20\n      add\n      add\n        /* \"d-app/Voting.sol\":5204:5237  vote3s[i-1] = eventInstance.vote3 */\n      dup2\n      dup2\n      mstore\n      pop\n      pop\n        /* \"d-app/Voting.sol\":5262:5275  eventInstance */\n      dup1\n        /* \"d-app/Voting.sol\":5262:5281  eventInstance.vote4 */\n      0x08\n      add\n      sload\n        /* \"d-app/Voting.sol\":5248:5254  vote4s */\n      dup5\n        /* \"d-app/Voting.sol\":5257:5258  1 */\n      0x01\n        /* \"d-app/Voting.sol\":5255:5256  i */\n      dup5\n        /* \"d-app/Voting.sol\":5255:5258  i-1 */\n      tag_188\n      swap2\n      swap1\n      tag_83\n      jump\t// in\n    tag_188:\n        /* \"d-app/Voting.sol\":5248:5259  vote4s[i-1] */\n      dup2\n      mload\n      dup2\n      lt\n      tag_189\n      jumpi\n      tag_190\n      tag_77\n      jump\t// in\n    tag_190:\n    tag_189:\n      0x20\n      mul\n      0x20\n      add\n      add\n        /* \"d-app/Voting.sol\":5248:5281  vote4s[i-1] = eventInstance.vote4 */\n      dup2\n      dup2\n      mstore\n      pop\n      pop\n        /* \"d-app/Voting.sol\":5310:5323  eventInstance */\n      dup1\n        /* \"d-app/Voting.sol\":5310:5334  eventInstance.totalVotes */\n      0x03\n      add\n      sload\n        /* \"d-app/Voting.sol\":5292:5302  totalVotes */\n      dup4\n        /* \"d-app/Voting.sol\":5305:5306  1 */\n      0x01\n        /* \"d-app/Voting.sol\":5303:5304  i */\n      dup5\n        /* \"d-app/Voting.sol\":5303:5306  i-1 */\n      tag_191\n      swap2\n      swap1\n      tag_83\n      jump\t// in\n    tag_191:\n        /* \"d-app/Voting.sol\":5292:5307  totalVotes[i-1] */\n      dup2\n      mload\n      dup2\n      lt\n      tag_192\n      jumpi\n      tag_193\n      tag_77\n      jump\t// in\n    tag_193:\n    tag_192:\n      0x20\n      mul\n      0x20\n      add\n      add\n        /* \"d-app/Voting.sol\":5292:5334  totalVotes[i-1] = eventInstance.totalVotes */\n      dup2\n      dup2\n      mstore\n      pop\n      pop\n        /* \"d-app/Voting.sol\":4896:5342  {... */\n      pop\n        /* \"d-app/Voting.sol\":4891:4894  i++ */\n      dup1\n      dup1\n      tag_194\n      swap1\n      tag_100\n      jump\t// in\n    tag_194:\n      swap2\n      pop\n      pop\n        /* \"d-app/Voting.sol\":4857:5342  for (uint i = 1; i <= eventCount; i++) {... */\n      jump(tag_157)\n    tag_158:\n      pop\n        /* \"d-app/Voting.sol\":5358:5361  ids */\n      dup8\n        /* \"d-app/Voting.sol\":5363:5368  names */\n      dup8\n        /* \"d-app/Voting.sol\":5370:5382  descriptions */\n      dup8\n        /* \"d-app/Voting.sol\":5384:5390  vote1s */\n      dup8\n        /* \"d-app/Voting.sol\":5392:5398  vote2s */\n      dup8\n        /* \"d-app/Voting.sol\":5400:5406  vote3s */\n      dup8\n        /* \"d-app/Voting.sol\":5408:5414  vote4s */\n      dup8\n        /* \"d-app/Voting.sol\":5416:5426  totalVotes */\n      dup8\n        /* \"d-app/Voting.sol\":5350:5427  return (ids, names, descriptions, vote1s, vote2s, vote3s, vote4s, totalVotes) */\n      swap16\n      pop\n      swap16\n      pop\n      swap16\n      pop\n      swap16\n      pop\n      swap16\n      pop\n      swap16\n      pop\n      swap16\n      pop\n      swap16\n      pop\n      pop\n      pop\n      pop\n      pop\n      pop\n      pop\n      pop\n      pop\n        /* \"d-app/Voting.sol\":4220:5431  function getAllEvents() public view returns (uint[] memory, string[] memory, string[] memory, uint[] memory, uint[] memory, uint[] memory, uint[] memory, uint[] memory) {   ... */\n      swap1\n      swap2\n      swap3\n      swap4\n      swap5\n      swap6\n      swap7\n      swap8\n      jump\t// out\n        /* \"d-app/Voting.sol\":1546:1923  function createEvent(string memory _name, string memory _description) public {... */\n    tag_45:\n        /* \"d-app/Voting.sol\":1634:1644  eventCount */\n      0x01\n      0x00\n        /* \"d-app/Voting.sol\":1634:1646  eventCount++ */\n      dup2\n      sload\n      dup1\n      swap3\n      swap2\n      swap1\n      tag_196\n      swap1\n      tag_100\n      jump\t// in\n    tag_196:\n      swap2\n      swap1\n      pop\n      sstore\n      pop\n        /* \"d-app/Voting.sol\":1657:1679  Event storage newEvent */\n      0x00\n        /* \"d-app/Voting.sol\":1682:1688  events */\n      dup1\n        /* \"d-app/Voting.sol\":1682:1700  events[eventCount] */\n      0x00\n        /* \"d-app/Voting.sol\":1689:1699  eventCount */\n      sload(0x01)\n        /* \"d-app/Voting.sol\":1682:1700  events[eventCount] */\n      dup2\n      mstore\n      0x20\n      add\n      swap1\n      dup2\n      mstore\n      0x20\n      add\n      0x00\n      keccak256\n        /* \"d-app/Voting.sol\":1657:1700  Event storage newEvent = events[eventCount] */\n      swap1\n      pop\n        /* \"d-app/Voting.sol\":1725:1735  eventCount */\n      sload(0x01)\n        /* \"d-app/Voting.sol\":1711:1719  newEvent */\n      dup2\n        /* \"d-app/Voting.sol\":1711:1722  newEvent.id */\n      0x00\n      add\n        /* \"d-app/Voting.sol\":1711:1735  newEvent.id = eventCount */\n      dup2\n      swap1\n      sstore\n      pop\n        /* \"d-app/Voting.sol\":1762:1767  _name */\n      dup3\n        /* \"d-app/Voting.sol\":1746:1754  newEvent */\n      dup2\n        /* \"d-app/Voting.sol\":1746:1759  newEvent.name */\n      0x01\n      add\n        /* \"d-app/Voting.sol\":1746:1767  newEvent.name = _name */\n      swap1\n      dup2\n      tag_197\n      swap2\n      swap1\n      tag_198\n      jump\t// in\n    tag_197:\n      pop\n        /* \"d-app/Voting.sol\":1801:1813  _description */\n      dup2\n        /* \"d-app/Voting.sol\":1778:1786  newEvent */\n      dup2\n        /* \"d-app/Voting.sol\":1778:1798  newEvent.description */\n      0x02\n      add\n        /* \"d-app/Voting.sol\":1778:1813  newEvent.description = _description */\n      swap1\n      dup2\n      tag_199\n      swap2\n      swap1\n      tag_198\n      jump\t// in\n    tag_199:\n      pop\n        /* \"d-app/Voting.sol\":1869:1873  true */\n      0x01\n        /* \"d-app/Voting.sol\":1851:1859  newEvent */\n      dup2\n        /* \"d-app/Voting.sol\":1851:1866  newEvent.active */\n      0x04\n      add\n      0x00\n        /* \"d-app/Voting.sol\":1851:1873  newEvent.active = true */\n      0x0100\n      exp\n      dup2\n      sload\n      dup2\n      0xff\n      mul\n      not\n      and\n      swap1\n      dup4\n      iszero\n      iszero\n      mul\n      or\n      swap1\n      sstore\n      pop\n        /* \"d-app/Voting.sol\":1905:1915  msg.sender */\n      caller\n        /* \"d-app/Voting.sol\":1884:1892  newEvent */\n      dup2\n        /* \"d-app/Voting.sol\":1884:1902  newEvent.organizer */\n      0x0a\n      add\n      0x00\n        /* \"d-app/Voting.sol\":1884:1915  newEvent.organizer = msg.sender */\n      0x0100\n      exp\n      dup2\n      sload\n      dup2\n      0xffffffffffffffffffffffffffffffffffffffff\n      mul\n      not\n      and\n      swap1\n      dup4\n      0xffffffffffffffffffffffffffffffffffffffff\n      and\n      mul\n      or\n      swap1\n      sstore\n      pop\n        /* \"d-app/Voting.sol\":1623:1923  {... */\n      pop\n        /* \"d-app/Voting.sol\":1546:1923  function createEvent(string memory _name, string memory _description) public {... */\n      pop\n      pop\n      jump\t// out\n        /* \"#utility.yul\":7:82   */\n    tag_200:\n        /* \"#utility.yul\":40:46   */\n      0x00\n        /* \"#utility.yul\":73:75   */\n      0x40\n        /* \"#utility.yul\":67:76   */\n      mload\n        /* \"#utility.yul\":57:76   */\n      swap1\n      pop\n        /* \"#utility.yul\":7:82   */\n      swap1\n      jump\t// out\n        /* \"#utility.yul\":88:205   */\n    tag_201:\n        /* \"#utility.yul\":197:198   */\n      0x00\n        /* \"#utility.yul\":194:195   */\n      dup1\n        /* \"#utility.yul\":187:199   */\n      revert\n        /* \"#utility.yul\":211:328   */\n    tag_202:\n        /* \"#utility.yul\":320:321   */\n      0x00\n        /* \"#utility.yul\":317:318   */\n      dup1\n        /* \"#utility.yul\":310:322   */\n      revert\n        /* \"#utility.yul\":334:411   */\n    tag_203:\n        /* \"#utility.yul\":371:378   */\n      0x00\n        /* \"#utility.yul\":400:405   */\n      dup2\n        /* \"#utility.yul\":389:405   */\n      swap1\n      pop\n        /* \"#utility.yul\":334:411   */\n      swap2\n      swap1\n      pop\n      jump\t// out\n        /* \"#utility.yul\":417:539   */\n    tag_204:\n        /* \"#utility.yul\":490:514   */\n      tag_271\n        /* \"#utility.yul\":508:513   */\n      dup2\n        /* \"#utility.yul\":490:514   */\n      tag_203\n      jump\t// in\n    tag_271:\n        /* \"#utility.yul\":483:488   */\n      dup2\n        /* \"#utility.yul\":480:515   */\n      eq\n        /* \"#utility.yul\":470:533   */\n      tag_272\n      jumpi\n        /* \"#utility.yul\":529:530   */\n      0x00\n        /* \"#utility.yul\":526:527   */\n      dup1\n        /* \"#utility.yul\":519:531   */\n      revert\n        /* \"#utility.yul\":470:533   */\n    tag_272:\n        /* \"#utility.yul\":417:539   */\n      pop\n      jump\t// out\n        /* \"#utility.yul\":545:684   */\n    tag_205:\n        /* \"#utility.yul\":591:596   */\n      0x00\n        /* \"#utility.yul\":629:635   */\n      dup2\n        /* \"#utility.yul\":616:636   */\n      calldataload\n        /* \"#utility.yul\":607:636   */\n      swap1\n      pop\n        /* \"#utility.yul\":645:678   */\n      tag_274\n        /* \"#utility.yul\":672:677   */\n      dup2\n        /* \"#utility.yul\":645:678   */\n      tag_204\n      jump\t// in\n    tag_274:\n        /* \"#utility.yul\":545:684   */\n      swap3\n      swap2\n      pop\n      pop\n      jump\t// out\n        /* \"#utility.yul\":690:1019   */\n    tag_14:\n        /* \"#utility.yul\":749:755   */\n      0x00\n        /* \"#utility.yul\":798:800   */\n      0x20\n        /* \"#utility.yul\":786:795   */\n      dup3\n        /* \"#utility.yul\":777:784   */\n      dup5\n        /* \"#utility.yul\":773:796   */\n      sub\n        /* \"#utility.yul\":769:801   */\n      slt\n        /* \"#utility.yul\":766:885   */\n      iszero\n      tag_276\n      jumpi\n        /* \"#utility.yul\":804:883   */\n      tag_277\n      tag_201\n      jump\t// in\n    tag_277:\n        /* \"#utility.yul\":766:885   */\n    tag_276:\n        /* \"#utility.yul\":924:925   */\n      0x00\n        /* \"#utility.yul\":949:1002   */\n      tag_278\n        /* \"#utility.yul\":994:1001   */\n      dup5\n        /* \"#utility.yul\":985:991   */\n      dup3\n        /* \"#utility.yul\":974:983   */\n      dup6\n        /* \"#utility.yul\":970:992   */\n      add\n        /* \"#utility.yul\":949:1002   */\n      tag_205\n      jump\t// in\n    tag_278:\n        /* \"#utility.yul\":939:1002   */\n      swap2\n      pop\n        /* \"#utility.yul\":895:1012   */\n      pop\n        /* \"#utility.yul\":690:1019   */\n      swap3\n      swap2\n      pop\n      pop\n      jump\t// out\n        /* \"#utility.yul\":1025:1143   */\n    tag_206:\n        /* \"#utility.yul\":1112:1136   */\n      tag_280\n        /* \"#utility.yul\":1130:1135   */\n      dup2\n        /* \"#utility.yul\":1112:1136   */\n      tag_203\n      jump\t// in\n    tag_280:\n        /* \"#utility.yul\":1107:1110   */\n      dup3\n        /* \"#utility.yul\":1100:1137   */\n      mstore\n        /* \"#utility.yul\":1025:1143   */\n      pop\n      pop\n      jump\t// out\n        /* \"#utility.yul\":1149:1248   */\n    tag_207:\n        /* \"#utility.yul\":1201:1207   */\n      0x00\n        /* \"#utility.yul\":1235:1240   */\n      dup2\n        /* \"#utility.yul\":1229:1241   */\n      mload\n        /* \"#utility.yul\":1219:1241   */\n      swap1\n      pop\n        /* \"#utility.yul\":1149:1248   */\n      swap2\n      swap1\n      pop\n      jump\t// out\n        /* \"#utility.yul\":1254:1423   */\n    tag_208:\n        /* \"#utility.yul\":1338:1349   */\n      0x00\n        /* \"#utility.yul\":1372:1378   */\n      dup3\n        /* \"#utility.yul\":1367:1370   */\n      dup3\n        /* \"#utility.yul\":1360:1379   */\n      mstore\n        /* \"#utility.yul\":1412:1416   */\n      0x20\n        /* \"#utility.yul\":1407:1410   */\n      dup3\n        /* \"#utility.yul\":1403:1417   */\n      add\n        /* \"#utility.yul\":1388:1417   */\n      swap1\n      pop\n        /* \"#utility.yul\":1254:1423   */\n      swap3\n      swap2\n      pop\n      pop\n      jump\t// out\n        /* \"#utility.yul\":1429:1675   */\n    tag_209:\n        /* \"#utility.yul\":1510:1511   */\n      0x00\n        /* \"#utility.yul\":1520:1633   */\n    tag_284:\n        /* \"#utility.yul\":1534:1540   */\n      dup4\n        /* \"#utility.yul\":1531:1532   */\n      dup2\n        /* \"#utility.yul\":1528:1541   */\n      lt\n        /* \"#utility.yul\":1520:1633   */\n      iszero\n      tag_286\n      jumpi\n        /* \"#utility.yul\":1619:1620   */\n      dup1\n        /* \"#utility.yul\":1614:1617   */\n      dup3\n        /* \"#utility.yul\":1610:1621   */\n      add\n        /* \"#utility.yul\":1604:1622   */\n      mload\n        /* \"#utility.yul\":1600:1601   */\n      dup2\n        /* \"#utility.yul\":1595:1598   */\n      dup5\n        /* \"#utility.yul\":1591:1602   */\n      add\n        /* \"#utility.yul\":1584:1623   */\n      mstore\n        /* \"#utility.yul\":1556:1558   */\n      0x20\n        /* \"#utility.yul\":1553:1554   */\n      dup2\n        /* \"#utility.yul\":1549:1559   */\n      add\n        /* \"#utility.yul\":1544:1559   */\n      swap1\n      pop\n        /* \"#utility.yul\":1520:1633   */\n      jump(tag_284)\n    tag_286:\n        /* \"#utility.yul\":1667:1668   */\n      0x00\n        /* \"#utility.yul\":1658:1664   */\n      dup5\n        /* \"#utility.yul\":1653:1656   */\n      dup5\n        /* \"#utility.yul\":1649:1665   */\n      add\n        /* \"#utility.yul\":1642:1669   */\n      mstore\n        /* \"#utility.yul\":1491:1675   */\n      pop\n        /* \"#utility.yul\":1429:1675   */\n      pop\n      pop\n      pop\n      jump\t// out\n        /* \"#utility.yul\":1681:1783   */\n    tag_210:\n        /* \"#utility.yul\":1722:1728   */\n      0x00\n        /* \"#utility.yul\":1773:1775   */\n      0x1f\n        /* \"#utility.yul\":1769:1776   */\n      not\n        /* \"#utility.yul\":1764:1766   */\n      0x1f\n        /* \"#utility.yul\":1757:1762   */\n      dup4\n        /* \"#utility.yul\":1753:1767   */\n      add\n        /* \"#utility.yul\":1749:1777   */\n      and\n        /* \"#utility.yul\":1739:1777   */\n      swap1\n      pop\n        /* \"#utility.yul\":1681:1783   */\n      swap2\n      swap1\n      pop\n      jump\t// out\n        /* \"#utility.yul\":1789:2166   */\n    tag_211:\n        /* \"#utility.yul\":1877:1880   */\n      0x00\n        /* \"#utility.yul\":1905:1944   */\n      tag_289\n        /* \"#utility.yul\":1938:1943   */\n      dup3\n        /* \"#utility.yul\":1905:1944   */\n      tag_207\n      jump\t// in\n    tag_289:\n        /* \"#utility.yul\":1960:2031   */\n      tag_290\n        /* \"#utility.yul\":2024:2030   */\n      dup2\n        /* \"#utility.yul\":2019:2022   */\n      dup6\n        /* \"#utility.yul\":1960:2031   */\n      tag_208\n      jump\t// in\n    tag_290:\n        /* \"#utility.yul\":1953:2031   */\n      swap4\n      pop\n        /* \"#utility.yul\":2040:2105   */\n      tag_291\n        /* \"#utility.yul\":2098:2104   */\n      dup2\n        /* \"#utility.yul\":2093:2096   */\n      dup6\n        /* \"#utility.yul\":2086:2090   */\n      0x20\n        /* \"#utility.yul\":2079:2084   */\n      dup7\n        /* \"#utility.yul\":2075:2091   */\n      add\n        /* \"#utility.yul\":2040:2105   */\n      tag_209\n      jump\t// in\n    tag_291:\n        /* \"#utility.yul\":2130:2159   */\n      tag_292\n        /* \"#utility.yul\":2152:2158   */\n      dup2\n        /* \"#utility.yul\":2130:2159   */\n      tag_210\n      jump\t// in\n    tag_292:\n        /* \"#utility.yul\":2125:2128   */\n      dup5\n        /* \"#utility.yul\":2121:2160   */\n      add\n        /* \"#utility.yul\":2114:2160   */\n      swap2\n      pop\n        /* \"#utility.yul\":1881:2166   */\n      pop\n        /* \"#utility.yul\":1789:2166   */\n      swap3\n      swap2\n      pop\n      pop\n      jump\t// out\n        /* \"#utility.yul\":2172:2262   */\n    tag_212:\n        /* \"#utility.yul\":2206:2213   */\n      0x00\n        /* \"#utility.yul\":2249:2254   */\n      dup2\n        /* \"#utility.yul\":2242:2255   */\n      iszero\n        /* \"#utility.yul\":2235:2256   */\n      iszero\n        /* \"#utility.yul\":2224:2256   */\n      swap1\n      pop\n        /* \"#utility.yul\":2172:2262   */\n      swap2\n      swap1\n      pop\n      jump\t// out\n        /* \"#utility.yul\":2268:2377   */\n    tag_213:\n        /* \"#utility.yul\":2349:2370   */\n      tag_295\n        /* \"#utility.yul\":2364:2369   */\n      dup2\n        /* \"#utility.yul\":2349:2370   */\n      tag_212\n      jump\t// in\n    tag_295:\n        /* \"#utility.yul\":2344:2347   */\n      dup3\n        /* \"#utility.yul\":2337:2371   */\n      mstore\n        /* \"#utility.yul\":2268:2377   */\n      pop\n      pop\n      jump\t// out\n        /* \"#utility.yul\":2383:2509   */\n    tag_214:\n        /* \"#utility.yul\":2420:2427   */\n      0x00\n        /* \"#utility.yul\":2460:2502   */\n      0xffffffffffffffffffffffffffffffffffffffff\n        /* \"#utility.yul\":2453:2458   */\n      dup3\n        /* \"#utility.yul\":2449:2503   */\n      and\n        /* \"#utility.yul\":2438:2503   */\n      swap1\n      pop\n        /* \"#utility.yul\":2383:2509   */\n      swap2\n      swap1\n      pop\n      jump\t// out\n        /* \"#utility.yul\":2515:2611   */\n    tag_215:\n        /* \"#utility.yul\":2552:2559   */\n      0x00\n        /* \"#utility.yul\":2581:2605   */\n      tag_298\n        /* \"#utility.yul\":2599:2604   */\n      dup3\n        /* \"#utility.yul\":2581:2605   */\n      tag_214\n      jump\t// in\n    tag_298:\n        /* \"#utility.yul\":2570:2605   */\n      swap1\n      pop\n        /* \"#utility.yul\":2515:2611   */\n      swap2\n      swap1\n      pop\n      jump\t// out\n        /* \"#utility.yul\":2617:2735   */\n    tag_216:\n        /* \"#utility.yul\":2704:2728   */\n      tag_300\n        /* \"#utility.yul\":2722:2727   */\n      dup2\n        /* \"#utility.yul\":2704:2728   */\n      tag_215\n      jump\t// in\n    tag_300:\n        /* \"#utility.yul\":2699:2702   */\n      dup3\n        /* \"#utility.yul\":2692:2729   */\n      mstore\n        /* \"#utility.yul\":2617:2735   */\n      pop\n      pop\n      jump\t// out\n        /* \"#utility.yul\":2741:4130   */\n    tag_17:\n        /* \"#utility.yul\":3120:3124   */\n      0x00\n        /* \"#utility.yul\":3158:3161   */\n      0x0140\n        /* \"#utility.yul\":3147:3156   */\n      dup3\n        /* \"#utility.yul\":3143:3162   */\n      add\n        /* \"#utility.yul\":3135:3162   */\n      swap1\n      pop\n        /* \"#utility.yul\":3172:3243   */\n      tag_302\n        /* \"#utility.yul\":3240:3241   */\n      0x00\n        /* \"#utility.yul\":3229:3238   */\n      dup4\n        /* \"#utility.yul\":3225:3242   */\n      add\n        /* \"#utility.yul\":3216:3222   */\n      dup14\n        /* \"#utility.yul\":3172:3243   */\n      tag_206\n      jump\t// in\n    tag_302:\n        /* \"#utility.yul\":3290:3299   */\n      dup2\n        /* \"#utility.yul\":3284:3288   */\n      dup2\n        /* \"#utility.yul\":3280:3300   */\n      sub\n        /* \"#utility.yul\":3275:3277   */\n      0x20\n        /* \"#utility.yul\":3264:3273   */\n      dup4\n        /* \"#utility.yul\":3260:3278   */\n      add\n        /* \"#utility.yul\":3253:3301   */\n      mstore\n        /* \"#utility.yul\":3318:3396   */\n      tag_303\n        /* \"#utility.yul\":3391:3395   */\n      dup2\n        /* \"#utility.yul\":3382:3388   */\n      dup13\n        /* \"#utility.yul\":3318:3396   */\n      tag_211\n      jump\t// in\n    tag_303:\n        /* \"#utility.yul\":3310:3396   */\n      swap1\n      pop\n        /* \"#utility.yul\":3443:3452   */\n      dup2\n        /* \"#utility.yul\":3437:3441   */\n      dup2\n        /* \"#utility.yul\":3433:3453   */\n      sub\n        /* \"#utility.yul\":3428:3430   */\n      0x40\n        /* \"#utility.yul\":3417:3426   */\n      dup4\n        /* \"#utility.yul\":3413:3431   */\n      add\n        /* \"#utility.yul\":3406:3454   */\n      mstore\n        /* \"#utility.yul\":3471:3549   */\n      tag_304\n        /* \"#utility.yul\":3544:3548   */\n      dup2\n        /* \"#utility.yul\":3535:3541   */\n      dup12\n        /* \"#utility.yul\":3471:3549   */\n      tag_211\n      jump\t// in\n    tag_304:\n        /* \"#utility.yul\":3463:3549   */\n      swap1\n      pop\n        /* \"#utility.yul\":3559:3631   */\n      tag_305\n        /* \"#utility.yul\":3627:3629   */\n      0x60\n        /* \"#utility.yul\":3616:3625   */\n      dup4\n        /* \"#utility.yul\":3612:3630   */\n      add\n        /* \"#utility.yul\":3603:3609   */\n      dup11\n        /* \"#utility.yul\":3559:3631   */\n      tag_206\n      jump\t// in\n    tag_305:\n        /* \"#utility.yul\":3641:3708   */\n      tag_306\n        /* \"#utility.yul\":3703:3706   */\n      0x80\n        /* \"#utility.yul\":3692:3701   */\n      dup4\n        /* \"#utility.yul\":3688:3707   */\n      add\n        /* \"#utility.yul\":3679:3685   */\n      dup10\n        /* \"#utility.yul\":3641:3708   */\n      tag_213\n      jump\t// in\n    tag_306:\n        /* \"#utility.yul\":3718:3791   */\n      tag_307\n        /* \"#utility.yul\":3786:3789   */\n      0xa0\n        /* \"#utility.yul\":3775:3784   */\n      dup4\n        /* \"#utility.yul\":3771:3790   */\n      add\n        /* \"#utility.yul\":3762:3768   */\n      dup9\n        /* \"#utility.yul\":3718:3791   */\n      tag_206\n      jump\t// in\n    tag_307:\n        /* \"#utility.yul\":3801:3874   */\n      tag_308\n        /* \"#utility.yul\":3869:3872   */\n      0xc0\n        /* \"#utility.yul\":3858:3867   */\n      dup4\n        /* \"#utility.yul\":3854:3873   */\n      add\n        /* \"#utility.yul\":3845:3851   */\n      dup8\n        /* \"#utility.yul\":3801:3874   */\n      tag_206\n      jump\t// in\n    tag_308:\n        /* \"#utility.yul\":3884:3957   */\n      tag_309\n        /* \"#utility.yul\":3952:3955   */\n      0xe0\n        /* \"#utility.yul\":3941:3950   */\n      dup4\n        /* \"#utility.yul\":3937:3956   */\n      add\n        /* \"#utility.yul\":3928:3934   */\n      dup7\n        /* \"#utility.yul\":3884:3957   */\n      tag_206\n      jump\t// in\n    tag_309:\n        /* \"#utility.yul\":3967:4040   */\n      tag_310\n        /* \"#utility.yul\":4035:4038   */\n      0x0100\n        /* \"#utility.yul\":4024:4033   */\n      dup4\n        /* \"#utility.yul\":4020:4039   */\n      add\n        /* \"#utility.yul\":4011:4017   */\n      dup6\n        /* \"#utility.yul\":3967:4040   */\n      tag_206\n      jump\t// in\n    tag_310:\n        /* \"#utility.yul\":4050:4123   */\n      tag_311\n        /* \"#utility.yul\":4118:4121   */\n      0x0120\n        /* \"#utility.yul\":4107:4116   */\n      dup4\n        /* \"#utility.yul\":4103:4122   */\n      add\n        /* \"#utility.yul\":4094:4100   */\n      dup5\n        /* \"#utility.yul\":4050:4123   */\n      tag_216\n      jump\t// in\n    tag_311:\n        /* \"#utility.yul\":2741:4130   */\n      swap12\n      swap11\n      pop\n      pop\n      pop\n      pop\n      pop\n      pop\n      pop\n      pop\n      pop\n      pop\n      pop\n      jump\t// out\n        /* \"#utility.yul\":4136:4358   */\n    tag_24:\n        /* \"#utility.yul\":4229:4233   */\n      0x00\n        /* \"#utility.yul\":4267:4269   */\n      0x20\n        /* \"#utility.yul\":4256:4265   */\n      dup3\n        /* \"#utility.yul\":4252:4270   */\n      add\n        /* \"#utility.yul\":4244:4270   */\n      swap1\n      pop\n        /* \"#utility.yul\":4280:4351   */\n      tag_313\n        /* \"#utility.yul\":4348:4349   */\n      0x00\n        /* \"#utility.yul\":4337:4346   */\n      dup4\n        /* \"#utility.yul\":4333:4350   */\n      add\n        /* \"#utility.yul\":4324:4330   */\n      dup5\n        /* \"#utility.yul\":4280:4351   */\n      tag_206\n      jump\t// in\n    tag_313:\n        /* \"#utility.yul\":4136:4358   */\n      swap3\n      swap2\n      pop\n      pop\n      jump\t// out\n        /* \"#utility.yul\":4364:4478   */\n    tag_217:\n        /* \"#utility.yul\":4431:4437   */\n      0x00\n        /* \"#utility.yul\":4465:4470   */\n      dup2\n        /* \"#utility.yul\":4459:4471   */\n      mload\n        /* \"#utility.yul\":4449:4471   */\n      swap1\n      pop\n        /* \"#utility.yul\":4364:4478   */\n      swap2\n      swap1\n      pop\n      jump\t// out\n        /* \"#utility.yul\":4484:4668   */\n    tag_218:\n        /* \"#utility.yul\":4583:4594   */\n      0x00\n        /* \"#utility.yul\":4617:4623   */\n      dup3\n        /* \"#utility.yul\":4612:4615   */\n      dup3\n        /* \"#utility.yul\":4605:4624   */\n      mstore\n        /* \"#utility.yul\":4657:4661   */\n      0x20\n        /* \"#utility.yul\":4652:4655   */\n      dup3\n        /* \"#utility.yul\":4648:4662   */\n      add\n        /* \"#utility.yul\":4633:4662   */\n      swap1\n      pop\n        /* \"#utility.yul\":4484:4668   */\n      swap3\n      swap2\n      pop\n      pop\n      jump\t// out\n        /* \"#utility.yul\":4674:4806   */\n    tag_219:\n        /* \"#utility.yul\":4741:4745   */\n      0x00\n        /* \"#utility.yul\":4764:4767   */\n      dup2\n        /* \"#utility.yul\":4756:4767   */\n      swap1\n      pop\n        /* \"#utility.yul\":4794:4798   */\n      0x20\n        /* \"#utility.yul\":4789:4792   */\n      dup3\n        /* \"#utility.yul\":4785:4799   */\n      add\n        /* \"#utility.yul\":4777:4799   */\n      swap1\n      pop\n        /* \"#utility.yul\":4674:4806   */\n      swap2\n      swap1\n      pop\n      jump\t// out\n        /* \"#utility.yul\":4812:4920   */\n    tag_220:\n        /* \"#utility.yul\":4889:4913   */\n      tag_318\n        /* \"#utility.yul\":4907:4912   */\n      dup2\n        /* \"#utility.yul\":4889:4913   */\n      tag_203\n      jump\t// in\n    tag_318:\n        /* \"#utility.yul\":4884:4887   */\n      dup3\n        /* \"#utility.yul\":4877:4914   */\n      mstore\n        /* \"#utility.yul\":4812:4920   */\n      pop\n      pop\n      jump\t// out\n        /* \"#utility.yul\":4926:5105   */\n    tag_221:\n        /* \"#utility.yul\":4995:5005   */\n      0x00\n        /* \"#utility.yul\":5016:5062   */\n      tag_320\n        /* \"#utility.yul\":5058:5061   */\n      dup4\n        /* \"#utility.yul\":5050:5056   */\n      dup4\n        /* \"#utility.yul\":5016:5062   */\n      tag_220\n      jump\t// in\n    tag_320:\n        /* \"#utility.yul\":5094:5098   */\n      0x20\n        /* \"#utility.yul\":5089:5092   */\n      dup4\n        /* \"#utility.yul\":5085:5099   */\n      add\n        /* \"#utility.yul\":5071:5099   */\n      swap1\n      pop\n        /* \"#utility.yul\":4926:5105   */\n      swap3\n      swap2\n      pop\n      pop\n      jump\t// out\n        /* \"#utility.yul\":5111:5224   */\n    tag_222:\n        /* \"#utility.yul\":5181:5185   */\n      0x00\n        /* \"#utility.yul\":5213:5217   */\n      0x20\n        /* \"#utility.yul\":5208:5211   */\n      dup3\n        /* \"#utility.yul\":5204:5218   */\n      add\n        /* \"#utility.yul\":5196:5218   */\n      swap1\n      pop\n        /* \"#utility.yul\":5111:5224   */\n      swap2\n      swap1\n      pop\n      jump\t// out\n        /* \"#utility.yul\":5260:5992   */\n    tag_223:\n        /* \"#utility.yul\":5379:5382   */\n      0x00\n        /* \"#utility.yul\":5408:5462   */\n      tag_323\n        /* \"#utility.yul\":5456:5461   */\n      dup3\n        /* \"#utility.yul\":5408:5462   */\n      tag_217\n      jump\t// in\n    tag_323:\n        /* \"#utility.yul\":5478:5564   */\n      tag_324\n        /* \"#utility.yul\":5557:5563   */\n      dup2\n        /* \"#utility.yul\":5552:5555   */\n      dup6\n        /* \"#utility.yul\":5478:5564   */\n      tag_218\n      jump\t// in\n    tag_324:\n        /* \"#utility.yul\":5471:5564   */\n      swap4\n      pop\n        /* \"#utility.yul\":5588:5644   */\n      tag_325\n        /* \"#utility.yul\":5638:5643   */\n      dup4\n        /* \"#utility.yul\":5588:5644   */\n      tag_219\n      jump\t// in\n    tag_325:\n        /* \"#utility.yul\":5667:5674   */\n      dup1\n        /* \"#utility.yul\":5698:5699   */\n      0x00\n        /* \"#utility.yul\":5683:5967   */\n    tag_326:\n        /* \"#utility.yul\":5708:5714   */\n      dup4\n        /* \"#utility.yul\":5705:5706   */\n      dup2\n        /* \"#utility.yul\":5702:5715   */\n      lt\n        /* \"#utility.yul\":5683:5967   */\n      iszero\n      tag_328\n      jumpi\n        /* \"#utility.yul\":5784:5790   */\n      dup2\n        /* \"#utility.yul\":5778:5791   */\n      mload\n        /* \"#utility.yul\":5811:5874   */\n      tag_329\n        /* \"#utility.yul\":5870:5873   */\n      dup9\n        /* \"#utility.yul\":5855:5868   */\n      dup3\n        /* \"#utility.yul\":5811:5874   */\n      tag_221\n      jump\t// in\n    tag_329:\n        /* \"#utility.yul\":5804:5874   */\n      swap8\n      pop\n        /* \"#utility.yul\":5897:5957   */\n      tag_330\n        /* \"#utility.yul\":5950:5956   */\n      dup4\n        /* \"#utility.yul\":5897:5957   */\n      tag_222\n      jump\t// in\n    tag_330:\n        /* \"#utility.yul\":5887:5957   */\n      swap3\n      pop\n        /* \"#utility.yul\":5743:5967   */\n      pop\n        /* \"#utility.yul\":5730:5731   */\n      0x01\n        /* \"#utility.yul\":5727:5728   */\n      dup2\n        /* \"#utility.yul\":5723:5732   */\n      add\n        /* \"#utility.yul\":5718:5732   */\n      swap1\n      pop\n        /* \"#utility.yul\":5683:5967   */\n      jump(tag_326)\n    tag_328:\n        /* \"#utility.yul\":5687:5701   */\n      pop\n        /* \"#utility.yul\":5983:5986   */\n      dup6\n        /* \"#utility.yul\":5976:5986   */\n      swap4\n      pop\n        /* \"#utility.yul\":5384:5992   */\n      pop\n      pop\n      pop\n        /* \"#utility.yul\":5260:5992   */\n      swap3\n      swap2\n      pop\n      pop\n      jump\t// out\n        /* \"#utility.yul\":5998:6371   */\n    tag_28:\n        /* \"#utility.yul\":6141:6145   */\n      0x00\n        /* \"#utility.yul\":6179:6181   */\n      0x20\n        /* \"#utility.yul\":6168:6177   */\n      dup3\n        /* \"#utility.yul\":6164:6182   */\n      add\n        /* \"#utility.yul\":6156:6182   */\n      swap1\n      pop\n        /* \"#utility.yul\":6228:6237   */\n      dup2\n        /* \"#utility.yul\":6222:6226   */\n      dup2\n        /* \"#utility.yul\":6218:6238   */\n      sub\n        /* \"#utility.yul\":6214:6215   */\n      0x00\n        /* \"#utility.yul\":6203:6212   */\n      dup4\n        /* \"#utility.yul\":6199:6216   */\n      add\n        /* \"#utility.yul\":6192:6239   */\n      mstore\n        /* \"#utility.yul\":6256:6364   */\n      tag_332\n        /* \"#utility.yul\":6359:6363   */\n      dup2\n        /* \"#utility.yul\":6350:6356   */\n      dup5\n        /* \"#utility.yul\":6256:6364   */\n      tag_223\n      jump\t// in\n    tag_332:\n        /* \"#utility.yul\":6248:6364   */\n      swap1\n      pop\n        /* \"#utility.yul\":5998:6371   */\n      swap3\n      swap2\n      pop\n      pop\n      jump\t// out\n        /* \"#utility.yul\":6377:7132   */\n    tag_33:\n        /* \"#utility.yul\":6602:6606   */\n      0x00\n        /* \"#utility.yul\":6640:6643   */\n      0xa0\n        /* \"#utility.yul\":6629:6638   */\n      dup3\n        /* \"#utility.yul\":6625:6644   */\n      add\n        /* \"#utility.yul\":6617:6644   */\n      swap1\n      pop\n        /* \"#utility.yul\":6690:6699   */\n      dup2\n        /* \"#utility.yul\":6684:6688   */\n      dup2\n        /* \"#utility.yul\":6680:6700   */\n      sub\n        /* \"#utility.yul\":6676:6677   */\n      0x00\n        /* \"#utility.yul\":6665:6674   */\n      dup4\n        /* \"#utility.yul\":6661:6678   */\n      add\n        /* \"#utility.yul\":6654:6701   */\n      mstore\n        /* \"#utility.yul\":6718:6796   */\n      tag_334\n        /* \"#utility.yul\":6791:6795   */\n      dup2\n        /* \"#utility.yul\":6782:6788   */\n      dup9\n        /* \"#utility.yul\":6718:6796   */\n      tag_211\n      jump\t// in\n    tag_334:\n        /* \"#utility.yul\":6710:6796   */\n      swap1\n      pop\n        /* \"#utility.yul\":6806:6878   */\n      tag_335\n        /* \"#utility.yul\":6874:6876   */\n      0x20\n        /* \"#utility.yul\":6863:6872   */\n      dup4\n        /* \"#utility.yul\":6859:6877   */\n      add\n        /* \"#utility.yul\":6850:6856   */\n      dup8\n        /* \"#utility.yul\":6806:6878   */\n      tag_206\n      jump\t// in\n    tag_335:\n        /* \"#utility.yul\":6888:6960   */\n      tag_336\n        /* \"#utility.yul\":6956:6958   */\n      0x40\n        /* \"#utility.yul\":6945:6954   */\n      dup4\n        /* \"#utility.yul\":6941:6959   */\n      add\n        /* \"#utility.yul\":6932:6938   */\n      dup7\n        /* \"#utility.yul\":6888:6960   */\n      tag_206\n      jump\t// in\n    tag_336:\n        /* \"#utility.yul\":6970:7042   */\n      tag_337\n        /* \"#utility.yul\":7038:7040   */\n      0x60\n        /* \"#utility.yul\":7027:7036   */\n      dup4\n        /* \"#utility.yul\":7023:7041   */\n      add\n        /* \"#utility.yul\":7014:7020   */\n      dup6\n        /* \"#utility.yul\":6970:7042   */\n      tag_206\n      jump\t// in\n    tag_337:\n        /* \"#utility.yul\":7052:7125   */\n      tag_338\n        /* \"#utility.yul\":7120:7123   */\n      0x80\n        /* \"#utility.yul\":7109:7118   */\n      dup4\n        /* \"#utility.yul\":7105:7124   */\n      add\n        /* \"#utility.yul\":7096:7102   */\n      dup5\n        /* \"#utility.yul\":7052:7125   */\n      tag_206\n      jump\t// in\n    tag_338:\n        /* \"#utility.yul\":6377:7132   */\n      swap7\n      swap6\n      pop\n      pop\n      pop\n      pop\n      pop\n      pop\n      jump\t// out\n        /* \"#utility.yul\":7138:7612   */\n    tag_36:\n        /* \"#utility.yul\":7206:7212   */\n      0x00\n        /* \"#utility.yul\":7214:7220   */\n      dup1\n        /* \"#utility.yul\":7263:7265   */\n      0x40\n        /* \"#utility.yul\":7251:7260   */\n      dup4\n        /* \"#utility.yul\":7242:7249   */\n      dup6\n        /* \"#utility.yul\":7238:7261   */\n      sub\n        /* \"#utility.yul\":7234:7266   */\n      slt\n        /* \"#utility.yul\":7231:7350   */\n      iszero\n      tag_340\n      jumpi\n        /* \"#utility.yul\":7269:7348   */\n      tag_341\n      tag_201\n      jump\t// in\n    tag_341:\n        /* \"#utility.yul\":7231:7350   */\n    tag_340:\n        /* \"#utility.yul\":7389:7390   */\n      0x00\n        /* \"#utility.yul\":7414:7467   */\n      tag_342\n        /* \"#utility.yul\":7459:7466   */\n      dup6\n        /* \"#utility.yul\":7450:7456   */\n      dup3\n        /* \"#utility.yul\":7439:7448   */\n      dup7\n        /* \"#utility.yul\":7435:7457   */\n      add\n        /* \"#utility.yul\":7414:7467   */\n      tag_205\n      jump\t// in\n    tag_342:\n        /* \"#utility.yul\":7404:7467   */\n      swap3\n      pop\n        /* \"#utility.yul\":7360:7477   */\n      pop\n        /* \"#utility.yul\":7516:7518   */\n      0x20\n        /* \"#utility.yul\":7542:7595   */\n      tag_343\n        /* \"#utility.yul\":7587:7594   */\n      dup6\n        /* \"#utility.yul\":7578:7584   */\n      dup3\n        /* \"#utility.yul\":7567:7576   */\n      dup7\n        /* \"#utility.yul\":7563:7585   */\n      add\n        /* \"#utility.yul\":7542:7595   */\n      tag_205\n      jump\t// in\n    tag_343:\n        /* \"#utility.yul\":7532:7595   */\n      swap2\n      pop\n        /* \"#utility.yul\":7487:7605   */\n      pop\n        /* \"#utility.yul\":7138:7612   */\n      swap3\n      pop\n      swap3\n      swap1\n      pop\n      jump\t// out\n        /* \"#utility.yul\":7618:7742   */\n    tag_224:\n        /* \"#utility.yul\":7695:7701   */\n      0x00\n        /* \"#utility.yul\":7729:7734   */\n      dup2\n        /* \"#utility.yul\":7723:7735   */\n      mload\n        /* \"#utility.yul\":7713:7735   */\n      swap1\n      pop\n        /* \"#utility.yul\":7618:7742   */\n      swap2\n      swap1\n      pop\n      jump\t// out\n        /* \"#utility.yul\":7748:7942   */\n    tag_225:\n        /* \"#utility.yul\":7857:7868   */\n      0x00\n        /* \"#utility.yul\":7891:7897   */\n      dup3\n        /* \"#utility.yul\":7886:7889   */\n      dup3\n        /* \"#utility.yul\":7879:7898   */\n      mstore\n        /* \"#utility.yul\":7931:7935   */\n      0x20\n        /* \"#utility.yul\":7926:7929   */\n      dup3\n        /* \"#utility.yul\":7922:7936   */\n      add\n        /* \"#utility.yul\":7907:7936   */\n      swap1\n      pop\n        /* \"#utility.yul\":7748:7942   */\n      swap3\n      swap2\n      pop\n      pop\n      jump\t// out\n        /* \"#utility.yul\":7948:8090   */\n    tag_226:\n        /* \"#utility.yul\":8025:8029   */\n      0x00\n        /* \"#utility.yul\":8048:8051   */\n      dup2\n        /* \"#utility.yul\":8040:8051   */\n      swap1\n      pop\n        /* \"#utility.yul\":8078:8082   */\n      0x20\n        /* \"#utility.yul\":8073:8076   */\n      dup3\n        /* \"#utility.yul\":8069:8083   */\n      add\n        /* \"#utility.yul\":8061:8083   */\n      swap1\n      pop\n        /* \"#utility.yul\":7948:8090   */\n      swap2\n      swap1\n      pop\n      jump\t// out\n        /* \"#utility.yul\":8096:8255   */\n    tag_227:\n        /* \"#utility.yul\":8170:8181   */\n      0x00\n        /* \"#utility.yul\":8204:8210   */\n      dup3\n        /* \"#utility.yul\":8199:8202   */\n      dup3\n        /* \"#utility.yul\":8192:8211   */\n      mstore\n        /* \"#utility.yul\":8244:8248   */\n      0x20\n        /* \"#utility.yul\":8239:8242   */\n      dup3\n        /* \"#utility.yul\":8235:8249   */\n      add\n        /* \"#utility.yul\":8220:8249   */\n      swap1\n      pop\n        /* \"#utility.yul\":8096:8255   */\n      swap3\n      swap2\n      pop\n      pop\n      jump\t// out\n        /* \"#utility.yul\":8261:8618   */\n    tag_228:\n        /* \"#utility.yul\":8339:8342   */\n      0x00\n        /* \"#utility.yul\":8367:8406   */\n      tag_349\n        /* \"#utility.yul\":8400:8405   */\n      dup3\n        /* \"#utility.yul\":8367:8406   */\n      tag_207\n      jump\t// in\n    tag_349:\n        /* \"#utility.yul\":8422:8483   */\n      tag_350\n        /* \"#utility.yul\":8476:8482   */\n      dup2\n        /* \"#utility.yul\":8471:8474   */\n      dup6\n        /* \"#utility.yul\":8422:8483   */\n      tag_227\n      jump\t// in\n    tag_350:\n        /* \"#utility.yul\":8415:8483   */\n      swap4\n      pop\n        /* \"#utility.yul\":8492:8557   */\n      tag_351\n        /* \"#utility.yul\":8550:8556   */\n      dup2\n        /* \"#utility.yul\":8545:8548   */\n      dup6\n        /* \"#utility.yul\":8538:8542   */\n      0x20\n        /* \"#utility.yul\":8531:8536   */\n      dup7\n        /* \"#utility.yul\":8527:8543   */\n      add\n        /* \"#utility.yul\":8492:8557   */\n      tag_209\n      jump\t// in\n    tag_351:\n        /* \"#utility.yul\":8582:8611   */\n      tag_352\n        /* \"#utility.yul\":8604:8610   */\n      dup2\n        /* \"#utility.yul\":8582:8611   */\n      tag_210\n      jump\t// in\n    tag_352:\n        /* \"#utility.yul\":8577:8580   */\n      dup5\n        /* \"#utility.yul\":8573:8612   */\n      add\n        /* \"#utility.yul\":8566:8612   */\n      swap2\n      pop\n        /* \"#utility.yul\":8343:8618   */\n      pop\n        /* \"#utility.yul\":8261:8618   */\n      swap3\n      swap2\n      pop\n      pop\n      jump\t// out\n        /* \"#utility.yul\":8624:8820   */\n    tag_229:\n        /* \"#utility.yul\":8713:8723   */\n      0x00\n        /* \"#utility.yul\":8748:8814   */\n      tag_354\n        /* \"#utility.yul\":8810:8813   */\n      dup4\n        /* \"#utility.yul\":8802:8808   */\n      dup4\n        /* \"#utility.yul\":8748:8814   */\n      tag_228\n      jump\t// in\n    tag_354:\n        /* \"#utility.yul\":8734:8814   */\n      swap1\n      pop\n        /* \"#utility.yul\":8624:8820   */\n      swap3\n      swap2\n      pop\n      pop\n      jump\t// out\n        /* \"#utility.yul\":8826:8949   */\n    tag_230:\n        /* \"#utility.yul\":8906:8910   */\n      0x00\n        /* \"#utility.yul\":8938:8942   */\n      0x20\n        /* \"#utility.yul\":8933:8936   */\n      dup3\n        /* \"#utility.yul\":8929:8943   */\n      add\n        /* \"#utility.yul\":8921:8943   */\n      swap1\n      pop\n        /* \"#utility.yul\":8826:8949   */\n      swap2\n      swap1\n      pop\n      jump\t// out\n        /* \"#utility.yul\":8983:9974   */\n    tag_231:\n        /* \"#utility.yul\":9122:9125   */\n      0x00\n        /* \"#utility.yul\":9151:9215   */\n      tag_357\n        /* \"#utility.yul\":9209:9214   */\n      dup3\n        /* \"#utility.yul\":9151:9215   */\n      tag_224\n      jump\t// in\n    tag_357:\n        /* \"#utility.yul\":9231:9327   */\n      tag_358\n        /* \"#utility.yul\":9320:9326   */\n      dup2\n        /* \"#utility.yul\":9315:9318   */\n      dup6\n        /* \"#utility.yul\":9231:9327   */\n      tag_225\n      jump\t// in\n    tag_358:\n        /* \"#utility.yul\":9224:9327   */\n      swap4\n      pop\n        /* \"#utility.yul\":9353:9356   */\n      dup4\n        /* \"#utility.yul\":9398:9402   */\n      0x20\n        /* \"#utility.yul\":9390:9396   */\n      dup3\n        /* \"#utility.yul\":9386:9403   */\n      mul\n        /* \"#utility.yul\":9381:9384   */\n      dup6\n        /* \"#utility.yul\":9377:9404   */\n      add\n        /* \"#utility.yul\":9428:9494   */\n      tag_359\n        /* \"#utility.yul\":9488:9493   */\n      dup6\n        /* \"#utility.yul\":9428:9494   */\n      tag_226\n      jump\t// in\n    tag_359:\n        /* \"#utility.yul\":9517:9524   */\n      dup1\n        /* \"#utility.yul\":9548:9549   */\n      0x00\n        /* \"#utility.yul\":9533:9929   */\n    tag_360:\n        /* \"#utility.yul\":9558:9564   */\n      dup6\n        /* \"#utility.yul\":9555:9556   */\n      dup2\n        /* \"#utility.yul\":9552:9565   */\n      lt\n        /* \"#utility.yul\":9533:9929   */\n      iszero\n      tag_362\n      jumpi\n        /* \"#utility.yul\":9629:9638   */\n      dup5\n        /* \"#utility.yul\":9623:9627   */\n      dup5\n        /* \"#utility.yul\":9619:9639   */\n      sub\n        /* \"#utility.yul\":9614:9617   */\n      dup10\n        /* \"#utility.yul\":9607:9640   */\n      mstore\n        /* \"#utility.yul\":9680:9686   */\n      dup2\n        /* \"#utility.yul\":9674:9687   */\n      mload\n        /* \"#utility.yul\":9708:9792   */\n      tag_363\n        /* \"#utility.yul\":9787:9791   */\n      dup6\n        /* \"#utility.yul\":9772:9785   */\n      dup3\n        /* \"#utility.yul\":9708:9792   */\n      tag_229\n      jump\t// in\n    tag_363:\n        /* \"#utility.yul\":9700:9792   */\n      swap5\n      pop\n        /* \"#utility.yul\":9815:9885   */\n      tag_364\n        /* \"#utility.yul\":9878:9884   */\n      dup4\n        /* \"#utility.yul\":9815:9885   */\n      tag_230\n      jump\t// in\n    tag_364:\n        /* \"#utility.yul\":9805:9885   */\n      swap3\n      pop\n        /* \"#utility.yul\":9914:9918   */\n      0x20\n        /* \"#utility.yul\":9909:9912   */\n      dup11\n        /* \"#utility.yul\":9905:9919   */\n      add\n        /* \"#utility.yul\":9898:9919   */\n      swap10\n      pop\n        /* \"#utility.yul\":9593:9929   */\n      pop\n        /* \"#utility.yul\":9580:9581   */\n      0x01\n        /* \"#utility.yul\":9577:9578   */\n      dup2\n        /* \"#utility.yul\":9573:9582   */\n      add\n        /* \"#utility.yul\":9568:9582   */\n      swap1\n      pop\n        /* \"#utility.yul\":9533:9929   */\n      jump(tag_360)\n    tag_362:\n        /* \"#utility.yul\":9537:9551   */\n      pop\n        /* \"#utility.yul\":9945:9949   */\n      dup3\n        /* \"#utility.yul\":9938:9949   */\n      swap8\n      pop\n        /* \"#utility.yul\":9965:9968   */\n      dup8\n        /* \"#utility.yul\":9958:9968   */\n      swap6\n      pop\n        /* \"#utility.yul\":9127:9974   */\n      pop\n      pop\n      pop\n      pop\n      pop\n        /* \"#utility.yul\":8983:9974   */\n      swap3\n      swap2\n      pop\n      pop\n      jump\t// out\n        /* \"#utility.yul\":9980:12265   */\n    tag_41:\n        /* \"#utility.yul\":10709:10713   */\n      0x00\n        /* \"#utility.yul\":10747:10750   */\n      0x0100\n        /* \"#utility.yul\":10736:10745   */\n      dup3\n        /* \"#utility.yul\":10732:10751   */\n      add\n        /* \"#utility.yul\":10724:10751   */\n      swap1\n      pop\n        /* \"#utility.yul\":10797:10806   */\n      dup2\n        /* \"#utility.yul\":10791:10795   */\n      dup2\n        /* \"#utility.yul\":10787:10807   */\n      sub\n        /* \"#utility.yul\":10783:10784   */\n      0x00\n        /* \"#utility.yul\":10772:10781   */\n      dup4\n        /* \"#utility.yul\":10768:10785   */\n      add\n        /* \"#utility.yul\":10761:10808   */\n      mstore\n        /* \"#utility.yul\":10825:10933   */\n      tag_366\n        /* \"#utility.yul\":10928:10932   */\n      dup2\n        /* \"#utility.yul\":10919:10925   */\n      dup12\n        /* \"#utility.yul\":10825:10933   */\n      tag_223\n      jump\t// in\n    tag_366:\n        /* \"#utility.yul\":10817:10933   */\n      swap1\n      pop\n        /* \"#utility.yul\":10980:10989   */\n      dup2\n        /* \"#utility.yul\":10974:10978   */\n      dup2\n        /* \"#utility.yul\":10970:10990   */\n      sub\n        /* \"#utility.yul\":10965:10967   */\n      0x20\n        /* \"#utility.yul\":10954:10963   */\n      dup4\n        /* \"#utility.yul\":10950:10968   */\n      add\n        /* \"#utility.yul\":10943:10991   */\n      mstore\n        /* \"#utility.yul\":11008:11136   */\n      tag_367\n        /* \"#utility.yul\":11131:11135   */\n      dup2\n        /* \"#utility.yul\":11122:11128   */\n      dup11\n        /* \"#utility.yul\":11008:11136   */\n      tag_231\n      jump\t// in\n    tag_367:\n        /* \"#utility.yul\":11000:11136   */\n      swap1\n      pop\n        /* \"#utility.yul\":11183:11192   */\n      dup2\n        /* \"#utility.yul\":11177:11181   */\n      dup2\n        /* \"#utility.yul\":11173:11193   */\n      sub\n        /* \"#utility.yul\":11168:11170   */\n      0x40\n        /* \"#utility.yul\":11157:11166   */\n      dup4\n        /* \"#utility.yul\":11153:11171   */\n      add\n        /* \"#utility.yul\":11146:11194   */\n      mstore\n        /* \"#utility.yul\":11211:11339   */\n      tag_368\n        /* \"#utility.yul\":11334:11338   */\n      dup2\n        /* \"#utility.yul\":11325:11331   */\n      dup10\n        /* \"#utility.yul\":11211:11339   */\n      tag_231\n      jump\t// in\n    tag_368:\n        /* \"#utility.yul\":11203:11339   */\n      swap1\n      pop\n        /* \"#utility.yul\":11386:11395   */\n      dup2\n        /* \"#utility.yul\":11380:11384   */\n      dup2\n        /* \"#utility.yul\":11376:11396   */\n      sub\n        /* \"#utility.yul\":11371:11373   */\n      0x60\n        /* \"#utility.yul\":11360:11369   */\n      dup4\n        /* \"#utility.yul\":11356:11374   */\n      add\n        /* \"#utility.yul\":11349:11397   */\n      mstore\n        /* \"#utility.yul\":11414:11522   */\n      tag_369\n        /* \"#utility.yul\":11517:11521   */\n      dup2\n        /* \"#utility.yul\":11508:11514   */\n      dup9\n        /* \"#utility.yul\":11414:11522   */\n      tag_223\n      jump\t// in\n    tag_369:\n        /* \"#utility.yul\":11406:11522   */\n      swap1\n      pop\n        /* \"#utility.yul\":11570:11579   */\n      dup2\n        /* \"#utility.yul\":11564:11568   */\n      dup2\n        /* \"#utility.yul\":11560:11580   */\n      sub\n        /* \"#utility.yul\":11554:11557   */\n      0x80\n        /* \"#utility.yul\":11543:11552   */\n      dup4\n        /* \"#utility.yul\":11539:11558   */\n      add\n        /* \"#utility.yul\":11532:11581   */\n      mstore\n        /* \"#utility.yul\":11598:11706   */\n      tag_370\n        /* \"#utility.yul\":11701:11705   */\n      dup2\n        /* \"#utility.yul\":11692:11698   */\n      dup8\n        /* \"#utility.yul\":11598:11706   */\n      tag_223\n      jump\t// in\n    tag_370:\n        /* \"#utility.yul\":11590:11706   */\n      swap1\n      pop\n        /* \"#utility.yul\":11754:11763   */\n      dup2\n        /* \"#utility.yul\":11748:11752   */\n      dup2\n        /* \"#utility.yul\":11744:11764   */\n      sub\n        /* \"#utility.yul\":11738:11741   */\n      0xa0\n        /* \"#utility.yul\":11727:11736   */\n      dup4\n        /* \"#utility.yul\":11723:11742   */\n      add\n        /* \"#utility.yul\":11716:11765   */\n      mstore\n        /* \"#utility.yul\":11782:11890   */\n      tag_371\n        /* \"#utility.yul\":11885:11889   */\n      dup2\n        /* \"#utility.yul\":11876:11882   */\n      dup7\n        /* \"#utility.yul\":11782:11890   */\n      tag_223\n      jump\t// in\n    tag_371:\n        /* \"#utility.yul\":11774:11890   */\n      swap1\n      pop\n        /* \"#utility.yul\":11938:11947   */\n      dup2\n        /* \"#utility.yul\":11932:11936   */\n      dup2\n        /* \"#utility.yul\":11928:11948   */\n      sub\n        /* \"#utility.yul\":11922:11925   */\n      0xc0\n        /* \"#utility.yul\":11911:11920   */\n      dup4\n        /* \"#utility.yul\":11907:11926   */\n      add\n        /* \"#utility.yul\":11900:11949   */\n      mstore\n        /* \"#utility.yul\":11966:12074   */\n      tag_372\n        /* \"#utility.yul\":12069:12073   */\n      dup2\n        /* \"#utility.yul\":12060:12066   */\n      dup6\n        /* \"#utility.yul\":11966:12074   */\n      tag_223\n      jump\t// in\n    tag_372:\n        /* \"#utility.yul\":11958:12074   */\n      swap1\n      pop\n        /* \"#utility.yul\":12122:12131   */\n      dup2\n        /* \"#utility.yul\":12116:12120   */\n      dup2\n        /* \"#utility.yul\":12112:12132   */\n      sub\n        /* \"#utility.yul\":12106:12109   */\n      0xe0\n        /* \"#utility.yul\":12095:12104   */\n      dup4\n        /* \"#utility.yul\":12091:12110   */\n      add\n        /* \"#utility.yul\":12084:12133   */\n      mstore\n        /* \"#utility.yul\":12150:12258   */\n      tag_373\n        /* \"#utility.yul\":12253:12257   */\n      dup2\n        /* \"#utility.yul\":12244:12250   */\n      dup5\n        /* \"#utility.yul\":12150:12258   */\n      tag_223\n      jump\t// in\n    tag_373:\n        /* \"#utility.yul\":12142:12258   */\n      swap1\n      pop\n        /* \"#utility.yul\":9980:12265   */\n      swap10\n      swap9\n      pop\n      pop\n      pop\n      pop\n      pop\n      pop\n      pop\n      pop\n      pop\n      jump\t// out\n        /* \"#utility.yul\":12271:12388   */\n    tag_232:\n        /* \"#utility.yul\":12380:12381   */\n      0x00\n        /* \"#utility.yul\":12377:12378   */\n      dup1\n        /* \"#utility.yul\":12370:12382   */\n      revert\n        /* \"#utility.yul\":12394:12511   */\n    tag_233:\n        /* \"#utility.yul\":12503:12504   */\n      0x00\n        /* \"#utility.yul\":12500:12501   */\n      dup1\n        /* \"#utility.yul\":12493:12505   */\n      revert\n        /* \"#utility.yul\":12517:12697   */\n    tag_64:\n        /* \"#utility.yul\":12565:12642   */\n      0x4e487b7100000000000000000000000000000000000000000000000000000000\n        /* \"#utility.yul\":12562:12563   */\n      0x00\n        /* \"#utility.yul\":12555:12643   */\n      mstore\n        /* \"#utility.yul\":12662:12666   */\n      0x41\n        /* \"#utility.yul\":12659:12660   */\n      0x04\n        /* \"#utility.yul\":12652:12667   */\n      mstore\n        /* \"#utility.yul\":12686:12690   */\n      0x24\n        /* \"#utility.yul\":12683:12684   */\n      0x00\n        /* \"#utility.yul\":12676:12691   */\n      revert\n        /* \"#utility.yul\":12703:12984   */\n    tag_234:\n        /* \"#utility.yul\":12786:12813   */\n      tag_378\n        /* \"#utility.yul\":12808:12812   */\n      dup3\n        /* \"#utility.yul\":12786:12813   */\n      tag_210\n      jump\t// in\n    tag_378:\n        /* \"#utility.yul\":12778:12784   */\n      dup2\n        /* \"#utility.yul\":12774:12814   */\n      add\n        /* \"#utility.yul\":12916:12922   */\n      dup2\n        /* \"#utility.yul\":12904:12914   */\n      dup2\n        /* \"#utility.yul\":12901:12923   */\n      lt\n        /* \"#utility.yul\":12880:12898   */\n      0xffffffffffffffff\n        /* \"#utility.yul\":12868:12878   */\n      dup3\n        /* \"#utility.yul\":12865:12899   */\n      gt\n        /* \"#utility.yul\":12862:12924   */\n      or\n        /* \"#utility.yul\":12859:12947   */\n      iszero\n      tag_379\n      jumpi\n        /* \"#utility.yul\":12927:12945   */\n      tag_380\n      tag_64\n      jump\t// in\n    tag_380:\n        /* \"#utility.yul\":12859:12947   */\n    tag_379:\n        /* \"#utility.yul\":12967:12977   */\n      dup1\n        /* \"#utility.yul\":12963:12965   */\n      0x40\n        /* \"#utility.yul\":12956:12978   */\n      mstore\n        /* \"#utility.yul\":12746:12984   */\n      pop\n        /* \"#utility.yul\":12703:12984   */\n      pop\n      pop\n      jump\t// out\n        /* \"#utility.yul\":12990:13119   */\n    tag_235:\n        /* \"#utility.yul\":13024:13030   */\n      0x00\n        /* \"#utility.yul\":13051:13071   */\n      tag_382\n      tag_200\n      jump\t// in\n    tag_382:\n        /* \"#utility.yul\":13041:13071   */\n      swap1\n      pop\n        /* \"#utility.yul\":13080:13113   */\n      tag_383\n        /* \"#utility.yul\":13108:13112   */\n      dup3\n        /* \"#utility.yul\":13100:13106   */\n      dup3\n        /* \"#utility.yul\":13080:13113   */\n      tag_234\n      jump\t// in\n    tag_383:\n        /* \"#utility.yul\":12990:13119   */\n      swap2\n      swap1\n      pop\n      jump\t// out\n        /* \"#utility.yul\":13125:13433   */\n    tag_236:\n        /* \"#utility.yul\":13187:13191   */\n      0x00\n        /* \"#utility.yul\":13277:13295   */\n      0xffffffffffffffff\n        /* \"#utility.yul\":13269:13275   */\n      dup3\n        /* \"#utility.yul\":13266:13296   */\n      gt\n        /* \"#utility.yul\":13263:13319   */\n      iszero\n      tag_385\n      jumpi\n        /* \"#utility.yul\":13299:13317   */\n      tag_386\n      tag_64\n      jump\t// in\n    tag_386:\n        /* \"#utility.yul\":13263:13319   */\n    tag_385:\n        /* \"#utility.yul\":13337:13366   */\n      tag_387\n        /* \"#utility.yul\":13359:13365   */\n      dup3\n        /* \"#utility.yul\":13337:13366   */\n      tag_210\n      jump\t// in\n    tag_387:\n        /* \"#utility.yul\":13329:13366   */\n      swap1\n      pop\n        /* \"#utility.yul\":13421:13425   */\n      0x20\n        /* \"#utility.yul\":13415:13419   */\n      dup2\n        /* \"#utility.yul\":13411:13426   */\n      add\n        /* \"#utility.yul\":13403:13426   */\n      swap1\n      pop\n        /* \"#utility.yul\":13125:13433   */\n      swap2\n      swap1\n      pop\n      jump\t// out\n        /* \"#utility.yul\":13439:13585   */\n    tag_237:\n        /* \"#utility.yul\":13536:13542   */\n      dup3\n        /* \"#utility.yul\":13531:13534   */\n      dup2\n        /* \"#utility.yul\":13526:13529   */\n      dup4\n        /* \"#utility.yul\":13513:13543   */\n      calldatacopy\n        /* \"#utility.yul\":13577:13578   */\n      0x00\n        /* \"#utility.yul\":13568:13574   */\n      dup4\n        /* \"#utility.yul\":13563:13566   */\n      dup4\n        /* \"#utility.yul\":13559:13575   */\n      add\n        /* \"#utility.yul\":13552:13579   */\n      mstore\n        /* \"#utility.yul\":13439:13585   */\n      pop\n      pop\n      pop\n      jump\t// out\n        /* \"#utility.yul\":13591:14016   */\n    tag_238:\n        /* \"#utility.yul\":13669:13674   */\n      0x00\n        /* \"#utility.yul\":13694:13760   */\n      tag_390\n        /* \"#utility.yul\":13710:13759   */\n      tag_391\n        /* \"#utility.yul\":13752:13758   */\n      dup5\n        /* \"#utility.yul\":13710:13759   */\n      tag_236\n      jump\t// in\n    tag_391:\n        /* \"#utility.yul\":13694:13760   */\n      tag_235\n      jump\t// in\n    tag_390:\n        /* \"#utility.yul\":13685:13760   */\n      swap1\n      pop\n        /* \"#utility.yul\":13783:13789   */\n      dup3\n        /* \"#utility.yul\":13776:13781   */\n      dup2\n        /* \"#utility.yul\":13769:13790   */\n      mstore\n        /* \"#utility.yul\":13821:13825   */\n      0x20\n        /* \"#utility.yul\":13814:13819   */\n      dup2\n        /* \"#utility.yul\":13810:13826   */\n      add\n        /* \"#utility.yul\":13859:13862   */\n      dup5\n        /* \"#utility.yul\":13850:13856   */\n      dup5\n        /* \"#utility.yul\":13845:13848   */\n      dup5\n        /* \"#utility.yul\":13841:13857   */\n      add\n        /* \"#utility.yul\":13838:13863   */\n      gt\n        /* \"#utility.yul\":13835:13947   */\n      iszero\n      tag_392\n      jumpi\n        /* \"#utility.yul\":13866:13945   */\n      tag_393\n      tag_233\n      jump\t// in\n    tag_393:\n        /* \"#utility.yul\":13835:13947   */\n    tag_392:\n        /* \"#utility.yul\":13956:14010   */\n      tag_394\n        /* \"#utility.yul\":14003:14009   */\n      dup5\n        /* \"#utility.yul\":13998:14001   */\n      dup3\n        /* \"#utility.yul\":13993:13996   */\n      dup6\n        /* \"#utility.yul\":13956:14010   */\n      tag_237\n      jump\t// in\n    tag_394:\n        /* \"#utility.yul\":13675:14016   */\n      pop\n        /* \"#utility.yul\":13591:14016   */\n      swap4\n      swap3\n      pop\n      pop\n      pop\n      jump\t// out\n        /* \"#utility.yul\":14036:14376   */\n    tag_239:\n        /* \"#utility.yul\":14092:14097   */\n      0x00\n        /* \"#utility.yul\":14141:14144   */\n      dup3\n        /* \"#utility.yul\":14134:14138   */\n      0x1f\n        /* \"#utility.yul\":14126:14132   */\n      dup4\n        /* \"#utility.yul\":14122:14139   */\n      add\n        /* \"#utility.yul\":14118:14145   */\n      slt\n        /* \"#utility.yul\":14108:14230   */\n      tag_396\n      jumpi\n        /* \"#utility.yul\":14149:14228   */\n      tag_397\n      tag_232\n      jump\t// in\n    tag_397:\n        /* \"#utility.yul\":14108:14230   */\n    tag_396:\n        /* \"#utility.yul\":14266:14272   */\n      dup2\n        /* \"#utility.yul\":14253:14273   */\n      calldataload\n        /* \"#utility.yul\":14291:14370   */\n      tag_398\n        /* \"#utility.yul\":14366:14369   */\n      dup5\n        /* \"#utility.yul\":14358:14364   */\n      dup3\n        /* \"#utility.yul\":14351:14355   */\n      0x20\n        /* \"#utility.yul\":14343:14349   */\n      dup7\n        /* \"#utility.yul\":14339:14356   */\n      add\n        /* \"#utility.yul\":14291:14370   */\n      tag_238\n      jump\t// in\n    tag_398:\n        /* \"#utility.yul\":14282:14370   */\n      swap2\n      pop\n        /* \"#utility.yul\":14098:14376   */\n      pop\n        /* \"#utility.yul\":14036:14376   */\n      swap3\n      swap2\n      pop\n      pop\n      jump\t// out\n        /* \"#utility.yul\":14382:15216   */\n    tag_44:\n        /* \"#utility.yul\":14470:14476   */\n      0x00\n        /* \"#utility.yul\":14478:14484   */\n      dup1\n        /* \"#utility.yul\":14527:14529   */\n      0x40\n        /* \"#utility.yul\":14515:14524   */\n      dup4\n        /* \"#utility.yul\":14506:14513   */\n      dup6\n        /* \"#utility.yul\":14502:14525   */\n      sub\n        /* \"#utility.yul\":14498:14530   */\n      slt\n        /* \"#utility.yul\":14495:14614   */\n      iszero\n      tag_400\n      jumpi\n        /* \"#utility.yul\":14533:14612   */\n      tag_401\n      tag_201\n      jump\t// in\n    tag_401:\n        /* \"#utility.yul\":14495:14614   */\n    tag_400:\n        /* \"#utility.yul\":14681:14682   */\n      0x00\n        /* \"#utility.yul\":14670:14679   */\n      dup4\n        /* \"#utility.yul\":14666:14683   */\n      add\n        /* \"#utility.yul\":14653:14684   */\n      calldataload\n        /* \"#utility.yul\":14711:14729   */\n      0xffffffffffffffff\n        /* \"#utility.yul\":14703:14709   */\n      dup2\n        /* \"#utility.yul\":14700:14730   */\n      gt\n        /* \"#utility.yul\":14697:14814   */\n      iszero\n      tag_402\n      jumpi\n        /* \"#utility.yul\":14733:14812   */\n      tag_403\n      tag_202\n      jump\t// in\n    tag_403:\n        /* \"#utility.yul\":14697:14814   */\n    tag_402:\n        /* \"#utility.yul\":14838:14901   */\n      tag_404\n        /* \"#utility.yul\":14893:14900   */\n      dup6\n        /* \"#utility.yul\":14884:14890   */\n      dup3\n        /* \"#utility.yul\":14873:14882   */\n      dup7\n        /* \"#utility.yul\":14869:14891   */\n      add\n        /* \"#utility.yul\":14838:14901   */\n      tag_239\n      jump\t// in\n    tag_404:\n        /* \"#utility.yul\":14828:14901   */\n      swap3\n      pop\n        /* \"#utility.yul\":14624:14911   */\n      pop\n        /* \"#utility.yul\":14978:14980   */\n      0x20\n        /* \"#utility.yul\":14967:14976   */\n      dup4\n        /* \"#utility.yul\":14963:14981   */\n      add\n        /* \"#utility.yul\":14950:14982   */\n      calldataload\n        /* \"#utility.yul\":15009:15027   */\n      0xffffffffffffffff\n        /* \"#utility.yul\":15001:15007   */\n      dup2\n        /* \"#utility.yul\":14998:15028   */\n      gt\n        /* \"#utility.yul\":14995:15112   */\n      iszero\n      tag_405\n      jumpi\n        /* \"#utility.yul\":15031:15110   */\n      tag_406\n      tag_202\n      jump\t// in\n    tag_406:\n        /* \"#utility.yul\":14995:15112   */\n    tag_405:\n        /* \"#utility.yul\":15136:15199   */\n      tag_407\n        /* \"#utility.yul\":15191:15198   */\n      dup6\n        /* \"#utility.yul\":15182:15188   */\n      dup3\n        /* \"#utility.yul\":15171:15180   */\n      dup7\n        /* \"#utility.yul\":15167:15189   */\n      add\n        /* \"#utility.yul\":15136:15199   */\n      tag_239\n      jump\t// in\n    tag_407:\n        /* \"#utility.yul\":15126:15199   */\n      swap2\n      pop\n        /* \"#utility.yul\":14921:15209   */\n      pop\n        /* \"#utility.yul\":14382:15216   */\n      swap3\n      pop\n      swap3\n      swap1\n      pop\n      jump\t// out\n        /* \"#utility.yul\":15222:15402   */\n    tag_240:\n        /* \"#utility.yul\":15270:15347   */\n      0x4e487b7100000000000000000000000000000000000000000000000000000000\n        /* \"#utility.yul\":15267:15268   */\n      0x00\n        /* \"#utility.yul\":15260:15348   */\n      mstore\n        /* \"#utility.yul\":15367:15371   */\n      0x22\n        /* \"#utility.yul\":15364:15365   */\n      0x04\n        /* \"#utility.yul\":15357:15372   */\n      mstore\n        /* \"#utility.yul\":15391:15395   */\n      0x24\n        /* \"#utility.yul\":15388:15389   */\n      0x00\n        /* \"#utility.yul\":15381:15396   */\n      revert\n        /* \"#utility.yul\":15408:15728   */\n    tag_47:\n        /* \"#utility.yul\":15452:15458   */\n      0x00\n        /* \"#utility.yul\":15489:15490   */\n      0x02\n        /* \"#utility.yul\":15483:15487   */\n      dup3\n        /* \"#utility.yul\":15479:15491   */\n      div\n        /* \"#utility.yul\":15469:15491   */\n      swap1\n      pop\n        /* \"#utility.yul\":15536:15537   */\n      0x01\n        /* \"#utility.yul\":15530:15534   */\n      dup3\n        /* \"#utility.yul\":15526:15538   */\n      and\n        /* \"#utility.yul\":15557:15575   */\n      dup1\n        /* \"#utility.yul\":15547:15628   */\n      tag_410\n      jumpi\n        /* \"#utility.yul\":15613:15617   */\n      0x7f\n        /* \"#utility.yul\":15605:15611   */\n      dup3\n        /* \"#utility.yul\":15601:15618   */\n      and\n        /* \"#utility.yul\":15591:15618   */\n      swap2\n      pop\n        /* \"#utility.yul\":15547:15628   */\n    tag_410:\n        /* \"#utility.yul\":15675:15677   */\n      0x20\n        /* \"#utility.yul\":15667:15673   */\n      dup3\n        /* \"#utility.yul\":15664:15678   */\n      lt\n        /* \"#utility.yul\":15644:15662   */\n      dup2\n        /* \"#utility.yul\":15641:15679   */\n      sub\n        /* \"#utility.yul\":15638:15722   */\n      tag_411\n      jumpi\n        /* \"#utility.yul\":15694:15712   */\n      tag_412\n      tag_240\n      jump\t// in\n    tag_412:\n        /* \"#utility.yul\":15638:15722   */\n    tag_411:\n        /* \"#utility.yul\":15459:15728   */\n      pop\n        /* \"#utility.yul\":15408:15728   */\n      swap2\n      swap1\n      pop\n      jump\t// out\n        /* \"#utility.yul\":15734:15959   */\n    tag_241:\n        /* \"#utility.yul\":15874:15908   */\n      0x4f6e6c7920746865206f7267616e697a65722063616e20656e64207468697320\n        /* \"#utility.yul\":15870:15871   */\n      0x00\n        /* \"#utility.yul\":15862:15868   */\n      dup3\n        /* \"#utility.yul\":15858:15872   */\n      add\n        /* \"#utility.yul\":15851:15909   */\n      mstore\n        /* \"#utility.yul\":15943:15951   */\n      0x6576656e742e0000000000000000000000000000000000000000000000000000\n        /* \"#utility.yul\":15938:15940   */\n      0x20\n        /* \"#utility.yul\":15930:15936   */\n      dup3\n        /* \"#utility.yul\":15926:15941   */\n      add\n        /* \"#utility.yul\":15919:15952   */\n      mstore\n        /* \"#utility.yul\":15734:15959   */\n      pop\n      jump\t// out\n        /* \"#utility.yul\":15965:16331   */\n    tag_242:\n        /* \"#utility.yul\":16107:16110   */\n      0x00\n        /* \"#utility.yul\":16128:16195   */\n      tag_415\n        /* \"#utility.yul\":16192:16194   */\n      0x26\n        /* \"#utility.yul\":16187:16190   */\n      dup4\n        /* \"#utility.yul\":16128:16195   */\n      tag_208\n      jump\t// in\n    tag_415:\n        /* \"#utility.yul\":16121:16195   */\n      swap2\n      pop\n        /* \"#utility.yul\":16204:16297   */\n      tag_416\n        /* \"#utility.yul\":16293:16296   */\n      dup3\n        /* \"#utility.yul\":16204:16297   */\n      tag_241\n      jump\t// in\n    tag_416:\n        /* \"#utility.yul\":16322:16324   */\n      0x40\n        /* \"#utility.yul\":16317:16320   */\n      dup3\n        /* \"#utility.yul\":16313:16325   */\n      add\n        /* \"#utility.yul\":16306:16325   */\n      swap1\n      pop\n        /* \"#utility.yul\":15965:16331   */\n      swap2\n      swap1\n      pop\n      jump\t// out\n        /* \"#utility.yul\":16337:16756   */\n    tag_60:\n        /* \"#utility.yul\":16503:16507   */\n      0x00\n        /* \"#utility.yul\":16541:16543   */\n      0x20\n        /* \"#utility.yul\":16530:16539   */\n      dup3\n        /* \"#utility.yul\":16526:16544   */\n      add\n        /* \"#utility.yul\":16518:16544   */\n      swap1\n      pop\n        /* \"#utility.yul\":16590:16599   */\n      dup2\n        /* \"#utility.yul\":16584:16588   */\n      dup2\n        /* \"#utility.yul\":16580:16600   */\n      sub\n        /* \"#utility.yul\":16576:16577   */\n      0x00\n        /* \"#utility.yul\":16565:16574   */\n      dup4\n        /* \"#utility.yul\":16561:16578   */\n      add\n        /* \"#utility.yul\":16554:16601   */\n      mstore\n        /* \"#utility.yul\":16618:16749   */\n      tag_418\n        /* \"#utility.yul\":16744:16748   */\n      dup2\n        /* \"#utility.yul\":16618:16749   */\n      tag_242\n      jump\t// in\n    tag_418:\n        /* \"#utility.yul\":16610:16749   */\n      swap1\n      pop\n        /* \"#utility.yul\":16337:16756   */\n      swap2\n      swap1\n      pop\n      jump\t// out\n        /* \"#utility.yul\":16762:16942   */\n    tag_77:\n        /* \"#utility.yul\":16810:16887   */\n      0x4e487b7100000000000000000000000000000000000000000000000000000000\n        /* \"#utility.yul\":16807:16808   */\n      0x00\n        /* \"#utility.yul\":16800:16888   */\n      mstore\n        /* \"#utility.yul\":16907:16911   */\n      0x32\n        /* \"#utility.yul\":16904:16905   */\n      0x04\n        /* \"#utility.yul\":16897:16912   */\n      mstore\n        /* \"#utility.yul\":16931:16935   */\n      0x24\n        /* \"#utility.yul\":16928:16929   */\n      0x00\n        /* \"#utility.yul\":16921:16936   */\n      revert\n        /* \"#utility.yul\":16948:17128   */\n    tag_243:\n        /* \"#utility.yul\":16996:17073   */\n      0x4e487b7100000000000000000000000000000000000000000000000000000000\n        /* \"#utility.yul\":16993:16994   */\n      0x00\n        /* \"#utility.yul\":16986:17074   */\n      mstore\n        /* \"#utility.yul\":17093:17097   */\n      0x11\n        /* \"#utility.yul\":17090:17091   */\n      0x04\n        /* \"#utility.yul\":17083:17098   */\n      mstore\n        /* \"#utility.yul\":17117:17121   */\n      0x24\n        /* \"#utility.yul\":17114:17115   */\n      0x00\n        /* \"#utility.yul\":17107:17122   */\n      revert\n        /* \"#utility.yul\":17134:17328   */\n    tag_83:\n        /* \"#utility.yul\":17174:17178   */\n      0x00\n        /* \"#utility.yul\":17194:17214   */\n      tag_422\n        /* \"#utility.yul\":17212:17213   */\n      dup3\n        /* \"#utility.yul\":17194:17214   */\n      tag_203\n      jump\t// in\n    tag_422:\n        /* \"#utility.yul\":17189:17214   */\n      swap2\n      pop\n        /* \"#utility.yul\":17228:17248   */\n      tag_423\n        /* \"#utility.yul\":17246:17247   */\n      dup4\n        /* \"#utility.yul\":17228:17248   */\n      tag_203\n      jump\t// in\n    tag_423:\n        /* \"#utility.yul\":17223:17248   */\n      swap3\n      pop\n        /* \"#utility.yul\":17272:17273   */\n      dup3\n        /* \"#utility.yul\":17269:17270   */\n      dup3\n        /* \"#utility.yul\":17265:17274   */\n      sub\n        /* \"#utility.yul\":17257:17274   */\n      swap1\n      pop\n        /* \"#utility.yul\":17296:17297   */\n      dup2\n        /* \"#utility.yul\":17290:17294   */\n      dup2\n        /* \"#utility.yul\":17287:17298   */\n      gt\n        /* \"#utility.yul\":17284:17321   */\n      iszero\n      tag_424\n      jumpi\n        /* \"#utility.yul\":17301:17319   */\n      tag_425\n      tag_243\n      jump\t// in\n    tag_425:\n        /* \"#utility.yul\":17284:17321   */\n    tag_424:\n        /* \"#utility.yul\":17134:17328   */\n      swap3\n      swap2\n      pop\n      pop\n      jump\t// out\n        /* \"#utility.yul\":17334:17505   */\n    tag_94:\n        /* \"#utility.yul\":17373:17376   */\n      0x00\n        /* \"#utility.yul\":17396:17420   */\n      tag_427\n        /* \"#utility.yul\":17414:17419   */\n      dup3\n        /* \"#utility.yul\":17396:17420   */\n      tag_203\n      jump\t// in\n    tag_427:\n        /* \"#utility.yul\":17387:17420   */\n      swap2\n      pop\n        /* \"#utility.yul\":17442:17446   */\n      0x00\n        /* \"#utility.yul\":17435:17440   */\n      dup3\n        /* \"#utility.yul\":17432:17447   */\n      sub\n        /* \"#utility.yul\":17429:17470   */\n      tag_428\n      jumpi\n        /* \"#utility.yul\":17450:17468   */\n      tag_429\n      tag_243\n      jump\t// in\n    tag_429:\n        /* \"#utility.yul\":17429:17470   */\n    tag_428:\n        /* \"#utility.yul\":17497:17498   */\n      0x01\n        /* \"#utility.yul\":17490:17495   */\n      dup3\n        /* \"#utility.yul\":17486:17499   */\n      sub\n        /* \"#utility.yul\":17479:17499   */\n      swap1\n      pop\n        /* \"#utility.yul\":17334:17505   */\n      swap2\n      swap1\n      pop\n      jump\t// out\n        /* \"#utility.yul\":17511:17744   */\n    tag_100:\n        /* \"#utility.yul\":17550:17553   */\n      0x00\n        /* \"#utility.yul\":17573:17597   */\n      tag_431\n        /* \"#utility.yul\":17591:17596   */\n      dup3\n        /* \"#utility.yul\":17573:17597   */\n      tag_203\n      jump\t// in\n    tag_431:\n        /* \"#utility.yul\":17564:17597   */\n      swap2\n      pop\n        /* \"#utility.yul\":17619:17685   */\n      0xffffffffffffffffffffffffffffffffffffffffffffffffffffffffffffffff\n        /* \"#utility.yul\":17612:17617   */\n      dup3\n        /* \"#utility.yul\":17609:17686   */\n      sub\n        /* \"#utility.yul\":17606:17709   */\n      tag_432\n      jumpi\n        /* \"#utility.yul\":17689:17707   */\n      tag_433\n      tag_243\n      jump\t// in\n    tag_433:\n        /* \"#utility.yul\":17606:17709   */\n    tag_432:\n        /* \"#utility.yul\":17736:17737   */\n      0x01\n        /* \"#utility.yul\":17729:17734   */\n      dup3\n        /* \"#utility.yul\":17725:17738   */\n      add\n        /* \"#utility.yul\":17718:17738   */\n      swap1\n      pop\n        /* \"#utility.yul\":17511:17744   */\n      swap2\n      swap1\n      pop\n      jump\t// out\n        /* \"#utility.yul\":17750:17921   */\n    tag_244:\n        /* \"#utility.yul\":17890:17913   */\n      0x496e76616c6964206f7074696f6e20696e6465782e0000000000000000000000\n        /* \"#utility.yul\":17886:17887   */\n      0x00\n        /* \"#utility.yul\":17878:17884   */\n      dup3\n        /* \"#utility.yul\":17874:17888   */\n      add\n        /* \"#utility.yul\":17867:17914   */\n      mstore\n        /* \"#utility.yul\":17750:17921   */\n      pop\n      jump\t// out\n        /* \"#utility.yul\":17927:18293   */\n    tag_245:\n        /* \"#utility.yul\":18069:18072   */\n      0x00\n        /* \"#utility.yul\":18090:18157   */\n      tag_436\n        /* \"#utility.yul\":18154:18156   */\n      0x15\n        /* \"#utility.yul\":18149:18152   */\n      dup4\n        /* \"#utility.yul\":18090:18157   */\n      tag_208\n      jump\t// in\n    tag_436:\n        /* \"#utility.yul\":18083:18157   */\n      swap2\n      pop\n        /* \"#utility.yul\":18166:18259   */\n      tag_437\n        /* \"#utility.yul\":18255:18258   */\n      dup3\n        /* \"#utility.yul\":18166:18259   */\n      tag_244\n      jump\t// in\n    tag_437:\n        /* \"#utility.yul\":18284:18286   */\n      0x20\n        /* \"#utility.yul\":18279:18282   */\n      dup3\n        /* \"#utility.yul\":18275:18287   */\n      add\n        /* \"#utility.yul\":18268:18287   */\n      swap1\n      pop\n        /* \"#utility.yul\":17927:18293   */\n      swap2\n      swap1\n      pop\n      jump\t// out\n        /* \"#utility.yul\":18299:18718   */\n    tag_111:\n        /* \"#utility.yul\":18465:18469   */\n      0x00\n        /* \"#utility.yul\":18503:18505   */\n      0x20\n        /* \"#utility.yul\":18492:18501   */\n      dup3\n        /* \"#utility.yul\":18488:18506   */\n      add\n        /* \"#utility.yul\":18480:18506   */\n      swap1\n      pop\n        /* \"#utility.yul\":18552:18561   */\n      dup2\n        /* \"#utility.yul\":18546:18550   */\n      dup2\n        /* \"#utility.yul\":18542:18562   */\n      sub\n        /* \"#utility.yul\":18538:18539   */\n      0x00\n        /* \"#utility.yul\":18527:18536   */\n      dup4\n        /* \"#utility.yul\":18523:18540   */\n      add\n        /* \"#utility.yul\":18516:18563   */\n      mstore\n        /* \"#utility.yul\":18580:18711   */\n      tag_439\n        /* \"#utility.yul\":18706:18710   */\n      dup2\n        /* \"#utility.yul\":18580:18711   */\n      tag_245\n      jump\t// in\n    tag_439:\n        /* \"#utility.yul\":18572:18711   */\n      swap1\n      pop\n        /* \"#utility.yul\":18299:18718   */\n      swap2\n      swap1\n      pop\n      jump\t// out\n        /* \"#utility.yul\":18724:18894   */\n    tag_246:\n        /* \"#utility.yul\":18864:18886   */\n      0x4576656e74206973206e6f74206163746976652e000000000000000000000000\n        /* \"#utility.yul\":18860:18861   */\n      0x00\n        /* \"#utility.yul\":18852:18858   */\n      dup3\n        /* \"#utility.yul\":18848:18862   */\n      add\n        /* \"#utility.yul\":18841:18887   */\n      mstore\n        /* \"#utility.yul\":18724:18894   */\n      pop\n      jump\t// out\n        /* \"#utility.yul\":18900:19266   */\n    tag_247:\n        /* \"#utility.yul\":19042:19045   */\n      0x00\n        /* \"#utility.yul\":19063:19130   */\n      tag_442\n        /* \"#utility.yul\":19127:19129   */\n      0x14\n        /* \"#utility.yul\":19122:19125   */\n      dup4\n        /* \"#utility.yul\":19063:19130   */\n      tag_208\n      jump\t// in\n    tag_442:\n        /* \"#utility.yul\":19056:19130   */\n      swap2\n      pop\n        /* \"#utility.yul\":19139:19232   */\n      tag_443\n        /* \"#utility.yul\":19228:19231   */\n      dup3\n        /* \"#utility.yul\":19139:19232   */\n      tag_246\n      jump\t// in\n    tag_443:\n        /* \"#utility.yul\":19257:19259   */\n      0x20\n        /* \"#utility.yul\":19252:19255   */\n      dup3\n        /* \"#utility.yul\":19248:19260   */\n      add\n        /* \"#utility.yul\":19241:19260   */\n      swap1\n      pop\n        /* \"#utility.yul\":18900:19266   */\n      swap2\n      swap1\n      pop\n      jump\t// out\n        /* \"#utility.yul\":19272:19691   */\n    tag_114:\n        /* \"#utility.yul\":19438:19442   */\n      0x00\n        /* \"#utility.yul\":19476:19478   */\n      0x20\n        /* \"#utility.yul\":19465:19474   */\n      dup3\n        /* \"#utility.yul\":19461:19479   */\n      add\n        /* \"#utility.yul\":19453:19479   */\n      swap1\n      pop\n        /* \"#utility.yul\":19525:19534   */\n      dup2\n        /* \"#utility.yul\":19519:19523   */\n      dup2\n        /* \"#utility.yul\":19515:19535   */\n      sub\n        /* \"#utility.yul\":19511:19512   */\n      0x00\n        /* \"#utility.yul\":19500:19509   */\n      dup4\n        /* \"#utility.yul\":19496:19513   */\n      add\n        /* \"#utility.yul\":19489:19536   */\n      mstore\n        /* \"#utility.yul\":19553:19684   */\n      tag_445\n        /* \"#utility.yul\":19679:19683   */\n      dup2\n        /* \"#utility.yul\":19553:19684   */\n      tag_247\n      jump\t// in\n    tag_445:\n        /* \"#utility.yul\":19545:19684   */\n      swap1\n      pop\n        /* \"#utility.yul\":19272:19691   */\n      swap2\n      swap1\n      pop\n      jump\t// out\n        /* \"#utility.yul\":19697:19870   */\n    tag_248:\n        /* \"#utility.yul\":19837:19862   */\n      0x596f75206861766520616c726561647920766f7465642e000000000000000000\n        /* \"#utility.yul\":19833:19834   */\n      0x00\n        /* \"#utility.yul\":19825:19831   */\n      dup3\n        /* \"#utility.yul\":19821:19835   */\n      add\n        /* \"#utility.yul\":19814:19863   */\n      mstore\n        /* \"#utility.yul\":19697:19870   */\n      pop\n      jump\t// out\n        /* \"#utility.yul\":19876:20242   */\n    tag_249:\n        /* \"#utility.yul\":20018:20021   */\n      0x00\n        /* \"#utility.yul\":20039:20106   */\n      tag_448\n        /* \"#utility.yul\":20103:20105   */\n      0x17\n        /* \"#utility.yul\":20098:20101   */\n      dup4\n        /* \"#utility.yul\":20039:20106   */\n      tag_208\n      jump\t// in\n    tag_448:\n        /* \"#utility.yul\":20032:20106   */\n      swap2\n      pop\n        /* \"#utility.yul\":20115:20208   */\n      tag_449\n        /* \"#utility.yul\":20204:20207   */\n      dup3\n        /* \"#utility.yul\":20115:20208   */\n      tag_248\n      jump\t// in\n    tag_449:\n        /* \"#utility.yul\":20233:20235   */\n      0x20\n        /* \"#utility.yul\":20228:20231   */\n      dup3\n        /* \"#utility.yul\":20224:20236   */\n      add\n        /* \"#utility.yul\":20217:20236   */\n      swap1\n      pop\n        /* \"#utility.yul\":19876:20242   */\n      swap2\n      swap1\n      pop\n      jump\t// out\n        /* \"#utility.yul\":20248:20667   */\n    tag_117:\n        /* \"#utility.yul\":20414:20418   */\n      0x00\n        /* \"#utility.yul\":20452:20454   */\n      0x20\n        /* \"#utility.yul\":20441:20450   */\n      dup3\n        /* \"#utility.yul\":20437:20455   */\n      add\n        /* \"#utility.yul\":20429:20455   */\n      swap1\n      pop\n        /* \"#utility.yul\":20501:20510   */\n      dup2\n        /* \"#utility.yul\":20495:20499   */\n      dup2\n        /* \"#utility.yul\":20491:20511   */\n      sub\n        /* \"#utility.yul\":20487:20488   */\n      0x00\n        /* \"#utility.yul\":20476:20485   */\n      dup4\n        /* \"#utility.yul\":20472:20489   */\n      add\n        /* \"#utility.yul\":20465:20512   */\n      mstore\n        /* \"#utility.yul\":20529:20660   */\n      tag_451\n        /* \"#utility.yul\":20655:20659   */\n      dup2\n        /* \"#utility.yul\":20529:20660   */\n      tag_249\n      jump\t// in\n    tag_451:\n        /* \"#utility.yul\":20521:20660   */\n      swap1\n      pop\n        /* \"#utility.yul\":20248:20667   */\n      swap2\n      swap1\n      pop\n      jump\t// out\n        /* \"#utility.yul\":20673:20814   */\n    tag_250:\n        /* \"#utility.yul\":20722:20726   */\n      0x00\n        /* \"#utility.yul\":20745:20748   */\n      dup2\n        /* \"#utility.yul\":20737:20748   */\n      swap1\n      pop\n        /* \"#utility.yul\":20768:20771   */\n      dup2\n        /* \"#utility.yul\":20765:20766   */\n      0x00\n        /* \"#utility.yul\":20758:20772   */\n      mstore\n        /* \"#utility.yul\":20802:20806   */\n      0x20\n        /* \"#utility.yul\":20799:20800   */\n      0x00\n        /* \"#utility.yul\":20789:20807   */\n      keccak256\n        /* \"#utility.yul\":20781:20807   */\n      swap1\n      pop\n        /* \"#utility.yul\":20673:20814   */\n      swap2\n      swap1\n      pop\n      jump\t// out\n        /* \"#utility.yul\":20820:20913   */\n    tag_251:\n        /* \"#utility.yul\":20857:20863   */\n      0x00\n        /* \"#utility.yul\":20904:20906   */\n      0x20\n        /* \"#utility.yul\":20899:20901   */\n      0x1f\n        /* \"#utility.yul\":20892:20897   */\n      dup4\n        /* \"#utility.yul\":20888:20902   */\n      add\n        /* \"#utility.yul\":20884:20907   */\n      div\n        /* \"#utility.yul\":20874:20907   */\n      swap1\n      pop\n        /* \"#utility.yul\":20820:20913   */\n      swap2\n      swap1\n      pop\n      jump\t// out\n        /* \"#utility.yul\":20919:21026   */\n    tag_252:\n        /* \"#utility.yul\":20963:20971   */\n      0x00\n        /* \"#utility.yul\":21013:21018   */\n      dup3\n        /* \"#utility.yul\":21007:21011   */\n      dup3\n        /* \"#utility.yul\":21003:21019   */\n      shl\n        /* \"#utility.yul\":20982:21019   */\n      swap1\n      pop\n        /* \"#utility.yul\":20919:21026   */\n      swap3\n      swap2\n      pop\n      pop\n      jump\t// out\n        /* \"#utility.yul\":21032:21425   */\n    tag_253:\n        /* \"#utility.yul\":21101:21107   */\n      0x00\n        /* \"#utility.yul\":21151:21152   */\n      0x08\n        /* \"#utility.yul\":21139:21149   */\n      dup4\n        /* \"#utility.yul\":21135:21153   */\n      mul\n        /* \"#utility.yul\":21174:21271   */\n      tag_456\n        /* \"#utility.yul\":21204:21270   */\n      0xffffffffffffffffffffffffffffffffffffffffffffffffffffffffffffffff\n        /* \"#utility.yul\":21193:21202   */\n      dup3\n        /* \"#utility.yul\":21174:21271   */\n      tag_252\n      jump\t// in\n    tag_456:\n        /* \"#utility.yul\":21292:21331   */\n      tag_457\n        /* \"#utility.yul\":21322:21330   */\n      dup7\n        /* \"#utility.yul\":21311:21320   */\n      dup4\n        /* \"#utility.yul\":21292:21331   */\n      tag_252\n      jump\t// in\n    tag_457:\n        /* \"#utility.yul\":21280:21331   */\n      swap6\n      pop\n        /* \"#utility.yul\":21364:21368   */\n      dup1\n        /* \"#utility.yul\":21360:21369   */\n      not\n        /* \"#utility.yul\":21353:21358   */\n      dup5\n        /* \"#utility.yul\":21349:21370   */\n      and\n        /* \"#utility.yul\":21340:21370   */\n      swap4\n      pop\n        /* \"#utility.yul\":21413:21417   */\n      dup1\n        /* \"#utility.yul\":21403:21411   */\n      dup7\n        /* \"#utility.yul\":21399:21418   */\n      and\n        /* \"#utility.yul\":21392:21397   */\n      dup5\n        /* \"#utility.yul\":21389:21419   */\n      or\n        /* \"#utility.yul\":21379:21419   */\n      swap3\n      pop\n        /* \"#utility.yul\":21108:21425   */\n      pop\n      pop\n        /* \"#utility.yul\":21032:21425   */\n      swap4\n      swap3\n      pop\n      pop\n      pop\n      jump\t// out\n        /* \"#utility.yul\":21431:21491   */\n    tag_254:\n        /* \"#utility.yul\":21459:21462   */\n      0x00\n        /* \"#utility.yul\":21480:21485   */\n      dup2\n        /* \"#utility.yul\":21473:21485   */\n      swap1\n      pop\n        /* \"#utility.yul\":21431:21491   */\n      swap2\n      swap1\n      pop\n      jump\t// out\n        /* \"#utility.yul\":21497:21639   */\n    tag_255:\n        /* \"#utility.yul\":21547:21556   */\n      0x00\n        /* \"#utility.yul\":21580:21633   */\n      tag_460\n        /* \"#utility.yul\":21598:21632   */\n      tag_461\n        /* \"#utility.yul\":21607:21631   */\n      tag_462\n        /* \"#utility.yul\":21625:21630   */\n      dup5\n        /* \"#utility.yul\":21607:21631   */\n      tag_203\n      jump\t// in\n    tag_462:\n        /* \"#utility.yul\":21598:21632   */\n      tag_254\n      jump\t// in\n    tag_461:\n        /* \"#utility.yul\":21580:21633   */\n      tag_203\n      jump\t// in\n    tag_460:\n        /* \"#utility.yul\":21567:21633   */\n      swap1\n      pop\n        /* \"#utility.yul\":21497:21639   */\n      swap2\n      swap1\n      pop\n      jump\t// out\n        /* \"#utility.yul\":21645:21720   */\n    tag_256:\n        /* \"#utility.yul\":21688:21691   */\n      0x00\n        /* \"#utility.yul\":21709:21714   */\n      dup2\n        /* \"#utility.yul\":21702:21714   */\n      swap1\n      pop\n        /* \"#utility.yul\":21645:21720   */\n      swap2\n      swap1\n      pop\n      jump\t// out\n        /* \"#utility.yul\":21726:21995   */\n    tag_257:\n        /* \"#utility.yul\":21836:21875   */\n      tag_465\n        /* \"#utility.yul\":21867:21874   */\n      dup4\n        /* \"#utility.yul\":21836:21875   */\n      tag_255\n      jump\t// in\n    tag_465:\n        /* \"#utility.yul\":21897:21988   */\n      tag_466\n        /* \"#utility.yul\":21946:21987   */\n      tag_467\n        /* \"#utility.yul\":21970:21986   */\n      dup3\n        /* \"#utility.yul\":21946:21987   */\n      tag_256\n      jump\t// in\n    tag_467:\n        /* \"#utility.yul\":21938:21944   */\n      dup5\n        /* \"#utility.yul\":21931:21935   */\n      dup5\n        /* \"#utility.yul\":21925:21936   */\n      sload\n        /* \"#utility.yul\":21897:21988   */\n      tag_253\n      jump\t// in\n    tag_466:\n        /* \"#utility.yul\":21891:21895   */\n      dup3\n        /* \"#utility.yul\":21884:21989   */\n      sstore\n        /* \"#utility.yul\":21802:21995   */\n      pop\n        /* \"#utility.yul\":21726:21995   */\n      pop\n      pop\n      pop\n      jump\t// out\n        /* \"#utility.yul\":22001:22074   */\n    tag_258:\n        /* \"#utility.yul\":22046:22049   */\n      0x00\n        /* \"#utility.yul\":22001:22074   */\n      swap1\n      jump\t// out\n        /* \"#utility.yul\":22080:22269   */\n    tag_259:\n        /* \"#utility.yul\":22157:22189   */\n      tag_470\n      tag_258\n      jump\t// in\n    tag_470:\n        /* \"#utility.yul\":22198:22263   */\n      tag_471\n        /* \"#utility.yul\":22256:22262   */\n      dup2\n        /* \"#utility.yul\":22248:22254   */\n      dup5\n        /* \"#utility.yul\":22242:22246   */\n      dup5\n        /* \"#utility.yul\":22198:22263   */\n      tag_257\n      jump\t// in\n    tag_471:\n        /* \"#utility.yul\":22133:22269   */\n      pop\n        /* \"#utility.yul\":22080:22269   */\n      pop\n      pop\n      jump\t// out\n        /* \"#utility.yul\":22275:22461   */\n    tag_260:\n        /* \"#utility.yul\":22335:22455   */\n    tag_473:\n        /* \"#utility.yul\":22352:22355   */\n      dup2\n        /* \"#utility.yul\":22345:22350   */\n      dup2\n        /* \"#utility.yul\":22342:22356   */\n      lt\n        /* \"#utility.yul\":22335:22455   */\n      iszero\n      tag_475\n      jumpi\n        /* \"#utility.yul\":22406:22445   */\n      tag_476\n        /* \"#utility.yul\":22443:22444   */\n      0x00\n        /* \"#utility.yul\":22436:22441   */\n      dup3\n        /* \"#utility.yul\":22406:22445   */\n      tag_259\n      jump\t// in\n    tag_476:\n        /* \"#utility.yul\":22379:22380   */\n      0x01\n        /* \"#utility.yul\":22372:22377   */\n      dup2\n        /* \"#utility.yul\":22368:22381   */\n      add\n        /* \"#utility.yul\":22359:22381   */\n      swap1\n      pop\n        /* \"#utility.yul\":22335:22455   */\n      jump(tag_473)\n    tag_475:\n        /* \"#utility.yul\":22275:22461   */\n      pop\n      pop\n      jump\t// out\n        /* \"#utility.yul\":22467:23010   */\n    tag_261:\n        /* \"#utility.yul\":22568:22570   */\n      0x1f\n        /* \"#utility.yul\":22563:22566   */\n      dup3\n        /* \"#utility.yul\":22560:22571   */\n      gt\n        /* \"#utility.yul\":22557:23003   */\n      iszero\n      tag_478\n      jumpi\n        /* \"#utility.yul\":22602:22640   */\n      tag_479\n        /* \"#utility.yul\":22634:22639   */\n      dup2\n        /* \"#utility.yul\":22602:22640   */\n      tag_250\n      jump\t// in\n    tag_479:\n        /* \"#utility.yul\":22686:22715   */\n      tag_480\n        /* \"#utility.yul\":22704:22714   */\n      dup5\n        /* \"#utility.yul\":22686:22715   */\n      tag_251\n      jump\t// in\n    tag_480:\n        /* \"#utility.yul\":22676:22684   */\n      dup2\n        /* \"#utility.yul\":22672:22716   */\n      add\n        /* \"#utility.yul\":22869:22871   */\n      0x20\n        /* \"#utility.yul\":22857:22867   */\n      dup6\n        /* \"#utility.yul\":22854:22872   */\n      lt\n        /* \"#utility.yul\":22851:22900   */\n      iszero\n      tag_481\n      jumpi\n        /* \"#utility.yul\":22890:22898   */\n      dup2\n        /* \"#utility.yul\":22875:22898   */\n      swap1\n      pop\n        /* \"#utility.yul\":22851:22900   */\n    tag_481:\n        /* \"#utility.yul\":22913:22993   */\n      tag_482\n        /* \"#utility.yul\":22969:22991   */\n      tag_483\n        /* \"#utility.yul\":22987:22990   */\n      dup6\n        /* \"#utility.yul\":22969:22991   */\n      tag_251\n      jump\t// in\n    tag_483:\n        /* \"#utility.yul\":22959:22967   */\n      dup4\n        /* \"#utility.yul\":22955:22992   */\n      add\n        /* \"#utility.yul\":22942:22953   */\n      dup3\n        /* \"#utility.yul\":22913:22993   */\n      tag_260\n      jump\t// in\n    tag_482:\n        /* \"#utility.yul\":22572:23003   */\n      pop\n      pop\n        /* \"#utility.yul\":22557:23003   */\n    tag_478:\n        /* \"#utility.yul\":22467:23010   */\n      pop\n      pop\n      pop\n      jump\t// out\n        /* \"#utility.yul\":23016:23133   */\n    tag_262:\n        /* \"#utility.yul\":23070:23078   */\n      0x00\n        /* \"#utility.yul\":23120:23125   */\n      dup3\n        /* \"#utility.yul\":23114:23118   */\n      dup3\n        /* \"#utility.yul\":23110:23126   */\n      shr\n        /* \"#utility.yul\":23089:23126   */\n      swap1\n      pop\n        /* \"#utility.yul\":23016:23133   */\n      swap3\n      swap2\n      pop\n      pop\n      jump\t// out\n        /* \"#utility.yul\":23139:23308   */\n    tag_263:\n        /* \"#utility.yul\":23183:23189   */\n      0x00\n        /* \"#utility.yul\":23216:23267   */\n      tag_486\n        /* \"#utility.yul\":23264:23265   */\n      0x00\n        /* \"#utility.yul\":23260:23266   */\n      not\n        /* \"#utility.yul\":23252:23257   */\n      dup5\n        /* \"#utility.yul\":23249:23250   */\n      0x08\n        /* \"#utility.yul\":23245:23258   */\n      mul\n        /* \"#utility.yul\":23216:23267   */\n      tag_262\n      jump\t// in\n    tag_486:\n        /* \"#utility.yul\":23212:23268   */\n      not\n        /* \"#utility.yul\":23297:23301   */\n      dup1\n        /* \"#utility.yul\":23291:23295   */\n      dup4\n        /* \"#utility.yul\":23287:23302   */\n      and\n        /* \"#utility.yul\":23277:23302   */\n      swap2\n      pop\n        /* \"#utility.yul\":23190:23308   */\n      pop\n        /* \"#utility.yul\":23139:23308   */\n      swap3\n      swap2\n      pop\n      pop\n      jump\t// out\n        /* \"#utility.yul\":23313:23608   */\n    tag_264:\n        /* \"#utility.yul\":23389:23393   */\n      0x00\n        /* \"#utility.yul\":23535:23564   */\n      tag_488\n        /* \"#utility.yul\":23560:23563   */\n      dup4\n        /* \"#utility.yul\":23554:23558   */\n      dup4\n        /* \"#utility.yul\":23535:23564   */\n      tag_263\n      jump\t// in\n    tag_488:\n        /* \"#utility.yul\":23527:23564   */\n      swap2\n      pop\n        /* \"#utility.yul\":23597:23600   */\n      dup3\n        /* \"#utility.yul\":23594:23595   */\n      0x02\n        /* \"#utility.yul\":23590:23601   */\n      mul\n        /* \"#utility.yul\":23584:23588   */\n      dup3\n        /* \"#utility.yul\":23581:23602   */\n      or\n        /* \"#utility.yul\":23573:23602   */\n      swap1\n      pop\n        /* \"#utility.yul\":23313:23608   */\n      swap3\n      swap2\n      pop\n      pop\n      jump\t// out\n        /* \"#utility.yul\":23613:25008   */\n    tag_198:\n        /* \"#utility.yul\":23730:23767   */\n      tag_490\n        /* \"#utility.yul\":23763:23766   */\n      dup3\n        /* \"#utility.yul\":23730:23767   */\n      tag_207\n      jump\t// in\n    tag_490:\n        /* \"#utility.yul\":23832:23850   */\n      0xffffffffffffffff\n        /* \"#utility.yul\":23824:23830   */\n      dup2\n        /* \"#utility.yul\":23821:23851   */\n      gt\n        /* \"#utility.yul\":23818:23874   */\n      iszero\n      tag_491\n      jumpi\n        /* \"#utility.yul\":23854:23872   */\n      tag_492\n      tag_64\n      jump\t// in\n    tag_492:\n        /* \"#utility.yul\":23818:23874   */\n    tag_491:\n        /* \"#utility.yul\":23898:23936   */\n      tag_493\n        /* \"#utility.yul\":23930:23934   */\n      dup3\n        /* \"#utility.yul\":23924:23935   */\n      sload\n        /* \"#utility.yul\":23898:23936   */\n      tag_47\n      jump\t// in\n    tag_493:\n        /* \"#utility.yul\":23983:24050   */\n      tag_494\n        /* \"#utility.yul\":24043:24049   */\n      dup3\n        /* \"#utility.yul\":24035:24041   */\n      dup3\n        /* \"#utility.yul\":24029:24033   */\n      dup6\n        /* \"#utility.yul\":23983:24050   */\n      tag_261\n      jump\t// in\n    tag_494:\n        /* \"#utility.yul\":24077:24078   */\n      0x00\n        /* \"#utility.yul\":24101:24105   */\n      0x20\n        /* \"#utility.yul\":24088:24105   */\n      swap1\n      pop\n        /* \"#utility.yul\":24133:24135   */\n      0x1f\n        /* \"#utility.yul\":24125:24131   */\n      dup4\n        /* \"#utility.yul\":24122:24136   */\n      gt\n        /* \"#utility.yul\":24150:24151   */\n      0x01\n        /* \"#utility.yul\":24145:24763   */\n      dup2\n      eq\n      tag_496\n      jumpi\n        /* \"#utility.yul\":24807:24808   */\n      0x00\n        /* \"#utility.yul\":24824:24830   */\n      dup5\n        /* \"#utility.yul\":24821:24898   */\n      iszero\n      tag_497\n      jumpi\n        /* \"#utility.yul\":24873:24882   */\n      dup3\n        /* \"#utility.yul\":24868:24871   */\n      dup8\n        /* \"#utility.yul\":24864:24883   */\n      add\n        /* \"#utility.yul\":24858:24884   */\n      mload\n        /* \"#utility.yul\":24849:24884   */\n      swap1\n      pop\n        /* \"#utility.yul\":24821:24898   */\n    tag_497:\n        /* \"#utility.yul\":24924:24991   */\n      tag_498\n        /* \"#utility.yul\":24984:24990   */\n      dup6\n        /* \"#utility.yul\":24977:24982   */\n      dup3\n        /* \"#utility.yul\":24924:24991   */\n      tag_264\n      jump\t// in\n    tag_498:\n        /* \"#utility.yul\":24918:24922   */\n      dup7\n        /* \"#utility.yul\":24911:24992   */\n      sstore\n        /* \"#utility.yul\":24780:25002   */\n      pop\n        /* \"#utility.yul\":24115:25002   */\n      jump(tag_495)\n        /* \"#utility.yul\":24145:24763   */\n    tag_496:\n        /* \"#utility.yul\":24197:24201   */\n      0x1f\n        /* \"#utility.yul\":24193:24202   */\n      not\n        /* \"#utility.yul\":24185:24191   */\n      dup5\n        /* \"#utility.yul\":24181:24203   */\n      and\n        /* \"#utility.yul\":24231:24268   */\n      tag_499\n        /* \"#utility.yul\":24263:24267   */\n      dup7\n        /* \"#utility.yul\":24231:24268   */\n      tag_250\n      jump\t// in\n    tag_499:\n        /* \"#utility.yul\":24290:24291   */\n      0x00\n        /* \"#utility.yul\":24304:24512   */\n    tag_500:\n        /* \"#utility.yul\":24318:24325   */\n      dup3\n        /* \"#utility.yul\":24315:24316   */\n      dup2\n        /* \"#utility.yul\":24312:24326   */\n      lt\n        /* \"#utility.yul\":24304:24512   */\n      iszero\n      tag_502\n      jumpi\n        /* \"#utility.yul\":24397:24406   */\n      dup5\n        /* \"#utility.yul\":24392:24395   */\n      dup10\n        /* \"#utility.yul\":24388:24407   */\n      add\n        /* \"#utility.yul\":24382:24408   */\n      mload\n        /* \"#utility.yul\":24374:24380   */\n      dup3\n        /* \"#utility.yul\":24367:24409   */\n      sstore\n        /* \"#utility.yul\":24448:24449   */\n      0x01\n        /* \"#utility.yul\":24440:24446   */\n      dup3\n        /* \"#utility.yul\":24436:24450   */\n      add\n        /* \"#utility.yul\":24426:24450   */\n      swap2\n      pop\n        /* \"#utility.yul\":24495:24497   */\n      0x20\n        /* \"#utility.yul\":24484:24493   */\n      dup6\n        /* \"#utility.yul\":24480:24498   */\n      add\n        /* \"#utility.yul\":24467:24498   */\n      swap5\n      pop\n        /* \"#utility.yul\":24341:24345   */\n      0x20\n        /* \"#utility.yul\":24338:24339   */\n      dup2\n        /* \"#utility.yul\":24334:24346   */\n      add\n        /* \"#utility.yul\":24329:24346   */\n      swap1\n      pop\n        /* \"#utility.yul\":24304:24512   */\n      jump(tag_500)\n    tag_502:\n        /* \"#utility.yul\":24540:24546   */\n      dup7\n        /* \"#utility.yul\":24531:24538   */\n      dup4\n        /* \"#utility.yul\":24528:24547   */\n      lt\n        /* \"#utility.yul\":24525:24704   */\n      iszero\n      tag_503\n      jumpi\n        /* \"#utility.yul\":24598:24607   */\n      dup5\n        /* \"#utility.yul\":24593:24596   */\n      dup10\n        /* \"#utility.yul\":24589:24608   */\n      add\n        /* \"#utility.yul\":24583:24609   */\n      mload\n        /* \"#utility.yul\":24641:24689   */\n      tag_504\n        /* \"#utility.yul\":24683:24687   */\n      0x1f\n        /* \"#utility.yul\":24675:24681   */\n      dup10\n        /* \"#utility.yul\":24671:24688   */\n      and\n        /* \"#utility.yul\":24660:24669   */\n      dup3\n        /* \"#utility.yul\":24641:24689   */\n      tag_263\n      jump\t// in\n    tag_504:\n        /* \"#utility.yul\":24633:24639   */\n      dup4\n        /* \"#utility.yul\":24626:24690   */\n      sstore\n        /* \"#utility.yul\":24548:24704   */\n      pop\n        /* \"#utility.yul\":24525:24704   */\n    tag_503:\n        /* \"#utility.yul\":24750:24751   */\n      0x01\n        /* \"#utility.yul\":24746:24747   */\n      0x02\n        /* \"#utility.yul\":24738:24744   */\n      dup9\n        /* \"#utility.yul\":24734:24748   */\n      mul\n        /* \"#utility.yul\":24730:24752   */\n      add\n        /* \"#utility.yul\":24724:24728   */\n      dup9\n        /* \"#utility.yul\":24717:24753   */\n      sstore\n        /* \"#utility.yul\":24152:24763   */\n      pop\n      pop\n      pop\n        /* \"#utility.yul\":24115:25002   */\n    tag_495:\n      pop\n        /* \"#utility.yul\":23705:25008   */\n      pop\n      pop\n      pop\n        /* \"#utility.yul\":23613:25008   */\n      pop\n      pop\n      jump\t// out\n\n    auxdata: 0xa26469706673582212204530504d43d004edc962616e749e81f3079bcf854ece0f5fbb559ba0c3e4e57464736f6c63430008140033\n}\n",
				"bytecode": {
					"linkReferences": {},
					"object": "608060405234801562000010575f80fd5b50620000796040518060400160405280601781526020017f54686520477265617420436f6f6b696520446562617465000000000000000000815250604051806060016040528060258152602001620023aa602591396001600a600360026200028d60201b60201c565b620000fc6040518060400160405280601781526020017f44616e63652d4f666620617420746865204f66666963650000000000000000008152506040518060400160405280602081526020017f412066756e2064616e636520636f6d7065746974696f6e20617420776f726b2e8152506008600160045f6200028d60201b60201c565b620001806040518060400160405280601c81526020017f426174746c65206f662074686520436f75636820506f7461746f6573000000008152506040518060400160405280602081526020017f57686f27732074686520756c74696d61746520636f75636820706f7461746f3f81525060026001600960036200028d60201b60201c565b620002036040518060400160405280601781526020017f50616a616d612046617368696f6e2053686f77646f776e0000000000000000008152506040518060400160405280601b81526020017f53686f77206f666620796f757220626573742070616a616d61732100000000008152505f6001600560086200028d60201b60201c565b620002876040518060400160405280601f81526020017f546865204570696320506170657220416972706c616e6520436f6e74657374008152506040518060400160405280601981526020017f57686f2063616e20666c79207468652066757274686573743f0000000000000081525060046003600260046200028d60201b60201c565b620007a3565b60015f815480929190620002a190620003de565b91905055505f805f60015481526020019081526020015f209050600154815f018190555086816001019081620002d8919062000685565b5085816002019081620002ec919062000685565b506001816004015f6101000a81548160ff0219169083151502179055503381600a015f6101000a81548173ffffffffffffffffffffffffffffffffffffffff021916908373ffffffffffffffffffffffffffffffffffffffff160217905550848160050181905550838160060181905550828160070181905550818160080181905550818385876200037f919062000769565b6200038b919062000769565b62000397919062000769565b816003018190555050505050505050565b7f4e487b71000000000000000000000000000000000000000000000000000000005f52601160045260245ffd5b5f819050919050565b5f620003ea82620003d5565b91507fffffffffffffffffffffffffffffffffffffffffffffffffffffffffffffffff82036200041f576200041e620003a8565b5b600182019050919050565b5f81519050919050565b7f4e487b71000000000000000000000000000000000000000000000000000000005f52604160045260245ffd5b7f4e487b71000000000000000000000000000000000000000000000000000000005f52602260045260245ffd5b5f6002820490506001821680620004a657607f821691505b602082108103620004bc57620004bb62000461565b5b50919050565b5f819050815f5260205f209050919050565b5f6020601f8301049050919050565b5f82821b905092915050565b5f60088302620005207fffffffffffffffffffffffffffffffffffffffffffffffffffffffffffffffff82620004e3565b6200052c8683620004e3565b95508019841693508086168417925050509392505050565b5f819050919050565b5f6200056d620005676200056184620003d5565b62000544565b620003d5565b9050919050565b5f819050919050565b62000588836200054d565b620005a0620005978262000574565b848454620004ef565b825550505050565b5f90565b620005b6620005a8565b620005c38184846200057d565b505050565b5b81811015620005ea57620005de5f82620005ac565b600181019050620005c9565b5050565b601f82111562000639576200060381620004c2565b6200060e84620004d4565b810160208510156200061e578190505b620006366200062d85620004d4565b830182620005c8565b50505b505050565b5f82821c905092915050565b5f6200065b5f19846008026200063e565b1980831691505092915050565b5f6200067583836200064a565b9150826002028217905092915050565b62000690826200042a565b67ffffffffffffffff811115620006ac57620006ab62000434565b5b620006b882546200048e565b620006c5828285620005ee565b5f60209050601f831160018114620006fb575f8415620006e6578287015190505b620006f2858262000668565b86555062000761565b601f1984166200070b86620004c2565b5f5b8281101562000734578489015182556001820191506020850194506020810190506200070d565b8683101562000754578489015162000750601f8916826200064a565b8355505b6001600288020188555050505b505050505050565b5f6200077582620003d5565b91506200078283620003d5565b92508282019050808211156200079d576200079c620003a8565b5b92915050565b611bf980620007b15f395ff3fe608060405234801561000f575f80fd5b5060043610610086575f3560e01c806381a60c0d1161005957806381a60c0d1461011b578063b384abef1461014f578063c27a500d1461016b578063e257a94c1461019057610086565b80630b7914301461008a578063330a347b146100c357806371be2e4a146100df578063761e1af3146100fd575b5f80fd5b6100a4600480360381019061009f9190610f95565b6101ac565b6040516100ba9a999897969594939291906110b2565b60405180910390f35b6100dd60048036038101906100d89190610f95565b610332565b005b6100e76103f5565b6040516100f4919061115a565b60405180910390f35b6101056103fb565b604051610112919061122a565b60405180910390f35b61013560048036038101906101309190610f95565b610618565b60405161014695949392919061124a565b60405180910390f35b610169600480360381019061016491906112a2565b6106e7565b005b610173610924565b6040516101879897969594939291906113e3565b60405180910390f35b6101aa60048036038101906101a591906115c3565b610e94565b005b5f602052805f5260405f205f91509050805f0154908060010180546101d090611666565b80601f01602080910402602001604051908101604052809291908181526020018280546101fc90611666565b80156102475780601f1061021e57610100808354040283529160200191610247565b820191905f5260205f20905b81548152906001019060200180831161022a57829003601f168201915b50505050509080600201805461025c90611666565b80601f016020809104026020016040519081016040528092919081815260200182805461028890611666565b80156102d35780601f106102aa576101008083540402835291602001916102d3565b820191905f5260205f20905b8154815290600101906020018083116102b657829003601f168201915b505050505090806003015490806004015f9054906101000a900460ff169080600501549080600601549080600701549080600801549080600a015f9054906101000a900473ffffffffffffffffffffffffffffffffffffffff1690508a565b5f805f8381526020019081526020015f2090503373ffffffffffffffffffffffffffffffffffffffff1681600a015f9054906101000a900473ffffffffffffffffffffffffffffffffffffffff1673ffffffffffffffffffffffffffffffffffffffff16146103d6576040517f08c379a00000000000000000000000000000000000000000000000000000000081526004016103cd90611706565b60405180910390fd5b5f816004015f6101000a81548160ff0219169083151502179055505050565b60015481565b60605f60015467ffffffffffffffff81111561041a5761041961149f565b5b6040519080825280602002602001820160405280156104485781602001602082028036833780820191505090505b5090505f60015467ffffffffffffffff8111156104685761046761149f565b5b6040519080825280602002602001820160405280156104965781602001602082028036833780820191505090505b5090505f600190505b600154811161060f575f805f8381526020019081526020015f2090505f816003015490505f5b60058110156105f9578581815181106104e1576104e0611724565b5b60200260200101518211156105e6575f600490505b8181111561059d578560018261050c919061177e565b8151811061051d5761051c611724565b5b602002602001015186828151811061053857610537611724565b5b60200260200101818152505086600182610552919061177e565b8151811061056357610562611724565b5b602002602001015187828151811061057e5761057d611724565b5b6020026020010181815250508080610595906117b1565b9150506104f6565b50825f01548582815181106105b5576105b4611724565b5b602002602001018181525050818682815181106105d5576105d4611724565b5b6020026020010181815250506105f9565b80806105f1906117d8565b9150506104c5565b5050508080610607906117d8565b91505061049f565b50809250505090565b60605f805f805f805f8881526020019081526020015f20905080600101816005015482600601548360070154846008015484805461065590611666565b80601f016020809104026020016040519081016040528092919081815260200182805461068190611666565b80156106cc5780601f106106a3576101008083540402835291602001916106cc565b820191905f5260205f20905b8154815290600101906020018083116106af57829003601f168201915b50505050509450955095509550955095505091939590929450565b6004811061072a576040517f08c379a000000000000000000000000000000000000000000000000000000000815260040161072190611869565b60405180910390fd5b5f805f8481526020019081526020015f209050806004015f9054906101000a900460ff1661078d576040517f08c379a0000000000000000000000000000000000000000000000000000000008152600401610784906118d1565b60405180910390fd5b806009015f3373ffffffffffffffffffffffffffffffffffffffff1673ffffffffffffffffffffffffffffffffffffffff1681526020019081526020015f205f9054906101000a900460ff1615610819576040517f08c379a000000000000000000000000000000000000000000000000000000000815260040161081090611939565b60405180910390fd5b5f820361083e57806005015f815480929190610834906117d8565b91905055506108af565b6001820361086457806006015f81548092919061085a906117d8565b91905055506108ae565b6002820361088a57806007015f815480929190610880906117d8565b91905055506108ad565b600382036108ac57806008015f8154809291906108a6906117d8565b91905055505b5b5b5b806003015f8154809291906108c3906117d8565b91905055506001816009015f3373ffffffffffffffffffffffffffffffffffffffff1673ffffffffffffffffffffffffffffffffffffffff1681526020019081526020015f205f6101000a81548160ff021916908315150217905550505050565b6060806060806060806060805f60015467ffffffffffffffff81111561094d5761094c61149f565b5b60405190808252806020026020018201604052801561097b5781602001602082028036833780820191505090505b5090505f60015467ffffffffffffffff81111561099b5761099a61149f565b5b6040519080825280602002602001820160405280156109ce57816020015b60608152602001906001900390816109b95790505b5090505f60015467ffffffffffffffff8111156109ee576109ed61149f565b5b604051908082528060200260200182016040528015610a2157816020015b6060815260200190600190039081610a0c5790505b5090505f60015467ffffffffffffffff811115610a4157610a4061149f565b5b604051908082528060200260200182016040528015610a6f5781602001602082028036833780820191505090505b5090505f60015467ffffffffffffffff811115610a8f57610a8e61149f565b5b604051908082528060200260200182016040528015610abd5781602001602082028036833780820191505090505b5090505f60015467ffffffffffffffff811115610add57610adc61149f565b5b604051908082528060200260200182016040528015610b0b5781602001602082028036833780820191505090505b5090505f60015467ffffffffffffffff811115610b2b57610b2a61149f565b5b604051908082528060200260200182016040528015610b595781602001602082028036833780820191505090505b5090505f60015467ffffffffffffffff811115610b7957610b7861149f565b5b604051908082528060200260200182016040528015610ba75781602001602082028036833780820191505090505b5090505f600190505b6001548111610e69575f805f8381526020019081526020015f209050805f01548a600184610bde919061177e565b81518110610bef57610bee611724565b5b602002602001018181525050806001018054610c0a90611666565b80601f0160208091040260200160405190810160405280929190818152602001828054610c3690611666565b8015610c815780601f10610c5857610100808354040283529160200191610c81565b820191905f5260205f20905b815481529060010190602001808311610c6457829003601f168201915b505050505089600184610c94919061177e565b81518110610ca557610ca4611724565b5b6020026020010181905250806002018054610cbf90611666565b80601f0160208091040260200160405190810160405280929190818152602001828054610ceb90611666565b8015610d365780601f10610d0d57610100808354040283529160200191610d36565b820191905f5260205f20905b815481529060010190602001808311610d1957829003601f168201915b505050505088600184610d49919061177e565b81518110610d5a57610d59611724565b5b6020026020010181905250806005015487600184610d78919061177e565b81518110610d8957610d88611724565b5b602002602001018181525050806006015486600184610da8919061177e565b81518110610db957610db8611724565b5b602002602001018181525050806007015485600184610dd8919061177e565b81518110610de957610de8611724565b5b602002602001018181525050806008015484600184610e08919061177e565b81518110610e1957610e18611724565b5b602002602001018181525050806003015483600184610e38919061177e565b81518110610e4957610e48611724565b5b602002602001018181525050508080610e61906117d8565b915050610bb0565b5087878787878787879f509f509f509f509f509f509f509f5050505050505050509091929394959697565b60015f815480929190610ea6906117d8565b91905055505f805f60015481526020019081526020015f209050600154815f018190555082816001019081610edb9190611af4565b5081816002019081610eed9190611af4565b506001816004015f6101000a81548160ff0219169083151502179055503381600a015f6101000a81548173ffffffffffffffffffffffffffffffffffffffff021916908373ffffffffffffffffffffffffffffffffffffffff160217905550505050565b5f604051905090565b5f80fd5b5f80fd5b5f819050919050565b610f7481610f62565b8114610f7e575f80fd5b50565b5f81359050610f8f81610f6b565b92915050565b5f60208284031215610faa57610fa9610f5a565b5b5f610fb784828501610f81565b91505092915050565b610fc981610f62565b82525050565b5f81519050919050565b5f82825260208201905092915050565b5f5b83811015611006578082015181840152602081019050610feb565b5f8484015250505050565b5f601f19601f8301169050919050565b5f61102b82610fcf565b6110358185610fd9565b9350611045818560208601610fe9565b61104e81611011565b840191505092915050565b5f8115159050919050565b61106d81611059565b82525050565b5f73ffffffffffffffffffffffffffffffffffffffff82169050919050565b5f61109c82611073565b9050919050565b6110ac81611092565b82525050565b5f610140820190506110c65f83018d610fc0565b81810360208301526110d8818c611021565b905081810360408301526110ec818b611021565b90506110fb606083018a610fc0565b6111086080830189611064565b61111560a0830188610fc0565b61112260c0830187610fc0565b61112f60e0830186610fc0565b61113d610100830185610fc0565b61114b6101208301846110a3565b9b9a5050505050505050505050565b5f60208201905061116d5f830184610fc0565b92915050565b5f81519050919050565b5f82825260208201905092915050565b5f819050602082019050919050565b6111a581610f62565b82525050565b5f6111b6838361119c565b60208301905092915050565b5f602082019050919050565b5f6111d882611173565b6111e2818561117d565b93506111ed8361118d565b805f5b8381101561121d57815161120488826111ab565b975061120f836111c2565b9250506001810190506111f0565b5085935050505092915050565b5f6020820190508181035f83015261124281846111ce565b905092915050565b5f60a0820190508181035f8301526112628188611021565b90506112716020830187610fc0565b61127e6040830186610fc0565b61128b6060830185610fc0565b6112986080830184610fc0565b9695505050505050565b5f80604083850312156112b8576112b7610f5a565b5b5f6112c585828601610f81565b92505060206112d685828601610f81565b9150509250929050565b5f81519050919050565b5f82825260208201905092915050565b5f819050602082019050919050565b5f82825260208201905092915050565b5f61132382610fcf565b61132d8185611309565b935061133d818560208601610fe9565b61134681611011565b840191505092915050565b5f61135c8383611319565b905092915050565b5f602082019050919050565b5f61137a826112e0565b61138481856112ea565b935083602082028501611396856112fa565b805f5b858110156113d157848403895281516113b28582611351565b94506113bd83611364565b925060208a01995050600181019050611399565b50829750879550505050505092915050565b5f610100820190508181035f8301526113fc818b6111ce565b90508181036020830152611410818a611370565b905081810360408301526114248189611370565b9050818103606083015261143881886111ce565b9050818103608083015261144c81876111ce565b905081810360a083015261146081866111ce565b905081810360c083015261147481856111ce565b905081810360e083015261148881846111ce565b90509998505050505050505050565b5f80fd5b5f80fd5b7f4e487b71000000000000000000000000000000000000000000000000000000005f52604160045260245ffd5b6114d582611011565b810181811067ffffffffffffffff821117156114f4576114f361149f565b5b80604052505050565b5f611506610f51565b905061151282826114cc565b919050565b5f67ffffffffffffffff8211156115315761153061149f565b5b61153a82611011565b9050602081019050919050565b828183375f83830152505050565b5f61156761156284611517565b6114fd565b9050828152602081018484840111156115835761158261149b565b5b61158e848285611547565b509392505050565b5f82601f8301126115aa576115a9611497565b5b81356115ba848260208601611555565b91505092915050565b5f80604083850312156115d9576115d8610f5a565b5b5f83013567ffffffffffffffff8111156115f6576115f5610f5e565b5b61160285828601611596565b925050602083013567ffffffffffffffff81111561162357611622610f5e565b5b61162f85828601611596565b9150509250929050565b7f4e487b71000000000000000000000000000000000000000000000000000000005f52602260045260245ffd5b5f600282049050600182168061167d57607f821691505b6020821081036116905761168f611639565b5b50919050565b7f4f6e6c7920746865206f7267616e697a65722063616e20656e642074686973205f8201527f6576656e742e0000000000000000000000000000000000000000000000000000602082015250565b5f6116f0602683610fd9565b91506116fb82611696565b604082019050919050565b5f6020820190508181035f83015261171d816116e4565b9050919050565b7f4e487b71000000000000000000000000000000000000000000000000000000005f52603260045260245ffd5b7f4e487b71000000000000000000000000000000000000000000000000000000005f52601160045260245ffd5b5f61178882610f62565b915061179383610f62565b92508282039050818111156117ab576117aa611751565b5b92915050565b5f6117bb82610f62565b91505f82036117cd576117cc611751565b5b600182039050919050565b5f6117e282610f62565b91507fffffffffffffffffffffffffffffffffffffffffffffffffffffffffffffffff820361181457611813611751565b5b600182019050919050565b7f496e76616c6964206f7074696f6e20696e6465782e00000000000000000000005f82015250565b5f611853601583610fd9565b915061185e8261181f565b602082019050919050565b5f6020820190508181035f83015261188081611847565b9050919050565b7f4576656e74206973206e6f74206163746976652e0000000000000000000000005f82015250565b5f6118bb601483610fd9565b91506118c682611887565b602082019050919050565b5f6020820190508181035f8301526118e8816118af565b9050919050565b7f596f75206861766520616c726561647920766f7465642e0000000000000000005f82015250565b5f611923601783610fd9565b915061192e826118ef565b602082019050919050565b5f6020820190508181035f83015261195081611917565b9050919050565b5f819050815f5260205f209050919050565b5f6020601f8301049050919050565b5f82821b905092915050565b5f600883026119b37fffffffffffffffffffffffffffffffffffffffffffffffffffffffffffffffff82611978565b6119bd8683611978565b95508019841693508086168417925050509392505050565b5f819050919050565b5f6119f86119f36119ee84610f62565b6119d5565b610f62565b9050919050565b5f819050919050565b611a11836119de565b611a25611a1d826119ff565b848454611984565b825550505050565b5f90565b611a39611a2d565b611a44818484611a08565b505050565b5b81811015611a6757611a5c5f82611a31565b600181019050611a4a565b5050565b601f821115611aac57611a7d81611957565b611a8684611969565b81016020851015611a95578190505b611aa9611aa185611969565b830182611a49565b50505b505050565b5f82821c905092915050565b5f611acc5f1984600802611ab1565b1980831691505092915050565b5f611ae48383611abd565b9150826002028217905092915050565b611afd82610fcf565b67ffffffffffffffff811115611b1657611b1561149f565b5b611b208254611666565b611b2b828285611a6b565b5f60209050601f831160018114611b5c575f8415611b4a578287015190505b611b548582611ad9565b865550611bbb565b601f198416611b6a86611957565b5f5b82811015611b9157848901518255600182019150602085019450602081019050611b6c565b86831015611bae5784890151611baa601f891682611abd565b8355505b6001600288020188555050505b50505050505056fea26469706673582212204530504d43d004edc962616e749e81f3079bcf854ece0f5fbb559ba0c3e4e57464736f6c63430008140033412068656174656420646562617465206f76657220746865206265737420636f6f6b69652e",
					"opcodes": "PUSH1 0x80 PUSH1 0x40 MSTORE CALLVALUE DUP1 ISZERO PUSH3 0x10 JUMPI PUSH0 DUP1 REVERT JUMPDEST POP PUSH3 0x79 PUSH1 0x40 MLOAD DUP1 PUSH1 0x40 ADD PUSH1 0x40 MSTORE DUP1 PUSH1 0x17 DUP2 MSTORE PUSH1 0x20 ADD PUSH32 0x54686520477265617420436F6F6B696520446562617465000000000000000000 DUP2 MSTORE POP PUSH1 0x40 MLOAD DUP1 PUSH1 0x60 ADD PUSH1 0x40 MSTORE DUP1 PUSH1 0x25 DUP2 MSTORE PUSH1 0x20 ADD PUSH3 0x23AA PUSH1 0x25 SWAP2 CODECOPY PUSH1 0x1 PUSH1 0xA PUSH1 0x3 PUSH1 0x2 PUSH3 0x28D PUSH1 0x20 SHL PUSH1 0x20 SHR JUMP JUMPDEST PUSH3 0xFC PUSH1 0x40 MLOAD DUP1 PUSH1 0x40 ADD PUSH1 0x40 MSTORE DUP1 PUSH1 0x17 DUP2 MSTORE PUSH1 0x20 ADD PUSH32 0x44616E63652D4F666620617420746865204F6666696365000000000000000000 DUP2 MSTORE POP PUSH1 0x40 MLOAD DUP1 PUSH1 0x40 ADD PUSH1 0x40 MSTORE DUP1 PUSH1 0x20 DUP2 MSTORE PUSH1 0x20 ADD PUSH32 0x412066756E2064616E636520636F6D7065746974696F6E20617420776F726B2E DUP2 MSTORE POP PUSH1 0x8 PUSH1 0x1 PUSH1 0x4 PUSH0 PUSH3 0x28D PUSH1 0x20 SHL PUSH1 0x20 SHR JUMP JUMPDEST PUSH3 0x180 PUSH1 0x40 MLOAD DUP1 PUSH1 0x40 ADD PUSH1 0x40 MSTORE DUP1 PUSH1 0x1C DUP2 MSTORE PUSH1 0x20 ADD PUSH32 0x426174746C65206F662074686520436F75636820506F7461746F657300000000 DUP2 MSTORE POP PUSH1 0x40 MLOAD DUP1 PUSH1 0x40 ADD PUSH1 0x40 MSTORE DUP1 PUSH1 0x20 DUP2 MSTORE PUSH1 0x20 ADD PUSH32 0x57686F27732074686520756C74696D61746520636F75636820706F7461746F3F DUP2 MSTORE POP PUSH1 0x2 PUSH1 0x1 PUSH1 0x9 PUSH1 0x3 PUSH3 0x28D PUSH1 0x20 SHL PUSH1 0x20 SHR JUMP JUMPDEST PUSH3 0x203 PUSH1 0x40 MLOAD DUP1 PUSH1 0x40 ADD PUSH1 0x40 MSTORE DUP1 PUSH1 0x17 DUP2 MSTORE PUSH1 0x20 ADD PUSH32 0x50616A616D612046617368696F6E2053686F77646F776E000000000000000000 DUP2 MSTORE POP PUSH1 0x40 MLOAD DUP1 PUSH1 0x40 ADD PUSH1 0x40 MSTORE DUP1 PUSH1 0x1B DUP2 MSTORE PUSH1 0x20 ADD PUSH32 0x53686F77206F666620796F757220626573742070616A616D6173210000000000 DUP2 MSTORE POP PUSH0 PUSH1 0x1 PUSH1 0x5 PUSH1 0x8 PUSH3 0x28D PUSH1 0x20 SHL PUSH1 0x20 SHR JUMP JUMPDEST PUSH3 0x287 PUSH1 0x40 MLOAD DUP1 PUSH1 0x40 ADD PUSH1 0x40 MSTORE DUP1 PUSH1 0x1F DUP2 MSTORE PUSH1 0x20 ADD PUSH32 0x546865204570696320506170657220416972706C616E6520436F6E7465737400 DUP2 MSTORE POP PUSH1 0x40 MLOAD DUP1 PUSH1 0x40 ADD PUSH1 0x40 MSTORE DUP1 PUSH1 0x19 DUP2 MSTORE PUSH1 0x20 ADD PUSH32 0x57686F2063616E20666C79207468652066757274686573743F00000000000000 DUP2 MSTORE POP PUSH1 0x4 PUSH1 0x3 PUSH1 0x2 PUSH1 0x4 PUSH3 0x28D PUSH1 0x20 SHL PUSH1 0x20 SHR JUMP JUMPDEST PUSH3 0x7A3 JUMP JUMPDEST PUSH1 0x1 PUSH0 DUP2 SLOAD DUP1 SWAP3 SWAP2 SWAP1 PUSH3 0x2A1 SWAP1 PUSH3 0x3DE JUMP JUMPDEST SWAP2 SWAP1 POP SSTORE POP PUSH0 DUP1 PUSH0 PUSH1 0x1 SLOAD DUP2 MSTORE PUSH1 0x20 ADD SWAP1 DUP2 MSTORE PUSH1 0x20 ADD PUSH0 KECCAK256 SWAP1 POP PUSH1 0x1 SLOAD DUP2 PUSH0 ADD DUP2 SWAP1 SSTORE POP DUP7 DUP2 PUSH1 0x1 ADD SWAP1 DUP2 PUSH3 0x2D8 SWAP2 SWAP1 PUSH3 0x685 JUMP JUMPDEST POP DUP6 DUP2 PUSH1 0x2 ADD SWAP1 DUP2 PUSH3 0x2EC SWAP2 SWAP1 PUSH3 0x685 JUMP JUMPDEST POP PUSH1 0x1 DUP2 PUSH1 0x4 ADD PUSH0 PUSH2 0x100 EXP DUP2 SLOAD DUP2 PUSH1 0xFF MUL NOT AND SWAP1 DUP4 ISZERO ISZERO MUL OR SWAP1 SSTORE POP CALLER DUP2 PUSH1 0xA ADD PUSH0 PUSH2 0x100 EXP DUP2 SLOAD DUP2 PUSH20 0xFFFFFFFFFFFFFFFFFFFFFFFFFFFFFFFFFFFFFFFF MUL NOT AND SWAP1 DUP4 PUSH20 0xFFFFFFFFFFFFFFFFFFFFFFFFFFFFFFFFFFFFFFFF AND MUL OR SWAP1 SSTORE POP DUP5 DUP2 PUSH1 0x5 ADD DUP2 SWAP1 SSTORE POP DUP4 DUP2 PUSH1 0x6 ADD DUP2 SWAP1 SSTORE POP DUP3 DUP2 PUSH1 0x7 ADD DUP2 SWAP1 SSTORE POP DUP2 DUP2 PUSH1 0x8 ADD DUP2 SWAP1 SSTORE POP DUP2 DUP4 DUP6 DUP8 PUSH3 0x37F SWAP2 SWAP1 PUSH3 0x769 JUMP JUMPDEST PUSH3 0x38B SWAP2 SWAP1 PUSH3 0x769 JUMP JUMPDEST PUSH3 0x397 SWAP2 SWAP1 PUSH3 0x769 JUMP JUMPDEST DUP2 PUSH1 0x3 ADD DUP2 SWAP1 SSTORE POP POP POP POP POP POP POP POP JUMP JUMPDEST PUSH32 0x4E487B7100000000000000000000000000000000000000000000000000000000 PUSH0 MSTORE PUSH1 0x11 PUSH1 0x4 MSTORE PUSH1 0x24 PUSH0 REVERT JUMPDEST PUSH0 DUP2 SWAP1 POP SWAP2 SWAP1 POP JUMP JUMPDEST PUSH0 PUSH3 0x3EA DUP3 PUSH3 0x3D5 JUMP JUMPDEST SWAP2 POP PUSH32 0xFFFFFFFFFFFFFFFFFFFFFFFFFFFFFFFFFFFFFFFFFFFFFFFFFFFFFFFFFFFFFFFF DUP3 SUB PUSH3 0x41F JUMPI PUSH3 0x41E PUSH3 0x3A8 JUMP JUMPDEST JUMPDEST PUSH1 0x1 DUP3 ADD SWAP1 POP SWAP2 SWAP1 POP JUMP JUMPDEST PUSH0 DUP2 MLOAD SWAP1 POP SWAP2 SWAP1 POP JUMP JUMPDEST PUSH32 0x4E487B7100000000000000000000000000000000000000000000000000000000 PUSH0 MSTORE PUSH1 0x41 PUSH1 0x4 MSTORE PUSH1 0x24 PUSH0 REVERT JUMPDEST PUSH32 0x4E487B7100000000000000000000000000000000000000000000000000000000 PUSH0 MSTORE PUSH1 0x22 PUSH1 0x4 MSTORE PUSH1 0x24 PUSH0 REVERT JUMPDEST PUSH0 PUSH1 0x2 DUP3 DIV SWAP1 POP PUSH1 0x1 DUP3 AND DUP1 PUSH3 0x4A6 JUMPI PUSH1 0x7F DUP3 AND SWAP2 POP JUMPDEST PUSH1 0x20 DUP3 LT DUP2 SUB PUSH3 0x4BC JUMPI PUSH3 0x4BB PUSH3 0x461 JUMP JUMPDEST JUMPDEST POP SWAP2 SWAP1 POP JUMP JUMPDEST PUSH0 DUP2 SWAP1 POP DUP2 PUSH0 MSTORE PUSH1 0x20 PUSH0 KECCAK256 SWAP1 POP SWAP2 SWAP1 POP JUMP JUMPDEST PUSH0 PUSH1 0x20 PUSH1 0x1F DUP4 ADD DIV SWAP1 POP SWAP2 SWAP1 POP JUMP JUMPDEST PUSH0 DUP3 DUP3 SHL SWAP1 POP SWAP3 SWAP2 POP POP JUMP JUMPDEST PUSH0 PUSH1 0x8 DUP4 MUL PUSH3 0x520 PUSH32 0xFFFFFFFFFFFFFFFFFFFFFFFFFFFFFFFFFFFFFFFFFFFFFFFFFFFFFFFFFFFFFFFF DUP3 PUSH3 0x4E3 JUMP JUMPDEST PUSH3 0x52C DUP7 DUP4 PUSH3 0x4E3 JUMP JUMPDEST SWAP6 POP DUP1 NOT DUP5 AND SWAP4 POP DUP1 DUP7 AND DUP5 OR SWAP3 POP POP POP SWAP4 SWAP3 POP POP POP JUMP JUMPDEST PUSH0 DUP2 SWAP1 POP SWAP2 SWAP1 POP JUMP JUMPDEST PUSH0 PUSH3 0x56D PUSH3 0x567 PUSH3 0x561 DUP5 PUSH3 0x3D5 JUMP JUMPDEST PUSH3 0x544 JUMP JUMPDEST PUSH3 0x3D5 JUMP JUMPDEST SWAP1 POP SWAP2 SWAP1 POP JUMP JUMPDEST PUSH0 DUP2 SWAP1 POP SWAP2 SWAP1 POP JUMP JUMPDEST PUSH3 0x588 DUP4 PUSH3 0x54D JUMP JUMPDEST PUSH3 0x5A0 PUSH3 0x597 DUP3 PUSH3 0x574 JUMP JUMPDEST DUP5 DUP5 SLOAD PUSH3 0x4EF JUMP JUMPDEST DUP3 SSTORE POP POP POP POP JUMP JUMPDEST PUSH0 SWAP1 JUMP JUMPDEST PUSH3 0x5B6 PUSH3 0x5A8 JUMP JUMPDEST PUSH3 0x5C3 DUP2 DUP5 DUP5 PUSH3 0x57D JUMP JUMPDEST POP POP POP JUMP JUMPDEST JUMPDEST DUP2 DUP2 LT ISZERO PUSH3 0x5EA JUMPI PUSH3 0x5DE PUSH0 DUP3 PUSH3 0x5AC JUMP JUMPDEST PUSH1 0x1 DUP2 ADD SWAP1 POP PUSH3 0x5C9 JUMP JUMPDEST POP POP JUMP JUMPDEST PUSH1 0x1F DUP3 GT ISZERO PUSH3 0x639 JUMPI PUSH3 0x603 DUP2 PUSH3 0x4C2 JUMP JUMPDEST PUSH3 0x60E DUP5 PUSH3 0x4D4 JUMP JUMPDEST DUP2 ADD PUSH1 0x20 DUP6 LT ISZERO PUSH3 0x61E JUMPI DUP2 SWAP1 POP JUMPDEST PUSH3 0x636 PUSH3 0x62D DUP6 PUSH3 0x4D4 JUMP JUMPDEST DUP4 ADD DUP3 PUSH3 0x5C8 JUMP JUMPDEST POP POP JUMPDEST POP POP POP JUMP JUMPDEST PUSH0 DUP3 DUP3 SHR SWAP1 POP SWAP3 SWAP2 POP POP JUMP JUMPDEST PUSH0 PUSH3 0x65B PUSH0 NOT DUP5 PUSH1 0x8 MUL PUSH3 0x63E JUMP JUMPDEST NOT DUP1 DUP4 AND SWAP2 POP POP SWAP3 SWAP2 POP POP JUMP JUMPDEST PUSH0 PUSH3 0x675 DUP4 DUP4 PUSH3 0x64A JUMP JUMPDEST SWAP2 POP DUP3 PUSH1 0x2 MUL DUP3 OR SWAP1 POP SWAP3 SWAP2 POP POP JUMP JUMPDEST PUSH3 0x690 DUP3 PUSH3 0x42A JUMP JUMPDEST PUSH8 0xFFFFFFFFFFFFFFFF DUP2 GT ISZERO PUSH3 0x6AC JUMPI PUSH3 0x6AB PUSH3 0x434 JUMP JUMPDEST JUMPDEST PUSH3 0x6B8 DUP3 SLOAD PUSH3 0x48E JUMP JUMPDEST PUSH3 0x6C5 DUP3 DUP3 DUP6 PUSH3 0x5EE JUMP JUMPDEST PUSH0 PUSH1 0x20 SWAP1 POP PUSH1 0x1F DUP4 GT PUSH1 0x1 DUP2 EQ PUSH3 0x6FB JUMPI PUSH0 DUP5 ISZERO PUSH3 0x6E6 JUMPI DUP3 DUP8 ADD MLOAD SWAP1 POP JUMPDEST PUSH3 0x6F2 DUP6 DUP3 PUSH3 0x668 JUMP JUMPDEST DUP7 SSTORE POP PUSH3 0x761 JUMP JUMPDEST PUSH1 0x1F NOT DUP5 AND PUSH3 0x70B DUP7 PUSH3 0x4C2 JUMP JUMPDEST PUSH0 JUMPDEST DUP3 DUP2 LT ISZERO PUSH3 0x734 JUMPI DUP5 DUP10 ADD MLOAD DUP3 SSTORE PUSH1 0x1 DUP3 ADD SWAP2 POP PUSH1 0x20 DUP6 ADD SWAP5 POP PUSH1 0x20 DUP2 ADD SWAP1 POP PUSH3 0x70D JUMP JUMPDEST DUP7 DUP4 LT ISZERO PUSH3 0x754 JUMPI DUP5 DUP10 ADD MLOAD PUSH3 0x750 PUSH1 0x1F DUP10 AND DUP3 PUSH3 0x64A JUMP JUMPDEST DUP4 SSTORE POP JUMPDEST PUSH1 0x1 PUSH1 0x2 DUP9 MUL ADD DUP9 SSTORE POP POP POP JUMPDEST POP POP POP POP POP POP JUMP JUMPDEST PUSH0 PUSH3 0x775 DUP3 PUSH3 0x3D5 JUMP JUMPDEST SWAP2 POP PUSH3 0x782 DUP4 PUSH3 0x3D5 JUMP JUMPDEST SWAP3 POP DUP3 DUP3 ADD SWAP1 POP DUP1 DUP3 GT ISZERO PUSH3 0x79D JUMPI PUSH3 0x79C PUSH3 0x3A8 JUMP JUMPDEST JUMPDEST SWAP3 SWAP2 POP POP JUMP JUMPDEST PUSH2 0x1BF9 DUP1 PUSH3 0x7B1 PUSH0 CODECOPY PUSH0 RETURN INVALID PUSH1 0x80 PUSH1 0x40 MSTORE CALLVALUE DUP1 ISZERO PUSH2 0xF JUMPI PUSH0 DUP1 REVERT JUMPDEST POP PUSH1 0x4 CALLDATASIZE LT PUSH2 0x86 JUMPI PUSH0 CALLDATALOAD PUSH1 0xE0 SHR DUP1 PUSH4 0x81A60C0D GT PUSH2 0x59 JUMPI DUP1 PUSH4 0x81A60C0D EQ PUSH2 0x11B JUMPI DUP1 PUSH4 0xB384ABEF EQ PUSH2 0x14F JUMPI DUP1 PUSH4 0xC27A500D EQ PUSH2 0x16B JUMPI DUP1 PUSH4 0xE257A94C EQ PUSH2 0x190 JUMPI PUSH2 0x86 JUMP JUMPDEST DUP1 PUSH4 0xB791430 EQ PUSH2 0x8A JUMPI DUP1 PUSH4 0x330A347B EQ PUSH2 0xC3 JUMPI DUP1 PUSH4 0x71BE2E4A EQ PUSH2 0xDF JUMPI DUP1 PUSH4 0x761E1AF3 EQ PUSH2 0xFD JUMPI JUMPDEST PUSH0 DUP1 REVERT JUMPDEST PUSH2 0xA4 PUSH1 0x4 DUP1 CALLDATASIZE SUB DUP2 ADD SWAP1 PUSH2 0x9F SWAP2 SWAP1 PUSH2 0xF95 JUMP JUMPDEST PUSH2 0x1AC JUMP JUMPDEST PUSH1 0x40 MLOAD PUSH2 0xBA SWAP11 SWAP10 SWAP9 SWAP8 SWAP7 SWAP6 SWAP5 SWAP4 SWAP3 SWAP2 SWAP1 PUSH2 0x10B2 JUMP JUMPDEST PUSH1 0x40 MLOAD DUP1 SWAP2 SUB SWAP1 RETURN JUMPDEST PUSH2 0xDD PUSH1 0x4 DUP1 CALLDATASIZE SUB DUP2 ADD SWAP1 PUSH2 0xD8 SWAP2 SWAP1 PUSH2 0xF95 JUMP JUMPDEST PUSH2 0x332 JUMP JUMPDEST STOP JUMPDEST PUSH2 0xE7 PUSH2 0x3F5 JUMP JUMPDEST PUSH1 0x40 MLOAD PUSH2 0xF4 SWAP2 SWAP1 PUSH2 0x115A JUMP JUMPDEST PUSH1 0x40 MLOAD DUP1 SWAP2 SUB SWAP1 RETURN JUMPDEST PUSH2 0x105 PUSH2 0x3FB JUMP JUMPDEST PUSH1 0x40 MLOAD PUSH2 0x112 SWAP2 SWAP1 PUSH2 0x122A JUMP JUMPDEST PUSH1 0x40 MLOAD DUP1 SWAP2 SUB SWAP1 RETURN JUMPDEST PUSH2 0x135 PUSH1 0x4 DUP1 CALLDATASIZE SUB DUP2 ADD SWAP1 PUSH2 0x130 SWAP2 SWAP1 PUSH2 0xF95 JUMP JUMPDEST PUSH2 0x618 JUMP JUMPDEST PUSH1 0x40 MLOAD PUSH2 0x146 SWAP6 SWAP5 SWAP4 SWAP3 SWAP2 SWAP1 PUSH2 0x124A JUMP JUMPDEST PUSH1 0x40 MLOAD DUP1 SWAP2 SUB SWAP1 RETURN JUMPDEST PUSH2 0x169 PUSH1 0x4 DUP1 CALLDATASIZE SUB DUP2 ADD SWAP1 PUSH2 0x164 SWAP2 SWAP1 PUSH2 0x12A2 JUMP JUMPDEST PUSH2 0x6E7 JUMP JUMPDEST STOP JUMPDEST PUSH2 0x173 PUSH2 0x924 JUMP JUMPDEST PUSH1 0x40 MLOAD PUSH2 0x187 SWAP9 SWAP8 SWAP7 SWAP6 SWAP5 SWAP4 SWAP3 SWAP2 SWAP1 PUSH2 0x13E3 JUMP JUMPDEST PUSH1 0x40 MLOAD DUP1 SWAP2 SUB SWAP1 RETURN JUMPDEST PUSH2 0x1AA PUSH1 0x4 DUP1 CALLDATASIZE SUB DUP2 ADD SWAP1 PUSH2 0x1A5 SWAP2 SWAP1 PUSH2 0x15C3 JUMP JUMPDEST PUSH2 0xE94 JUMP JUMPDEST STOP JUMPDEST PUSH0 PUSH1 0x20 MSTORE DUP1 PUSH0 MSTORE PUSH1 0x40 PUSH0 KECCAK256 PUSH0 SWAP2 POP SWAP1 POP DUP1 PUSH0 ADD SLOAD SWAP1 DUP1 PUSH1 0x1 ADD DUP1 SLOAD PUSH2 0x1D0 SWAP1 PUSH2 0x1666 JUMP JUMPDEST DUP1 PUSH1 0x1F ADD PUSH1 0x20 DUP1 SWAP2 DIV MUL PUSH1 0x20 ADD PUSH1 0x40 MLOAD SWAP1 DUP2 ADD PUSH1 0x40 MSTORE DUP1 SWAP3 SWAP2 SWAP1 DUP2 DUP2 MSTORE PUSH1 0x20 ADD DUP3 DUP1 SLOAD PUSH2 0x1FC SWAP1 PUSH2 0x1666 JUMP JUMPDEST DUP1 ISZERO PUSH2 0x247 JUMPI DUP1 PUSH1 0x1F LT PUSH2 0x21E JUMPI PUSH2 0x100 DUP1 DUP4 SLOAD DIV MUL DUP4 MSTORE SWAP2 PUSH1 0x20 ADD SWAP2 PUSH2 0x247 JUMP JUMPDEST DUP3 ADD SWAP2 SWAP1 PUSH0 MSTORE PUSH1 0x20 PUSH0 KECCAK256 SWAP1 JUMPDEST DUP2 SLOAD DUP2 MSTORE SWAP1 PUSH1 0x1 ADD SWAP1 PUSH1 0x20 ADD DUP1 DUP4 GT PUSH2 0x22A JUMPI DUP3 SWAP1 SUB PUSH1 0x1F AND DUP3 ADD SWAP2 JUMPDEST POP POP POP POP POP SWAP1 DUP1 PUSH1 0x2 ADD DUP1 SLOAD PUSH2 0x25C SWAP1 PUSH2 0x1666 JUMP JUMPDEST DUP1 PUSH1 0x1F ADD PUSH1 0x20 DUP1 SWAP2 DIV MUL PUSH1 0x20 ADD PUSH1 0x40 MLOAD SWAP1 DUP2 ADD PUSH1 0x40 MSTORE DUP1 SWAP3 SWAP2 SWAP1 DUP2 DUP2 MSTORE PUSH1 0x20 ADD DUP3 DUP1 SLOAD PUSH2 0x288 SWAP1 PUSH2 0x1666 JUMP JUMPDEST DUP1 ISZERO PUSH2 0x2D3 JUMPI DUP1 PUSH1 0x1F LT PUSH2 0x2AA JUMPI PUSH2 0x100 DUP1 DUP4 SLOAD DIV MUL DUP4 MSTORE SWAP2 PUSH1 0x20 ADD SWAP2 PUSH2 0x2D3 JUMP JUMPDEST DUP3 ADD SWAP2 SWAP1 PUSH0 MSTORE PUSH1 0x20 PUSH0 KECCAK256 SWAP1 JUMPDEST DUP2 SLOAD DUP2 MSTORE SWAP1 PUSH1 0x1 ADD SWAP1 PUSH1 0x20 ADD DUP1 DUP4 GT PUSH2 0x2B6 JUMPI DUP3 SWAP1 SUB PUSH1 0x1F AND DUP3 ADD SWAP2 JUMPDEST POP POP POP POP POP SWAP1 DUP1 PUSH1 0x3 ADD SLOAD SWAP1 DUP1 PUSH1 0x4 ADD PUSH0 SWAP1 SLOAD SWAP1 PUSH2 0x100 EXP SWAP1 DIV PUSH1 0xFF AND SWAP1 DUP1 PUSH1 0x5 ADD SLOAD SWAP1 DUP1 PUSH1 0x6 ADD SLOAD SWAP1 DUP1 PUSH1 0x7 ADD SLOAD SWAP1 DUP1 PUSH1 0x8 ADD SLOAD SWAP1 DUP1 PUSH1 0xA ADD PUSH0 SWAP1 SLOAD SWAP1 PUSH2 0x100 EXP SWAP1 DIV PUSH20 0xFFFFFFFFFFFFFFFFFFFFFFFFFFFFFFFFFFFFFFFF AND SWAP1 POP DUP11 JUMP JUMPDEST PUSH0 DUP1 PUSH0 DUP4 DUP2 MSTORE PUSH1 0x20 ADD SWAP1 DUP2 MSTORE PUSH1 0x20 ADD PUSH0 KECCAK256 SWAP1 POP CALLER PUSH20 0xFFFFFFFFFFFFFFFFFFFFFFFFFFFFFFFFFFFFFFFF AND DUP2 PUSH1 0xA ADD PUSH0 SWAP1 SLOAD SWAP1 PUSH2 0x100 EXP SWAP1 DIV PUSH20 0xFFFFFFFFFFFFFFFFFFFFFFFFFFFFFFFFFFFFFFFF AND PUSH20 0xFFFFFFFFFFFFFFFFFFFFFFFFFFFFFFFFFFFFFFFF AND EQ PUSH2 0x3D6 JUMPI PUSH1 0x40 MLOAD PUSH32 0x8C379A000000000000000000000000000000000000000000000000000000000 DUP2 MSTORE PUSH1 0x4 ADD PUSH2 0x3CD SWAP1 PUSH2 0x1706 JUMP JUMPDEST PUSH1 0x40 MLOAD DUP1 SWAP2 SUB SWAP1 REVERT JUMPDEST PUSH0 DUP2 PUSH1 0x4 ADD PUSH0 PUSH2 0x100 EXP DUP2 SLOAD DUP2 PUSH1 0xFF MUL NOT AND SWAP1 DUP4 ISZERO ISZERO MUL OR SWAP1 SSTORE POP POP POP JUMP JUMPDEST PUSH1 0x1 SLOAD DUP2 JUMP JUMPDEST PUSH1 0x60 PUSH0 PUSH1 0x1 SLOAD PUSH8 0xFFFFFFFFFFFFFFFF DUP2 GT ISZERO PUSH2 0x41A JUMPI PUSH2 0x419 PUSH2 0x149F JUMP JUMPDEST JUMPDEST PUSH1 0x40 MLOAD SWAP1 DUP1 DUP3 MSTORE DUP1 PUSH1 0x20 MUL PUSH1 0x20 ADD DUP3 ADD PUSH1 0x40 MSTORE DUP1 ISZERO PUSH2 0x448 JUMPI DUP2 PUSH1 0x20 ADD PUSH1 0x20 DUP3 MUL DUP1 CALLDATASIZE DUP4 CALLDATACOPY DUP1 DUP3 ADD SWAP2 POP POP SWAP1 POP JUMPDEST POP SWAP1 POP PUSH0 PUSH1 0x1 SLOAD PUSH8 0xFFFFFFFFFFFFFFFF DUP2 GT ISZERO PUSH2 0x468 JUMPI PUSH2 0x467 PUSH2 0x149F JUMP JUMPDEST JUMPDEST PUSH1 0x40 MLOAD SWAP1 DUP1 DUP3 MSTORE DUP1 PUSH1 0x20 MUL PUSH1 0x20 ADD DUP3 ADD PUSH1 0x40 MSTORE DUP1 ISZERO PUSH2 0x496 JUMPI DUP2 PUSH1 0x20 ADD PUSH1 0x20 DUP3 MUL DUP1 CALLDATASIZE DUP4 CALLDATACOPY DUP1 DUP3 ADD SWAP2 POP POP SWAP1 POP JUMPDEST POP SWAP1 POP PUSH0 PUSH1 0x1 SWAP1 POP JUMPDEST PUSH1 0x1 SLOAD DUP2 GT PUSH2 0x60F JUMPI PUSH0 DUP1 PUSH0 DUP4 DUP2 MSTORE PUSH1 0x20 ADD SWAP1 DUP2 MSTORE PUSH1 0x20 ADD PUSH0 KECCAK256 SWAP1 POP PUSH0 DUP2 PUSH1 0x3 ADD SLOAD SWAP1 POP PUSH0 JUMPDEST PUSH1 0x5 DUP2 LT ISZERO PUSH2 0x5F9 JUMPI DUP6 DUP2 DUP2 MLOAD DUP2 LT PUSH2 0x4E1 JUMPI PUSH2 0x4E0 PUSH2 0x1724 JUMP JUMPDEST JUMPDEST PUSH1 0x20 MUL PUSH1 0x20 ADD ADD MLOAD DUP3 GT ISZERO PUSH2 0x5E6 JUMPI PUSH0 PUSH1 0x4 SWAP1 POP JUMPDEST DUP2 DUP2 GT ISZERO PUSH2 0x59D JUMPI DUP6 PUSH1 0x1 DUP3 PUSH2 0x50C SWAP2 SWAP1 PUSH2 0x177E JUMP JUMPDEST DUP2 MLOAD DUP2 LT PUSH2 0x51D JUMPI PUSH2 0x51C PUSH2 0x1724 JUMP JUMPDEST JUMPDEST PUSH1 0x20 MUL PUSH1 0x20 ADD ADD MLOAD DUP7 DUP3 DUP2 MLOAD DUP2 LT PUSH2 0x538 JUMPI PUSH2 0x537 PUSH2 0x1724 JUMP JUMPDEST JUMPDEST PUSH1 0x20 MUL PUSH1 0x20 ADD ADD DUP2 DUP2 MSTORE POP POP DUP7 PUSH1 0x1 DUP3 PUSH2 0x552 SWAP2 SWAP1 PUSH2 0x177E JUMP JUMPDEST DUP2 MLOAD DUP2 LT PUSH2 0x563 JUMPI PUSH2 0x562 PUSH2 0x1724 JUMP JUMPDEST JUMPDEST PUSH1 0x20 MUL PUSH1 0x20 ADD ADD MLOAD DUP8 DUP3 DUP2 MLOAD DUP2 LT PUSH2 0x57E JUMPI PUSH2 0x57D PUSH2 0x1724 JUMP JUMPDEST JUMPDEST PUSH1 0x20 MUL PUSH1 0x20 ADD ADD DUP2 DUP2 MSTORE POP POP DUP1 DUP1 PUSH2 0x595 SWAP1 PUSH2 0x17B1 JUMP JUMPDEST SWAP2 POP POP PUSH2 0x4F6 JUMP JUMPDEST POP DUP3 PUSH0 ADD SLOAD DUP6 DUP3 DUP2 MLOAD DUP2 LT PUSH2 0x5B5 JUMPI PUSH2 0x5B4 PUSH2 0x1724 JUMP JUMPDEST JUMPDEST PUSH1 0x20 MUL PUSH1 0x20 ADD ADD DUP2 DUP2 MSTORE POP POP DUP2 DUP7 DUP3 DUP2 MLOAD DUP2 LT PUSH2 0x5D5 JUMPI PUSH2 0x5D4 PUSH2 0x1724 JUMP JUMPDEST JUMPDEST PUSH1 0x20 MUL PUSH1 0x20 ADD ADD DUP2 DUP2 MSTORE POP POP PUSH2 0x5F9 JUMP JUMPDEST DUP1 DUP1 PUSH2 0x5F1 SWAP1 PUSH2 0x17D8 JUMP JUMPDEST SWAP2 POP POP PUSH2 0x4C5 JUMP JUMPDEST POP POP POP DUP1 DUP1 PUSH2 0x607 SWAP1 PUSH2 0x17D8 JUMP JUMPDEST SWAP2 POP POP PUSH2 0x49F JUMP JUMPDEST POP DUP1 SWAP3 POP POP POP SWAP1 JUMP JUMPDEST PUSH1 0x60 PUSH0 DUP1 PUSH0 DUP1 PUSH0 DUP1 PUSH0 DUP9 DUP2 MSTORE PUSH1 0x20 ADD SWAP1 DUP2 MSTORE PUSH1 0x20 ADD PUSH0 KECCAK256 SWAP1 POP DUP1 PUSH1 0x1 ADD DUP2 PUSH1 0x5 ADD SLOAD DUP3 PUSH1 0x6 ADD SLOAD DUP4 PUSH1 0x7 ADD SLOAD DUP5 PUSH1 0x8 ADD SLOAD DUP5 DUP1 SLOAD PUSH2 0x655 SWAP1 PUSH2 0x1666 JUMP JUMPDEST DUP1 PUSH1 0x1F ADD PUSH1 0x20 DUP1 SWAP2 DIV MUL PUSH1 0x20 ADD PUSH1 0x40 MLOAD SWAP1 DUP2 ADD PUSH1 0x40 MSTORE DUP1 SWAP3 SWAP2 SWAP1 DUP2 DUP2 MSTORE PUSH1 0x20 ADD DUP3 DUP1 SLOAD PUSH2 0x681 SWAP1 PUSH2 0x1666 JUMP JUMPDEST DUP1 ISZERO PUSH2 0x6CC JUMPI DUP1 PUSH1 0x1F LT PUSH2 0x6A3 JUMPI PUSH2 0x100 DUP1 DUP4 SLOAD DIV MUL DUP4 MSTORE SWAP2 PUSH1 0x20 ADD SWAP2 PUSH2 0x6CC JUMP JUMPDEST DUP3 ADD SWAP2 SWAP1 PUSH0 MSTORE PUSH1 0x20 PUSH0 KECCAK256 SWAP1 JUMPDEST DUP2 SLOAD DUP2 MSTORE SWAP1 PUSH1 0x1 ADD SWAP1 PUSH1 0x20 ADD DUP1 DUP4 GT PUSH2 0x6AF JUMPI DUP3 SWAP1 SUB PUSH1 0x1F AND DUP3 ADD SWAP2 JUMPDEST POP POP POP POP POP SWAP5 POP SWAP6 POP SWAP6 POP SWAP6 POP SWAP6 POP SWAP6 POP POP SWAP2 SWAP4 SWAP6 SWAP1 SWAP3 SWAP5 POP JUMP JUMPDEST PUSH1 0x4 DUP2 LT PUSH2 0x72A JUMPI PUSH1 0x40 MLOAD PUSH32 0x8C379A000000000000000000000000000000000000000000000000000000000 DUP2 MSTORE PUSH1 0x4 ADD PUSH2 0x721 SWAP1 PUSH2 0x1869 JUMP JUMPDEST PUSH1 0x40 MLOAD DUP1 SWAP2 SUB SWAP1 REVERT JUMPDEST PUSH0 DUP1 PUSH0 DUP5 DUP2 MSTORE PUSH1 0x20 ADD SWAP1 DUP2 MSTORE PUSH1 0x20 ADD PUSH0 KECCAK256 SWAP1 POP DUP1 PUSH1 0x4 ADD PUSH0 SWAP1 SLOAD SWAP1 PUSH2 0x100 EXP SWAP1 DIV PUSH1 0xFF AND PUSH2 0x78D JUMPI PUSH1 0x40 MLOAD PUSH32 0x8C379A000000000000000000000000000000000000000000000000000000000 DUP2 MSTORE PUSH1 0x4 ADD PUSH2 0x784 SWAP1 PUSH2 0x18D1 JUMP JUMPDEST PUSH1 0x40 MLOAD DUP1 SWAP2 SUB SWAP1 REVERT JUMPDEST DUP1 PUSH1 0x9 ADD PUSH0 CALLER PUSH20 0xFFFFFFFFFFFFFFFFFFFFFFFFFFFFFFFFFFFFFFFF AND PUSH20 0xFFFFFFFFFFFFFFFFFFFFFFFFFFFFFFFFFFFFFFFF AND DUP2 MSTORE PUSH1 0x20 ADD SWAP1 DUP2 MSTORE PUSH1 0x20 ADD PUSH0 KECCAK256 PUSH0 SWAP1 SLOAD SWAP1 PUSH2 0x100 EXP SWAP1 DIV PUSH1 0xFF AND ISZERO PUSH2 0x819 JUMPI PUSH1 0x40 MLOAD PUSH32 0x8C379A000000000000000000000000000000000000000000000000000000000 DUP2 MSTORE PUSH1 0x4 ADD PUSH2 0x810 SWAP1 PUSH2 0x1939 JUMP JUMPDEST PUSH1 0x40 MLOAD DUP1 SWAP2 SUB SWAP1 REVERT JUMPDEST PUSH0 DUP3 SUB PUSH2 0x83E JUMPI DUP1 PUSH1 0x5 ADD PUSH0 DUP2 SLOAD DUP1 SWAP3 SWAP2 SWAP1 PUSH2 0x834 SWAP1 PUSH2 0x17D8 JUMP JUMPDEST SWAP2 SWAP1 POP SSTORE POP PUSH2 0x8AF JUMP JUMPDEST PUSH1 0x1 DUP3 SUB PUSH2 0x864 JUMPI DUP1 PUSH1 0x6 ADD PUSH0 DUP2 SLOAD DUP1 SWAP3 SWAP2 SWAP1 PUSH2 0x85A SWAP1 PUSH2 0x17D8 JUMP JUMPDEST SWAP2 SWAP1 POP SSTORE POP PUSH2 0x8AE JUMP JUMPDEST PUSH1 0x2 DUP3 SUB PUSH2 0x88A JUMPI DUP1 PUSH1 0x7 ADD PUSH0 DUP2 SLOAD DUP1 SWAP3 SWAP2 SWAP1 PUSH2 0x880 SWAP1 PUSH2 0x17D8 JUMP JUMPDEST SWAP2 SWAP1 POP SSTORE POP PUSH2 0x8AD JUMP JUMPDEST PUSH1 0x3 DUP3 SUB PUSH2 0x8AC JUMPI DUP1 PUSH1 0x8 ADD PUSH0 DUP2 SLOAD DUP1 SWAP3 SWAP2 SWAP1 PUSH2 0x8A6 SWAP1 PUSH2 0x17D8 JUMP JUMPDEST SWAP2 SWAP1 POP SSTORE POP JUMPDEST JUMPDEST JUMPDEST JUMPDEST DUP1 PUSH1 0x3 ADD PUSH0 DUP2 SLOAD DUP1 SWAP3 SWAP2 SWAP1 PUSH2 0x8C3 SWAP1 PUSH2 0x17D8 JUMP JUMPDEST SWAP2 SWAP1 POP SSTORE POP PUSH1 0x1 DUP2 PUSH1 0x9 ADD PUSH0 CALLER PUSH20 0xFFFFFFFFFFFFFFFFFFFFFFFFFFFFFFFFFFFFFFFF AND PUSH20 0xFFFFFFFFFFFFFFFFFFFFFFFFFFFFFFFFFFFFFFFF AND DUP2 MSTORE PUSH1 0x20 ADD SWAP1 DUP2 MSTORE PUSH1 0x20 ADD PUSH0 KECCAK256 PUSH0 PUSH2 0x100 EXP DUP2 SLOAD DUP2 PUSH1 0xFF MUL NOT AND SWAP1 DUP4 ISZERO ISZERO MUL OR SWAP1 SSTORE POP POP POP POP JUMP JUMPDEST PUSH1 0x60 DUP1 PUSH1 0x60 DUP1 PUSH1 0x60 DUP1 PUSH1 0x60 DUP1 PUSH0 PUSH1 0x1 SLOAD PUSH8 0xFFFFFFFFFFFFFFFF DUP2 GT ISZERO PUSH2 0x94D JUMPI PUSH2 0x94C PUSH2 0x149F JUMP JUMPDEST JUMPDEST PUSH1 0x40 MLOAD SWAP1 DUP1 DUP3 MSTORE DUP1 PUSH1 0x20 MUL PUSH1 0x20 ADD DUP3 ADD PUSH1 0x40 MSTORE DUP1 ISZERO PUSH2 0x97B JUMPI DUP2 PUSH1 0x20 ADD PUSH1 0x20 DUP3 MUL DUP1 CALLDATASIZE DUP4 CALLDATACOPY DUP1 DUP3 ADD SWAP2 POP POP SWAP1 POP JUMPDEST POP SWAP1 POP PUSH0 PUSH1 0x1 SLOAD PUSH8 0xFFFFFFFFFFFFFFFF DUP2 GT ISZERO PUSH2 0x99B JUMPI PUSH2 0x99A PUSH2 0x149F JUMP JUMPDEST JUMPDEST PUSH1 0x40 MLOAD SWAP1 DUP1 DUP3 MSTORE DUP1 PUSH1 0x20 MUL PUSH1 0x20 ADD DUP3 ADD PUSH1 0x40 MSTORE DUP1 ISZERO PUSH2 0x9CE JUMPI DUP2 PUSH1 0x20 ADD JUMPDEST PUSH1 0x60 DUP2 MSTORE PUSH1 0x20 ADD SWAP1 PUSH1 0x1 SWAP1 SUB SWAP1 DUP2 PUSH2 0x9B9 JUMPI SWAP1 POP JUMPDEST POP SWAP1 POP PUSH0 PUSH1 0x1 SLOAD PUSH8 0xFFFFFFFFFFFFFFFF DUP2 GT ISZERO PUSH2 0x9EE JUMPI PUSH2 0x9ED PUSH2 0x149F JUMP JUMPDEST JUMPDEST PUSH1 0x40 MLOAD SWAP1 DUP1 DUP3 MSTORE DUP1 PUSH1 0x20 MUL PUSH1 0x20 ADD DUP3 ADD PUSH1 0x40 MSTORE DUP1 ISZERO PUSH2 0xA21 JUMPI DUP2 PUSH1 0x20 ADD JUMPDEST PUSH1 0x60 DUP2 MSTORE PUSH1 0x20 ADD SWAP1 PUSH1 0x1 SWAP1 SUB SWAP1 DUP2 PUSH2 0xA0C JUMPI SWAP1 POP JUMPDEST POP SWAP1 POP PUSH0 PUSH1 0x1 SLOAD PUSH8 0xFFFFFFFFFFFFFFFF DUP2 GT ISZERO PUSH2 0xA41 JUMPI PUSH2 0xA40 PUSH2 0x149F JUMP JUMPDEST JUMPDEST PUSH1 0x40 MLOAD SWAP1 DUP1 DUP3 MSTORE DUP1 PUSH1 0x20 MUL PUSH1 0x20 ADD DUP3 ADD PUSH1 0x40 MSTORE DUP1 ISZERO PUSH2 0xA6F JUMPI DUP2 PUSH1 0x20 ADD PUSH1 0x20 DUP3 MUL DUP1 CALLDATASIZE DUP4 CALLDATACOPY DUP1 DUP3 ADD SWAP2 POP POP SWAP1 POP JUMPDEST POP SWAP1 POP PUSH0 PUSH1 0x1 SLOAD PUSH8 0xFFFFFFFFFFFFFFFF DUP2 GT ISZERO PUSH2 0xA8F JUMPI PUSH2 0xA8E PUSH2 0x149F JUMP JUMPDEST JUMPDEST PUSH1 0x40 MLOAD SWAP1 DUP1 DUP3 MSTORE DUP1 PUSH1 0x20 MUL PUSH1 0x20 ADD DUP3 ADD PUSH1 0x40 MSTORE DUP1 ISZERO PUSH2 0xABD JUMPI DUP2 PUSH1 0x20 ADD PUSH1 0x20 DUP3 MUL DUP1 CALLDATASIZE DUP4 CALLDATACOPY DUP1 DUP3 ADD SWAP2 POP POP SWAP1 POP JUMPDEST POP SWAP1 POP PUSH0 PUSH1 0x1 SLOAD PUSH8 0xFFFFFFFFFFFFFFFF DUP2 GT ISZERO PUSH2 0xADD JUMPI PUSH2 0xADC PUSH2 0x149F JUMP JUMPDEST JUMPDEST PUSH1 0x40 MLOAD SWAP1 DUP1 DUP3 MSTORE DUP1 PUSH1 0x20 MUL PUSH1 0x20 ADD DUP3 ADD PUSH1 0x40 MSTORE DUP1 ISZERO PUSH2 0xB0B JUMPI DUP2 PUSH1 0x20 ADD PUSH1 0x20 DUP3 MUL DUP1 CALLDATASIZE DUP4 CALLDATACOPY DUP1 DUP3 ADD SWAP2 POP POP SWAP1 POP JUMPDEST POP SWAP1 POP PUSH0 PUSH1 0x1 SLOAD PUSH8 0xFFFFFFFFFFFFFFFF DUP2 GT ISZERO PUSH2 0xB2B JUMPI PUSH2 0xB2A PUSH2 0x149F JUMP JUMPDEST JUMPDEST PUSH1 0x40 MLOAD SWAP1 DUP1 DUP3 MSTORE DUP1 PUSH1 0x20 MUL PUSH1 0x20 ADD DUP3 ADD PUSH1 0x40 MSTORE DUP1 ISZERO PUSH2 0xB59 JUMPI DUP2 PUSH1 0x20 ADD PUSH1 0x20 DUP3 MUL DUP1 CALLDATASIZE DUP4 CALLDATACOPY DUP1 DUP3 ADD SWAP2 POP POP SWAP1 POP JUMPDEST POP SWAP1 POP PUSH0 PUSH1 0x1 SLOAD PUSH8 0xFFFFFFFFFFFFFFFF DUP2 GT ISZERO PUSH2 0xB79 JUMPI PUSH2 0xB78 PUSH2 0x149F JUMP JUMPDEST JUMPDEST PUSH1 0x40 MLOAD SWAP1 DUP1 DUP3 MSTORE DUP1 PUSH1 0x20 MUL PUSH1 0x20 ADD DUP3 ADD PUSH1 0x40 MSTORE DUP1 ISZERO PUSH2 0xBA7 JUMPI DUP2 PUSH1 0x20 ADD PUSH1 0x20 DUP3 MUL DUP1 CALLDATASIZE DUP4 CALLDATACOPY DUP1 DUP3 ADD SWAP2 POP POP SWAP1 POP JUMPDEST POP SWAP1 POP PUSH0 PUSH1 0x1 SWAP1 POP JUMPDEST PUSH1 0x1 SLOAD DUP2 GT PUSH2 0xE69 JUMPI PUSH0 DUP1 PUSH0 DUP4 DUP2 MSTORE PUSH1 0x20 ADD SWAP1 DUP2 MSTORE PUSH1 0x20 ADD PUSH0 KECCAK256 SWAP1 POP DUP1 PUSH0 ADD SLOAD DUP11 PUSH1 0x1 DUP5 PUSH2 0xBDE SWAP2 SWAP1 PUSH2 0x177E JUMP JUMPDEST DUP2 MLOAD DUP2 LT PUSH2 0xBEF JUMPI PUSH2 0xBEE PUSH2 0x1724 JUMP JUMPDEST JUMPDEST PUSH1 0x20 MUL PUSH1 0x20 ADD ADD DUP2 DUP2 MSTORE POP POP DUP1 PUSH1 0x1 ADD DUP1 SLOAD PUSH2 0xC0A SWAP1 PUSH2 0x1666 JUMP JUMPDEST DUP1 PUSH1 0x1F ADD PUSH1 0x20 DUP1 SWAP2 DIV MUL PUSH1 0x20 ADD PUSH1 0x40 MLOAD SWAP1 DUP2 ADD PUSH1 0x40 MSTORE DUP1 SWAP3 SWAP2 SWAP1 DUP2 DUP2 MSTORE PUSH1 0x20 ADD DUP3 DUP1 SLOAD PUSH2 0xC36 SWAP1 PUSH2 0x1666 JUMP JUMPDEST DUP1 ISZERO PUSH2 0xC81 JUMPI DUP1 PUSH1 0x1F LT PUSH2 0xC58 JUMPI PUSH2 0x100 DUP1 DUP4 SLOAD DIV MUL DUP4 MSTORE SWAP2 PUSH1 0x20 ADD SWAP2 PUSH2 0xC81 JUMP JUMPDEST DUP3 ADD SWAP2 SWAP1 PUSH0 MSTORE PUSH1 0x20 PUSH0 KECCAK256 SWAP1 JUMPDEST DUP2 SLOAD DUP2 MSTORE SWAP1 PUSH1 0x1 ADD SWAP1 PUSH1 0x20 ADD DUP1 DUP4 GT PUSH2 0xC64 JUMPI DUP3 SWAP1 SUB PUSH1 0x1F AND DUP3 ADD SWAP2 JUMPDEST POP POP POP POP POP DUP10 PUSH1 0x1 DUP5 PUSH2 0xC94 SWAP2 SWAP1 PUSH2 0x177E JUMP JUMPDEST DUP2 MLOAD DUP2 LT PUSH2 0xCA5 JUMPI PUSH2 0xCA4 PUSH2 0x1724 JUMP JUMPDEST JUMPDEST PUSH1 0x20 MUL PUSH1 0x20 ADD ADD DUP2 SWAP1 MSTORE POP DUP1 PUSH1 0x2 ADD DUP1 SLOAD PUSH2 0xCBF SWAP1 PUSH2 0x1666 JUMP JUMPDEST DUP1 PUSH1 0x1F ADD PUSH1 0x20 DUP1 SWAP2 DIV MUL PUSH1 0x20 ADD PUSH1 0x40 MLOAD SWAP1 DUP2 ADD PUSH1 0x40 MSTORE DUP1 SWAP3 SWAP2 SWAP1 DUP2 DUP2 MSTORE PUSH1 0x20 ADD DUP3 DUP1 SLOAD PUSH2 0xCEB SWAP1 PUSH2 0x1666 JUMP JUMPDEST DUP1 ISZERO PUSH2 0xD36 JUMPI DUP1 PUSH1 0x1F LT PUSH2 0xD0D JUMPI PUSH2 0x100 DUP1 DUP4 SLOAD DIV MUL DUP4 MSTORE SWAP2 PUSH1 0x20 ADD SWAP2 PUSH2 0xD36 JUMP JUMPDEST DUP3 ADD SWAP2 SWAP1 PUSH0 MSTORE PUSH1 0x20 PUSH0 KECCAK256 SWAP1 JUMPDEST DUP2 SLOAD DUP2 MSTORE SWAP1 PUSH1 0x1 ADD SWAP1 PUSH1 0x20 ADD DUP1 DUP4 GT PUSH2 0xD19 JUMPI DUP3 SWAP1 SUB PUSH1 0x1F AND DUP3 ADD SWAP2 JUMPDEST POP POP POP POP POP DUP9 PUSH1 0x1 DUP5 PUSH2 0xD49 SWAP2 SWAP1 PUSH2 0x177E JUMP JUMPDEST DUP2 MLOAD DUP2 LT PUSH2 0xD5A JUMPI PUSH2 0xD59 PUSH2 0x1724 JUMP JUMPDEST JUMPDEST PUSH1 0x20 MUL PUSH1 0x20 ADD ADD DUP2 SWAP1 MSTORE POP DUP1 PUSH1 0x5 ADD SLOAD DUP8 PUSH1 0x1 DUP5 PUSH2 0xD78 SWAP2 SWAP1 PUSH2 0x177E JUMP JUMPDEST DUP2 MLOAD DUP2 LT PUSH2 0xD89 JUMPI PUSH2 0xD88 PUSH2 0x1724 JUMP JUMPDEST JUMPDEST PUSH1 0x20 MUL PUSH1 0x20 ADD ADD DUP2 DUP2 MSTORE POP POP DUP1 PUSH1 0x6 ADD SLOAD DUP7 PUSH1 0x1 DUP5 PUSH2 0xDA8 SWAP2 SWAP1 PUSH2 0x177E JUMP JUMPDEST DUP2 MLOAD DUP2 LT PUSH2 0xDB9 JUMPI PUSH2 0xDB8 PUSH2 0x1724 JUMP JUMPDEST JUMPDEST PUSH1 0x20 MUL PUSH1 0x20 ADD ADD DUP2 DUP2 MSTORE POP POP DUP1 PUSH1 0x7 ADD SLOAD DUP6 PUSH1 0x1 DUP5 PUSH2 0xDD8 SWAP2 SWAP1 PUSH2 0x177E JUMP JUMPDEST DUP2 MLOAD DUP2 LT PUSH2 0xDE9 JUMPI PUSH2 0xDE8 PUSH2 0x1724 JUMP JUMPDEST JUMPDEST PUSH1 0x20 MUL PUSH1 0x20 ADD ADD DUP2 DUP2 MSTORE POP POP DUP1 PUSH1 0x8 ADD SLOAD DUP5 PUSH1 0x1 DUP5 PUSH2 0xE08 SWAP2 SWAP1 PUSH2 0x177E JUMP JUMPDEST DUP2 MLOAD DUP2 LT PUSH2 0xE19 JUMPI PUSH2 0xE18 PUSH2 0x1724 JUMP JUMPDEST JUMPDEST PUSH1 0x20 MUL PUSH1 0x20 ADD ADD DUP2 DUP2 MSTORE POP POP DUP1 PUSH1 0x3 ADD SLOAD DUP4 PUSH1 0x1 DUP5 PUSH2 0xE38 SWAP2 SWAP1 PUSH2 0x177E JUMP JUMPDEST DUP2 MLOAD DUP2 LT PUSH2 0xE49 JUMPI PUSH2 0xE48 PUSH2 0x1724 JUMP JUMPDEST JUMPDEST PUSH1 0x20 MUL PUSH1 0x20 ADD ADD DUP2 DUP2 MSTORE POP POP POP DUP1 DUP1 PUSH2 0xE61 SWAP1 PUSH2 0x17D8 JUMP JUMPDEST SWAP2 POP POP PUSH2 0xBB0 JUMP JUMPDEST POP DUP8 DUP8 DUP8 DUP8 DUP8 DUP8 DUP8 DUP8 SWAP16 POP SWAP16 POP SWAP16 POP SWAP16 POP SWAP16 POP SWAP16 POP SWAP16 POP SWAP16 POP POP POP POP POP POP POP POP POP SWAP1 SWAP2 SWAP3 SWAP4 SWAP5 SWAP6 SWAP7 SWAP8 JUMP JUMPDEST PUSH1 0x1 PUSH0 DUP2 SLOAD DUP1 SWAP3 SWAP2 SWAP1 PUSH2 0xEA6 SWAP1 PUSH2 0x17D8 JUMP JUMPDEST SWAP2 SWAP1 POP SSTORE POP PUSH0 DUP1 PUSH0 PUSH1 0x1 SLOAD DUP2 MSTORE PUSH1 0x20 ADD SWAP1 DUP2 MSTORE PUSH1 0x20 ADD PUSH0 KECCAK256 SWAP1 POP PUSH1 0x1 SLOAD DUP2 PUSH0 ADD DUP2 SWAP1 SSTORE POP DUP3 DUP2 PUSH1 0x1 ADD SWAP1 DUP2 PUSH2 0xEDB SWAP2 SWAP1 PUSH2 0x1AF4 JUMP JUMPDEST POP DUP2 DUP2 PUSH1 0x2 ADD SWAP1 DUP2 PUSH2 0xEED SWAP2 SWAP1 PUSH2 0x1AF4 JUMP JUMPDEST POP PUSH1 0x1 DUP2 PUSH1 0x4 ADD PUSH0 PUSH2 0x100 EXP DUP2 SLOAD DUP2 PUSH1 0xFF MUL NOT AND SWAP1 DUP4 ISZERO ISZERO MUL OR SWAP1 SSTORE POP CALLER DUP2 PUSH1 0xA ADD PUSH0 PUSH2 0x100 EXP DUP2 SLOAD DUP2 PUSH20 0xFFFFFFFFFFFFFFFFFFFFFFFFFFFFFFFFFFFFFFFF MUL NOT AND SWAP1 DUP4 PUSH20 0xFFFFFFFFFFFFFFFFFFFFFFFFFFFFFFFFFFFFFFFF AND MUL OR SWAP1 SSTORE POP POP POP POP JUMP JUMPDEST PUSH0 PUSH1 0x40 MLOAD SWAP1 POP SWAP1 JUMP JUMPDEST PUSH0 DUP1 REVERT JUMPDEST PUSH0 DUP1 REVERT JUMPDEST PUSH0 DUP2 SWAP1 POP SWAP2 SWAP1 POP JUMP JUMPDEST PUSH2 0xF74 DUP2 PUSH2 0xF62 JUMP JUMPDEST DUP2 EQ PUSH2 0xF7E JUMPI PUSH0 DUP1 REVERT JUMPDEST POP JUMP JUMPDEST PUSH0 DUP2 CALLDATALOAD SWAP1 POP PUSH2 0xF8F DUP2 PUSH2 0xF6B JUMP JUMPDEST SWAP3 SWAP2 POP POP JUMP JUMPDEST PUSH0 PUSH1 0x20 DUP3 DUP5 SUB SLT ISZERO PUSH2 0xFAA JUMPI PUSH2 0xFA9 PUSH2 0xF5A JUMP JUMPDEST JUMPDEST PUSH0 PUSH2 0xFB7 DUP5 DUP3 DUP6 ADD PUSH2 0xF81 JUMP JUMPDEST SWAP2 POP POP SWAP3 SWAP2 POP POP JUMP JUMPDEST PUSH2 0xFC9 DUP2 PUSH2 0xF62 JUMP JUMPDEST DUP3 MSTORE POP POP JUMP JUMPDEST PUSH0 DUP2 MLOAD SWAP1 POP SWAP2 SWAP1 POP JUMP JUMPDEST PUSH0 DUP3 DUP3 MSTORE PUSH1 0x20 DUP3 ADD SWAP1 POP SWAP3 SWAP2 POP POP JUMP JUMPDEST PUSH0 JUMPDEST DUP4 DUP2 LT ISZERO PUSH2 0x1006 JUMPI DUP1 DUP3 ADD MLOAD DUP2 DUP5 ADD MSTORE PUSH1 0x20 DUP2 ADD SWAP1 POP PUSH2 0xFEB JUMP JUMPDEST PUSH0 DUP5 DUP5 ADD MSTORE POP POP POP POP JUMP JUMPDEST PUSH0 PUSH1 0x1F NOT PUSH1 0x1F DUP4 ADD AND SWAP1 POP SWAP2 SWAP1 POP JUMP JUMPDEST PUSH0 PUSH2 0x102B DUP3 PUSH2 0xFCF JUMP JUMPDEST PUSH2 0x1035 DUP2 DUP6 PUSH2 0xFD9 JUMP JUMPDEST SWAP4 POP PUSH2 0x1045 DUP2 DUP6 PUSH1 0x20 DUP7 ADD PUSH2 0xFE9 JUMP JUMPDEST PUSH2 0x104E DUP2 PUSH2 0x1011 JUMP JUMPDEST DUP5 ADD SWAP2 POP POP SWAP3 SWAP2 POP POP JUMP JUMPDEST PUSH0 DUP2 ISZERO ISZERO SWAP1 POP SWAP2 SWAP1 POP JUMP JUMPDEST PUSH2 0x106D DUP2 PUSH2 0x1059 JUMP JUMPDEST DUP3 MSTORE POP POP JUMP JUMPDEST PUSH0 PUSH20 0xFFFFFFFFFFFFFFFFFFFFFFFFFFFFFFFFFFFFFFFF DUP3 AND SWAP1 POP SWAP2 SWAP1 POP JUMP JUMPDEST PUSH0 PUSH2 0x109C DUP3 PUSH2 0x1073 JUMP JUMPDEST SWAP1 POP SWAP2 SWAP1 POP JUMP JUMPDEST PUSH2 0x10AC DUP2 PUSH2 0x1092 JUMP JUMPDEST DUP3 MSTORE POP POP JUMP JUMPDEST PUSH0 PUSH2 0x140 DUP3 ADD SWAP1 POP PUSH2 0x10C6 PUSH0 DUP4 ADD DUP14 PUSH2 0xFC0 JUMP JUMPDEST DUP2 DUP2 SUB PUSH1 0x20 DUP4 ADD MSTORE PUSH2 0x10D8 DUP2 DUP13 PUSH2 0x1021 JUMP JUMPDEST SWAP1 POP DUP2 DUP2 SUB PUSH1 0x40 DUP4 ADD MSTORE PUSH2 0x10EC DUP2 DUP12 PUSH2 0x1021 JUMP JUMPDEST SWAP1 POP PUSH2 0x10FB PUSH1 0x60 DUP4 ADD DUP11 PUSH2 0xFC0 JUMP JUMPDEST PUSH2 0x1108 PUSH1 0x80 DUP4 ADD DUP10 PUSH2 0x1064 JUMP JUMPDEST PUSH2 0x1115 PUSH1 0xA0 DUP4 ADD DUP9 PUSH2 0xFC0 JUMP JUMPDEST PUSH2 0x1122 PUSH1 0xC0 DUP4 ADD DUP8 PUSH2 0xFC0 JUMP JUMPDEST PUSH2 0x112F PUSH1 0xE0 DUP4 ADD DUP7 PUSH2 0xFC0 JUMP JUMPDEST PUSH2 0x113D PUSH2 0x100 DUP4 ADD DUP6 PUSH2 0xFC0 JUMP JUMPDEST PUSH2 0x114B PUSH2 0x120 DUP4 ADD DUP5 PUSH2 0x10A3 JUMP JUMPDEST SWAP12 SWAP11 POP POP POP POP POP POP POP POP POP POP POP JUMP JUMPDEST PUSH0 PUSH1 0x20 DUP3 ADD SWAP1 POP PUSH2 0x116D PUSH0 DUP4 ADD DUP5 PUSH2 0xFC0 JUMP JUMPDEST SWAP3 SWAP2 POP POP JUMP JUMPDEST PUSH0 DUP2 MLOAD SWAP1 POP SWAP2 SWAP1 POP JUMP JUMPDEST PUSH0 DUP3 DUP3 MSTORE PUSH1 0x20 DUP3 ADD SWAP1 POP SWAP3 SWAP2 POP POP JUMP JUMPDEST PUSH0 DUP2 SWAP1 POP PUSH1 0x20 DUP3 ADD SWAP1 POP SWAP2 SWAP1 POP JUMP JUMPDEST PUSH2 0x11A5 DUP2 PUSH2 0xF62 JUMP JUMPDEST DUP3 MSTORE POP POP JUMP JUMPDEST PUSH0 PUSH2 0x11B6 DUP4 DUP4 PUSH2 0x119C JUMP JUMPDEST PUSH1 0x20 DUP4 ADD SWAP1 POP SWAP3 SWAP2 POP POP JUMP JUMPDEST PUSH0 PUSH1 0x20 DUP3 ADD SWAP1 POP SWAP2 SWAP1 POP JUMP JUMPDEST PUSH0 PUSH2 0x11D8 DUP3 PUSH2 0x1173 JUMP JUMPDEST PUSH2 0x11E2 DUP2 DUP6 PUSH2 0x117D JUMP JUMPDEST SWAP4 POP PUSH2 0x11ED DUP4 PUSH2 0x118D JUMP JUMPDEST DUP1 PUSH0 JUMPDEST DUP4 DUP2 LT ISZERO PUSH2 0x121D JUMPI DUP2 MLOAD PUSH2 0x1204 DUP9 DUP3 PUSH2 0x11AB JUMP JUMPDEST SWAP8 POP PUSH2 0x120F DUP4 PUSH2 0x11C2 JUMP JUMPDEST SWAP3 POP POP PUSH1 0x1 DUP2 ADD SWAP1 POP PUSH2 0x11F0 JUMP JUMPDEST POP DUP6 SWAP4 POP POP POP POP SWAP3 SWAP2 POP POP JUMP JUMPDEST PUSH0 PUSH1 0x20 DUP3 ADD SWAP1 POP DUP2 DUP2 SUB PUSH0 DUP4 ADD MSTORE PUSH2 0x1242 DUP2 DUP5 PUSH2 0x11CE JUMP JUMPDEST SWAP1 POP SWAP3 SWAP2 POP POP JUMP JUMPDEST PUSH0 PUSH1 0xA0 DUP3 ADD SWAP1 POP DUP2 DUP2 SUB PUSH0 DUP4 ADD MSTORE PUSH2 0x1262 DUP2 DUP9 PUSH2 0x1021 JUMP JUMPDEST SWAP1 POP PUSH2 0x1271 PUSH1 0x20 DUP4 ADD DUP8 PUSH2 0xFC0 JUMP JUMPDEST PUSH2 0x127E PUSH1 0x40 DUP4 ADD DUP7 PUSH2 0xFC0 JUMP JUMPDEST PUSH2 0x128B PUSH1 0x60 DUP4 ADD DUP6 PUSH2 0xFC0 JUMP JUMPDEST PUSH2 0x1298 PUSH1 0x80 DUP4 ADD DUP5 PUSH2 0xFC0 JUMP JUMPDEST SWAP7 SWAP6 POP POP POP POP POP POP JUMP JUMPDEST PUSH0 DUP1 PUSH1 0x40 DUP4 DUP6 SUB SLT ISZERO PUSH2 0x12B8 JUMPI PUSH2 0x12B7 PUSH2 0xF5A JUMP JUMPDEST JUMPDEST PUSH0 PUSH2 0x12C5 DUP6 DUP3 DUP7 ADD PUSH2 0xF81 JUMP JUMPDEST SWAP3 POP POP PUSH1 0x20 PUSH2 0x12D6 DUP6 DUP3 DUP7 ADD PUSH2 0xF81 JUMP JUMPDEST SWAP2 POP POP SWAP3 POP SWAP3 SWAP1 POP JUMP JUMPDEST PUSH0 DUP2 MLOAD SWAP1 POP SWAP2 SWAP1 POP JUMP JUMPDEST PUSH0 DUP3 DUP3 MSTORE PUSH1 0x20 DUP3 ADD SWAP1 POP SWAP3 SWAP2 POP POP JUMP JUMPDEST PUSH0 DUP2 SWAP1 POP PUSH1 0x20 DUP3 ADD SWAP1 POP SWAP2 SWAP1 POP JUMP JUMPDEST PUSH0 DUP3 DUP3 MSTORE PUSH1 0x20 DUP3 ADD SWAP1 POP SWAP3 SWAP2 POP POP JUMP JUMPDEST PUSH0 PUSH2 0x1323 DUP3 PUSH2 0xFCF JUMP JUMPDEST PUSH2 0x132D DUP2 DUP6 PUSH2 0x1309 JUMP JUMPDEST SWAP4 POP PUSH2 0x133D DUP2 DUP6 PUSH1 0x20 DUP7 ADD PUSH2 0xFE9 JUMP JUMPDEST PUSH2 0x1346 DUP2 PUSH2 0x1011 JUMP JUMPDEST DUP5 ADD SWAP2 POP POP SWAP3 SWAP2 POP POP JUMP JUMPDEST PUSH0 PUSH2 0x135C DUP4 DUP4 PUSH2 0x1319 JUMP JUMPDEST SWAP1 POP SWAP3 SWAP2 POP POP JUMP JUMPDEST PUSH0 PUSH1 0x20 DUP3 ADD SWAP1 POP SWAP2 SWAP1 POP JUMP JUMPDEST PUSH0 PUSH2 0x137A DUP3 PUSH2 0x12E0 JUMP JUMPDEST PUSH2 0x1384 DUP2 DUP6 PUSH2 0x12EA JUMP JUMPDEST SWAP4 POP DUP4 PUSH1 0x20 DUP3 MUL DUP6 ADD PUSH2 0x1396 DUP6 PUSH2 0x12FA JUMP JUMPDEST DUP1 PUSH0 JUMPDEST DUP6 DUP2 LT ISZERO PUSH2 0x13D1 JUMPI DUP5 DUP5 SUB DUP10 MSTORE DUP2 MLOAD PUSH2 0x13B2 DUP6 DUP3 PUSH2 0x1351 JUMP JUMPDEST SWAP5 POP PUSH2 0x13BD DUP4 PUSH2 0x1364 JUMP JUMPDEST SWAP3 POP PUSH1 0x20 DUP11 ADD SWAP10 POP POP PUSH1 0x1 DUP2 ADD SWAP1 POP PUSH2 0x1399 JUMP JUMPDEST POP DUP3 SWAP8 POP DUP8 SWAP6 POP POP POP POP POP POP SWAP3 SWAP2 POP POP JUMP JUMPDEST PUSH0 PUSH2 0x100 DUP3 ADD SWAP1 POP DUP2 DUP2 SUB PUSH0 DUP4 ADD MSTORE PUSH2 0x13FC DUP2 DUP12 PUSH2 0x11CE JUMP JUMPDEST SWAP1 POP DUP2 DUP2 SUB PUSH1 0x20 DUP4 ADD MSTORE PUSH2 0x1410 DUP2 DUP11 PUSH2 0x1370 JUMP JUMPDEST SWAP1 POP DUP2 DUP2 SUB PUSH1 0x40 DUP4 ADD MSTORE PUSH2 0x1424 DUP2 DUP10 PUSH2 0x1370 JUMP JUMPDEST SWAP1 POP DUP2 DUP2 SUB PUSH1 0x60 DUP4 ADD MSTORE PUSH2 0x1438 DUP2 DUP9 PUSH2 0x11CE JUMP JUMPDEST SWAP1 POP DUP2 DUP2 SUB PUSH1 0x80 DUP4 ADD MSTORE PUSH2 0x144C DUP2 DUP8 PUSH2 0x11CE JUMP JUMPDEST SWAP1 POP DUP2 DUP2 SUB PUSH1 0xA0 DUP4 ADD MSTORE PUSH2 0x1460 DUP2 DUP7 PUSH2 0x11CE JUMP JUMPDEST SWAP1 POP DUP2 DUP2 SUB PUSH1 0xC0 DUP4 ADD MSTORE PUSH2 0x1474 DUP2 DUP6 PUSH2 0x11CE JUMP JUMPDEST SWAP1 POP DUP2 DUP2 SUB PUSH1 0xE0 DUP4 ADD MSTORE PUSH2 0x1488 DUP2 DUP5 PUSH2 0x11CE JUMP JUMPDEST SWAP1 POP SWAP10 SWAP9 POP POP POP POP POP POP POP POP POP JUMP JUMPDEST PUSH0 DUP1 REVERT JUMPDEST PUSH0 DUP1 REVERT JUMPDEST PUSH32 0x4E487B7100000000000000000000000000000000000000000000000000000000 PUSH0 MSTORE PUSH1 0x41 PUSH1 0x4 MSTORE PUSH1 0x24 PUSH0 REVERT JUMPDEST PUSH2 0x14D5 DUP3 PUSH2 0x1011 JUMP JUMPDEST DUP2 ADD DUP2 DUP2 LT PUSH8 0xFFFFFFFFFFFFFFFF DUP3 GT OR ISZERO PUSH2 0x14F4 JUMPI PUSH2 0x14F3 PUSH2 0x149F JUMP JUMPDEST JUMPDEST DUP1 PUSH1 0x40 MSTORE POP POP POP JUMP JUMPDEST PUSH0 PUSH2 0x1506 PUSH2 0xF51 JUMP JUMPDEST SWAP1 POP PUSH2 0x1512 DUP3 DUP3 PUSH2 0x14CC JUMP JUMPDEST SWAP2 SWAP1 POP JUMP JUMPDEST PUSH0 PUSH8 0xFFFFFFFFFFFFFFFF DUP3 GT ISZERO PUSH2 0x1531 JUMPI PUSH2 0x1530 PUSH2 0x149F JUMP JUMPDEST JUMPDEST PUSH2 0x153A DUP3 PUSH2 0x1011 JUMP JUMPDEST SWAP1 POP PUSH1 0x20 DUP2 ADD SWAP1 POP SWAP2 SWAP1 POP JUMP JUMPDEST DUP3 DUP2 DUP4 CALLDATACOPY PUSH0 DUP4 DUP4 ADD MSTORE POP POP POP JUMP JUMPDEST PUSH0 PUSH2 0x1567 PUSH2 0x1562 DUP5 PUSH2 0x1517 JUMP JUMPDEST PUSH2 0x14FD JUMP JUMPDEST SWAP1 POP DUP3 DUP2 MSTORE PUSH1 0x20 DUP2 ADD DUP5 DUP5 DUP5 ADD GT ISZERO PUSH2 0x1583 JUMPI PUSH2 0x1582 PUSH2 0x149B JUMP JUMPDEST JUMPDEST PUSH2 0x158E DUP5 DUP3 DUP6 PUSH2 0x1547 JUMP JUMPDEST POP SWAP4 SWAP3 POP POP POP JUMP JUMPDEST PUSH0 DUP3 PUSH1 0x1F DUP4 ADD SLT PUSH2 0x15AA JUMPI PUSH2 0x15A9 PUSH2 0x1497 JUMP JUMPDEST JUMPDEST DUP2 CALLDATALOAD PUSH2 0x15BA DUP5 DUP3 PUSH1 0x20 DUP7 ADD PUSH2 0x1555 JUMP JUMPDEST SWAP2 POP POP SWAP3 SWAP2 POP POP JUMP JUMPDEST PUSH0 DUP1 PUSH1 0x40 DUP4 DUP6 SUB SLT ISZERO PUSH2 0x15D9 JUMPI PUSH2 0x15D8 PUSH2 0xF5A JUMP JUMPDEST JUMPDEST PUSH0 DUP4 ADD CALLDATALOAD PUSH8 0xFFFFFFFFFFFFFFFF DUP2 GT ISZERO PUSH2 0x15F6 JUMPI PUSH2 0x15F5 PUSH2 0xF5E JUMP JUMPDEST JUMPDEST PUSH2 0x1602 DUP6 DUP3 DUP7 ADD PUSH2 0x1596 JUMP JUMPDEST SWAP3 POP POP PUSH1 0x20 DUP4 ADD CALLDATALOAD PUSH8 0xFFFFFFFFFFFFFFFF DUP2 GT ISZERO PUSH2 0x1623 JUMPI PUSH2 0x1622 PUSH2 0xF5E JUMP JUMPDEST JUMPDEST PUSH2 0x162F DUP6 DUP3 DUP7 ADD PUSH2 0x1596 JUMP JUMPDEST SWAP2 POP POP SWAP3 POP SWAP3 SWAP1 POP JUMP JUMPDEST PUSH32 0x4E487B7100000000000000000000000000000000000000000000000000000000 PUSH0 MSTORE PUSH1 0x22 PUSH1 0x4 MSTORE PUSH1 0x24 PUSH0 REVERT JUMPDEST PUSH0 PUSH1 0x2 DUP3 DIV SWAP1 POP PUSH1 0x1 DUP3 AND DUP1 PUSH2 0x167D JUMPI PUSH1 0x7F DUP3 AND SWAP2 POP JUMPDEST PUSH1 0x20 DUP3 LT DUP2 SUB PUSH2 0x1690 JUMPI PUSH2 0x168F PUSH2 0x1639 JUMP JUMPDEST JUMPDEST POP SWAP2 SWAP1 POP JUMP JUMPDEST PUSH32 0x4F6E6C7920746865206F7267616E697A65722063616E20656E64207468697320 PUSH0 DUP3 ADD MSTORE PUSH32 0x6576656E742E0000000000000000000000000000000000000000000000000000 PUSH1 0x20 DUP3 ADD MSTORE POP JUMP JUMPDEST PUSH0 PUSH2 0x16F0 PUSH1 0x26 DUP4 PUSH2 0xFD9 JUMP JUMPDEST SWAP2 POP PUSH2 0x16FB DUP3 PUSH2 0x1696 JUMP JUMPDEST PUSH1 0x40 DUP3 ADD SWAP1 POP SWAP2 SWAP1 POP JUMP JUMPDEST PUSH0 PUSH1 0x20 DUP3 ADD SWAP1 POP DUP2 DUP2 SUB PUSH0 DUP4 ADD MSTORE PUSH2 0x171D DUP2 PUSH2 0x16E4 JUMP JUMPDEST SWAP1 POP SWAP2 SWAP1 POP JUMP JUMPDEST PUSH32 0x4E487B7100000000000000000000000000000000000000000000000000000000 PUSH0 MSTORE PUSH1 0x32 PUSH1 0x4 MSTORE PUSH1 0x24 PUSH0 REVERT JUMPDEST PUSH32 0x4E487B7100000000000000000000000000000000000000000000000000000000 PUSH0 MSTORE PUSH1 0x11 PUSH1 0x4 MSTORE PUSH1 0x24 PUSH0 REVERT JUMPDEST PUSH0 PUSH2 0x1788 DUP3 PUSH2 0xF62 JUMP JUMPDEST SWAP2 POP PUSH2 0x1793 DUP4 PUSH2 0xF62 JUMP JUMPDEST SWAP3 POP DUP3 DUP3 SUB SWAP1 POP DUP2 DUP2 GT ISZERO PUSH2 0x17AB JUMPI PUSH2 0x17AA PUSH2 0x1751 JUMP JUMPDEST JUMPDEST SWAP3 SWAP2 POP POP JUMP JUMPDEST PUSH0 PUSH2 0x17BB DUP3 PUSH2 0xF62 JUMP JUMPDEST SWAP2 POP PUSH0 DUP3 SUB PUSH2 0x17CD JUMPI PUSH2 0x17CC PUSH2 0x1751 JUMP JUMPDEST JUMPDEST PUSH1 0x1 DUP3 SUB SWAP1 POP SWAP2 SWAP1 POP JUMP JUMPDEST PUSH0 PUSH2 0x17E2 DUP3 PUSH2 0xF62 JUMP JUMPDEST SWAP2 POP PUSH32 0xFFFFFFFFFFFFFFFFFFFFFFFFFFFFFFFFFFFFFFFFFFFFFFFFFFFFFFFFFFFFFFFF DUP3 SUB PUSH2 0x1814 JUMPI PUSH2 0x1813 PUSH2 0x1751 JUMP JUMPDEST JUMPDEST PUSH1 0x1 DUP3 ADD SWAP1 POP SWAP2 SWAP1 POP JUMP JUMPDEST PUSH32 0x496E76616C6964206F7074696F6E20696E6465782E0000000000000000000000 PUSH0 DUP3 ADD MSTORE POP JUMP JUMPDEST PUSH0 PUSH2 0x1853 PUSH1 0x15 DUP4 PUSH2 0xFD9 JUMP JUMPDEST SWAP2 POP PUSH2 0x185E DUP3 PUSH2 0x181F JUMP JUMPDEST PUSH1 0x20 DUP3 ADD SWAP1 POP SWAP2 SWAP1 POP JUMP JUMPDEST PUSH0 PUSH1 0x20 DUP3 ADD SWAP1 POP DUP2 DUP2 SUB PUSH0 DUP4 ADD MSTORE PUSH2 0x1880 DUP2 PUSH2 0x1847 JUMP JUMPDEST SWAP1 POP SWAP2 SWAP1 POP JUMP JUMPDEST PUSH32 0x4576656E74206973206E6F74206163746976652E000000000000000000000000 PUSH0 DUP3 ADD MSTORE POP JUMP JUMPDEST PUSH0 PUSH2 0x18BB PUSH1 0x14 DUP4 PUSH2 0xFD9 JUMP JUMPDEST SWAP2 POP PUSH2 0x18C6 DUP3 PUSH2 0x1887 JUMP JUMPDEST PUSH1 0x20 DUP3 ADD SWAP1 POP SWAP2 SWAP1 POP JUMP JUMPDEST PUSH0 PUSH1 0x20 DUP3 ADD SWAP1 POP DUP2 DUP2 SUB PUSH0 DUP4 ADD MSTORE PUSH2 0x18E8 DUP2 PUSH2 0x18AF JUMP JUMPDEST SWAP1 POP SWAP2 SWAP1 POP JUMP JUMPDEST PUSH32 0x596F75206861766520616C726561647920766F7465642E000000000000000000 PUSH0 DUP3 ADD MSTORE POP JUMP JUMPDEST PUSH0 PUSH2 0x1923 PUSH1 0x17 DUP4 PUSH2 0xFD9 JUMP JUMPDEST SWAP2 POP PUSH2 0x192E DUP3 PUSH2 0x18EF JUMP JUMPDEST PUSH1 0x20 DUP3 ADD SWAP1 POP SWAP2 SWAP1 POP JUMP JUMPDEST PUSH0 PUSH1 0x20 DUP3 ADD SWAP1 POP DUP2 DUP2 SUB PUSH0 DUP4 ADD MSTORE PUSH2 0x1950 DUP2 PUSH2 0x1917 JUMP JUMPDEST SWAP1 POP SWAP2 SWAP1 POP JUMP JUMPDEST PUSH0 DUP2 SWAP1 POP DUP2 PUSH0 MSTORE PUSH1 0x20 PUSH0 KECCAK256 SWAP1 POP SWAP2 SWAP1 POP JUMP JUMPDEST PUSH0 PUSH1 0x20 PUSH1 0x1F DUP4 ADD DIV SWAP1 POP SWAP2 SWAP1 POP JUMP JUMPDEST PUSH0 DUP3 DUP3 SHL SWAP1 POP SWAP3 SWAP2 POP POP JUMP JUMPDEST PUSH0 PUSH1 0x8 DUP4 MUL PUSH2 0x19B3 PUSH32 0xFFFFFFFFFFFFFFFFFFFFFFFFFFFFFFFFFFFFFFFFFFFFFFFFFFFFFFFFFFFFFFFF DUP3 PUSH2 0x1978 JUMP JUMPDEST PUSH2 0x19BD DUP7 DUP4 PUSH2 0x1978 JUMP JUMPDEST SWAP6 POP DUP1 NOT DUP5 AND SWAP4 POP DUP1 DUP7 AND DUP5 OR SWAP3 POP POP POP SWAP4 SWAP3 POP POP POP JUMP JUMPDEST PUSH0 DUP2 SWAP1 POP SWAP2 SWAP1 POP JUMP JUMPDEST PUSH0 PUSH2 0x19F8 PUSH2 0x19F3 PUSH2 0x19EE DUP5 PUSH2 0xF62 JUMP JUMPDEST PUSH2 0x19D5 JUMP JUMPDEST PUSH2 0xF62 JUMP JUMPDEST SWAP1 POP SWAP2 SWAP1 POP JUMP JUMPDEST PUSH0 DUP2 SWAP1 POP SWAP2 SWAP1 POP JUMP JUMPDEST PUSH2 0x1A11 DUP4 PUSH2 0x19DE JUMP JUMPDEST PUSH2 0x1A25 PUSH2 0x1A1D DUP3 PUSH2 0x19FF JUMP JUMPDEST DUP5 DUP5 SLOAD PUSH2 0x1984 JUMP JUMPDEST DUP3 SSTORE POP POP POP POP JUMP JUMPDEST PUSH0 SWAP1 JUMP JUMPDEST PUSH2 0x1A39 PUSH2 0x1A2D JUMP JUMPDEST PUSH2 0x1A44 DUP2 DUP5 DUP5 PUSH2 0x1A08 JUMP JUMPDEST POP POP POP JUMP JUMPDEST JUMPDEST DUP2 DUP2 LT ISZERO PUSH2 0x1A67 JUMPI PUSH2 0x1A5C PUSH0 DUP3 PUSH2 0x1A31 JUMP JUMPDEST PUSH1 0x1 DUP2 ADD SWAP1 POP PUSH2 0x1A4A JUMP JUMPDEST POP POP JUMP JUMPDEST PUSH1 0x1F DUP3 GT ISZERO PUSH2 0x1AAC JUMPI PUSH2 0x1A7D DUP2 PUSH2 0x1957 JUMP JUMPDEST PUSH2 0x1A86 DUP5 PUSH2 0x1969 JUMP JUMPDEST DUP2 ADD PUSH1 0x20 DUP6 LT ISZERO PUSH2 0x1A95 JUMPI DUP2 SWAP1 POP JUMPDEST PUSH2 0x1AA9 PUSH2 0x1AA1 DUP6 PUSH2 0x1969 JUMP JUMPDEST DUP4 ADD DUP3 PUSH2 0x1A49 JUMP JUMPDEST POP POP JUMPDEST POP POP POP JUMP JUMPDEST PUSH0 DUP3 DUP3 SHR SWAP1 POP SWAP3 SWAP2 POP POP JUMP JUMPDEST PUSH0 PUSH2 0x1ACC PUSH0 NOT DUP5 PUSH1 0x8 MUL PUSH2 0x1AB1 JUMP JUMPDEST NOT DUP1 DUP4 AND SWAP2 POP POP SWAP3 SWAP2 POP POP JUMP JUMPDEST PUSH0 PUSH2 0x1AE4 DUP4 DUP4 PUSH2 0x1ABD JUMP JUMPDEST SWAP2 POP DUP3 PUSH1 0x2 MUL DUP3 OR SWAP1 POP SWAP3 SWAP2 POP POP JUMP JUMPDEST PUSH2 0x1AFD DUP3 PUSH2 0xFCF JUMP JUMPDEST PUSH8 0xFFFFFFFFFFFFFFFF DUP2 GT ISZERO PUSH2 0x1B16 JUMPI PUSH2 0x1B15 PUSH2 0x149F JUMP JUMPDEST JUMPDEST PUSH2 0x1B20 DUP3 SLOAD PUSH2 0x1666 JUMP JUMPDEST PUSH2 0x1B2B DUP3 DUP3 DUP6 PUSH2 0x1A6B JUMP JUMPDEST PUSH0 PUSH1 0x20 SWAP1 POP PUSH1 0x1F DUP4 GT PUSH1 0x1 DUP2 EQ PUSH2 0x1B5C JUMPI PUSH0 DUP5 ISZERO PUSH2 0x1B4A JUMPI DUP3 DUP8 ADD MLOAD SWAP1 POP JUMPDEST PUSH2 0x1B54 DUP6 DUP3 PUSH2 0x1AD9 JUMP JUMPDEST DUP7 SSTORE POP PUSH2 0x1BBB JUMP JUMPDEST PUSH1 0x1F NOT DUP5 AND PUSH2 0x1B6A DUP7 PUSH2 0x1957 JUMP JUMPDEST PUSH0 JUMPDEST DUP3 DUP2 LT ISZERO PUSH2 0x1B91 JUMPI DUP5 DUP10 ADD MLOAD DUP3 SSTORE PUSH1 0x1 DUP3 ADD SWAP2 POP PUSH1 0x20 DUP6 ADD SWAP5 POP PUSH1 0x20 DUP2 ADD SWAP1 POP PUSH2 0x1B6C JUMP JUMPDEST DUP7 DUP4 LT ISZERO PUSH2 0x1BAE JUMPI DUP5 DUP10 ADD MLOAD PUSH2 0x1BAA PUSH1 0x1F DUP10 AND DUP3 PUSH2 0x1ABD JUMP JUMPDEST DUP4 SSTORE POP JUMPDEST PUSH1 0x1 PUSH1 0x2 DUP9 MUL ADD DUP9 SSTORE POP POP POP JUMPDEST POP POP POP POP POP POP JUMP INVALID LOG2 PUSH5 0x6970667358 0x22 SLT KECCAK256 GASLIMIT ADDRESS POP 0x4D NUMBER 0xD0 DIV 0xED 0xC9 PUSH3 0x616E74 SWAP15 DUP2 RETURN SMOD SWAP12 0xCF DUP6 0x4E 0xCE 0xF PUSH0 0xBB SSTORE SWAP12 LOG0 0xC3 0xE4 0xE5 PUSH21 0x64736F6C6343000814003341206865617465642064 PUSH6 0x62617465206F PUSH23 0x657220746865206265737420636F6F6B69652E00000000 "
				},
				"gasEstimates": {
					"creation": {
						"codeDepositCost": "1432200",
						"executionCost": "infinite",
						"totalCost": "infinite"
					},
					"external": {
						"createEvent(string,string)": "infinite",
						"endEvent(uint256)": "26958",
						"eventCount()": "2470",
						"events(uint256)": "infinite",
						"getAllEvents()": "infinite",
						"getResults(uint256)": "infinite",
						"getTop5EventIds()": "infinite",
						"vote(uint256,uint256)": "infinite"
					},
					"internal": {
						"createEventWithVotes(string memory,string memory,uint256,uint256,uint256,uint256)": "infinite"
					}
				},
				"methodIdentifiers": {
					"createEvent(string,string)": "e257a94c",
					"endEvent(uint256)": "330a347b",
					"eventCount()": "71be2e4a",
					"events(uint256)": "0b791430",
					"getAllEvents()": "c27a500d",
					"getResults(uint256)": "81a60c0d",
					"getTop5EventIds()": "761e1af3",
					"vote(uint256,uint256)": "b384abef"
				}
			},
			"storageLayout": {
				"storage": [
					{
						"astId": 31,
						"contract": "d-app/Voting.sol:VotingDApp",
						"label": "events",
						"offset": 0,
						"slot": "0",
						"type": "t_mapping(t_uint256,t_struct(Event)26_storage)"
					},
					{
						"astId": 33,
						"contract": "d-app/Voting.sol:VotingDApp",
						"label": "eventCount",
						"offset": 0,
						"slot": "1",
						"type": "t_uint256"
					}
				],
				"types": {
					"t_address": {
						"encoding": "inplace",
						"label": "address",
						"numberOfBytes": "20"
					},
					"t_bool": {
						"encoding": "inplace",
						"label": "bool",
						"numberOfBytes": "1"
					},
					"t_mapping(t_address,t_bool)": {
						"encoding": "mapping",
						"key": "t_address",
						"label": "mapping(address => bool)",
						"numberOfBytes": "32",
						"value": "t_bool"
					},
					"t_mapping(t_uint256,t_struct(Event)26_storage)": {
						"encoding": "mapping",
						"key": "t_uint256",
						"label": "mapping(uint256 => struct VotingDApp.Event)",
						"numberOfBytes": "32",
						"value": "t_struct(Event)26_storage"
					},
					"t_string_storage": {
						"encoding": "bytes",
						"label": "string",
						"numberOfBytes": "32"
					},
					"t_struct(Event)26_storage": {
						"encoding": "inplace",
						"label": "struct VotingDApp.Event",
						"members": [
							{
								"astId": 3,
								"contract": "d-app/Voting.sol:VotingDApp",
								"label": "id",
								"offset": 0,
								"slot": "0",
								"type": "t_uint256"
							},
							{
								"astId": 5,
								"contract": "d-app/Voting.sol:VotingDApp",
								"label": "name",
								"offset": 0,
								"slot": "1",
								"type": "t_string_storage"
							},
							{
								"astId": 7,
								"contract": "d-app/Voting.sol:VotingDApp",
								"label": "description",
								"offset": 0,
								"slot": "2",
								"type": "t_string_storage"
							},
							{
								"astId": 9,
								"contract": "d-app/Voting.sol:VotingDApp",
								"label": "totalVotes",
								"offset": 0,
								"slot": "3",
								"type": "t_uint256"
							},
							{
								"astId": 11,
								"contract": "d-app/Voting.sol:VotingDApp",
								"label": "active",
								"offset": 0,
								"slot": "4",
								"type": "t_bool"
							},
							{
								"astId": 13,
								"contract": "d-app/Voting.sol:VotingDApp",
								"label": "vote1",
								"offset": 0,
								"slot": "5",
								"type": "t_uint256"
							},
							{
								"astId": 15,
								"contract": "d-app/Voting.sol:VotingDApp",
								"label": "vote2",
								"offset": 0,
								"slot": "6",
								"type": "t_uint256"
							},
							{
								"astId": 17,
								"contract": "d-app/Voting.sol:VotingDApp",
								"label": "vote3",
								"offset": 0,
								"slot": "7",
								"type": "t_uint256"
							},
							{
								"astId": 19,
								"contract": "d-app/Voting.sol:VotingDApp",
								"label": "vote4",
								"offset": 0,
								"slot": "8",
								"type": "t_uint256"
							},
							{
								"astId": 23,
								"contract": "d-app/Voting.sol:VotingDApp",
								"label": "hasVoted",
								"offset": 0,
								"slot": "9",
								"type": "t_mapping(t_address,t_bool)"
							},
							{
								"astId": 25,
								"contract": "d-app/Voting.sol:VotingDApp",
								"label": "organizer",
								"offset": 0,
								"slot": "10",
								"type": "t_address"
							}
						],
						"numberOfBytes": "352"
					},
					"t_uint256": {
						"encoding": "inplace",
						"label": "uint256",
						"numberOfBytes": "32"
					}
				}
			},
			"userdoc": {
				"kind": "user",
				"methods": {},
				"version": 1
			}
		}
	}
}