{
	"d-app/Voting.sol": {
		"VotingDApp": {
			"abi": [
				{
					"inputs": [],
					"stateMutability": "nonpayable",
					"type": "constructor"
				},
				{
					"inputs": [
						{
							"internalType": "string",
							"name": "_name",
							"type": "string"
						}
					],
					"name": "createEvent",
					"outputs": [],
					"stateMutability": "nonpayable",
					"type": "function"
				},
				{
					"inputs": [
						{
							"internalType": "uint256",
							"name": "_eventId",
							"type": "uint256"
						}
					],
					"name": "endEvent",
					"outputs": [],
					"stateMutability": "nonpayable",
					"type": "function"
				},
				{
					"inputs": [],
					"name": "eventCount",
					"outputs": [
						{
							"internalType": "uint256",
							"name": "",
							"type": "uint256"
						}
					],
					"stateMutability": "view",
					"type": "function"
				},
				{
					"inputs": [
						{
							"internalType": "uint256",
							"name": "",
							"type": "uint256"
						}
					],
					"name": "events",
					"outputs": [
						{
							"internalType": "uint256",
							"name": "id",
							"type": "uint256"
						},
						{
							"internalType": "string",
							"name": "name",
							"type": "string"
						},
						{
							"internalType": "uint256",
							"name": "totalVotes",
							"type": "uint256"
						},
						{
							"internalType": "bool",
							"name": "active",
							"type": "bool"
						},
						{
							"internalType": "uint256",
							"name": "vote1",
							"type": "uint256"
						},
						{
							"internalType": "uint256",
							"name": "vote2",
							"type": "uint256"
						},
						{
							"internalType": "uint256",
							"name": "vote3",
							"type": "uint256"
						},
						{
							"internalType": "uint256",
							"name": "vote4",
							"type": "uint256"
						},
						{
							"internalType": "address",
							"name": "organizer",
							"type": "address"
						}
					],
					"stateMutability": "view",
					"type": "function"
				},
				{
					"inputs": [],
					"name": "getAllEvents",
					"outputs": [
						{
							"internalType": "uint256[]",
							"name": "",
							"type": "uint256[]"
						},
						{
							"internalType": "string[]",
							"name": "",
							"type": "string[]"
						},
						{
							"internalType": "bool[]",
							"name": "",
							"type": "bool[]"
						},
						{
							"internalType": "uint256[]",
							"name": "",
							"type": "uint256[]"
						},
						{
							"internalType": "uint256[]",
							"name": "",
							"type": "uint256[]"
						},
						{
							"internalType": "uint256[]",
							"name": "",
							"type": "uint256[]"
						},
						{
							"internalType": "uint256[]",
							"name": "",
							"type": "uint256[]"
						},
						{
							"internalType": "uint256[]",
							"name": "",
							"type": "uint256[]"
						}
					],
					"stateMutability": "view",
					"type": "function"
				},
				{
					"inputs": [
						{
							"internalType": "uint256",
							"name": "_eventId",
							"type": "uint256"
						}
					],
					"name": "getResults",
					"outputs": [
						{
							"internalType": "string",
							"name": "",
							"type": "string"
						},
						{
							"internalType": "uint256",
							"name": "",
							"type": "uint256"
						},
						{
							"internalType": "uint256",
							"name": "",
							"type": "uint256"
						},
						{
							"internalType": "uint256",
							"name": "",
							"type": "uint256"
						},
						{
							"internalType": "uint256",
							"name": "",
							"type": "uint256"
						}
					],
					"stateMutability": "view",
					"type": "function"
				},
				{
					"inputs": [],
					"name": "getTop5EventIds",
					"outputs": [
						{
							"internalType": "uint256[]",
							"name": "",
							"type": "uint256[]"
						}
					],
					"stateMutability": "view",
					"type": "function"
				},
				{
					"inputs": [
						{
							"internalType": "uint256",
							"name": "_eventId",
							"type": "uint256"
						},
						{
							"internalType": "uint256",
							"name": "_optionIndex",
							"type": "uint256"
						}
					],
					"name": "vote",
					"outputs": [],
					"stateMutability": "nonpayable",
					"type": "function"
				}
			],
			"devdoc": {
				"kind": "dev",
				"methods": {},
				"version": 1
			},
			"evm": {
				"assembly": "    /* \"d-app/Voting.sol\":60:5094  contract VotingDApp {... */\n  mstore(0x40, 0x80)\n    /* \"d-app/Voting.sol\":1027:1307  constructor() {... */\n  callvalue\n  dup1\n  iszero\n  tag_1\n  jumpi\n  0x00\n  dup1\n  revert\ntag_1:\n  pop\n    /* \"d-app/Voting.sol\":1052:1090  createEvent(\"The Great Cookie Debate\") */\n  tag_4\n  mload(0x40)\n  dup1\n  0x40\n  add\n  0x40\n  mstore\n  dup1\n  0x17\n  dup2\n  mstore\n  0x20\n  add\n  0x54686520477265617420436f6f6b696520446562617465000000000000000000\n  dup2\n  mstore\n  pop\n    /* \"d-app/Voting.sol\":1052:1063  createEvent */\n  shl(0x20, tag_5)\n    /* \"d-app/Voting.sol\":1052:1090  createEvent(\"The Great Cookie Debate\") */\n  0x20\n  shr\n  jump\t// in\ntag_4:\n    /* \"d-app/Voting.sol\":1101:1139  createEvent(\"Dance-Off at the Office\") */\n  tag_6\n  mload(0x40)\n  dup1\n  0x40\n  add\n  0x40\n  mstore\n  dup1\n  0x17\n  dup2\n  mstore\n  0x20\n  add\n  0x44616e63652d4f666620617420746865204f6666696365000000000000000000\n  dup2\n  mstore\n  pop\n    /* \"d-app/Voting.sol\":1101:1112  createEvent */\n  shl(0x20, tag_5)\n    /* \"d-app/Voting.sol\":1101:1139  createEvent(\"Dance-Off at the Office\") */\n  0x20\n  shr\n  jump\t// in\ntag_6:\n    /* \"d-app/Voting.sol\":1150:1193  createEvent(\"Battle of the Couch Potatoes\") */\n  tag_7\n  mload(0x40)\n  dup1\n  0x40\n  add\n  0x40\n  mstore\n  dup1\n  0x1c\n  dup2\n  mstore\n  0x20\n  add\n  0x426174746c65206f662074686520436f75636820506f7461746f657300000000\n  dup2\n  mstore\n  pop\n    /* \"d-app/Voting.sol\":1150:1161  createEvent */\n  shl(0x20, tag_5)\n    /* \"d-app/Voting.sol\":1150:1193  createEvent(\"Battle of the Couch Potatoes\") */\n  0x20\n  shr\n  jump\t// in\ntag_7:\n    /* \"d-app/Voting.sol\":1204:1242  createEvent(\"Pajama Fashion Showdown\") */\n  tag_8\n  mload(0x40)\n  dup1\n  0x40\n  add\n  0x40\n  mstore\n  dup1\n  0x17\n  dup2\n  mstore\n  0x20\n  add\n  0x50616a616d612046617368696f6e2053686f77646f776e000000000000000000\n  dup2\n  mstore\n  pop\n    /* \"d-app/Voting.sol\":1204:1215  createEvent */\n  shl(0x20, tag_5)\n    /* \"d-app/Voting.sol\":1204:1242  createEvent(\"Pajama Fashion Showdown\") */\n  0x20\n  shr\n  jump\t// in\ntag_8:\n    /* \"d-app/Voting.sol\":1253:1299  createEvent(\"The Epic Paper Airplane Contest\") */\n  tag_9\n  mload(0x40)\n  dup1\n  0x40\n  add\n  0x40\n  mstore\n  dup1\n  0x1f\n  dup2\n  mstore\n  0x20\n  add\n  0x546865204570696320506170657220416972706c616e6520436f6e7465737400\n  dup2\n  mstore\n  pop\n    /* \"d-app/Voting.sol\":1253:1264  createEvent */\n  shl(0x20, tag_5)\n    /* \"d-app/Voting.sol\":1253:1299  createEvent(\"The Epic Paper Airplane Contest\") */\n  0x20\n  shr\n  jump\t// in\ntag_9:\n    /* \"d-app/Voting.sol\":60:5094  contract VotingDApp {... */\n  jump(tag_10)\n    /* \"d-app/Voting.sol\":744:1020  function createEvent(string memory _name) public {... */\ntag_5:\n    /* \"d-app/Voting.sol\":804:814  eventCount */\n  0x01\n  0x00\n    /* \"d-app/Voting.sol\":804:816  eventCount++ */\n  dup2\n  sload\n  dup1\n  swap3\n  swap2\n  swap1\n  tag_12\n  swap1\n  tag_13\n  jump\t// in\ntag_12:\n  swap2\n  swap1\n  pop\n  sstore\n  pop\n    /* \"d-app/Voting.sol\":827:849  Event storage newEvent */\n  0x00\n    /* \"d-app/Voting.sol\":852:858  events */\n  dup1\n    /* \"d-app/Voting.sol\":852:870  events[eventCount] */\n  0x00\n    /* \"d-app/Voting.sol\":859:869  eventCount */\n  sload(0x01)\n    /* \"d-app/Voting.sol\":852:870  events[eventCount] */\n  dup2\n  mstore\n  0x20\n  add\n  swap1\n  dup2\n  mstore\n  0x20\n  add\n  0x00\n  keccak256\n    /* \"d-app/Voting.sol\":827:870  Event storage newEvent = events[eventCount] */\n  swap1\n  pop\n    /* \"d-app/Voting.sol\":895:905  eventCount */\n  sload(0x01)\n    /* \"d-app/Voting.sol\":881:889  newEvent */\n  dup2\n    /* \"d-app/Voting.sol\":881:892  newEvent.id */\n  0x00\n  add\n    /* \"d-app/Voting.sol\":881:905  newEvent.id = eventCount */\n  dup2\n  swap1\n  sstore\n  pop\n    /* \"d-app/Voting.sol\":932:937  _name */\n  dup2\n    /* \"d-app/Voting.sol\":916:924  newEvent */\n  dup2\n    /* \"d-app/Voting.sol\":916:929  newEvent.name */\n  0x01\n  add\n    /* \"d-app/Voting.sol\":916:937  newEvent.name = _name */\n  swap1\n  dup2\n  tag_14\n  swap2\n  swap1\n  tag_15\n  jump\t// in\ntag_14:\n  pop\n    /* \"d-app/Voting.sol\":966:970  true */\n  0x01\n    /* \"d-app/Voting.sol\":948:956  newEvent */\n  dup2\n    /* \"d-app/Voting.sol\":948:963  newEvent.active */\n  0x03\n  add\n  0x00\n    /* \"d-app/Voting.sol\":948:970  newEvent.active = true */\n  0x0100\n  exp\n  dup2\n  sload\n  dup2\n  0xff\n  mul\n  not\n  and\n  swap1\n  dup4\n  iszero\n  iszero\n  mul\n  or\n  swap1\n  sstore\n  pop\n    /* \"d-app/Voting.sol\":1002:1012  msg.sender */\n  caller\n    /* \"d-app/Voting.sol\":981:989  newEvent */\n  dup2\n    /* \"d-app/Voting.sol\":981:999  newEvent.organizer */\n  0x09\n  add\n  0x00\n    /* \"d-app/Voting.sol\":981:1012  newEvent.organizer = msg.sender */\n  0x0100\n  exp\n  dup2\n  sload\n  dup2\n  0xffffffffffffffffffffffffffffffffffffffff\n  mul\n  not\n  and\n  swap1\n  dup4\n  0xffffffffffffffffffffffffffffffffffffffff\n  and\n  mul\n  or\n  swap1\n  sstore\n  pop\n    /* \"d-app/Voting.sol\":793:1020  {... */\n  pop\n    /* \"d-app/Voting.sol\":744:1020  function createEvent(string memory _name) public {... */\n  pop\n  jump\t// out\n    /* \"#utility.yul\":7:187   */\ntag_16:\n    /* \"#utility.yul\":55:132   */\n  0x4e487b7100000000000000000000000000000000000000000000000000000000\n    /* \"#utility.yul\":52:53   */\n  0x00\n    /* \"#utility.yul\":45:133   */\n  mstore\n    /* \"#utility.yul\":152:156   */\n  0x11\n    /* \"#utility.yul\":149:150   */\n  0x04\n    /* \"#utility.yul\":142:157   */\n  mstore\n    /* \"#utility.yul\":176:180   */\n  0x24\n    /* \"#utility.yul\":173:174   */\n  0x00\n    /* \"#utility.yul\":166:181   */\n  revert\n    /* \"#utility.yul\":193:270   */\ntag_17:\n    /* \"#utility.yul\":230:237   */\n  0x00\n    /* \"#utility.yul\":259:264   */\n  dup2\n    /* \"#utility.yul\":248:264   */\n  swap1\n  pop\n    /* \"#utility.yul\":193:270   */\n  swap2\n  swap1\n  pop\n  jump\t// out\n    /* \"#utility.yul\":276:509   */\ntag_13:\n    /* \"#utility.yul\":315:318   */\n  0x00\n    /* \"#utility.yul\":338:362   */\n  tag_41\n    /* \"#utility.yul\":356:361   */\n  dup3\n    /* \"#utility.yul\":338:362   */\n  tag_17\n  jump\t// in\ntag_41:\n    /* \"#utility.yul\":329:362   */\n  swap2\n  pop\n    /* \"#utility.yul\":384:450   */\n  0xffffffffffffffffffffffffffffffffffffffffffffffffffffffffffffffff\n    /* \"#utility.yul\":377:382   */\n  dup3\n    /* \"#utility.yul\":374:451   */\n  sub\n    /* \"#utility.yul\":371:474   */\n  tag_42\n  jumpi\n    /* \"#utility.yul\":454:472   */\n  tag_43\n  tag_16\n  jump\t// in\ntag_43:\n    /* \"#utility.yul\":371:474   */\ntag_42:\n    /* \"#utility.yul\":501:502   */\n  0x01\n    /* \"#utility.yul\":494:499   */\n  dup3\n    /* \"#utility.yul\":490:503   */\n  add\n    /* \"#utility.yul\":483:503   */\n  swap1\n  pop\n    /* \"#utility.yul\":276:509   */\n  swap2\n  swap1\n  pop\n  jump\t// out\n    /* \"#utility.yul\":515:614   */\ntag_18:\n    /* \"#utility.yul\":567:573   */\n  0x00\n    /* \"#utility.yul\":601:606   */\n  dup2\n    /* \"#utility.yul\":595:607   */\n  mload\n    /* \"#utility.yul\":585:607   */\n  swap1\n  pop\n    /* \"#utility.yul\":515:614   */\n  swap2\n  swap1\n  pop\n  jump\t// out\n    /* \"#utility.yul\":620:800   */\ntag_19:\n    /* \"#utility.yul\":668:745   */\n  0x4e487b7100000000000000000000000000000000000000000000000000000000\n    /* \"#utility.yul\":665:666   */\n  0x00\n    /* \"#utility.yul\":658:746   */\n  mstore\n    /* \"#utility.yul\":765:769   */\n  0x41\n    /* \"#utility.yul\":762:763   */\n  0x04\n    /* \"#utility.yul\":755:770   */\n  mstore\n    /* \"#utility.yul\":789:793   */\n  0x24\n    /* \"#utility.yul\":786:787   */\n  0x00\n    /* \"#utility.yul\":779:794   */\n  revert\n    /* \"#utility.yul\":806:986   */\ntag_20:\n    /* \"#utility.yul\":854:931   */\n  0x4e487b7100000000000000000000000000000000000000000000000000000000\n    /* \"#utility.yul\":851:852   */\n  0x00\n    /* \"#utility.yul\":844:932   */\n  mstore\n    /* \"#utility.yul\":951:955   */\n  0x22\n    /* \"#utility.yul\":948:949   */\n  0x04\n    /* \"#utility.yul\":941:956   */\n  mstore\n    /* \"#utility.yul\":975:979   */\n  0x24\n    /* \"#utility.yul\":972:973   */\n  0x00\n    /* \"#utility.yul\":965:980   */\n  revert\n    /* \"#utility.yul\":992:1312   */\ntag_21:\n    /* \"#utility.yul\":1036:1042   */\n  0x00\n    /* \"#utility.yul\":1073:1074   */\n  0x02\n    /* \"#utility.yul\":1067:1071   */\n  dup3\n    /* \"#utility.yul\":1063:1075   */\n  div\n    /* \"#utility.yul\":1053:1075   */\n  swap1\n  pop\n    /* \"#utility.yul\":1120:1121   */\n  0x01\n    /* \"#utility.yul\":1114:1118   */\n  dup3\n    /* \"#utility.yul\":1110:1122   */\n  and\n    /* \"#utility.yul\":1141:1159   */\n  dup1\n    /* \"#utility.yul\":1131:1212   */\n  tag_48\n  jumpi\n    /* \"#utility.yul\":1197:1201   */\n  0x7f\n    /* \"#utility.yul\":1189:1195   */\n  dup3\n    /* \"#utility.yul\":1185:1202   */\n  and\n    /* \"#utility.yul\":1175:1202   */\n  swap2\n  pop\n    /* \"#utility.yul\":1131:1212   */\ntag_48:\n    /* \"#utility.yul\":1259:1261   */\n  0x20\n    /* \"#utility.yul\":1251:1257   */\n  dup3\n    /* \"#utility.yul\":1248:1262   */\n  lt\n    /* \"#utility.yul\":1228:1246   */\n  dup2\n    /* \"#utility.yul\":1225:1263   */\n  sub\n    /* \"#utility.yul\":1222:1306   */\n  tag_49\n  jumpi\n    /* \"#utility.yul\":1278:1296   */\n  tag_50\n  tag_20\n  jump\t// in\ntag_50:\n    /* \"#utility.yul\":1222:1306   */\ntag_49:\n    /* \"#utility.yul\":1043:1312   */\n  pop\n    /* \"#utility.yul\":992:1312   */\n  swap2\n  swap1\n  pop\n  jump\t// out\n    /* \"#utility.yul\":1318:1459   */\ntag_22:\n    /* \"#utility.yul\":1367:1371   */\n  0x00\n    /* \"#utility.yul\":1390:1393   */\n  dup2\n    /* \"#utility.yul\":1382:1393   */\n  swap1\n  pop\n    /* \"#utility.yul\":1413:1416   */\n  dup2\n    /* \"#utility.yul\":1410:1411   */\n  0x00\n    /* \"#utility.yul\":1403:1417   */\n  mstore\n    /* \"#utility.yul\":1447:1451   */\n  0x20\n    /* \"#utility.yul\":1444:1445   */\n  0x00\n    /* \"#utility.yul\":1434:1452   */\n  keccak256\n    /* \"#utility.yul\":1426:1452   */\n  swap1\n  pop\n    /* \"#utility.yul\":1318:1459   */\n  swap2\n  swap1\n  pop\n  jump\t// out\n    /* \"#utility.yul\":1465:1558   */\ntag_23:\n    /* \"#utility.yul\":1502:1508   */\n  0x00\n    /* \"#utility.yul\":1549:1551   */\n  0x20\n    /* \"#utility.yul\":1544:1546   */\n  0x1f\n    /* \"#utility.yul\":1537:1542   */\n  dup4\n    /* \"#utility.yul\":1533:1547   */\n  add\n    /* \"#utility.yul\":1529:1552   */\n  div\n    /* \"#utility.yul\":1519:1552   */\n  swap1\n  pop\n    /* \"#utility.yul\":1465:1558   */\n  swap2\n  swap1\n  pop\n  jump\t// out\n    /* \"#utility.yul\":1564:1671   */\ntag_24:\n    /* \"#utility.yul\":1608:1616   */\n  0x00\n    /* \"#utility.yul\":1658:1663   */\n  dup3\n    /* \"#utility.yul\":1652:1656   */\n  dup3\n    /* \"#utility.yul\":1648:1664   */\n  shl\n    /* \"#utility.yul\":1627:1664   */\n  swap1\n  pop\n    /* \"#utility.yul\":1564:1671   */\n  swap3\n  swap2\n  pop\n  pop\n  jump\t// out\n    /* \"#utility.yul\":1677:2070   */\ntag_25:\n    /* \"#utility.yul\":1746:1752   */\n  0x00\n    /* \"#utility.yul\":1796:1797   */\n  0x08\n    /* \"#utility.yul\":1784:1794   */\n  dup4\n    /* \"#utility.yul\":1780:1798   */\n  mul\n    /* \"#utility.yul\":1819:1916   */\n  tag_55\n    /* \"#utility.yul\":1849:1915   */\n  0xffffffffffffffffffffffffffffffffffffffffffffffffffffffffffffffff\n    /* \"#utility.yul\":1838:1847   */\n  dup3\n    /* \"#utility.yul\":1819:1916   */\n  tag_24\n  jump\t// in\ntag_55:\n    /* \"#utility.yul\":1937:1976   */\n  tag_56\n    /* \"#utility.yul\":1967:1975   */\n  dup7\n    /* \"#utility.yul\":1956:1965   */\n  dup4\n    /* \"#utility.yul\":1937:1976   */\n  tag_24\n  jump\t// in\ntag_56:\n    /* \"#utility.yul\":1925:1976   */\n  swap6\n  pop\n    /* \"#utility.yul\":2009:2013   */\n  dup1\n    /* \"#utility.yul\":2005:2014   */\n  not\n    /* \"#utility.yul\":1998:2003   */\n  dup5\n    /* \"#utility.yul\":1994:2015   */\n  and\n    /* \"#utility.yul\":1985:2015   */\n  swap4\n  pop\n    /* \"#utility.yul\":2058:2062   */\n  dup1\n    /* \"#utility.yul\":2048:2056   */\n  dup7\n    /* \"#utility.yul\":2044:2063   */\n  and\n    /* \"#utility.yul\":2037:2042   */\n  dup5\n    /* \"#utility.yul\":2034:2064   */\n  or\n    /* \"#utility.yul\":2024:2064   */\n  swap3\n  pop\n    /* \"#utility.yul\":1753:2070   */\n  pop\n  pop\n    /* \"#utility.yul\":1677:2070   */\n  swap4\n  swap3\n  pop\n  pop\n  pop\n  jump\t// out\n    /* \"#utility.yul\":2076:2136   */\ntag_26:\n    /* \"#utility.yul\":2104:2107   */\n  0x00\n    /* \"#utility.yul\":2125:2130   */\n  dup2\n    /* \"#utility.yul\":2118:2130   */\n  swap1\n  pop\n    /* \"#utility.yul\":2076:2136   */\n  swap2\n  swap1\n  pop\n  jump\t// out\n    /* \"#utility.yul\":2142:2284   */\ntag_27:\n    /* \"#utility.yul\":2192:2201   */\n  0x00\n    /* \"#utility.yul\":2225:2278   */\n  tag_59\n    /* \"#utility.yul\":2243:2277   */\n  tag_60\n    /* \"#utility.yul\":2252:2276   */\n  tag_61\n    /* \"#utility.yul\":2270:2275   */\n  dup5\n    /* \"#utility.yul\":2252:2276   */\n  tag_17\n  jump\t// in\ntag_61:\n    /* \"#utility.yul\":2243:2277   */\n  tag_26\n  jump\t// in\ntag_60:\n    /* \"#utility.yul\":2225:2278   */\n  tag_17\n  jump\t// in\ntag_59:\n    /* \"#utility.yul\":2212:2278   */\n  swap1\n  pop\n    /* \"#utility.yul\":2142:2284   */\n  swap2\n  swap1\n  pop\n  jump\t// out\n    /* \"#utility.yul\":2290:2365   */\ntag_28:\n    /* \"#utility.yul\":2333:2336   */\n  0x00\n    /* \"#utility.yul\":2354:2359   */\n  dup2\n    /* \"#utility.yul\":2347:2359   */\n  swap1\n  pop\n    /* \"#utility.yul\":2290:2365   */\n  swap2\n  swap1\n  pop\n  jump\t// out\n    /* \"#utility.yul\":2371:2640   */\ntag_29:\n    /* \"#utility.yul\":2481:2520   */\n  tag_64\n    /* \"#utility.yul\":2512:2519   */\n  dup4\n    /* \"#utility.yul\":2481:2520   */\n  tag_27\n  jump\t// in\ntag_64:\n    /* \"#utility.yul\":2542:2633   */\n  tag_65\n    /* \"#utility.yul\":2591:2632   */\n  tag_66\n    /* \"#utility.yul\":2615:2631   */\n  dup3\n    /* \"#utility.yul\":2591:2632   */\n  tag_28\n  jump\t// in\ntag_66:\n    /* \"#utility.yul\":2583:2589   */\n  dup5\n    /* \"#utility.yul\":2576:2580   */\n  dup5\n    /* \"#utility.yul\":2570:2581   */\n  sload\n    /* \"#utility.yul\":2542:2633   */\n  tag_25\n  jump\t// in\ntag_65:\n    /* \"#utility.yul\":2536:2540   */\n  dup3\n    /* \"#utility.yul\":2529:2634   */\n  sstore\n    /* \"#utility.yul\":2447:2640   */\n  pop\n    /* \"#utility.yul\":2371:2640   */\n  pop\n  pop\n  pop\n  jump\t// out\n    /* \"#utility.yul\":2646:2719   */\ntag_30:\n    /* \"#utility.yul\":2691:2694   */\n  0x00\n    /* \"#utility.yul\":2646:2719   */\n  swap1\n  jump\t// out\n    /* \"#utility.yul\":2725:2914   */\ntag_31:\n    /* \"#utility.yul\":2802:2834   */\n  tag_69\n  tag_30\n  jump\t// in\ntag_69:\n    /* \"#utility.yul\":2843:2908   */\n  tag_70\n    /* \"#utility.yul\":2901:2907   */\n  dup2\n    /* \"#utility.yul\":2893:2899   */\n  dup5\n    /* \"#utility.yul\":2887:2891   */\n  dup5\n    /* \"#utility.yul\":2843:2908   */\n  tag_29\n  jump\t// in\ntag_70:\n    /* \"#utility.yul\":2778:2914   */\n  pop\n    /* \"#utility.yul\":2725:2914   */\n  pop\n  pop\n  jump\t// out\n    /* \"#utility.yul\":2920:3106   */\ntag_32:\n    /* \"#utility.yul\":2980:3100   */\ntag_72:\n    /* \"#utility.yul\":2997:3000   */\n  dup2\n    /* \"#utility.yul\":2990:2995   */\n  dup2\n    /* \"#utility.yul\":2987:3001   */\n  lt\n    /* \"#utility.yul\":2980:3100   */\n  iszero\n  tag_74\n  jumpi\n    /* \"#utility.yul\":3051:3090   */\n  tag_75\n    /* \"#utility.yul\":3088:3089   */\n  0x00\n    /* \"#utility.yul\":3081:3086   */\n  dup3\n    /* \"#utility.yul\":3051:3090   */\n  tag_31\n  jump\t// in\ntag_75:\n    /* \"#utility.yul\":3024:3025   */\n  0x01\n    /* \"#utility.yul\":3017:3022   */\n  dup2\n    /* \"#utility.yul\":3013:3026   */\n  add\n    /* \"#utility.yul\":3004:3026   */\n  swap1\n  pop\n    /* \"#utility.yul\":2980:3100   */\n  jump(tag_72)\ntag_74:\n    /* \"#utility.yul\":2920:3106   */\n  pop\n  pop\n  jump\t// out\n    /* \"#utility.yul\":3112:3655   */\ntag_33:\n    /* \"#utility.yul\":3213:3215   */\n  0x1f\n    /* \"#utility.yul\":3208:3211   */\n  dup3\n    /* \"#utility.yul\":3205:3216   */\n  gt\n    /* \"#utility.yul\":3202:3648   */\n  iszero\n  tag_77\n  jumpi\n    /* \"#utility.yul\":3247:3285   */\n  tag_78\n    /* \"#utility.yul\":3279:3284   */\n  dup2\n    /* \"#utility.yul\":3247:3285   */\n  tag_22\n  jump\t// in\ntag_78:\n    /* \"#utility.yul\":3331:3360   */\n  tag_79\n    /* \"#utility.yul\":3349:3359   */\n  dup5\n    /* \"#utility.yul\":3331:3360   */\n  tag_23\n  jump\t// in\ntag_79:\n    /* \"#utility.yul\":3321:3329   */\n  dup2\n    /* \"#utility.yul\":3317:3361   */\n  add\n    /* \"#utility.yul\":3514:3516   */\n  0x20\n    /* \"#utility.yul\":3502:3512   */\n  dup6\n    /* \"#utility.yul\":3499:3517   */\n  lt\n    /* \"#utility.yul\":3496:3545   */\n  iszero\n  tag_80\n  jumpi\n    /* \"#utility.yul\":3535:3543   */\n  dup2\n    /* \"#utility.yul\":3520:3543   */\n  swap1\n  pop\n    /* \"#utility.yul\":3496:3545   */\ntag_80:\n    /* \"#utility.yul\":3558:3638   */\n  tag_81\n    /* \"#utility.yul\":3614:3636   */\n  tag_82\n    /* \"#utility.yul\":3632:3635   */\n  dup6\n    /* \"#utility.yul\":3614:3636   */\n  tag_23\n  jump\t// in\ntag_82:\n    /* \"#utility.yul\":3604:3612   */\n  dup4\n    /* \"#utility.yul\":3600:3637   */\n  add\n    /* \"#utility.yul\":3587:3598   */\n  dup3\n    /* \"#utility.yul\":3558:3638   */\n  tag_32\n  jump\t// in\ntag_81:\n    /* \"#utility.yul\":3217:3648   */\n  pop\n  pop\n    /* \"#utility.yul\":3202:3648   */\ntag_77:\n    /* \"#utility.yul\":3112:3655   */\n  pop\n  pop\n  pop\n  jump\t// out\n    /* \"#utility.yul\":3661:3778   */\ntag_34:\n    /* \"#utility.yul\":3715:3723   */\n  0x00\n    /* \"#utility.yul\":3765:3770   */\n  dup3\n    /* \"#utility.yul\":3759:3763   */\n  dup3\n    /* \"#utility.yul\":3755:3771   */\n  shr\n    /* \"#utility.yul\":3734:3771   */\n  swap1\n  pop\n    /* \"#utility.yul\":3661:3778   */\n  swap3\n  swap2\n  pop\n  pop\n  jump\t// out\n    /* \"#utility.yul\":3784:3953   */\ntag_35:\n    /* \"#utility.yul\":3828:3834   */\n  0x00\n    /* \"#utility.yul\":3861:3912   */\n  tag_85\n    /* \"#utility.yul\":3909:3910   */\n  0x00\n    /* \"#utility.yul\":3905:3911   */\n  not\n    /* \"#utility.yul\":3897:3902   */\n  dup5\n    /* \"#utility.yul\":3894:3895   */\n  0x08\n    /* \"#utility.yul\":3890:3903   */\n  mul\n    /* \"#utility.yul\":3861:3912   */\n  tag_34\n  jump\t// in\ntag_85:\n    /* \"#utility.yul\":3857:3913   */\n  not\n    /* \"#utility.yul\":3942:3946   */\n  dup1\n    /* \"#utility.yul\":3936:3940   */\n  dup4\n    /* \"#utility.yul\":3932:3947   */\n  and\n    /* \"#utility.yul\":3922:3947   */\n  swap2\n  pop\n    /* \"#utility.yul\":3835:3953   */\n  pop\n    /* \"#utility.yul\":3784:3953   */\n  swap3\n  swap2\n  pop\n  pop\n  jump\t// out\n    /* \"#utility.yul\":3958:4253   */\ntag_36:\n    /* \"#utility.yul\":4034:4038   */\n  0x00\n    /* \"#utility.yul\":4180:4209   */\n  tag_87\n    /* \"#utility.yul\":4205:4208   */\n  dup4\n    /* \"#utility.yul\":4199:4203   */\n  dup4\n    /* \"#utility.yul\":4180:4209   */\n  tag_35\n  jump\t// in\ntag_87:\n    /* \"#utility.yul\":4172:4209   */\n  swap2\n  pop\n    /* \"#utility.yul\":4242:4245   */\n  dup3\n    /* \"#utility.yul\":4239:4240   */\n  0x02\n    /* \"#utility.yul\":4235:4246   */\n  mul\n    /* \"#utility.yul\":4229:4233   */\n  dup3\n    /* \"#utility.yul\":4226:4247   */\n  or\n    /* \"#utility.yul\":4218:4247   */\n  swap1\n  pop\n    /* \"#utility.yul\":3958:4253   */\n  swap3\n  swap2\n  pop\n  pop\n  jump\t// out\n    /* \"#utility.yul\":4258:5653   */\ntag_15:\n    /* \"#utility.yul\":4375:4412   */\n  tag_89\n    /* \"#utility.yul\":4408:4411   */\n  dup3\n    /* \"#utility.yul\":4375:4412   */\n  tag_18\n  jump\t// in\ntag_89:\n    /* \"#utility.yul\":4477:4495   */\n  0xffffffffffffffff\n    /* \"#utility.yul\":4469:4475   */\n  dup2\n    /* \"#utility.yul\":4466:4496   */\n  gt\n    /* \"#utility.yul\":4463:4519   */\n  iszero\n  tag_90\n  jumpi\n    /* \"#utility.yul\":4499:4517   */\n  tag_91\n  tag_19\n  jump\t// in\ntag_91:\n    /* \"#utility.yul\":4463:4519   */\ntag_90:\n    /* \"#utility.yul\":4543:4581   */\n  tag_92\n    /* \"#utility.yul\":4575:4579   */\n  dup3\n    /* \"#utility.yul\":4569:4580   */\n  sload\n    /* \"#utility.yul\":4543:4581   */\n  tag_21\n  jump\t// in\ntag_92:\n    /* \"#utility.yul\":4628:4695   */\n  tag_93\n    /* \"#utility.yul\":4688:4694   */\n  dup3\n    /* \"#utility.yul\":4680:4686   */\n  dup3\n    /* \"#utility.yul\":4674:4678   */\n  dup6\n    /* \"#utility.yul\":4628:4695   */\n  tag_33\n  jump\t// in\ntag_93:\n    /* \"#utility.yul\":4722:4723   */\n  0x00\n    /* \"#utility.yul\":4746:4750   */\n  0x20\n    /* \"#utility.yul\":4733:4750   */\n  swap1\n  pop\n    /* \"#utility.yul\":4778:4780   */\n  0x1f\n    /* \"#utility.yul\":4770:4776   */\n  dup4\n    /* \"#utility.yul\":4767:4781   */\n  gt\n    /* \"#utility.yul\":4795:4796   */\n  0x01\n    /* \"#utility.yul\":4790:5408   */\n  dup2\n  eq\n  tag_95\n  jumpi\n    /* \"#utility.yul\":5452:5453   */\n  0x00\n    /* \"#utility.yul\":5469:5475   */\n  dup5\n    /* \"#utility.yul\":5466:5543   */\n  iszero\n  tag_96\n  jumpi\n    /* \"#utility.yul\":5518:5527   */\n  dup3\n    /* \"#utility.yul\":5513:5516   */\n  dup8\n    /* \"#utility.yul\":5509:5528   */\n  add\n    /* \"#utility.yul\":5503:5529   */\n  mload\n    /* \"#utility.yul\":5494:5529   */\n  swap1\n  pop\n    /* \"#utility.yul\":5466:5543   */\ntag_96:\n    /* \"#utility.yul\":5569:5636   */\n  tag_97\n    /* \"#utility.yul\":5629:5635   */\n  dup6\n    /* \"#utility.yul\":5622:5627   */\n  dup3\n    /* \"#utility.yul\":5569:5636   */\n  tag_36\n  jump\t// in\ntag_97:\n    /* \"#utility.yul\":5563:5567   */\n  dup7\n    /* \"#utility.yul\":5556:5637   */\n  sstore\n    /* \"#utility.yul\":5425:5647   */\n  pop\n    /* \"#utility.yul\":4760:5647   */\n  jump(tag_94)\n    /* \"#utility.yul\":4790:5408   */\ntag_95:\n    /* \"#utility.yul\":4842:4846   */\n  0x1f\n    /* \"#utility.yul\":4838:4847   */\n  not\n    /* \"#utility.yul\":4830:4836   */\n  dup5\n    /* \"#utility.yul\":4826:4848   */\n  and\n    /* \"#utility.yul\":4876:4913   */\n  tag_98\n    /* \"#utility.yul\":4908:4912   */\n  dup7\n    /* \"#utility.yul\":4876:4913   */\n  tag_22\n  jump\t// in\ntag_98:\n    /* \"#utility.yul\":4935:4936   */\n  0x00\n    /* \"#utility.yul\":4949:5157   */\ntag_99:\n    /* \"#utility.yul\":4963:4970   */\n  dup3\n    /* \"#utility.yul\":4960:4961   */\n  dup2\n    /* \"#utility.yul\":4957:4971   */\n  lt\n    /* \"#utility.yul\":4949:5157   */\n  iszero\n  tag_101\n  jumpi\n    /* \"#utility.yul\":5042:5051   */\n  dup5\n    /* \"#utility.yul\":5037:5040   */\n  dup10\n    /* \"#utility.yul\":5033:5052   */\n  add\n    /* \"#utility.yul\":5027:5053   */\n  mload\n    /* \"#utility.yul\":5019:5025   */\n  dup3\n    /* \"#utility.yul\":5012:5054   */\n  sstore\n    /* \"#utility.yul\":5093:5094   */\n  0x01\n    /* \"#utility.yul\":5085:5091   */\n  dup3\n    /* \"#utility.yul\":5081:5095   */\n  add\n    /* \"#utility.yul\":5071:5095   */\n  swap2\n  pop\n    /* \"#utility.yul\":5140:5142   */\n  0x20\n    /* \"#utility.yul\":5129:5138   */\n  dup6\n    /* \"#utility.yul\":5125:5143   */\n  add\n    /* \"#utility.yul\":5112:5143   */\n  swap5\n  pop\n    /* \"#utility.yul\":4986:4990   */\n  0x20\n    /* \"#utility.yul\":4983:4984   */\n  dup2\n    /* \"#utility.yul\":4979:4991   */\n  add\n    /* \"#utility.yul\":4974:4991   */\n  swap1\n  pop\n    /* \"#utility.yul\":4949:5157   */\n  jump(tag_99)\ntag_101:\n    /* \"#utility.yul\":5185:5191   */\n  dup7\n    /* \"#utility.yul\":5176:5183   */\n  dup4\n    /* \"#utility.yul\":5173:5192   */\n  lt\n    /* \"#utility.yul\":5170:5349   */\n  iszero\n  tag_102\n  jumpi\n    /* \"#utility.yul\":5243:5252   */\n  dup5\n    /* \"#utility.yul\":5238:5241   */\n  dup10\n    /* \"#utility.yul\":5234:5253   */\n  add\n    /* \"#utility.yul\":5228:5254   */\n  mload\n    /* \"#utility.yul\":5286:5334   */\n  tag_103\n    /* \"#utility.yul\":5328:5332   */\n  0x1f\n    /* \"#utility.yul\":5320:5326   */\n  dup10\n    /* \"#utility.yul\":5316:5333   */\n  and\n    /* \"#utility.yul\":5305:5314   */\n  dup3\n    /* \"#utility.yul\":5286:5334   */\n  tag_35\n  jump\t// in\ntag_103:\n    /* \"#utility.yul\":5278:5284   */\n  dup4\n    /* \"#utility.yul\":5271:5335   */\n  sstore\n    /* \"#utility.yul\":5193:5349   */\n  pop\n    /* \"#utility.yul\":5170:5349   */\ntag_102:\n    /* \"#utility.yul\":5395:5396   */\n  0x01\n    /* \"#utility.yul\":5391:5392   */\n  0x02\n    /* \"#utility.yul\":5383:5389   */\n  dup9\n    /* \"#utility.yul\":5379:5393   */\n  mul\n    /* \"#utility.yul\":5375:5397   */\n  add\n    /* \"#utility.yul\":5369:5373   */\n  dup9\n    /* \"#utility.yul\":5362:5398   */\n  sstore\n    /* \"#utility.yul\":4797:5408   */\n  pop\n  pop\n  pop\n    /* \"#utility.yul\":4760:5647   */\ntag_94:\n  pop\n    /* \"#utility.yul\":4350:5653   */\n  pop\n  pop\n  pop\n    /* \"#utility.yul\":4258:5653   */\n  pop\n  pop\n  jump\t// out\n    /* \"d-app/Voting.sol\":60:5094  contract VotingDApp {... */\ntag_10:\n  dataSize(sub_0)\n  dup1\n  dataOffset(sub_0)\n  0x00\n  codecopy\n  0x00\n  return\nstop\n\nsub_0: assembly {\n        /* \"d-app/Voting.sol\":60:5094  contract VotingDApp {... */\n      mstore(0x40, 0x80)\n      callvalue\n      dup1\n      iszero\n      tag_1\n      jumpi\n      0x00\n      dup1\n      revert\n    tag_1:\n      pop\n      jumpi(tag_2, lt(calldatasize, 0x04))\n      shr(0xe0, calldataload(0x00))\n      dup1\n      0x81a60c0d\n      gt\n      tag_11\n      jumpi\n      dup1\n      0x81a60c0d\n      eq\n      tag_7\n      jumpi\n      dup1\n      0x9bc2bc71\n      eq\n      tag_8\n      jumpi\n      dup1\n      0xb384abef\n      eq\n      tag_9\n      jumpi\n      dup1\n      0xc27a500d\n      eq\n      tag_10\n      jumpi\n      jump(tag_2)\n    tag_11:\n      dup1\n      0x0b791430\n      eq\n      tag_3\n      jumpi\n      dup1\n      0x330a347b\n      eq\n      tag_4\n      jumpi\n      dup1\n      0x71be2e4a\n      eq\n      tag_5\n      jumpi\n      dup1\n      0x761e1af3\n      eq\n      tag_6\n      jumpi\n    tag_2:\n      0x00\n      dup1\n      revert\n        /* \"d-app/Voting.sol\":570:606  mapping(uint => Event) public events */\n    tag_3:\n      tag_12\n      0x04\n      dup1\n      calldatasize\n      sub\n      dup2\n      add\n      swap1\n      tag_13\n      swap2\n      swap1\n      tag_14\n      jump\t// in\n    tag_13:\n      tag_15\n      jump\t// in\n    tag_12:\n      mload(0x40)\n      tag_16\n      swap10\n      swap9\n      swap8\n      swap7\n      swap6\n      swap5\n      swap4\n      swap3\n      swap2\n      swap1\n      tag_17\n      jump\t// in\n    tag_16:\n      mload(0x40)\n      dup1\n      swap2\n      sub\n      swap1\n      return\n        /* \"d-app/Voting.sol\":2288:2531  function endEvent(uint _eventId) public {... */\n    tag_4:\n      tag_18\n      0x04\n      dup1\n      calldatasize\n      sub\n      dup2\n      add\n      swap1\n      tag_19\n      swap2\n      swap1\n      tag_14\n      jump\t// in\n    tag_19:\n      tag_20\n      jump\t// in\n    tag_18:\n      stop\n        /* \"d-app/Voting.sol\":645:667  uint public eventCount */\n    tag_5:\n      tag_21\n      tag_22\n      jump\t// in\n    tag_21:\n      mload(0x40)\n      tag_23\n      swap2\n      swap1\n      tag_24\n      jump\t// in\n    tag_23:\n      mload(0x40)\n      dup1\n      swap2\n      sub\n      swap1\n      return\n        /* \"d-app/Voting.sol\":4067:5077  function getTop5EventIds() public view returns (uint[] memory) {... */\n    tag_6:\n      tag_25\n      tag_26\n      jump\t// in\n    tag_25:\n      mload(0x40)\n      tag_27\n      swap2\n      swap1\n      tag_28\n      jump\t// in\n    tag_27:\n      mload(0x40)\n      dup1\n      swap2\n      sub\n      swap1\n      return\n        /* \"d-app/Voting.sol\":2587:2869  function getResults(uint _eventId) public view returns (string memory, uint, uint, uint, uint) {... */\n    tag_7:\n      tag_29\n      0x04\n      dup1\n      calldatasize\n      sub\n      dup2\n      add\n      swap1\n      tag_30\n      swap2\n      swap1\n      tag_14\n      jump\t// in\n    tag_30:\n      tag_31\n      jump\t// in\n    tag_29:\n      mload(0x40)\n      tag_32\n      swap6\n      swap5\n      swap4\n      swap3\n      swap2\n      swap1\n      tag_33\n      jump\t// in\n    tag_32:\n      mload(0x40)\n      dup1\n      swap2\n      sub\n      swap1\n      return\n        /* \"d-app/Voting.sol\":744:1020  function createEvent(string memory _name) public {... */\n    tag_8:\n      tag_34\n      0x04\n      dup1\n      calldatasize\n      sub\n      dup2\n      add\n      swap1\n      tag_35\n      swap2\n      swap1\n      tag_36\n      jump\t// in\n    tag_35:\n      tag_37\n      jump\t// in\n    tag_34:\n      stop\n        /* \"d-app/Voting.sol\":1422:2188  function vote(uint _eventId, uint _optionIndex) public {... */\n    tag_9:\n      tag_38\n      0x04\n      dup1\n      calldatasize\n      sub\n      dup2\n      add\n      swap1\n      tag_39\n      swap2\n      swap1\n      tag_40\n      jump\t// in\n    tag_39:\n      tag_41\n      jump\t// in\n    tag_38:\n      stop\n        /* \"d-app/Voting.sol\":2926:4061  function getAllEvents() public view returns (uint[] memory, string[] memory, bool[] memory,uint[] memory, uint[] memory, uint[] memory, uint[] memory, uint[] memory) {   ... */\n    tag_10:\n      tag_42\n      tag_43\n      jump\t// in\n    tag_42:\n      mload(0x40)\n      tag_44\n      swap9\n      swap8\n      swap7\n      swap6\n      swap5\n      swap4\n      swap3\n      swap2\n      swap1\n      tag_45\n      jump\t// in\n    tag_44:\n      mload(0x40)\n      dup1\n      swap2\n      sub\n      swap1\n      return\n        /* \"d-app/Voting.sol\":570:606  mapping(uint => Event) public events */\n    tag_15:\n      mstore(0x20, 0x00)\n      dup1\n      0x00\n      mstore\n      keccak256(0x00, 0x40)\n      0x00\n      swap2\n      pop\n      swap1\n      pop\n      dup1\n      0x00\n      add\n      sload\n      swap1\n      dup1\n      0x01\n      add\n      dup1\n      sload\n      tag_46\n      swap1\n      tag_47\n      jump\t// in\n    tag_46:\n      dup1\n      0x1f\n      add\n      0x20\n      dup1\n      swap2\n      div\n      mul\n      0x20\n      add\n      mload(0x40)\n      swap1\n      dup2\n      add\n      0x40\n      mstore\n      dup1\n      swap3\n      swap2\n      swap1\n      dup2\n      dup2\n      mstore\n      0x20\n      add\n      dup3\n      dup1\n      sload\n      tag_48\n      swap1\n      tag_47\n      jump\t// in\n    tag_48:\n      dup1\n      iszero\n      tag_49\n      jumpi\n      dup1\n      0x1f\n      lt\n      tag_50\n      jumpi\n      0x0100\n      dup1\n      dup4\n      sload\n      div\n      mul\n      dup4\n      mstore\n      swap2\n      0x20\n      add\n      swap2\n      jump(tag_49)\n    tag_50:\n      dup3\n      add\n      swap2\n      swap1\n      0x00\n      mstore\n      keccak256(0x00, 0x20)\n      swap1\n    tag_51:\n      dup2\n      sload\n      dup2\n      mstore\n      swap1\n      0x01\n      add\n      swap1\n      0x20\n      add\n      dup1\n      dup4\n      gt\n      tag_51\n      jumpi\n      dup3\n      swap1\n      sub\n      0x1f\n      and\n      dup3\n      add\n      swap2\n    tag_49:\n      pop\n      pop\n      pop\n      pop\n      pop\n      swap1\n      dup1\n      0x02\n      add\n      sload\n      swap1\n      dup1\n      0x03\n      add\n      0x00\n      swap1\n      sload\n      swap1\n      0x0100\n      exp\n      swap1\n      div\n      0xff\n      and\n      swap1\n      dup1\n      0x04\n      add\n      sload\n      swap1\n      dup1\n      0x05\n      add\n      sload\n      swap1\n      dup1\n      0x06\n      add\n      sload\n      swap1\n      dup1\n      0x07\n      add\n      sload\n      swap1\n      dup1\n      0x09\n      add\n      0x00\n      swap1\n      sload\n      swap1\n      0x0100\n      exp\n      swap1\n      div\n      0xffffffffffffffffffffffffffffffffffffffff\n      and\n      swap1\n      pop\n      dup10\n      jump\t// out\n        /* \"d-app/Voting.sol\":2288:2531  function endEvent(uint _eventId) public {... */\n    tag_20:\n        /* \"d-app/Voting.sol\":2339:2366  Event storage eventInstance */\n      0x00\n        /* \"d-app/Voting.sol\":2369:2375  events */\n      dup1\n        /* \"d-app/Voting.sol\":2369:2385  events[_eventId] */\n      0x00\n        /* \"d-app/Voting.sol\":2376:2384  _eventId */\n      dup4\n        /* \"d-app/Voting.sol\":2369:2385  events[_eventId] */\n      dup2\n      mstore\n      0x20\n      add\n      swap1\n      dup2\n      mstore\n      0x20\n      add\n      0x00\n      keccak256\n        /* \"d-app/Voting.sol\":2339:2385  Event storage eventInstance = events[_eventId] */\n      swap1\n      pop\n        /* \"d-app/Voting.sol\":2431:2441  msg.sender */\n      caller\n        /* \"d-app/Voting.sol\":2404:2441  eventInstance.organizer == msg.sender */\n      0xffffffffffffffffffffffffffffffffffffffff\n      and\n        /* \"d-app/Voting.sol\":2404:2417  eventInstance */\n      dup2\n        /* \"d-app/Voting.sol\":2404:2427  eventInstance.organizer */\n      0x09\n      add\n      0x00\n      swap1\n      sload\n      swap1\n      0x0100\n      exp\n      swap1\n      div\n      0xffffffffffffffffffffffffffffffffffffffff\n      and\n        /* \"d-app/Voting.sol\":2404:2441  eventInstance.organizer == msg.sender */\n      0xffffffffffffffffffffffffffffffffffffffff\n      and\n      eq\n        /* \"d-app/Voting.sol\":2396:2484  require(eventInstance.organizer == msg.sender, \"Only the organizer can end this event.\") */\n      tag_53\n      jumpi\n      mload(0x40)\n      0x08c379a000000000000000000000000000000000000000000000000000000000\n      dup2\n      mstore\n      0x04\n      add\n      tag_54\n      swap1\n      tag_55\n      jump\t// in\n    tag_54:\n      mload(0x40)\n      dup1\n      swap2\n      sub\n      swap1\n      revert\n    tag_53:\n        /* \"d-app/Voting.sol\":2518:2523  false */\n      0x00\n        /* \"d-app/Voting.sol\":2495:2508  eventInstance */\n      dup2\n        /* \"d-app/Voting.sol\":2495:2515  eventInstance.active */\n      0x03\n      add\n      0x00\n        /* \"d-app/Voting.sol\":2495:2523  eventInstance.active = false */\n      0x0100\n      exp\n      dup2\n      sload\n      dup2\n      0xff\n      mul\n      not\n      and\n      swap1\n      dup4\n      iszero\n      iszero\n      mul\n      or\n      swap1\n      sstore\n      pop\n        /* \"d-app/Voting.sol\":2328:2531  {... */\n      pop\n        /* \"d-app/Voting.sol\":2288:2531  function endEvent(uint _eventId) public {... */\n      pop\n      jump\t// out\n        /* \"d-app/Voting.sol\":645:667  uint public eventCount */\n    tag_22:\n      sload(0x01)\n      dup2\n      jump\t// out\n        /* \"d-app/Voting.sol\":4067:5077  function getTop5EventIds() public view returns (uint[] memory) {... */\n    tag_26:\n        /* \"d-app/Voting.sol\":4115:4128  uint[] memory */\n      0x60\n        /* \"d-app/Voting.sol\":4142:4169  uint[] memory topTotalVotes */\n      0x00\n        /* \"d-app/Voting.sol\":4183:4193  eventCount */\n      sload(0x01)\n        /* \"d-app/Voting.sol\":4172:4194  new uint[](eventCount) */\n      0xffffffffffffffff\n      dup2\n      gt\n      iszero\n      tag_57\n      jumpi\n      tag_58\n      tag_59\n      jump\t// in\n    tag_58:\n    tag_57:\n      mload(0x40)\n      swap1\n      dup1\n      dup3\n      mstore\n      dup1\n      0x20\n      mul\n      0x20\n      add\n      dup3\n      add\n      0x40\n      mstore\n      dup1\n      iszero\n      tag_60\n      jumpi\n      dup2\n      0x20\n      add\n      0x20\n      dup3\n      mul\n      dup1\n      calldatasize\n      dup4\n      calldatacopy\n      dup1\n      dup3\n      add\n      swap2\n      pop\n      pop\n      swap1\n      pop\n    tag_60:\n      pop\n        /* \"d-app/Voting.sol\":4142:4194  uint[] memory topTotalVotes = new uint[](eventCount) */\n      swap1\n      pop\n        /* \"d-app/Voting.sol\":4201:4221  uint[] memory topIds */\n      0x00\n        /* \"d-app/Voting.sol\":4235:4245  eventCount */\n      sload(0x01)\n        /* \"d-app/Voting.sol\":4224:4246  new uint[](eventCount) */\n      0xffffffffffffffff\n      dup2\n      gt\n      iszero\n      tag_61\n      jumpi\n      tag_62\n      tag_59\n      jump\t// in\n    tag_62:\n    tag_61:\n      mload(0x40)\n      swap1\n      dup1\n      dup3\n      mstore\n      dup1\n      0x20\n      mul\n      0x20\n      add\n      dup3\n      add\n      0x40\n      mstore\n      dup1\n      iszero\n      tag_63\n      jumpi\n      dup2\n      0x20\n      add\n      0x20\n      dup3\n      mul\n      dup1\n      calldatasize\n      dup4\n      calldatacopy\n      dup1\n      dup3\n      add\n      swap2\n      pop\n      pop\n      swap1\n      pop\n    tag_63:\n      pop\n        /* \"d-app/Voting.sol\":4201:4246  uint[] memory topIds = new uint[](eventCount) */\n      swap1\n      pop\n        /* \"d-app/Voting.sol\":4262:4268  uint i */\n      0x00\n        /* \"d-app/Voting.sol\":4271:4272  1 */\n      0x01\n        /* \"d-app/Voting.sol\":4262:4272  uint i = 1 */\n      swap1\n      pop\n        /* \"d-app/Voting.sol\":4257:5044  for (uint i = 1; i <= eventCount; i++) {... */\n    tag_64:\n        /* \"d-app/Voting.sol\":4279:4289  eventCount */\n      sload(0x01)\n        /* \"d-app/Voting.sol\":4274:4275  i */\n      dup2\n        /* \"d-app/Voting.sol\":4274:4289  i <= eventCount */\n      gt\n        /* \"d-app/Voting.sol\":4257:5044  for (uint i = 1; i <= eventCount; i++) {... */\n      tag_65\n      jumpi\n        /* \"d-app/Voting.sol\":4307:4334  Event storage eventInstance */\n      0x00\n        /* \"d-app/Voting.sol\":4337:4343  events */\n      dup1\n        /* \"d-app/Voting.sol\":4337:4346  events[i] */\n      0x00\n        /* \"d-app/Voting.sol\":4344:4345  i */\n      dup4\n        /* \"d-app/Voting.sol\":4337:4346  events[i] */\n      dup2\n      mstore\n      0x20\n      add\n      swap1\n      dup2\n      mstore\n      0x20\n      add\n      0x00\n      keccak256\n        /* \"d-app/Voting.sol\":4307:4346  Event storage eventInstance = events[i] */\n      swap1\n      pop\n        /* \"d-app/Voting.sol\":4357:4374  uint currentVotes */\n      0x00\n        /* \"d-app/Voting.sol\":4377:4390  eventInstance */\n      dup2\n        /* \"d-app/Voting.sol\":4377:4401  eventInstance.totalVotes */\n      0x02\n      add\n      sload\n        /* \"d-app/Voting.sol\":4357:4401  uint currentVotes = eventInstance.totalVotes */\n      swap1\n      pop\n        /* \"d-app/Voting.sol\":4494:4500  uint j */\n      0x00\n        /* \"d-app/Voting.sol\":4489:5037  for (uint j = 0; j < 5; j++) {... */\n    tag_67:\n        /* \"d-app/Voting.sol\":4510:4511  5 */\n      0x05\n        /* \"d-app/Voting.sol\":4506:4507  j */\n      dup2\n        /* \"d-app/Voting.sol\":4506:4511  j < 5 */\n      lt\n        /* \"d-app/Voting.sol\":4489:5037  for (uint j = 0; j < 5; j++) {... */\n      iszero\n      tag_68\n      jumpi\n        /* \"d-app/Voting.sol\":4552:4565  topTotalVotes */\n      dup6\n        /* \"d-app/Voting.sol\":4566:4567  j */\n      dup2\n        /* \"d-app/Voting.sol\":4552:4568  topTotalVotes[j] */\n      dup2\n      mload\n      dup2\n      lt\n      tag_70\n      jumpi\n      tag_71\n      tag_72\n      jump\t// in\n    tag_71:\n    tag_70:\n      0x20\n      mul\n      0x20\n      add\n      add\n      mload\n        /* \"d-app/Voting.sol\":4537:4549  currentVotes */\n      dup3\n        /* \"d-app/Voting.sol\":4537:4568  currentVotes > topTotalVotes[j] */\n      gt\n        /* \"d-app/Voting.sol\":4533:5026  if (currentVotes > topTotalVotes[j]) {... */\n      iszero\n      tag_73\n      jumpi\n        /* \"d-app/Voting.sol\":4677:4683  uint k */\n      0x00\n        /* \"d-app/Voting.sol\":4686:4687  4 */\n      0x04\n        /* \"d-app/Voting.sol\":4677:4687  uint k = 4 */\n      swap1\n      pop\n        /* \"d-app/Voting.sol\":4672:4827  for (uint k = 4; k > j; k--) {... */\n    tag_74:\n        /* \"d-app/Voting.sol\":4693:4694  j */\n      dup2\n        /* \"d-app/Voting.sol\":4689:4690  k */\n      dup2\n        /* \"d-app/Voting.sol\":4689:4694  k > j */\n      gt\n        /* \"d-app/Voting.sol\":4672:4827  for (uint k = 4; k > j; k--) {... */\n      iszero\n      tag_75\n      jumpi\n        /* \"d-app/Voting.sol\":4736:4742  topIds */\n      dup6\n        /* \"d-app/Voting.sol\":4745:4746  1 */\n      0x01\n        /* \"d-app/Voting.sol\":4743:4744  k */\n      dup3\n        /* \"d-app/Voting.sol\":4743:4746  k-1 */\n      tag_77\n      swap2\n      swap1\n      tag_78\n      jump\t// in\n    tag_77:\n        /* \"d-app/Voting.sol\":4736:4747  topIds[k-1] */\n      dup2\n      mload\n      dup2\n      lt\n      tag_79\n      jumpi\n      tag_80\n      tag_72\n      jump\t// in\n    tag_80:\n    tag_79:\n      0x20\n      mul\n      0x20\n      add\n      add\n      mload\n        /* \"d-app/Voting.sol\":4724:4730  topIds */\n      dup7\n        /* \"d-app/Voting.sol\":4731:4732  k */\n      dup3\n        /* \"d-app/Voting.sol\":4724:4733  topIds[k] */\n      dup2\n      mload\n      dup2\n      lt\n      tag_81\n      jumpi\n      tag_82\n      tag_72\n      jump\t// in\n    tag_82:\n    tag_81:\n      0x20\n      mul\n      0x20\n      add\n      add\n        /* \"d-app/Voting.sol\":4724:4747  topIds[k] = topIds[k-1] */\n      dup2\n      dup2\n      mstore\n      pop\n      pop\n        /* \"d-app/Voting.sol\":4789:4802  topTotalVotes */\n      dup7\n        /* \"d-app/Voting.sol\":4805:4806  1 */\n      0x01\n        /* \"d-app/Voting.sol\":4803:4804  k */\n      dup3\n        /* \"d-app/Voting.sol\":4803:4806  k-1 */\n      tag_83\n      swap2\n      swap1\n      tag_78\n      jump\t// in\n    tag_83:\n        /* \"d-app/Voting.sol\":4789:4807  topTotalVotes[k-1] */\n      dup2\n      mload\n      dup2\n      lt\n      tag_84\n      jumpi\n      tag_85\n      tag_72\n      jump\t// in\n    tag_85:\n    tag_84:\n      0x20\n      mul\n      0x20\n      add\n      add\n      mload\n        /* \"d-app/Voting.sol\":4770:4783  topTotalVotes */\n      dup8\n        /* \"d-app/Voting.sol\":4784:4785  k */\n      dup3\n        /* \"d-app/Voting.sol\":4770:4786  topTotalVotes[k] */\n      dup2\n      mload\n      dup2\n      lt\n      tag_86\n      jumpi\n      tag_87\n      tag_72\n      jump\t// in\n    tag_87:\n    tag_86:\n      0x20\n      mul\n      0x20\n      add\n      add\n        /* \"d-app/Voting.sol\":4770:4807  topTotalVotes[k] = topTotalVotes[k-1] */\n      dup2\n      dup2\n      mstore\n      pop\n      pop\n        /* \"d-app/Voting.sol\":4696:4699  k-- */\n      dup1\n      dup1\n      tag_88\n      swap1\n      tag_89\n      jump\t// in\n    tag_88:\n      swap2\n      pop\n      pop\n        /* \"d-app/Voting.sol\":4672:4827  for (uint k = 4; k > j; k--) {... */\n      jump(tag_74)\n    tag_75:\n      pop\n        /* \"d-app/Voting.sol\":4920:4933  eventInstance */\n      dup3\n        /* \"d-app/Voting.sol\":4920:4936  eventInstance.id */\n      0x00\n      add\n      sload\n        /* \"d-app/Voting.sol\":4908:4914  topIds */\n      dup6\n        /* \"d-app/Voting.sol\":4915:4916  j */\n      dup3\n        /* \"d-app/Voting.sol\":4908:4917  topIds[j] */\n      dup2\n      mload\n      dup2\n      lt\n      tag_90\n      jumpi\n      tag_91\n      tag_72\n      jump\t// in\n    tag_91:\n    tag_90:\n      0x20\n      mul\n      0x20\n      add\n      add\n        /* \"d-app/Voting.sol\":4908:4936  topIds[j] = eventInstance.id */\n      dup2\n      dup2\n      mstore\n      pop\n      pop\n        /* \"d-app/Voting.sol\":4974:4986  currentVotes */\n      dup2\n        /* \"d-app/Voting.sol\":4955:4968  topTotalVotes */\n      dup7\n        /* \"d-app/Voting.sol\":4969:4970  j */\n      dup3\n        /* \"d-app/Voting.sol\":4955:4971  topTotalVotes[j] */\n      dup2\n      mload\n      dup2\n      lt\n      tag_92\n      jumpi\n      tag_93\n      tag_72\n      jump\t// in\n    tag_93:\n    tag_92:\n      0x20\n      mul\n      0x20\n      add\n      add\n        /* \"d-app/Voting.sol\":4955:4986  topTotalVotes[j] = currentVotes */\n      dup2\n      dup2\n      mstore\n      pop\n      pop\n        /* \"d-app/Voting.sol\":5005:5010  break */\n      jump(tag_68)\n        /* \"d-app/Voting.sol\":4533:5026  if (currentVotes > topTotalVotes[j]) {... */\n    tag_73:\n        /* \"d-app/Voting.sol\":4513:4516  j++ */\n      dup1\n      dup1\n      tag_94\n      swap1\n      tag_95\n      jump\t// in\n    tag_94:\n      swap2\n      pop\n      pop\n        /* \"d-app/Voting.sol\":4489:5037  for (uint j = 0; j < 5; j++) {... */\n      jump(tag_67)\n    tag_68:\n      pop\n        /* \"d-app/Voting.sol\":4296:5044  {... */\n      pop\n      pop\n        /* \"d-app/Voting.sol\":4291:4294  i++ */\n      dup1\n      dup1\n      tag_96\n      swap1\n      tag_95\n      jump\t// in\n    tag_96:\n      swap2\n      pop\n      pop\n        /* \"d-app/Voting.sol\":4257:5044  for (uint i = 1; i <= eventCount; i++) {... */\n      jump(tag_64)\n    tag_65:\n      pop\n        /* \"d-app/Voting.sol\":5067:5073  topIds */\n      dup1\n        /* \"d-app/Voting.sol\":5060:5073  return topIds */\n      swap3\n      pop\n      pop\n      pop\n        /* \"d-app/Voting.sol\":4067:5077  function getTop5EventIds() public view returns (uint[] memory) {... */\n      swap1\n      jump\t// out\n        /* \"d-app/Voting.sol\":2587:2869  function getResults(uint _eventId) public view returns (string memory, uint, uint, uint, uint) {... */\n    tag_31:\n        /* \"d-app/Voting.sol\":2643:2656  string memory */\n      0x60\n        /* \"d-app/Voting.sol\":2658:2662  uint */\n      0x00\n        /* \"d-app/Voting.sol\":2664:2668  uint */\n      dup1\n        /* \"d-app/Voting.sol\":2670:2674  uint */\n      0x00\n        /* \"d-app/Voting.sol\":2676:2680  uint */\n      dup1\n        /* \"d-app/Voting.sol\":2693:2720  Event storage eventInstance */\n      0x00\n        /* \"d-app/Voting.sol\":2723:2729  events */\n      dup1\n        /* \"d-app/Voting.sol\":2723:2739  events[_eventId] */\n      0x00\n        /* \"d-app/Voting.sol\":2730:2738  _eventId */\n      dup9\n        /* \"d-app/Voting.sol\":2723:2739  events[_eventId] */\n      dup2\n      mstore\n      0x20\n      add\n      swap1\n      dup2\n      mstore\n      0x20\n      add\n      0x00\n      keccak256\n        /* \"d-app/Voting.sol\":2693:2739  Event storage eventInstance = events[_eventId] */\n      swap1\n      pop\n        /* \"d-app/Voting.sol\":2758:2771  eventInstance */\n      dup1\n        /* \"d-app/Voting.sol\":2758:2776  eventInstance.name */\n      0x01\n      add\n        /* \"d-app/Voting.sol\":2778:2791  eventInstance */\n      dup2\n        /* \"d-app/Voting.sol\":2778:2797  eventInstance.vote1 */\n      0x04\n      add\n      sload\n        /* \"d-app/Voting.sol\":2799:2812  eventInstance */\n      dup3\n        /* \"d-app/Voting.sol\":2799:2818  eventInstance.vote2 */\n      0x05\n      add\n      sload\n        /* \"d-app/Voting.sol\":2820:2833  eventInstance */\n      dup4\n        /* \"d-app/Voting.sol\":2820:2839  eventInstance.vote3 */\n      0x06\n      add\n      sload\n        /* \"d-app/Voting.sol\":2841:2854  eventInstance */\n      dup5\n        /* \"d-app/Voting.sol\":2841:2860  eventInstance.vote4 */\n      0x07\n      add\n      sload\n        /* \"d-app/Voting.sol\":2750:2861  return (eventInstance.name, eventInstance.vote1, eventInstance.vote2, eventInstance.vote3, eventInstance.vote4) */\n      dup5\n      dup1\n      sload\n      tag_98\n      swap1\n      tag_47\n      jump\t// in\n    tag_98:\n      dup1\n      0x1f\n      add\n      0x20\n      dup1\n      swap2\n      div\n      mul\n      0x20\n      add\n      mload(0x40)\n      swap1\n      dup2\n      add\n      0x40\n      mstore\n      dup1\n      swap3\n      swap2\n      swap1\n      dup2\n      dup2\n      mstore\n      0x20\n      add\n      dup3\n      dup1\n      sload\n      tag_99\n      swap1\n      tag_47\n      jump\t// in\n    tag_99:\n      dup1\n      iszero\n      tag_100\n      jumpi\n      dup1\n      0x1f\n      lt\n      tag_101\n      jumpi\n      0x0100\n      dup1\n      dup4\n      sload\n      div\n      mul\n      dup4\n      mstore\n      swap2\n      0x20\n      add\n      swap2\n      jump(tag_100)\n    tag_101:\n      dup3\n      add\n      swap2\n      swap1\n      0x00\n      mstore\n      keccak256(0x00, 0x20)\n      swap1\n    tag_102:\n      dup2\n      sload\n      dup2\n      mstore\n      swap1\n      0x01\n      add\n      swap1\n      0x20\n      add\n      dup1\n      dup4\n      gt\n      tag_102\n      jumpi\n      dup3\n      swap1\n      sub\n      0x1f\n      and\n      dup3\n      add\n      swap2\n    tag_100:\n      pop\n      pop\n      pop\n      pop\n      pop\n      swap5\n      pop\n      swap6\n      pop\n      swap6\n      pop\n      swap6\n      pop\n      swap6\n      pop\n      swap6\n      pop\n      pop\n        /* \"d-app/Voting.sol\":2587:2869  function getResults(uint _eventId) public view returns (string memory, uint, uint, uint, uint) {... */\n      swap2\n      swap4\n      swap6\n      swap1\n      swap3\n      swap5\n      pop\n      jump\t// out\n        /* \"d-app/Voting.sol\":744:1020  function createEvent(string memory _name) public {... */\n    tag_37:\n        /* \"d-app/Voting.sol\":804:814  eventCount */\n      0x01\n      0x00\n        /* \"d-app/Voting.sol\":804:816  eventCount++ */\n      dup2\n      sload\n      dup1\n      swap3\n      swap2\n      swap1\n      tag_104\n      swap1\n      tag_95\n      jump\t// in\n    tag_104:\n      swap2\n      swap1\n      pop\n      sstore\n      pop\n        /* \"d-app/Voting.sol\":827:849  Event storage newEvent */\n      0x00\n        /* \"d-app/Voting.sol\":852:858  events */\n      dup1\n        /* \"d-app/Voting.sol\":852:870  events[eventCount] */\n      0x00\n        /* \"d-app/Voting.sol\":859:869  eventCount */\n      sload(0x01)\n        /* \"d-app/Voting.sol\":852:870  events[eventCount] */\n      dup2\n      mstore\n      0x20\n      add\n      swap1\n      dup2\n      mstore\n      0x20\n      add\n      0x00\n      keccak256\n        /* \"d-app/Voting.sol\":827:870  Event storage newEvent = events[eventCount] */\n      swap1\n      pop\n        /* \"d-app/Voting.sol\":895:905  eventCount */\n      sload(0x01)\n        /* \"d-app/Voting.sol\":881:889  newEvent */\n      dup2\n        /* \"d-app/Voting.sol\":881:892  newEvent.id */\n      0x00\n      add\n        /* \"d-app/Voting.sol\":881:905  newEvent.id = eventCount */\n      dup2\n      swap1\n      sstore\n      pop\n        /* \"d-app/Voting.sol\":932:937  _name */\n      dup2\n        /* \"d-app/Voting.sol\":916:924  newEvent */\n      dup2\n        /* \"d-app/Voting.sol\":916:929  newEvent.name */\n      0x01\n      add\n        /* \"d-app/Voting.sol\":916:937  newEvent.name = _name */\n      swap1\n      dup2\n      tag_105\n      swap2\n      swap1\n      tag_106\n      jump\t// in\n    tag_105:\n      pop\n        /* \"d-app/Voting.sol\":966:970  true */\n      0x01\n        /* \"d-app/Voting.sol\":948:956  newEvent */\n      dup2\n        /* \"d-app/Voting.sol\":948:963  newEvent.active */\n      0x03\n      add\n      0x00\n        /* \"d-app/Voting.sol\":948:970  newEvent.active = true */\n      0x0100\n      exp\n      dup2\n      sload\n      dup2\n      0xff\n      mul\n      not\n      and\n      swap1\n      dup4\n      iszero\n      iszero\n      mul\n      or\n      swap1\n      sstore\n      pop\n        /* \"d-app/Voting.sol\":1002:1012  msg.sender */\n      caller\n        /* \"d-app/Voting.sol\":981:989  newEvent */\n      dup2\n        /* \"d-app/Voting.sol\":981:999  newEvent.organizer */\n      0x09\n      add\n      0x00\n        /* \"d-app/Voting.sol\":981:1012  newEvent.organizer = msg.sender */\n      0x0100\n      exp\n      dup2\n      sload\n      dup2\n      0xffffffffffffffffffffffffffffffffffffffff\n      mul\n      not\n      and\n      swap1\n      dup4\n      0xffffffffffffffffffffffffffffffffffffffff\n      and\n      mul\n      or\n      swap1\n      sstore\n      pop\n        /* \"d-app/Voting.sol\":793:1020  {... */\n      pop\n        /* \"d-app/Voting.sol\":744:1020  function createEvent(string memory _name) public {... */\n      pop\n      jump\t// out\n        /* \"d-app/Voting.sol\":1422:2188  function vote(uint _eventId, uint _optionIndex) public {... */\n    tag_41:\n        /* \"d-app/Voting.sol\":1511:1512  4 */\n      0x04\n        /* \"d-app/Voting.sol\":1496:1508  _optionIndex */\n      dup2\n        /* \"d-app/Voting.sol\":1496:1512  _optionIndex < 4 */\n      lt\n        /* \"d-app/Voting.sol\":1488:1538  require(_optionIndex < 4, \"Invalid option index.\") */\n      tag_108\n      jumpi\n      mload(0x40)\n      0x08c379a000000000000000000000000000000000000000000000000000000000\n      dup2\n      mstore\n      0x04\n      add\n      tag_109\n      swap1\n      tag_110\n      jump\t// in\n    tag_109:\n      mload(0x40)\n      dup1\n      swap2\n      sub\n      swap1\n      revert\n    tag_108:\n        /* \"d-app/Voting.sol\":1549:1576  Event storage eventInstance */\n      0x00\n        /* \"d-app/Voting.sol\":1579:1585  events */\n      dup1\n        /* \"d-app/Voting.sol\":1579:1595  events[_eventId] */\n      0x00\n        /* \"d-app/Voting.sol\":1586:1594  _eventId */\n      dup5\n        /* \"d-app/Voting.sol\":1579:1595  events[_eventId] */\n      dup2\n      mstore\n      0x20\n      add\n      swap1\n      dup2\n      mstore\n      0x20\n      add\n      0x00\n      keccak256\n        /* \"d-app/Voting.sol\":1549:1595  Event storage eventInstance = events[_eventId] */\n      swap1\n      pop\n        /* \"d-app/Voting.sol\":1614:1627  eventInstance */\n      dup1\n        /* \"d-app/Voting.sol\":1614:1634  eventInstance.active */\n      0x03\n      add\n      0x00\n      swap1\n      sload\n      swap1\n      0x0100\n      exp\n      swap1\n      div\n      0xff\n      and\n        /* \"d-app/Voting.sol\":1606:1659  require(eventInstance.active, \"Event is not active.\") */\n      tag_111\n      jumpi\n      mload(0x40)\n      0x08c379a000000000000000000000000000000000000000000000000000000000\n      dup2\n      mstore\n      0x04\n      add\n      tag_112\n      swap1\n      tag_113\n      jump\t// in\n    tag_112:\n      mload(0x40)\n      dup1\n      swap2\n      sub\n      swap1\n      revert\n    tag_111:\n        /* \"d-app/Voting.sol\":1679:1692  eventInstance */\n      dup1\n        /* \"d-app/Voting.sol\":1679:1701  eventInstance.hasVoted */\n      0x08\n      add\n        /* \"d-app/Voting.sol\":1679:1713  eventInstance.hasVoted[msg.sender] */\n      0x00\n        /* \"d-app/Voting.sol\":1702:1712  msg.sender */\n      caller\n        /* \"d-app/Voting.sol\":1679:1713  eventInstance.hasVoted[msg.sender] */\n      0xffffffffffffffffffffffffffffffffffffffff\n      and\n      0xffffffffffffffffffffffffffffffffffffffff\n      and\n      dup2\n      mstore\n      0x20\n      add\n      swap1\n      dup2\n      mstore\n      0x20\n      add\n      0x00\n      keccak256\n      0x00\n      swap1\n      sload\n      swap1\n      0x0100\n      exp\n      swap1\n      div\n      0xff\n      and\n        /* \"d-app/Voting.sol\":1678:1713  !eventInstance.hasVoted[msg.sender] */\n      iszero\n        /* \"d-app/Voting.sol\":1670:1741  require(!eventInstance.hasVoted[msg.sender], \"You have already voted.\") */\n      tag_114\n      jumpi\n      mload(0x40)\n      0x08c379a000000000000000000000000000000000000000000000000000000000\n      dup2\n      mstore\n      0x04\n      add\n      tag_115\n      swap1\n      tag_116\n      jump\t// in\n    tag_115:\n      mload(0x40)\n      dup1\n      swap2\n      sub\n      swap1\n      revert\n    tag_114:\n        /* \"d-app/Voting.sol\":1774:1775  0 */\n      0x00\n        /* \"d-app/Voting.sol\":1758:1770  _optionIndex */\n      dup3\n        /* \"d-app/Voting.sol\":1758:1775  _optionIndex == 0 */\n      sub\n        /* \"d-app/Voting.sol\":1754:2056  if (_optionIndex == 0) {... */\n      tag_117\n      jumpi\n        /* \"d-app/Voting.sol\":1792:1805  eventInstance */\n      dup1\n        /* \"d-app/Voting.sol\":1792:1811  eventInstance.vote1 */\n      0x04\n      add\n      0x00\n        /* \"d-app/Voting.sol\":1792:1813  eventInstance.vote1++ */\n      dup2\n      sload\n      dup1\n      swap3\n      swap2\n      swap1\n      tag_118\n      swap1\n      tag_95\n      jump\t// in\n    tag_118:\n      swap2\n      swap1\n      pop\n      sstore\n      pop\n        /* \"d-app/Voting.sol\":1754:2056  if (_optionIndex == 0) {... */\n      jump(tag_119)\n    tag_117:\n        /* \"d-app/Voting.sol\":1851:1852  1 */\n      0x01\n        /* \"d-app/Voting.sol\":1835:1847  _optionIndex */\n      dup3\n        /* \"d-app/Voting.sol\":1835:1852  _optionIndex == 1 */\n      sub\n        /* \"d-app/Voting.sol\":1831:2056  if (_optionIndex == 1) {... */\n      tag_120\n      jumpi\n        /* \"d-app/Voting.sol\":1869:1882  eventInstance */\n      dup1\n        /* \"d-app/Voting.sol\":1869:1888  eventInstance.vote2 */\n      0x05\n      add\n      0x00\n        /* \"d-app/Voting.sol\":1869:1890  eventInstance.vote2++ */\n      dup2\n      sload\n      dup1\n      swap3\n      swap2\n      swap1\n      tag_121\n      swap1\n      tag_95\n      jump\t// in\n    tag_121:\n      swap2\n      swap1\n      pop\n      sstore\n      pop\n        /* \"d-app/Voting.sol\":1831:2056  if (_optionIndex == 1) {... */\n      jump(tag_122)\n    tag_120:\n        /* \"d-app/Voting.sol\":1928:1929  2 */\n      0x02\n        /* \"d-app/Voting.sol\":1912:1924  _optionIndex */\n      dup3\n        /* \"d-app/Voting.sol\":1912:1929  _optionIndex == 2 */\n      sub\n        /* \"d-app/Voting.sol\":1908:2056  if (_optionIndex == 2) {... */\n      tag_123\n      jumpi\n        /* \"d-app/Voting.sol\":1946:1959  eventInstance */\n      dup1\n        /* \"d-app/Voting.sol\":1946:1965  eventInstance.vote3 */\n      0x06\n      add\n      0x00\n        /* \"d-app/Voting.sol\":1946:1967  eventInstance.vote3++ */\n      dup2\n      sload\n      dup1\n      swap3\n      swap2\n      swap1\n      tag_124\n      swap1\n      tag_95\n      jump\t// in\n    tag_124:\n      swap2\n      swap1\n      pop\n      sstore\n      pop\n        /* \"d-app/Voting.sol\":1908:2056  if (_optionIndex == 2) {... */\n      jump(tag_125)\n    tag_123:\n        /* \"d-app/Voting.sol\":2005:2006  3 */\n      0x03\n        /* \"d-app/Voting.sol\":1989:2001  _optionIndex */\n      dup3\n        /* \"d-app/Voting.sol\":1989:2006  _optionIndex == 3 */\n      sub\n        /* \"d-app/Voting.sol\":1985:2056  if (_optionIndex == 3) {... */\n      tag_126\n      jumpi\n        /* \"d-app/Voting.sol\":2023:2036  eventInstance */\n      dup1\n        /* \"d-app/Voting.sol\":2023:2042  eventInstance.vote4 */\n      0x07\n      add\n      0x00\n        /* \"d-app/Voting.sol\":2023:2044  eventInstance.vote4++ */\n      dup2\n      sload\n      dup1\n      swap3\n      swap2\n      swap1\n      tag_127\n      swap1\n      tag_95\n      jump\t// in\n    tag_127:\n      swap2\n      swap1\n      pop\n      sstore\n      pop\n        /* \"d-app/Voting.sol\":1985:2056  if (_optionIndex == 3) {... */\n    tag_126:\n        /* \"d-app/Voting.sol\":1908:2056  if (_optionIndex == 2) {... */\n    tag_125:\n        /* \"d-app/Voting.sol\":1831:2056  if (_optionIndex == 1) {... */\n    tag_122:\n        /* \"d-app/Voting.sol\":1754:2056  if (_optionIndex == 0) {... */\n    tag_119:\n        /* \"d-app/Voting.sol\":2068:2081  eventInstance */\n      dup1\n        /* \"d-app/Voting.sol\":2068:2092  eventInstance.totalVotes */\n      0x02\n      add\n      0x00\n        /* \"d-app/Voting.sol\":2068:2094  eventInstance.totalVotes++ */\n      dup2\n      sload\n      dup1\n      swap3\n      swap2\n      swap1\n      tag_128\n      swap1\n      tag_95\n      jump\t// in\n    tag_128:\n      swap2\n      swap1\n      pop\n      sstore\n      pop\n        /* \"d-app/Voting.sol\":2176:2180  true */\n      0x01\n        /* \"d-app/Voting.sol\":2139:2152  eventInstance */\n      dup2\n        /* \"d-app/Voting.sol\":2139:2161  eventInstance.hasVoted */\n      0x08\n      add\n        /* \"d-app/Voting.sol\":2139:2173  eventInstance.hasVoted[msg.sender] */\n      0x00\n        /* \"d-app/Voting.sol\":2162:2172  msg.sender */\n      caller\n        /* \"d-app/Voting.sol\":2139:2173  eventInstance.hasVoted[msg.sender] */\n      0xffffffffffffffffffffffffffffffffffffffff\n      and\n      0xffffffffffffffffffffffffffffffffffffffff\n      and\n      dup2\n      mstore\n      0x20\n      add\n      swap1\n      dup2\n      mstore\n      0x20\n      add\n      0x00\n      keccak256\n      0x00\n        /* \"d-app/Voting.sol\":2139:2180  eventInstance.hasVoted[msg.sender] = true */\n      0x0100\n      exp\n      dup2\n      sload\n      dup2\n      0xff\n      mul\n      not\n      and\n      swap1\n      dup4\n      iszero\n      iszero\n      mul\n      or\n      swap1\n      sstore\n      pop\n        /* \"d-app/Voting.sol\":1477:2188  {... */\n      pop\n        /* \"d-app/Voting.sol\":1422:2188  function vote(uint _eventId, uint _optionIndex) public {... */\n      pop\n      pop\n      jump\t// out\n        /* \"d-app/Voting.sol\":2926:4061  function getAllEvents() public view returns (uint[] memory, string[] memory, bool[] memory,uint[] memory, uint[] memory, uint[] memory, uint[] memory, uint[] memory) {   ... */\n    tag_43:\n        /* \"d-app/Voting.sol\":2971:2984  uint[] memory */\n      0x60\n        /* \"d-app/Voting.sol\":2986:3001  string[] memory */\n      dup1\n        /* \"d-app/Voting.sol\":3003:3016  bool[] memory */\n      0x60\n        /* \"d-app/Voting.sol\":3017:3030  uint[] memory */\n      dup1\n        /* \"d-app/Voting.sol\":3032:3045  uint[] memory */\n      0x60\n        /* \"d-app/Voting.sol\":3047:3060  uint[] memory */\n      dup1\n        /* \"d-app/Voting.sol\":3062:3075  uint[] memory */\n      0x60\n        /* \"d-app/Voting.sol\":3077:3090  uint[] memory */\n      dup1\n        /* \"d-app/Voting.sol\":3102:3119  uint[] memory ids */\n      0x00\n        /* \"d-app/Voting.sol\":3133:3143  eventCount */\n      sload(0x01)\n        /* \"d-app/Voting.sol\":3122:3144  new uint[](eventCount) */\n      0xffffffffffffffff\n      dup2\n      gt\n      iszero\n      tag_130\n      jumpi\n      tag_131\n      tag_59\n      jump\t// in\n    tag_131:\n    tag_130:\n      mload(0x40)\n      swap1\n      dup1\n      dup3\n      mstore\n      dup1\n      0x20\n      mul\n      0x20\n      add\n      dup3\n      add\n      0x40\n      mstore\n      dup1\n      iszero\n      tag_132\n      jumpi\n      dup2\n      0x20\n      add\n      0x20\n      dup3\n      mul\n      dup1\n      calldatasize\n      dup4\n      calldatacopy\n      dup1\n      dup3\n      add\n      swap2\n      pop\n      pop\n      swap1\n      pop\n    tag_132:\n      pop\n        /* \"d-app/Voting.sol\":3102:3144  uint[] memory ids = new uint[](eventCount) */\n      swap1\n      pop\n        /* \"d-app/Voting.sol\":3151:3172  string[] memory names */\n      0x00\n        /* \"d-app/Voting.sol\":3188:3198  eventCount */\n      sload(0x01)\n        /* \"d-app/Voting.sol\":3175:3199  new string[](eventCount) */\n      0xffffffffffffffff\n      dup2\n      gt\n      iszero\n      tag_133\n      jumpi\n      tag_134\n      tag_59\n      jump\t// in\n    tag_134:\n    tag_133:\n      mload(0x40)\n      swap1\n      dup1\n      dup3\n      mstore\n      dup1\n      0x20\n      mul\n      0x20\n      add\n      dup3\n      add\n      0x40\n      mstore\n      dup1\n      iszero\n      tag_135\n      jumpi\n      dup2\n      0x20\n      add\n    tag_136:\n      0x60\n      dup2\n      mstore\n      0x20\n      add\n      swap1\n      0x01\n      swap1\n      sub\n      swap1\n      dup2\n      tag_136\n      jumpi\n      swap1\n      pop\n    tag_135:\n      pop\n        /* \"d-app/Voting.sol\":3151:3199  string[] memory names = new string[](eventCount) */\n      swap1\n      pop\n        /* \"d-app/Voting.sol\":3206:3227  bool[] memory actives */\n      0x00\n        /* \"d-app/Voting.sol\":3241:3251  eventCount */\n      sload(0x01)\n        /* \"d-app/Voting.sol\":3230:3252  new bool[](eventCount) */\n      0xffffffffffffffff\n      dup2\n      gt\n      iszero\n      tag_137\n      jumpi\n      tag_138\n      tag_59\n      jump\t// in\n    tag_138:\n    tag_137:\n      mload(0x40)\n      swap1\n      dup1\n      dup3\n      mstore\n      dup1\n      0x20\n      mul\n      0x20\n      add\n      dup3\n      add\n      0x40\n      mstore\n      dup1\n      iszero\n      tag_139\n      jumpi\n      dup2\n      0x20\n      add\n      0x20\n      dup3\n      mul\n      dup1\n      calldatasize\n      dup4\n      calldatacopy\n      dup1\n      dup3\n      add\n      swap2\n      pop\n      pop\n      swap1\n      pop\n    tag_139:\n      pop\n        /* \"d-app/Voting.sol\":3206:3252  bool[] memory actives = new bool[](eventCount) */\n      swap1\n      pop\n        /* \"d-app/Voting.sol\":3259:3279  uint[] memory vote1s */\n      0x00\n        /* \"d-app/Voting.sol\":3293:3303  eventCount */\n      sload(0x01)\n        /* \"d-app/Voting.sol\":3282:3304  new uint[](eventCount) */\n      0xffffffffffffffff\n      dup2\n      gt\n      iszero\n      tag_140\n      jumpi\n      tag_141\n      tag_59\n      jump\t// in\n    tag_141:\n    tag_140:\n      mload(0x40)\n      swap1\n      dup1\n      dup3\n      mstore\n      dup1\n      0x20\n      mul\n      0x20\n      add\n      dup3\n      add\n      0x40\n      mstore\n      dup1\n      iszero\n      tag_142\n      jumpi\n      dup2\n      0x20\n      add\n      0x20\n      dup3\n      mul\n      dup1\n      calldatasize\n      dup4\n      calldatacopy\n      dup1\n      dup3\n      add\n      swap2\n      pop\n      pop\n      swap1\n      pop\n    tag_142:\n      pop\n        /* \"d-app/Voting.sol\":3259:3304  uint[] memory vote1s = new uint[](eventCount) */\n      swap1\n      pop\n        /* \"d-app/Voting.sol\":3311:3331  uint[] memory vote2s */\n      0x00\n        /* \"d-app/Voting.sol\":3345:3355  eventCount */\n      sload(0x01)\n        /* \"d-app/Voting.sol\":3334:3356  new uint[](eventCount) */\n      0xffffffffffffffff\n      dup2\n      gt\n      iszero\n      tag_143\n      jumpi\n      tag_144\n      tag_59\n      jump\t// in\n    tag_144:\n    tag_143:\n      mload(0x40)\n      swap1\n      dup1\n      dup3\n      mstore\n      dup1\n      0x20\n      mul\n      0x20\n      add\n      dup3\n      add\n      0x40\n      mstore\n      dup1\n      iszero\n      tag_145\n      jumpi\n      dup2\n      0x20\n      add\n      0x20\n      dup3\n      mul\n      dup1\n      calldatasize\n      dup4\n      calldatacopy\n      dup1\n      dup3\n      add\n      swap2\n      pop\n      pop\n      swap1\n      pop\n    tag_145:\n      pop\n        /* \"d-app/Voting.sol\":3311:3356  uint[] memory vote2s = new uint[](eventCount) */\n      swap1\n      pop\n        /* \"d-app/Voting.sol\":3363:3383  uint[] memory vote3s */\n      0x00\n        /* \"d-app/Voting.sol\":3397:3407  eventCount */\n      sload(0x01)\n        /* \"d-app/Voting.sol\":3386:3408  new uint[](eventCount) */\n      0xffffffffffffffff\n      dup2\n      gt\n      iszero\n      tag_146\n      jumpi\n      tag_147\n      tag_59\n      jump\t// in\n    tag_147:\n    tag_146:\n      mload(0x40)\n      swap1\n      dup1\n      dup3\n      mstore\n      dup1\n      0x20\n      mul\n      0x20\n      add\n      dup3\n      add\n      0x40\n      mstore\n      dup1\n      iszero\n      tag_148\n      jumpi\n      dup2\n      0x20\n      add\n      0x20\n      dup3\n      mul\n      dup1\n      calldatasize\n      dup4\n      calldatacopy\n      dup1\n      dup3\n      add\n      swap2\n      pop\n      pop\n      swap1\n      pop\n    tag_148:\n      pop\n        /* \"d-app/Voting.sol\":3363:3408  uint[] memory vote3s = new uint[](eventCount) */\n      swap1\n      pop\n        /* \"d-app/Voting.sol\":3415:3435  uint[] memory vote4s */\n      0x00\n        /* \"d-app/Voting.sol\":3449:3459  eventCount */\n      sload(0x01)\n        /* \"d-app/Voting.sol\":3438:3460  new uint[](eventCount) */\n      0xffffffffffffffff\n      dup2\n      gt\n      iszero\n      tag_149\n      jumpi\n      tag_150\n      tag_59\n      jump\t// in\n    tag_150:\n    tag_149:\n      mload(0x40)\n      swap1\n      dup1\n      dup3\n      mstore\n      dup1\n      0x20\n      mul\n      0x20\n      add\n      dup3\n      add\n      0x40\n      mstore\n      dup1\n      iszero\n      tag_151\n      jumpi\n      dup2\n      0x20\n      add\n      0x20\n      dup3\n      mul\n      dup1\n      calldatasize\n      dup4\n      calldatacopy\n      dup1\n      dup3\n      add\n      swap2\n      pop\n      pop\n      swap1\n      pop\n    tag_151:\n      pop\n        /* \"d-app/Voting.sol\":3415:3460  uint[] memory vote4s = new uint[](eventCount) */\n      swap1\n      pop\n        /* \"d-app/Voting.sol\":3467:3491  uint[] memory totalVotes */\n      0x00\n        /* \"d-app/Voting.sol\":3505:3515  eventCount */\n      sload(0x01)\n        /* \"d-app/Voting.sol\":3494:3516  new uint[](eventCount) */\n      0xffffffffffffffff\n      dup2\n      gt\n      iszero\n      tag_152\n      jumpi\n      tag_153\n      tag_59\n      jump\t// in\n    tag_153:\n    tag_152:\n      mload(0x40)\n      swap1\n      dup1\n      dup3\n      mstore\n      dup1\n      0x20\n      mul\n      0x20\n      add\n      dup3\n      add\n      0x40\n      mstore\n      dup1\n      iszero\n      tag_154\n      jumpi\n      dup2\n      0x20\n      add\n      0x20\n      dup3\n      mul\n      dup1\n      calldatasize\n      dup4\n      calldatacopy\n      dup1\n      dup3\n      add\n      swap2\n      pop\n      pop\n      swap1\n      pop\n    tag_154:\n      pop\n        /* \"d-app/Voting.sol\":3467:3516  uint[] memory totalVotes = new uint[](eventCount) */\n      swap1\n      pop\n        /* \"d-app/Voting.sol\":3530:3536  uint i */\n      0x00\n        /* \"d-app/Voting.sol\":3539:3540  1 */\n      0x01\n        /* \"d-app/Voting.sol\":3530:3540  uint i = 1 */\n      swap1\n      pop\n        /* \"d-app/Voting.sol\":3525:3977  for (uint i = 1; i <= eventCount; i++) {... */\n    tag_155:\n        /* \"d-app/Voting.sol\":3547:3557  eventCount */\n      sload(0x01)\n        /* \"d-app/Voting.sol\":3542:3543  i */\n      dup2\n        /* \"d-app/Voting.sol\":3542:3557  i <= eventCount */\n      gt\n        /* \"d-app/Voting.sol\":3525:3977  for (uint i = 1; i <= eventCount; i++) {... */\n      tag_156\n      jumpi\n        /* \"d-app/Voting.sol\":3575:3602  Event storage eventInstance */\n      0x00\n        /* \"d-app/Voting.sol\":3605:3611  events */\n      dup1\n        /* \"d-app/Voting.sol\":3605:3614  events[i] */\n      0x00\n        /* \"d-app/Voting.sol\":3612:3613  i */\n      dup4\n        /* \"d-app/Voting.sol\":3605:3614  events[i] */\n      dup2\n      mstore\n      0x20\n      add\n      swap1\n      dup2\n      mstore\n      0x20\n      add\n      0x00\n      keccak256\n        /* \"d-app/Voting.sol\":3575:3614  Event storage eventInstance = events[i] */\n      swap1\n      pop\n        /* \"d-app/Voting.sol\":3636:3649  eventInstance */\n      dup1\n        /* \"d-app/Voting.sol\":3636:3652  eventInstance.id */\n      0x00\n      add\n      sload\n        /* \"d-app/Voting.sol\":3625:3628  ids */\n      dup11\n        /* \"d-app/Voting.sol\":3631:3632  1 */\n      0x01\n        /* \"d-app/Voting.sol\":3629:3630  i */\n      dup5\n        /* \"d-app/Voting.sol\":3629:3632  i-1 */\n      tag_158\n      swap2\n      swap1\n      tag_78\n      jump\t// in\n    tag_158:\n        /* \"d-app/Voting.sol\":3625:3633  ids[i-1] */\n      dup2\n      mload\n      dup2\n      lt\n      tag_159\n      jumpi\n      tag_160\n      tag_72\n      jump\t// in\n    tag_160:\n    tag_159:\n      0x20\n      mul\n      0x20\n      add\n      add\n        /* \"d-app/Voting.sol\":3625:3652  ids[i-1] = eventInstance.id */\n      dup2\n      dup2\n      mstore\n      pop\n      pop\n        /* \"d-app/Voting.sol\":3676:3689  eventInstance */\n      dup1\n        /* \"d-app/Voting.sol\":3676:3694  eventInstance.name */\n      0x01\n      add\n        /* \"d-app/Voting.sol\":3663:3694  names[i-1] = eventInstance.name */\n      dup1\n      sload\n      tag_161\n      swap1\n      tag_47\n      jump\t// in\n    tag_161:\n      dup1\n      0x1f\n      add\n      0x20\n      dup1\n      swap2\n      div\n      mul\n      0x20\n      add\n      mload(0x40)\n      swap1\n      dup2\n      add\n      0x40\n      mstore\n      dup1\n      swap3\n      swap2\n      swap1\n      dup2\n      dup2\n      mstore\n      0x20\n      add\n      dup3\n      dup1\n      sload\n      tag_162\n      swap1\n      tag_47\n      jump\t// in\n    tag_162:\n      dup1\n      iszero\n      tag_163\n      jumpi\n      dup1\n      0x1f\n      lt\n      tag_164\n      jumpi\n      0x0100\n      dup1\n      dup4\n      sload\n      div\n      mul\n      dup4\n      mstore\n      swap2\n      0x20\n      add\n      swap2\n      jump(tag_163)\n    tag_164:\n      dup3\n      add\n      swap2\n      swap1\n      0x00\n      mstore\n      keccak256(0x00, 0x20)\n      swap1\n    tag_165:\n      dup2\n      sload\n      dup2\n      mstore\n      swap1\n      0x01\n      add\n      swap1\n      0x20\n      add\n      dup1\n      dup4\n      gt\n      tag_165\n      jumpi\n      dup3\n      swap1\n      sub\n      0x1f\n      and\n      dup3\n      add\n      swap2\n    tag_163:\n      pop\n      pop\n      pop\n      pop\n      pop\n        /* \"d-app/Voting.sol\":3663:3668  names */\n      dup10\n        /* \"d-app/Voting.sol\":3671:3672  1 */\n      0x01\n        /* \"d-app/Voting.sol\":3669:3670  i */\n      dup5\n        /* \"d-app/Voting.sol\":3669:3672  i-1 */\n      tag_166\n      swap2\n      swap1\n      tag_78\n      jump\t// in\n    tag_166:\n        /* \"d-app/Voting.sol\":3663:3673  names[i-1] */\n      dup2\n      mload\n      dup2\n      lt\n      tag_167\n      jumpi\n      tag_168\n      tag_72\n      jump\t// in\n    tag_168:\n    tag_167:\n      0x20\n      mul\n      0x20\n      add\n      add\n        /* \"d-app/Voting.sol\":3663:3694  names[i-1] = eventInstance.name */\n      dup2\n      swap1\n      mstore\n      pop\n        /* \"d-app/Voting.sol\":3720:3733  eventInstance */\n      dup1\n        /* \"d-app/Voting.sol\":3720:3740  eventInstance.active */\n      0x03\n      add\n      0x00\n      swap1\n      sload\n      swap1\n      0x0100\n      exp\n      swap1\n      div\n      0xff\n      and\n        /* \"d-app/Voting.sol\":3705:3712  actives */\n      dup9\n        /* \"d-app/Voting.sol\":3715:3716  1 */\n      0x01\n        /* \"d-app/Voting.sol\":3713:3714  i */\n      dup5\n        /* \"d-app/Voting.sol\":3713:3716  i-1 */\n      tag_169\n      swap2\n      swap1\n      tag_78\n      jump\t// in\n    tag_169:\n        /* \"d-app/Voting.sol\":3705:3717  actives[i-1] */\n      dup2\n      mload\n      dup2\n      lt\n      tag_170\n      jumpi\n      tag_171\n      tag_72\n      jump\t// in\n    tag_171:\n    tag_170:\n      0x20\n      mul\n      0x20\n      add\n      add\n        /* \"d-app/Voting.sol\":3705:3740  actives[i-1] = eventInstance.active */\n      swap1\n      iszero\n      iszero\n      swap1\n      dup2\n      iszero\n      iszero\n      dup2\n      mstore\n      pop\n      pop\n        /* \"d-app/Voting.sol\":3765:3778  eventInstance */\n      dup1\n        /* \"d-app/Voting.sol\":3765:3784  eventInstance.vote1 */\n      0x04\n      add\n      sload\n        /* \"d-app/Voting.sol\":3751:3757  vote1s */\n      dup8\n        /* \"d-app/Voting.sol\":3760:3761  1 */\n      0x01\n        /* \"d-app/Voting.sol\":3758:3759  i */\n      dup5\n        /* \"d-app/Voting.sol\":3758:3761  i-1 */\n      tag_172\n      swap2\n      swap1\n      tag_78\n      jump\t// in\n    tag_172:\n        /* \"d-app/Voting.sol\":3751:3762  vote1s[i-1] */\n      dup2\n      mload\n      dup2\n      lt\n      tag_173\n      jumpi\n      tag_174\n      tag_72\n      jump\t// in\n    tag_174:\n    tag_173:\n      0x20\n      mul\n      0x20\n      add\n      add\n        /* \"d-app/Voting.sol\":3751:3784  vote1s[i-1] = eventInstance.vote1 */\n      dup2\n      dup2\n      mstore\n      pop\n      pop\n        /* \"d-app/Voting.sol\":3809:3822  eventInstance */\n      dup1\n        /* \"d-app/Voting.sol\":3809:3828  eventInstance.vote2 */\n      0x05\n      add\n      sload\n        /* \"d-app/Voting.sol\":3795:3801  vote2s */\n      dup7\n        /* \"d-app/Voting.sol\":3804:3805  1 */\n      0x01\n        /* \"d-app/Voting.sol\":3802:3803  i */\n      dup5\n        /* \"d-app/Voting.sol\":3802:3805  i-1 */\n      tag_175\n      swap2\n      swap1\n      tag_78\n      jump\t// in\n    tag_175:\n        /* \"d-app/Voting.sol\":3795:3806  vote2s[i-1] */\n      dup2\n      mload\n      dup2\n      lt\n      tag_176\n      jumpi\n      tag_177\n      tag_72\n      jump\t// in\n    tag_177:\n    tag_176:\n      0x20\n      mul\n      0x20\n      add\n      add\n        /* \"d-app/Voting.sol\":3795:3828  vote2s[i-1] = eventInstance.vote2 */\n      dup2\n      dup2\n      mstore\n      pop\n      pop\n        /* \"d-app/Voting.sol\":3853:3866  eventInstance */\n      dup1\n        /* \"d-app/Voting.sol\":3853:3872  eventInstance.vote3 */\n      0x06\n      add\n      sload\n        /* \"d-app/Voting.sol\":3839:3845  vote3s */\n      dup6\n        /* \"d-app/Voting.sol\":3848:3849  1 */\n      0x01\n        /* \"d-app/Voting.sol\":3846:3847  i */\n      dup5\n        /* \"d-app/Voting.sol\":3846:3849  i-1 */\n      tag_178\n      swap2\n      swap1\n      tag_78\n      jump\t// in\n    tag_178:\n        /* \"d-app/Voting.sol\":3839:3850  vote3s[i-1] */\n      dup2\n      mload\n      dup2\n      lt\n      tag_179\n      jumpi\n      tag_180\n      tag_72\n      jump\t// in\n    tag_180:\n    tag_179:\n      0x20\n      mul\n      0x20\n      add\n      add\n        /* \"d-app/Voting.sol\":3839:3872  vote3s[i-1] = eventInstance.vote3 */\n      dup2\n      dup2\n      mstore\n      pop\n      pop\n        /* \"d-app/Voting.sol\":3897:3910  eventInstance */\n      dup1\n        /* \"d-app/Voting.sol\":3897:3916  eventInstance.vote4 */\n      0x07\n      add\n      sload\n        /* \"d-app/Voting.sol\":3883:3889  vote4s */\n      dup5\n        /* \"d-app/Voting.sol\":3892:3893  1 */\n      0x01\n        /* \"d-app/Voting.sol\":3890:3891  i */\n      dup5\n        /* \"d-app/Voting.sol\":3890:3893  i-1 */\n      tag_181\n      swap2\n      swap1\n      tag_78\n      jump\t// in\n    tag_181:\n        /* \"d-app/Voting.sol\":3883:3894  vote4s[i-1] */\n      dup2\n      mload\n      dup2\n      lt\n      tag_182\n      jumpi\n      tag_183\n      tag_72\n      jump\t// in\n    tag_183:\n    tag_182:\n      0x20\n      mul\n      0x20\n      add\n      add\n        /* \"d-app/Voting.sol\":3883:3916  vote4s[i-1] = eventInstance.vote4 */\n      dup2\n      dup2\n      mstore\n      pop\n      pop\n        /* \"d-app/Voting.sol\":3945:3958  eventInstance */\n      dup1\n        /* \"d-app/Voting.sol\":3945:3969  eventInstance.totalVotes */\n      0x02\n      add\n      sload\n        /* \"d-app/Voting.sol\":3927:3937  totalVotes */\n      dup4\n        /* \"d-app/Voting.sol\":3940:3941  1 */\n      0x01\n        /* \"d-app/Voting.sol\":3938:3939  i */\n      dup5\n        /* \"d-app/Voting.sol\":3938:3941  i-1 */\n      tag_184\n      swap2\n      swap1\n      tag_78\n      jump\t// in\n    tag_184:\n        /* \"d-app/Voting.sol\":3927:3942  totalVotes[i-1] */\n      dup2\n      mload\n      dup2\n      lt\n      tag_185\n      jumpi\n      tag_186\n      tag_72\n      jump\t// in\n    tag_186:\n    tag_185:\n      0x20\n      mul\n      0x20\n      add\n      add\n        /* \"d-app/Voting.sol\":3927:3969  totalVotes[i-1] = eventInstance.totalVotes */\n      dup2\n      dup2\n      mstore\n      pop\n      pop\n        /* \"d-app/Voting.sol\":3564:3977  {... */\n      pop\n        /* \"d-app/Voting.sol\":3559:3562  i++ */\n      dup1\n      dup1\n      tag_187\n      swap1\n      tag_95\n      jump\t// in\n    tag_187:\n      swap2\n      pop\n      pop\n        /* \"d-app/Voting.sol\":3525:3977  for (uint i = 1; i <= eventCount; i++) {... */\n      jump(tag_155)\n    tag_156:\n      pop\n        /* \"d-app/Voting.sol\":3993:3996  ids */\n      dup8\n        /* \"d-app/Voting.sol\":3998:4003  names */\n      dup8\n        /* \"d-app/Voting.sol\":4005:4012  actives */\n      dup8\n        /* \"d-app/Voting.sol\":4014:4020  vote1s */\n      dup8\n        /* \"d-app/Voting.sol\":4022:4028  vote2s */\n      dup8\n        /* \"d-app/Voting.sol\":4030:4036  vote3s */\n      dup8\n        /* \"d-app/Voting.sol\":4038:4044  vote4s */\n      dup8\n        /* \"d-app/Voting.sol\":4046:4056  totalVotes */\n      dup8\n        /* \"d-app/Voting.sol\":3985:4057  return (ids, names, actives, vote1s, vote2s, vote3s, vote4s, totalVotes) */\n      swap16\n      pop\n      swap16\n      pop\n      swap16\n      pop\n      swap16\n      pop\n      swap16\n      pop\n      swap16\n      pop\n      swap16\n      pop\n      swap16\n      pop\n      pop\n      pop\n      pop\n      pop\n      pop\n      pop\n      pop\n      pop\n        /* \"d-app/Voting.sol\":2926:4061  function getAllEvents() public view returns (uint[] memory, string[] memory, bool[] memory,uint[] memory, uint[] memory, uint[] memory, uint[] memory, uint[] memory) {   ... */\n      swap1\n      swap2\n      swap3\n      swap4\n      swap5\n      swap6\n      swap7\n      swap8\n      jump\t// out\n        /* \"#utility.yul\":7:82   */\n    tag_188:\n        /* \"#utility.yul\":40:46   */\n      0x00\n        /* \"#utility.yul\":73:75   */\n      0x40\n        /* \"#utility.yul\":67:76   */\n      mload\n        /* \"#utility.yul\":57:76   */\n      swap1\n      pop\n        /* \"#utility.yul\":7:82   */\n      swap1\n      jump\t// out\n        /* \"#utility.yul\":88:205   */\n    tag_189:\n        /* \"#utility.yul\":197:198   */\n      0x00\n        /* \"#utility.yul\":194:195   */\n      dup1\n        /* \"#utility.yul\":187:199   */\n      revert\n        /* \"#utility.yul\":211:328   */\n    tag_190:\n        /* \"#utility.yul\":320:321   */\n      0x00\n        /* \"#utility.yul\":317:318   */\n      dup1\n        /* \"#utility.yul\":310:322   */\n      revert\n        /* \"#utility.yul\":334:411   */\n    tag_191:\n        /* \"#utility.yul\":371:378   */\n      0x00\n        /* \"#utility.yul\":400:405   */\n      dup2\n        /* \"#utility.yul\":389:405   */\n      swap1\n      pop\n        /* \"#utility.yul\":334:411   */\n      swap2\n      swap1\n      pop\n      jump\t// out\n        /* \"#utility.yul\":417:539   */\n    tag_192:\n        /* \"#utility.yul\":490:514   */\n      tag_266\n        /* \"#utility.yul\":508:513   */\n      dup2\n        /* \"#utility.yul\":490:514   */\n      tag_191\n      jump\t// in\n    tag_266:\n        /* \"#utility.yul\":483:488   */\n      dup2\n        /* \"#utility.yul\":480:515   */\n      eq\n        /* \"#utility.yul\":470:533   */\n      tag_267\n      jumpi\n        /* \"#utility.yul\":529:530   */\n      0x00\n        /* \"#utility.yul\":526:527   */\n      dup1\n        /* \"#utility.yul\":519:531   */\n      revert\n        /* \"#utility.yul\":470:533   */\n    tag_267:\n        /* \"#utility.yul\":417:539   */\n      pop\n      jump\t// out\n        /* \"#utility.yul\":545:684   */\n    tag_193:\n        /* \"#utility.yul\":591:596   */\n      0x00\n        /* \"#utility.yul\":629:635   */\n      dup2\n        /* \"#utility.yul\":616:636   */\n      calldataload\n        /* \"#utility.yul\":607:636   */\n      swap1\n      pop\n        /* \"#utility.yul\":645:678   */\n      tag_269\n        /* \"#utility.yul\":672:677   */\n      dup2\n        /* \"#utility.yul\":645:678   */\n      tag_192\n      jump\t// in\n    tag_269:\n        /* \"#utility.yul\":545:684   */\n      swap3\n      swap2\n      pop\n      pop\n      jump\t// out\n        /* \"#utility.yul\":690:1019   */\n    tag_14:\n        /* \"#utility.yul\":749:755   */\n      0x00\n        /* \"#utility.yul\":798:800   */\n      0x20\n        /* \"#utility.yul\":786:795   */\n      dup3\n        /* \"#utility.yul\":777:784   */\n      dup5\n        /* \"#utility.yul\":773:796   */\n      sub\n        /* \"#utility.yul\":769:801   */\n      slt\n        /* \"#utility.yul\":766:885   */\n      iszero\n      tag_271\n      jumpi\n        /* \"#utility.yul\":804:883   */\n      tag_272\n      tag_189\n      jump\t// in\n    tag_272:\n        /* \"#utility.yul\":766:885   */\n    tag_271:\n        /* \"#utility.yul\":924:925   */\n      0x00\n        /* \"#utility.yul\":949:1002   */\n      tag_273\n        /* \"#utility.yul\":994:1001   */\n      dup5\n        /* \"#utility.yul\":985:991   */\n      dup3\n        /* \"#utility.yul\":974:983   */\n      dup6\n        /* \"#utility.yul\":970:992   */\n      add\n        /* \"#utility.yul\":949:1002   */\n      tag_193\n      jump\t// in\n    tag_273:\n        /* \"#utility.yul\":939:1002   */\n      swap2\n      pop\n        /* \"#utility.yul\":895:1012   */\n      pop\n        /* \"#utility.yul\":690:1019   */\n      swap3\n      swap2\n      pop\n      pop\n      jump\t// out\n        /* \"#utility.yul\":1025:1143   */\n    tag_194:\n        /* \"#utility.yul\":1112:1136   */\n      tag_275\n        /* \"#utility.yul\":1130:1135   */\n      dup2\n        /* \"#utility.yul\":1112:1136   */\n      tag_191\n      jump\t// in\n    tag_275:\n        /* \"#utility.yul\":1107:1110   */\n      dup3\n        /* \"#utility.yul\":1100:1137   */\n      mstore\n        /* \"#utility.yul\":1025:1143   */\n      pop\n      pop\n      jump\t// out\n        /* \"#utility.yul\":1149:1248   */\n    tag_195:\n        /* \"#utility.yul\":1201:1207   */\n      0x00\n        /* \"#utility.yul\":1235:1240   */\n      dup2\n        /* \"#utility.yul\":1229:1241   */\n      mload\n        /* \"#utility.yul\":1219:1241   */\n      swap1\n      pop\n        /* \"#utility.yul\":1149:1248   */\n      swap2\n      swap1\n      pop\n      jump\t// out\n        /* \"#utility.yul\":1254:1423   */\n    tag_196:\n        /* \"#utility.yul\":1338:1349   */\n      0x00\n        /* \"#utility.yul\":1372:1378   */\n      dup3\n        /* \"#utility.yul\":1367:1370   */\n      dup3\n        /* \"#utility.yul\":1360:1379   */\n      mstore\n        /* \"#utility.yul\":1412:1416   */\n      0x20\n        /* \"#utility.yul\":1407:1410   */\n      dup3\n        /* \"#utility.yul\":1403:1417   */\n      add\n        /* \"#utility.yul\":1388:1417   */\n      swap1\n      pop\n        /* \"#utility.yul\":1254:1423   */\n      swap3\n      swap2\n      pop\n      pop\n      jump\t// out\n        /* \"#utility.yul\":1429:1675   */\n    tag_197:\n        /* \"#utility.yul\":1510:1511   */\n      0x00\n        /* \"#utility.yul\":1520:1633   */\n    tag_279:\n        /* \"#utility.yul\":1534:1540   */\n      dup4\n        /* \"#utility.yul\":1531:1532   */\n      dup2\n        /* \"#utility.yul\":1528:1541   */\n      lt\n        /* \"#utility.yul\":1520:1633   */\n      iszero\n      tag_281\n      jumpi\n        /* \"#utility.yul\":1619:1620   */\n      dup1\n        /* \"#utility.yul\":1614:1617   */\n      dup3\n        /* \"#utility.yul\":1610:1621   */\n      add\n        /* \"#utility.yul\":1604:1622   */\n      mload\n        /* \"#utility.yul\":1600:1601   */\n      dup2\n        /* \"#utility.yul\":1595:1598   */\n      dup5\n        /* \"#utility.yul\":1591:1602   */\n      add\n        /* \"#utility.yul\":1584:1623   */\n      mstore\n        /* \"#utility.yul\":1556:1558   */\n      0x20\n        /* \"#utility.yul\":1553:1554   */\n      dup2\n        /* \"#utility.yul\":1549:1559   */\n      add\n        /* \"#utility.yul\":1544:1559   */\n      swap1\n      pop\n        /* \"#utility.yul\":1520:1633   */\n      jump(tag_279)\n    tag_281:\n        /* \"#utility.yul\":1667:1668   */\n      0x00\n        /* \"#utility.yul\":1658:1664   */\n      dup5\n        /* \"#utility.yul\":1653:1656   */\n      dup5\n        /* \"#utility.yul\":1649:1665   */\n      add\n        /* \"#utility.yul\":1642:1669   */\n      mstore\n        /* \"#utility.yul\":1491:1675   */\n      pop\n        /* \"#utility.yul\":1429:1675   */\n      pop\n      pop\n      pop\n      jump\t// out\n        /* \"#utility.yul\":1681:1783   */\n    tag_198:\n        /* \"#utility.yul\":1722:1728   */\n      0x00\n        /* \"#utility.yul\":1773:1775   */\n      0x1f\n        /* \"#utility.yul\":1769:1776   */\n      not\n        /* \"#utility.yul\":1764:1766   */\n      0x1f\n        /* \"#utility.yul\":1757:1762   */\n      dup4\n        /* \"#utility.yul\":1753:1767   */\n      add\n        /* \"#utility.yul\":1749:1777   */\n      and\n        /* \"#utility.yul\":1739:1777   */\n      swap1\n      pop\n        /* \"#utility.yul\":1681:1783   */\n      swap2\n      swap1\n      pop\n      jump\t// out\n        /* \"#utility.yul\":1789:2166   */\n    tag_199:\n        /* \"#utility.yul\":1877:1880   */\n      0x00\n        /* \"#utility.yul\":1905:1944   */\n      tag_284\n        /* \"#utility.yul\":1938:1943   */\n      dup3\n        /* \"#utility.yul\":1905:1944   */\n      tag_195\n      jump\t// in\n    tag_284:\n        /* \"#utility.yul\":1960:2031   */\n      tag_285\n        /* \"#utility.yul\":2024:2030   */\n      dup2\n        /* \"#utility.yul\":2019:2022   */\n      dup6\n        /* \"#utility.yul\":1960:2031   */\n      tag_196\n      jump\t// in\n    tag_285:\n        /* \"#utility.yul\":1953:2031   */\n      swap4\n      pop\n        /* \"#utility.yul\":2040:2105   */\n      tag_286\n        /* \"#utility.yul\":2098:2104   */\n      dup2\n        /* \"#utility.yul\":2093:2096   */\n      dup6\n        /* \"#utility.yul\":2086:2090   */\n      0x20\n        /* \"#utility.yul\":2079:2084   */\n      dup7\n        /* \"#utility.yul\":2075:2091   */\n      add\n        /* \"#utility.yul\":2040:2105   */\n      tag_197\n      jump\t// in\n    tag_286:\n        /* \"#utility.yul\":2130:2159   */\n      tag_287\n        /* \"#utility.yul\":2152:2158   */\n      dup2\n        /* \"#utility.yul\":2130:2159   */\n      tag_198\n      jump\t// in\n    tag_287:\n        /* \"#utility.yul\":2125:2128   */\n      dup5\n        /* \"#utility.yul\":2121:2160   */\n      add\n        /* \"#utility.yul\":2114:2160   */\n      swap2\n      pop\n        /* \"#utility.yul\":1881:2166   */\n      pop\n        /* \"#utility.yul\":1789:2166   */\n      swap3\n      swap2\n      pop\n      pop\n      jump\t// out\n        /* \"#utility.yul\":2172:2262   */\n    tag_200:\n        /* \"#utility.yul\":2206:2213   */\n      0x00\n        /* \"#utility.yul\":2249:2254   */\n      dup2\n        /* \"#utility.yul\":2242:2255   */\n      iszero\n        /* \"#utility.yul\":2235:2256   */\n      iszero\n        /* \"#utility.yul\":2224:2256   */\n      swap1\n      pop\n        /* \"#utility.yul\":2172:2262   */\n      swap2\n      swap1\n      pop\n      jump\t// out\n        /* \"#utility.yul\":2268:2377   */\n    tag_201:\n        /* \"#utility.yul\":2349:2370   */\n      tag_290\n        /* \"#utility.yul\":2364:2369   */\n      dup2\n        /* \"#utility.yul\":2349:2370   */\n      tag_200\n      jump\t// in\n    tag_290:\n        /* \"#utility.yul\":2344:2347   */\n      dup3\n        /* \"#utility.yul\":2337:2371   */\n      mstore\n        /* \"#utility.yul\":2268:2377   */\n      pop\n      pop\n      jump\t// out\n        /* \"#utility.yul\":2383:2509   */\n    tag_202:\n        /* \"#utility.yul\":2420:2427   */\n      0x00\n        /* \"#utility.yul\":2460:2502   */\n      0xffffffffffffffffffffffffffffffffffffffff\n        /* \"#utility.yul\":2453:2458   */\n      dup3\n        /* \"#utility.yul\":2449:2503   */\n      and\n        /* \"#utility.yul\":2438:2503   */\n      swap1\n      pop\n        /* \"#utility.yul\":2383:2509   */\n      swap2\n      swap1\n      pop\n      jump\t// out\n        /* \"#utility.yul\":2515:2611   */\n    tag_203:\n        /* \"#utility.yul\":2552:2559   */\n      0x00\n        /* \"#utility.yul\":2581:2605   */\n      tag_293\n        /* \"#utility.yul\":2599:2604   */\n      dup3\n        /* \"#utility.yul\":2581:2605   */\n      tag_202\n      jump\t// in\n    tag_293:\n        /* \"#utility.yul\":2570:2605   */\n      swap1\n      pop\n        /* \"#utility.yul\":2515:2611   */\n      swap2\n      swap1\n      pop\n      jump\t// out\n        /* \"#utility.yul\":2617:2735   */\n    tag_204:\n        /* \"#utility.yul\":2704:2728   */\n      tag_295\n        /* \"#utility.yul\":2722:2727   */\n      dup2\n        /* \"#utility.yul\":2704:2728   */\n      tag_203\n      jump\t// in\n    tag_295:\n        /* \"#utility.yul\":2699:2702   */\n      dup3\n        /* \"#utility.yul\":2692:2729   */\n      mstore\n        /* \"#utility.yul\":2617:2735   */\n      pop\n      pop\n      jump\t// out\n        /* \"#utility.yul\":2741:3928   */\n    tag_17:\n        /* \"#utility.yul\":3072:3076   */\n      0x00\n        /* \"#utility.yul\":3110:3113   */\n      0x0120\n        /* \"#utility.yul\":3099:3108   */\n      dup3\n        /* \"#utility.yul\":3095:3114   */\n      add\n        /* \"#utility.yul\":3087:3114   */\n      swap1\n      pop\n        /* \"#utility.yul\":3124:3195   */\n      tag_297\n        /* \"#utility.yul\":3192:3193   */\n      0x00\n        /* \"#utility.yul\":3181:3190   */\n      dup4\n        /* \"#utility.yul\":3177:3194   */\n      add\n        /* \"#utility.yul\":3168:3174   */\n      dup13\n        /* \"#utility.yul\":3124:3195   */\n      tag_194\n      jump\t// in\n    tag_297:\n        /* \"#utility.yul\":3242:3251   */\n      dup2\n        /* \"#utility.yul\":3236:3240   */\n      dup2\n        /* \"#utility.yul\":3232:3252   */\n      sub\n        /* \"#utility.yul\":3227:3229   */\n      0x20\n        /* \"#utility.yul\":3216:3225   */\n      dup4\n        /* \"#utility.yul\":3212:3230   */\n      add\n        /* \"#utility.yul\":3205:3253   */\n      mstore\n        /* \"#utility.yul\":3270:3348   */\n      tag_298\n        /* \"#utility.yul\":3343:3347   */\n      dup2\n        /* \"#utility.yul\":3334:3340   */\n      dup12\n        /* \"#utility.yul\":3270:3348   */\n      tag_199\n      jump\t// in\n    tag_298:\n        /* \"#utility.yul\":3262:3348   */\n      swap1\n      pop\n        /* \"#utility.yul\":3358:3430   */\n      tag_299\n        /* \"#utility.yul\":3426:3428   */\n      0x40\n        /* \"#utility.yul\":3415:3424   */\n      dup4\n        /* \"#utility.yul\":3411:3429   */\n      add\n        /* \"#utility.yul\":3402:3408   */\n      dup11\n        /* \"#utility.yul\":3358:3430   */\n      tag_194\n      jump\t// in\n    tag_299:\n        /* \"#utility.yul\":3440:3506   */\n      tag_300\n        /* \"#utility.yul\":3502:3504   */\n      0x60\n        /* \"#utility.yul\":3491:3500   */\n      dup4\n        /* \"#utility.yul\":3487:3505   */\n      add\n        /* \"#utility.yul\":3478:3484   */\n      dup10\n        /* \"#utility.yul\":3440:3506   */\n      tag_201\n      jump\t// in\n    tag_300:\n        /* \"#utility.yul\":3516:3589   */\n      tag_301\n        /* \"#utility.yul\":3584:3587   */\n      0x80\n        /* \"#utility.yul\":3573:3582   */\n      dup4\n        /* \"#utility.yul\":3569:3588   */\n      add\n        /* \"#utility.yul\":3560:3566   */\n      dup9\n        /* \"#utility.yul\":3516:3589   */\n      tag_194\n      jump\t// in\n    tag_301:\n        /* \"#utility.yul\":3599:3672   */\n      tag_302\n        /* \"#utility.yul\":3667:3670   */\n      0xa0\n        /* \"#utility.yul\":3656:3665   */\n      dup4\n        /* \"#utility.yul\":3652:3671   */\n      add\n        /* \"#utility.yul\":3643:3649   */\n      dup8\n        /* \"#utility.yul\":3599:3672   */\n      tag_194\n      jump\t// in\n    tag_302:\n        /* \"#utility.yul\":3682:3755   */\n      tag_303\n        /* \"#utility.yul\":3750:3753   */\n      0xc0\n        /* \"#utility.yul\":3739:3748   */\n      dup4\n        /* \"#utility.yul\":3735:3754   */\n      add\n        /* \"#utility.yul\":3726:3732   */\n      dup7\n        /* \"#utility.yul\":3682:3755   */\n      tag_194\n      jump\t// in\n    tag_303:\n        /* \"#utility.yul\":3765:3838   */\n      tag_304\n        /* \"#utility.yul\":3833:3836   */\n      0xe0\n        /* \"#utility.yul\":3822:3831   */\n      dup4\n        /* \"#utility.yul\":3818:3837   */\n      add\n        /* \"#utility.yul\":3809:3815   */\n      dup6\n        /* \"#utility.yul\":3765:3838   */\n      tag_194\n      jump\t// in\n    tag_304:\n        /* \"#utility.yul\":3848:3921   */\n      tag_305\n        /* \"#utility.yul\":3916:3919   */\n      0x0100\n        /* \"#utility.yul\":3905:3914   */\n      dup4\n        /* \"#utility.yul\":3901:3920   */\n      add\n        /* \"#utility.yul\":3892:3898   */\n      dup5\n        /* \"#utility.yul\":3848:3921   */\n      tag_204\n      jump\t// in\n    tag_305:\n        /* \"#utility.yul\":2741:3928   */\n      swap11\n      swap10\n      pop\n      pop\n      pop\n      pop\n      pop\n      pop\n      pop\n      pop\n      pop\n      pop\n      jump\t// out\n        /* \"#utility.yul\":3934:4156   */\n    tag_24:\n        /* \"#utility.yul\":4027:4031   */\n      0x00\n        /* \"#utility.yul\":4065:4067   */\n      0x20\n        /* \"#utility.yul\":4054:4063   */\n      dup3\n        /* \"#utility.yul\":4050:4068   */\n      add\n        /* \"#utility.yul\":4042:4068   */\n      swap1\n      pop\n        /* \"#utility.yul\":4078:4149   */\n      tag_307\n        /* \"#utility.yul\":4146:4147   */\n      0x00\n        /* \"#utility.yul\":4135:4144   */\n      dup4\n        /* \"#utility.yul\":4131:4148   */\n      add\n        /* \"#utility.yul\":4122:4128   */\n      dup5\n        /* \"#utility.yul\":4078:4149   */\n      tag_194\n      jump\t// in\n    tag_307:\n        /* \"#utility.yul\":3934:4156   */\n      swap3\n      swap2\n      pop\n      pop\n      jump\t// out\n        /* \"#utility.yul\":4162:4276   */\n    tag_205:\n        /* \"#utility.yul\":4229:4235   */\n      0x00\n        /* \"#utility.yul\":4263:4268   */\n      dup2\n        /* \"#utility.yul\":4257:4269   */\n      mload\n        /* \"#utility.yul\":4247:4269   */\n      swap1\n      pop\n        /* \"#utility.yul\":4162:4276   */\n      swap2\n      swap1\n      pop\n      jump\t// out\n        /* \"#utility.yul\":4282:4466   */\n    tag_206:\n        /* \"#utility.yul\":4381:4392   */\n      0x00\n        /* \"#utility.yul\":4415:4421   */\n      dup3\n        /* \"#utility.yul\":4410:4413   */\n      dup3\n        /* \"#utility.yul\":4403:4422   */\n      mstore\n        /* \"#utility.yul\":4455:4459   */\n      0x20\n        /* \"#utility.yul\":4450:4453   */\n      dup3\n        /* \"#utility.yul\":4446:4460   */\n      add\n        /* \"#utility.yul\":4431:4460   */\n      swap1\n      pop\n        /* \"#utility.yul\":4282:4466   */\n      swap3\n      swap2\n      pop\n      pop\n      jump\t// out\n        /* \"#utility.yul\":4472:4604   */\n    tag_207:\n        /* \"#utility.yul\":4539:4543   */\n      0x00\n        /* \"#utility.yul\":4562:4565   */\n      dup2\n        /* \"#utility.yul\":4554:4565   */\n      swap1\n      pop\n        /* \"#utility.yul\":4592:4596   */\n      0x20\n        /* \"#utility.yul\":4587:4590   */\n      dup3\n        /* \"#utility.yul\":4583:4597   */\n      add\n        /* \"#utility.yul\":4575:4597   */\n      swap1\n      pop\n        /* \"#utility.yul\":4472:4604   */\n      swap2\n      swap1\n      pop\n      jump\t// out\n        /* \"#utility.yul\":4610:4718   */\n    tag_208:\n        /* \"#utility.yul\":4687:4711   */\n      tag_312\n        /* \"#utility.yul\":4705:4710   */\n      dup2\n        /* \"#utility.yul\":4687:4711   */\n      tag_191\n      jump\t// in\n    tag_312:\n        /* \"#utility.yul\":4682:4685   */\n      dup3\n        /* \"#utility.yul\":4675:4712   */\n      mstore\n        /* \"#utility.yul\":4610:4718   */\n      pop\n      pop\n      jump\t// out\n        /* \"#utility.yul\":4724:4903   */\n    tag_209:\n        /* \"#utility.yul\":4793:4803   */\n      0x00\n        /* \"#utility.yul\":4814:4860   */\n      tag_314\n        /* \"#utility.yul\":4856:4859   */\n      dup4\n        /* \"#utility.yul\":4848:4854   */\n      dup4\n        /* \"#utility.yul\":4814:4860   */\n      tag_208\n      jump\t// in\n    tag_314:\n        /* \"#utility.yul\":4892:4896   */\n      0x20\n        /* \"#utility.yul\":4887:4890   */\n      dup4\n        /* \"#utility.yul\":4883:4897   */\n      add\n        /* \"#utility.yul\":4869:4897   */\n      swap1\n      pop\n        /* \"#utility.yul\":4724:4903   */\n      swap3\n      swap2\n      pop\n      pop\n      jump\t// out\n        /* \"#utility.yul\":4909:5022   */\n    tag_210:\n        /* \"#utility.yul\":4979:4983   */\n      0x00\n        /* \"#utility.yul\":5011:5015   */\n      0x20\n        /* \"#utility.yul\":5006:5009   */\n      dup3\n        /* \"#utility.yul\":5002:5016   */\n      add\n        /* \"#utility.yul\":4994:5016   */\n      swap1\n      pop\n        /* \"#utility.yul\":4909:5022   */\n      swap2\n      swap1\n      pop\n      jump\t// out\n        /* \"#utility.yul\":5058:5790   */\n    tag_211:\n        /* \"#utility.yul\":5177:5180   */\n      0x00\n        /* \"#utility.yul\":5206:5260   */\n      tag_317\n        /* \"#utility.yul\":5254:5259   */\n      dup3\n        /* \"#utility.yul\":5206:5260   */\n      tag_205\n      jump\t// in\n    tag_317:\n        /* \"#utility.yul\":5276:5362   */\n      tag_318\n        /* \"#utility.yul\":5355:5361   */\n      dup2\n        /* \"#utility.yul\":5350:5353   */\n      dup6\n        /* \"#utility.yul\":5276:5362   */\n      tag_206\n      jump\t// in\n    tag_318:\n        /* \"#utility.yul\":5269:5362   */\n      swap4\n      pop\n        /* \"#utility.yul\":5386:5442   */\n      tag_319\n        /* \"#utility.yul\":5436:5441   */\n      dup4\n        /* \"#utility.yul\":5386:5442   */\n      tag_207\n      jump\t// in\n    tag_319:\n        /* \"#utility.yul\":5465:5472   */\n      dup1\n        /* \"#utility.yul\":5496:5497   */\n      0x00\n        /* \"#utility.yul\":5481:5765   */\n    tag_320:\n        /* \"#utility.yul\":5506:5512   */\n      dup4\n        /* \"#utility.yul\":5503:5504   */\n      dup2\n        /* \"#utility.yul\":5500:5513   */\n      lt\n        /* \"#utility.yul\":5481:5765   */\n      iszero\n      tag_322\n      jumpi\n        /* \"#utility.yul\":5582:5588   */\n      dup2\n        /* \"#utility.yul\":5576:5589   */\n      mload\n        /* \"#utility.yul\":5609:5672   */\n      tag_323\n        /* \"#utility.yul\":5668:5671   */\n      dup9\n        /* \"#utility.yul\":5653:5666   */\n      dup3\n        /* \"#utility.yul\":5609:5672   */\n      tag_209\n      jump\t// in\n    tag_323:\n        /* \"#utility.yul\":5602:5672   */\n      swap8\n      pop\n        /* \"#utility.yul\":5695:5755   */\n      tag_324\n        /* \"#utility.yul\":5748:5754   */\n      dup4\n        /* \"#utility.yul\":5695:5755   */\n      tag_210\n      jump\t// in\n    tag_324:\n        /* \"#utility.yul\":5685:5755   */\n      swap3\n      pop\n        /* \"#utility.yul\":5541:5765   */\n      pop\n        /* \"#utility.yul\":5528:5529   */\n      0x01\n        /* \"#utility.yul\":5525:5526   */\n      dup2\n        /* \"#utility.yul\":5521:5530   */\n      add\n        /* \"#utility.yul\":5516:5530   */\n      swap1\n      pop\n        /* \"#utility.yul\":5481:5765   */\n      jump(tag_320)\n    tag_322:\n        /* \"#utility.yul\":5485:5499   */\n      pop\n        /* \"#utility.yul\":5781:5784   */\n      dup6\n        /* \"#utility.yul\":5774:5784   */\n      swap4\n      pop\n        /* \"#utility.yul\":5182:5790   */\n      pop\n      pop\n      pop\n        /* \"#utility.yul\":5058:5790   */\n      swap3\n      swap2\n      pop\n      pop\n      jump\t// out\n        /* \"#utility.yul\":5796:6169   */\n    tag_28:\n        /* \"#utility.yul\":5939:5943   */\n      0x00\n        /* \"#utility.yul\":5977:5979   */\n      0x20\n        /* \"#utility.yul\":5966:5975   */\n      dup3\n        /* \"#utility.yul\":5962:5980   */\n      add\n        /* \"#utility.yul\":5954:5980   */\n      swap1\n      pop\n        /* \"#utility.yul\":6026:6035   */\n      dup2\n        /* \"#utility.yul\":6020:6024   */\n      dup2\n        /* \"#utility.yul\":6016:6036   */\n      sub\n        /* \"#utility.yul\":6012:6013   */\n      0x00\n        /* \"#utility.yul\":6001:6010   */\n      dup4\n        /* \"#utility.yul\":5997:6014   */\n      add\n        /* \"#utility.yul\":5990:6037   */\n      mstore\n        /* \"#utility.yul\":6054:6162   */\n      tag_326\n        /* \"#utility.yul\":6157:6161   */\n      dup2\n        /* \"#utility.yul\":6148:6154   */\n      dup5\n        /* \"#utility.yul\":6054:6162   */\n      tag_211\n      jump\t// in\n    tag_326:\n        /* \"#utility.yul\":6046:6162   */\n      swap1\n      pop\n        /* \"#utility.yul\":5796:6169   */\n      swap3\n      swap2\n      pop\n      pop\n      jump\t// out\n        /* \"#utility.yul\":6175:6930   */\n    tag_33:\n        /* \"#utility.yul\":6400:6404   */\n      0x00\n        /* \"#utility.yul\":6438:6441   */\n      0xa0\n        /* \"#utility.yul\":6427:6436   */\n      dup3\n        /* \"#utility.yul\":6423:6442   */\n      add\n        /* \"#utility.yul\":6415:6442   */\n      swap1\n      pop\n        /* \"#utility.yul\":6488:6497   */\n      dup2\n        /* \"#utility.yul\":6482:6486   */\n      dup2\n        /* \"#utility.yul\":6478:6498   */\n      sub\n        /* \"#utility.yul\":6474:6475   */\n      0x00\n        /* \"#utility.yul\":6463:6472   */\n      dup4\n        /* \"#utility.yul\":6459:6476   */\n      add\n        /* \"#utility.yul\":6452:6499   */\n      mstore\n        /* \"#utility.yul\":6516:6594   */\n      tag_328\n        /* \"#utility.yul\":6589:6593   */\n      dup2\n        /* \"#utility.yul\":6580:6586   */\n      dup9\n        /* \"#utility.yul\":6516:6594   */\n      tag_199\n      jump\t// in\n    tag_328:\n        /* \"#utility.yul\":6508:6594   */\n      swap1\n      pop\n        /* \"#utility.yul\":6604:6676   */\n      tag_329\n        /* \"#utility.yul\":6672:6674   */\n      0x20\n        /* \"#utility.yul\":6661:6670   */\n      dup4\n        /* \"#utility.yul\":6657:6675   */\n      add\n        /* \"#utility.yul\":6648:6654   */\n      dup8\n        /* \"#utility.yul\":6604:6676   */\n      tag_194\n      jump\t// in\n    tag_329:\n        /* \"#utility.yul\":6686:6758   */\n      tag_330\n        /* \"#utility.yul\":6754:6756   */\n      0x40\n        /* \"#utility.yul\":6743:6752   */\n      dup4\n        /* \"#utility.yul\":6739:6757   */\n      add\n        /* \"#utility.yul\":6730:6736   */\n      dup7\n        /* \"#utility.yul\":6686:6758   */\n      tag_194\n      jump\t// in\n    tag_330:\n        /* \"#utility.yul\":6768:6840   */\n      tag_331\n        /* \"#utility.yul\":6836:6838   */\n      0x60\n        /* \"#utility.yul\":6825:6834   */\n      dup4\n        /* \"#utility.yul\":6821:6839   */\n      add\n        /* \"#utility.yul\":6812:6818   */\n      dup6\n        /* \"#utility.yul\":6768:6840   */\n      tag_194\n      jump\t// in\n    tag_331:\n        /* \"#utility.yul\":6850:6923   */\n      tag_332\n        /* \"#utility.yul\":6918:6921   */\n      0x80\n        /* \"#utility.yul\":6907:6916   */\n      dup4\n        /* \"#utility.yul\":6903:6922   */\n      add\n        /* \"#utility.yul\":6894:6900   */\n      dup5\n        /* \"#utility.yul\":6850:6923   */\n      tag_194\n      jump\t// in\n    tag_332:\n        /* \"#utility.yul\":6175:6930   */\n      swap7\n      swap6\n      pop\n      pop\n      pop\n      pop\n      pop\n      pop\n      jump\t// out\n        /* \"#utility.yul\":6936:7053   */\n    tag_212:\n        /* \"#utility.yul\":7045:7046   */\n      0x00\n        /* \"#utility.yul\":7042:7043   */\n      dup1\n        /* \"#utility.yul\":7035:7047   */\n      revert\n        /* \"#utility.yul\":7059:7176   */\n    tag_213:\n        /* \"#utility.yul\":7168:7169   */\n      0x00\n        /* \"#utility.yul\":7165:7166   */\n      dup1\n        /* \"#utility.yul\":7158:7170   */\n      revert\n        /* \"#utility.yul\":7182:7362   */\n    tag_59:\n        /* \"#utility.yul\":7230:7307   */\n      0x4e487b7100000000000000000000000000000000000000000000000000000000\n        /* \"#utility.yul\":7227:7228   */\n      0x00\n        /* \"#utility.yul\":7220:7308   */\n      mstore\n        /* \"#utility.yul\":7327:7331   */\n      0x41\n        /* \"#utility.yul\":7324:7325   */\n      0x04\n        /* \"#utility.yul\":7317:7332   */\n      mstore\n        /* \"#utility.yul\":7351:7355   */\n      0x24\n        /* \"#utility.yul\":7348:7349   */\n      0x00\n        /* \"#utility.yul\":7341:7356   */\n      revert\n        /* \"#utility.yul\":7368:7649   */\n    tag_214:\n        /* \"#utility.yul\":7451:7478   */\n      tag_337\n        /* \"#utility.yul\":7473:7477   */\n      dup3\n        /* \"#utility.yul\":7451:7478   */\n      tag_198\n      jump\t// in\n    tag_337:\n        /* \"#utility.yul\":7443:7449   */\n      dup2\n        /* \"#utility.yul\":7439:7479   */\n      add\n        /* \"#utility.yul\":7581:7587   */\n      dup2\n        /* \"#utility.yul\":7569:7579   */\n      dup2\n        /* \"#utility.yul\":7566:7588   */\n      lt\n        /* \"#utility.yul\":7545:7563   */\n      0xffffffffffffffff\n        /* \"#utility.yul\":7533:7543   */\n      dup3\n        /* \"#utility.yul\":7530:7564   */\n      gt\n        /* \"#utility.yul\":7527:7589   */\n      or\n        /* \"#utility.yul\":7524:7612   */\n      iszero\n      tag_338\n      jumpi\n        /* \"#utility.yul\":7592:7610   */\n      tag_339\n      tag_59\n      jump\t// in\n    tag_339:\n        /* \"#utility.yul\":7524:7612   */\n    tag_338:\n        /* \"#utility.yul\":7632:7642   */\n      dup1\n        /* \"#utility.yul\":7628:7630   */\n      0x40\n        /* \"#utility.yul\":7621:7643   */\n      mstore\n        /* \"#utility.yul\":7411:7649   */\n      pop\n        /* \"#utility.yul\":7368:7649   */\n      pop\n      pop\n      jump\t// out\n        /* \"#utility.yul\":7655:7784   */\n    tag_215:\n        /* \"#utility.yul\":7689:7695   */\n      0x00\n        /* \"#utility.yul\":7716:7736   */\n      tag_341\n      tag_188\n      jump\t// in\n    tag_341:\n        /* \"#utility.yul\":7706:7736   */\n      swap1\n      pop\n        /* \"#utility.yul\":7745:7778   */\n      tag_342\n        /* \"#utility.yul\":7773:7777   */\n      dup3\n        /* \"#utility.yul\":7765:7771   */\n      dup3\n        /* \"#utility.yul\":7745:7778   */\n      tag_214\n      jump\t// in\n    tag_342:\n        /* \"#utility.yul\":7655:7784   */\n      swap2\n      swap1\n      pop\n      jump\t// out\n        /* \"#utility.yul\":7790:8098   */\n    tag_216:\n        /* \"#utility.yul\":7852:7856   */\n      0x00\n        /* \"#utility.yul\":7942:7960   */\n      0xffffffffffffffff\n        /* \"#utility.yul\":7934:7940   */\n      dup3\n        /* \"#utility.yul\":7931:7961   */\n      gt\n        /* \"#utility.yul\":7928:7984   */\n      iszero\n      tag_344\n      jumpi\n        /* \"#utility.yul\":7964:7982   */\n      tag_345\n      tag_59\n      jump\t// in\n    tag_345:\n        /* \"#utility.yul\":7928:7984   */\n    tag_344:\n        /* \"#utility.yul\":8002:8031   */\n      tag_346\n        /* \"#utility.yul\":8024:8030   */\n      dup3\n        /* \"#utility.yul\":8002:8031   */\n      tag_198\n      jump\t// in\n    tag_346:\n        /* \"#utility.yul\":7994:8031   */\n      swap1\n      pop\n        /* \"#utility.yul\":8086:8090   */\n      0x20\n        /* \"#utility.yul\":8080:8084   */\n      dup2\n        /* \"#utility.yul\":8076:8091   */\n      add\n        /* \"#utility.yul\":8068:8091   */\n      swap1\n      pop\n        /* \"#utility.yul\":7790:8098   */\n      swap2\n      swap1\n      pop\n      jump\t// out\n        /* \"#utility.yul\":8104:8250   */\n    tag_217:\n        /* \"#utility.yul\":8201:8207   */\n      dup3\n        /* \"#utility.yul\":8196:8199   */\n      dup2\n        /* \"#utility.yul\":8191:8194   */\n      dup4\n        /* \"#utility.yul\":8178:8208   */\n      calldatacopy\n        /* \"#utility.yul\":8242:8243   */\n      0x00\n        /* \"#utility.yul\":8233:8239   */\n      dup4\n        /* \"#utility.yul\":8228:8231   */\n      dup4\n        /* \"#utility.yul\":8224:8240   */\n      add\n        /* \"#utility.yul\":8217:8244   */\n      mstore\n        /* \"#utility.yul\":8104:8250   */\n      pop\n      pop\n      pop\n      jump\t// out\n        /* \"#utility.yul\":8256:8681   */\n    tag_218:\n        /* \"#utility.yul\":8334:8339   */\n      0x00\n        /* \"#utility.yul\":8359:8425   */\n      tag_349\n        /* \"#utility.yul\":8375:8424   */\n      tag_350\n        /* \"#utility.yul\":8417:8423   */\n      dup5\n        /* \"#utility.yul\":8375:8424   */\n      tag_216\n      jump\t// in\n    tag_350:\n        /* \"#utility.yul\":8359:8425   */\n      tag_215\n      jump\t// in\n    tag_349:\n        /* \"#utility.yul\":8350:8425   */\n      swap1\n      pop\n        /* \"#utility.yul\":8448:8454   */\n      dup3\n        /* \"#utility.yul\":8441:8446   */\n      dup2\n        /* \"#utility.yul\":8434:8455   */\n      mstore\n        /* \"#utility.yul\":8486:8490   */\n      0x20\n        /* \"#utility.yul\":8479:8484   */\n      dup2\n        /* \"#utility.yul\":8475:8491   */\n      add\n        /* \"#utility.yul\":8524:8527   */\n      dup5\n        /* \"#utility.yul\":8515:8521   */\n      dup5\n        /* \"#utility.yul\":8510:8513   */\n      dup5\n        /* \"#utility.yul\":8506:8522   */\n      add\n        /* \"#utility.yul\":8503:8528   */\n      gt\n        /* \"#utility.yul\":8500:8612   */\n      iszero\n      tag_351\n      jumpi\n        /* \"#utility.yul\":8531:8610   */\n      tag_352\n      tag_213\n      jump\t// in\n    tag_352:\n        /* \"#utility.yul\":8500:8612   */\n    tag_351:\n        /* \"#utility.yul\":8621:8675   */\n      tag_353\n        /* \"#utility.yul\":8668:8674   */\n      dup5\n        /* \"#utility.yul\":8663:8666   */\n      dup3\n        /* \"#utility.yul\":8658:8661   */\n      dup6\n        /* \"#utility.yul\":8621:8675   */\n      tag_217\n      jump\t// in\n    tag_353:\n        /* \"#utility.yul\":8340:8681   */\n      pop\n        /* \"#utility.yul\":8256:8681   */\n      swap4\n      swap3\n      pop\n      pop\n      pop\n      jump\t// out\n        /* \"#utility.yul\":8701:9041   */\n    tag_219:\n        /* \"#utility.yul\":8757:8762   */\n      0x00\n        /* \"#utility.yul\":8806:8809   */\n      dup3\n        /* \"#utility.yul\":8799:8803   */\n      0x1f\n        /* \"#utility.yul\":8791:8797   */\n      dup4\n        /* \"#utility.yul\":8787:8804   */\n      add\n        /* \"#utility.yul\":8783:8810   */\n      slt\n        /* \"#utility.yul\":8773:8895   */\n      tag_355\n      jumpi\n        /* \"#utility.yul\":8814:8893   */\n      tag_356\n      tag_212\n      jump\t// in\n    tag_356:\n        /* \"#utility.yul\":8773:8895   */\n    tag_355:\n        /* \"#utility.yul\":8931:8937   */\n      dup2\n        /* \"#utility.yul\":8918:8938   */\n      calldataload\n        /* \"#utility.yul\":8956:9035   */\n      tag_357\n        /* \"#utility.yul\":9031:9034   */\n      dup5\n        /* \"#utility.yul\":9023:9029   */\n      dup3\n        /* \"#utility.yul\":9016:9020   */\n      0x20\n        /* \"#utility.yul\":9008:9014   */\n      dup7\n        /* \"#utility.yul\":9004:9021   */\n      add\n        /* \"#utility.yul\":8956:9035   */\n      tag_218\n      jump\t// in\n    tag_357:\n        /* \"#utility.yul\":8947:9035   */\n      swap2\n      pop\n        /* \"#utility.yul\":8763:9041   */\n      pop\n        /* \"#utility.yul\":8701:9041   */\n      swap3\n      swap2\n      pop\n      pop\n      jump\t// out\n        /* \"#utility.yul\":9047:9556   */\n    tag_36:\n        /* \"#utility.yul\":9116:9122   */\n      0x00\n        /* \"#utility.yul\":9165:9167   */\n      0x20\n        /* \"#utility.yul\":9153:9162   */\n      dup3\n        /* \"#utility.yul\":9144:9151   */\n      dup5\n        /* \"#utility.yul\":9140:9163   */\n      sub\n        /* \"#utility.yul\":9136:9168   */\n      slt\n        /* \"#utility.yul\":9133:9252   */\n      iszero\n      tag_359\n      jumpi\n        /* \"#utility.yul\":9171:9250   */\n      tag_360\n      tag_189\n      jump\t// in\n    tag_360:\n        /* \"#utility.yul\":9133:9252   */\n    tag_359:\n        /* \"#utility.yul\":9319:9320   */\n      0x00\n        /* \"#utility.yul\":9308:9317   */\n      dup3\n        /* \"#utility.yul\":9304:9321   */\n      add\n        /* \"#utility.yul\":9291:9322   */\n      calldataload\n        /* \"#utility.yul\":9349:9367   */\n      0xffffffffffffffff\n        /* \"#utility.yul\":9341:9347   */\n      dup2\n        /* \"#utility.yul\":9338:9368   */\n      gt\n        /* \"#utility.yul\":9335:9452   */\n      iszero\n      tag_361\n      jumpi\n        /* \"#utility.yul\":9371:9450   */\n      tag_362\n      tag_190\n      jump\t// in\n    tag_362:\n        /* \"#utility.yul\":9335:9452   */\n    tag_361:\n        /* \"#utility.yul\":9476:9539   */\n      tag_363\n        /* \"#utility.yul\":9531:9538   */\n      dup5\n        /* \"#utility.yul\":9522:9528   */\n      dup3\n        /* \"#utility.yul\":9511:9520   */\n      dup6\n        /* \"#utility.yul\":9507:9529   */\n      add\n        /* \"#utility.yul\":9476:9539   */\n      tag_219\n      jump\t// in\n    tag_363:\n        /* \"#utility.yul\":9466:9539   */\n      swap2\n      pop\n        /* \"#utility.yul\":9262:9549   */\n      pop\n        /* \"#utility.yul\":9047:9556   */\n      swap3\n      swap2\n      pop\n      pop\n      jump\t// out\n        /* \"#utility.yul\":9562:10036   */\n    tag_40:\n        /* \"#utility.yul\":9630:9636   */\n      0x00\n        /* \"#utility.yul\":9638:9644   */\n      dup1\n        /* \"#utility.yul\":9687:9689   */\n      0x40\n        /* \"#utility.yul\":9675:9684   */\n      dup4\n        /* \"#utility.yul\":9666:9673   */\n      dup6\n        /* \"#utility.yul\":9662:9685   */\n      sub\n        /* \"#utility.yul\":9658:9690   */\n      slt\n        /* \"#utility.yul\":9655:9774   */\n      iszero\n      tag_365\n      jumpi\n        /* \"#utility.yul\":9693:9772   */\n      tag_366\n      tag_189\n      jump\t// in\n    tag_366:\n        /* \"#utility.yul\":9655:9774   */\n    tag_365:\n        /* \"#utility.yul\":9813:9814   */\n      0x00\n        /* \"#utility.yul\":9838:9891   */\n      tag_367\n        /* \"#utility.yul\":9883:9890   */\n      dup6\n        /* \"#utility.yul\":9874:9880   */\n      dup3\n        /* \"#utility.yul\":9863:9872   */\n      dup7\n        /* \"#utility.yul\":9859:9881   */\n      add\n        /* \"#utility.yul\":9838:9891   */\n      tag_193\n      jump\t// in\n    tag_367:\n        /* \"#utility.yul\":9828:9891   */\n      swap3\n      pop\n        /* \"#utility.yul\":9784:9901   */\n      pop\n        /* \"#utility.yul\":9940:9942   */\n      0x20\n        /* \"#utility.yul\":9966:10019   */\n      tag_368\n        /* \"#utility.yul\":10011:10018   */\n      dup6\n        /* \"#utility.yul\":10002:10008   */\n      dup3\n        /* \"#utility.yul\":9991:10000   */\n      dup7\n        /* \"#utility.yul\":9987:10009   */\n      add\n        /* \"#utility.yul\":9966:10019   */\n      tag_193\n      jump\t// in\n    tag_368:\n        /* \"#utility.yul\":9956:10019   */\n      swap2\n      pop\n        /* \"#utility.yul\":9911:10029   */\n      pop\n        /* \"#utility.yul\":9562:10036   */\n      swap3\n      pop\n      swap3\n      swap1\n      pop\n      jump\t// out\n        /* \"#utility.yul\":10042:10166   */\n    tag_220:\n        /* \"#utility.yul\":10119:10125   */\n      0x00\n        /* \"#utility.yul\":10153:10158   */\n      dup2\n        /* \"#utility.yul\":10147:10159   */\n      mload\n        /* \"#utility.yul\":10137:10159   */\n      swap1\n      pop\n        /* \"#utility.yul\":10042:10166   */\n      swap2\n      swap1\n      pop\n      jump\t// out\n        /* \"#utility.yul\":10172:10366   */\n    tag_221:\n        /* \"#utility.yul\":10281:10292   */\n      0x00\n        /* \"#utility.yul\":10315:10321   */\n      dup3\n        /* \"#utility.yul\":10310:10313   */\n      dup3\n        /* \"#utility.yul\":10303:10322   */\n      mstore\n        /* \"#utility.yul\":10355:10359   */\n      0x20\n        /* \"#utility.yul\":10350:10353   */\n      dup3\n        /* \"#utility.yul\":10346:10360   */\n      add\n        /* \"#utility.yul\":10331:10360   */\n      swap1\n      pop\n        /* \"#utility.yul\":10172:10366   */\n      swap3\n      swap2\n      pop\n      pop\n      jump\t// out\n        /* \"#utility.yul\":10372:10514   */\n    tag_222:\n        /* \"#utility.yul\":10449:10453   */\n      0x00\n        /* \"#utility.yul\":10472:10475   */\n      dup2\n        /* \"#utility.yul\":10464:10475   */\n      swap1\n      pop\n        /* \"#utility.yul\":10502:10506   */\n      0x20\n        /* \"#utility.yul\":10497:10500   */\n      dup3\n        /* \"#utility.yul\":10493:10507   */\n      add\n        /* \"#utility.yul\":10485:10507   */\n      swap1\n      pop\n        /* \"#utility.yul\":10372:10514   */\n      swap2\n      swap1\n      pop\n      jump\t// out\n        /* \"#utility.yul\":10520:10679   */\n    tag_223:\n        /* \"#utility.yul\":10594:10605   */\n      0x00\n        /* \"#utility.yul\":10628:10634   */\n      dup3\n        /* \"#utility.yul\":10623:10626   */\n      dup3\n        /* \"#utility.yul\":10616:10635   */\n      mstore\n        /* \"#utility.yul\":10668:10672   */\n      0x20\n        /* \"#utility.yul\":10663:10666   */\n      dup3\n        /* \"#utility.yul\":10659:10673   */\n      add\n        /* \"#utility.yul\":10644:10673   */\n      swap1\n      pop\n        /* \"#utility.yul\":10520:10679   */\n      swap3\n      swap2\n      pop\n      pop\n      jump\t// out\n        /* \"#utility.yul\":10685:11042   */\n    tag_224:\n        /* \"#utility.yul\":10763:10766   */\n      0x00\n        /* \"#utility.yul\":10791:10830   */\n      tag_374\n        /* \"#utility.yul\":10824:10829   */\n      dup3\n        /* \"#utility.yul\":10791:10830   */\n      tag_195\n      jump\t// in\n    tag_374:\n        /* \"#utility.yul\":10846:10907   */\n      tag_375\n        /* \"#utility.yul\":10900:10906   */\n      dup2\n        /* \"#utility.yul\":10895:10898   */\n      dup6\n        /* \"#utility.yul\":10846:10907   */\n      tag_223\n      jump\t// in\n    tag_375:\n        /* \"#utility.yul\":10839:10907   */\n      swap4\n      pop\n        /* \"#utility.yul\":10916:10981   */\n      tag_376\n        /* \"#utility.yul\":10974:10980   */\n      dup2\n        /* \"#utility.yul\":10969:10972   */\n      dup6\n        /* \"#utility.yul\":10962:10966   */\n      0x20\n        /* \"#utility.yul\":10955:10960   */\n      dup7\n        /* \"#utility.yul\":10951:10967   */\n      add\n        /* \"#utility.yul\":10916:10981   */\n      tag_197\n      jump\t// in\n    tag_376:\n        /* \"#utility.yul\":11006:11035   */\n      tag_377\n        /* \"#utility.yul\":11028:11034   */\n      dup2\n        /* \"#utility.yul\":11006:11035   */\n      tag_198\n      jump\t// in\n    tag_377:\n        /* \"#utility.yul\":11001:11004   */\n      dup5\n        /* \"#utility.yul\":10997:11036   */\n      add\n        /* \"#utility.yul\":10990:11036   */\n      swap2\n      pop\n        /* \"#utility.yul\":10767:11042   */\n      pop\n        /* \"#utility.yul\":10685:11042   */\n      swap3\n      swap2\n      pop\n      pop\n      jump\t// out\n        /* \"#utility.yul\":11048:11244   */\n    tag_225:\n        /* \"#utility.yul\":11137:11147   */\n      0x00\n        /* \"#utility.yul\":11172:11238   */\n      tag_379\n        /* \"#utility.yul\":11234:11237   */\n      dup4\n        /* \"#utility.yul\":11226:11232   */\n      dup4\n        /* \"#utility.yul\":11172:11238   */\n      tag_224\n      jump\t// in\n    tag_379:\n        /* \"#utility.yul\":11158:11238   */\n      swap1\n      pop\n        /* \"#utility.yul\":11048:11244   */\n      swap3\n      swap2\n      pop\n      pop\n      jump\t// out\n        /* \"#utility.yul\":11250:11373   */\n    tag_226:\n        /* \"#utility.yul\":11330:11334   */\n      0x00\n        /* \"#utility.yul\":11362:11366   */\n      0x20\n        /* \"#utility.yul\":11357:11360   */\n      dup3\n        /* \"#utility.yul\":11353:11367   */\n      add\n        /* \"#utility.yul\":11345:11367   */\n      swap1\n      pop\n        /* \"#utility.yul\":11250:11373   */\n      swap2\n      swap1\n      pop\n      jump\t// out\n        /* \"#utility.yul\":11407:12398   */\n    tag_227:\n        /* \"#utility.yul\":11546:11549   */\n      0x00\n        /* \"#utility.yul\":11575:11639   */\n      tag_382\n        /* \"#utility.yul\":11633:11638   */\n      dup3\n        /* \"#utility.yul\":11575:11639   */\n      tag_220\n      jump\t// in\n    tag_382:\n        /* \"#utility.yul\":11655:11751   */\n      tag_383\n        /* \"#utility.yul\":11744:11750   */\n      dup2\n        /* \"#utility.yul\":11739:11742   */\n      dup6\n        /* \"#utility.yul\":11655:11751   */\n      tag_221\n      jump\t// in\n    tag_383:\n        /* \"#utility.yul\":11648:11751   */\n      swap4\n      pop\n        /* \"#utility.yul\":11777:11780   */\n      dup4\n        /* \"#utility.yul\":11822:11826   */\n      0x20\n        /* \"#utility.yul\":11814:11820   */\n      dup3\n        /* \"#utility.yul\":11810:11827   */\n      mul\n        /* \"#utility.yul\":11805:11808   */\n      dup6\n        /* \"#utility.yul\":11801:11828   */\n      add\n        /* \"#utility.yul\":11852:11918   */\n      tag_384\n        /* \"#utility.yul\":11912:11917   */\n      dup6\n        /* \"#utility.yul\":11852:11918   */\n      tag_222\n      jump\t// in\n    tag_384:\n        /* \"#utility.yul\":11941:11948   */\n      dup1\n        /* \"#utility.yul\":11972:11973   */\n      0x00\n        /* \"#utility.yul\":11957:12353   */\n    tag_385:\n        /* \"#utility.yul\":11982:11988   */\n      dup6\n        /* \"#utility.yul\":11979:11980   */\n      dup2\n        /* \"#utility.yul\":11976:11989   */\n      lt\n        /* \"#utility.yul\":11957:12353   */\n      iszero\n      tag_387\n      jumpi\n        /* \"#utility.yul\":12053:12062   */\n      dup5\n        /* \"#utility.yul\":12047:12051   */\n      dup5\n        /* \"#utility.yul\":12043:12063   */\n      sub\n        /* \"#utility.yul\":12038:12041   */\n      dup10\n        /* \"#utility.yul\":12031:12064   */\n      mstore\n        /* \"#utility.yul\":12104:12110   */\n      dup2\n        /* \"#utility.yul\":12098:12111   */\n      mload\n        /* \"#utility.yul\":12132:12216   */\n      tag_388\n        /* \"#utility.yul\":12211:12215   */\n      dup6\n        /* \"#utility.yul\":12196:12209   */\n      dup3\n        /* \"#utility.yul\":12132:12216   */\n      tag_225\n      jump\t// in\n    tag_388:\n        /* \"#utility.yul\":12124:12216   */\n      swap5\n      pop\n        /* \"#utility.yul\":12239:12309   */\n      tag_389\n        /* \"#utility.yul\":12302:12308   */\n      dup4\n        /* \"#utility.yul\":12239:12309   */\n      tag_226\n      jump\t// in\n    tag_389:\n        /* \"#utility.yul\":12229:12309   */\n      swap3\n      pop\n        /* \"#utility.yul\":12338:12342   */\n      0x20\n        /* \"#utility.yul\":12333:12336   */\n      dup11\n        /* \"#utility.yul\":12329:12343   */\n      add\n        /* \"#utility.yul\":12322:12343   */\n      swap10\n      pop\n        /* \"#utility.yul\":12017:12353   */\n      pop\n        /* \"#utility.yul\":12004:12005   */\n      0x01\n        /* \"#utility.yul\":12001:12002   */\n      dup2\n        /* \"#utility.yul\":11997:12006   */\n      add\n        /* \"#utility.yul\":11992:12006   */\n      swap1\n      pop\n        /* \"#utility.yul\":11957:12353   */\n      jump(tag_385)\n    tag_387:\n        /* \"#utility.yul\":11961:11975   */\n      pop\n        /* \"#utility.yul\":12369:12373   */\n      dup3\n        /* \"#utility.yul\":12362:12373   */\n      swap8\n      pop\n        /* \"#utility.yul\":12389:12392   */\n      dup8\n        /* \"#utility.yul\":12382:12392   */\n      swap6\n      pop\n        /* \"#utility.yul\":11551:12398   */\n      pop\n      pop\n      pop\n      pop\n      pop\n        /* \"#utility.yul\":11407:12398   */\n      swap3\n      swap2\n      pop\n      pop\n      jump\t// out\n        /* \"#utility.yul\":12404:12515   */\n    tag_228:\n        /* \"#utility.yul\":12468:12474   */\n      0x00\n        /* \"#utility.yul\":12502:12507   */\n      dup2\n        /* \"#utility.yul\":12496:12508   */\n      mload\n        /* \"#utility.yul\":12486:12508   */\n      swap1\n      pop\n        /* \"#utility.yul\":12404:12515   */\n      swap2\n      swap1\n      pop\n      jump\t// out\n        /* \"#utility.yul\":12521:12702   */\n    tag_229:\n        /* \"#utility.yul\":12617:12628   */\n      0x00\n        /* \"#utility.yul\":12651:12657   */\n      dup3\n        /* \"#utility.yul\":12646:12649   */\n      dup3\n        /* \"#utility.yul\":12639:12658   */\n      mstore\n        /* \"#utility.yul\":12691:12695   */\n      0x20\n        /* \"#utility.yul\":12686:12689   */\n      dup3\n        /* \"#utility.yul\":12682:12696   */\n      add\n        /* \"#utility.yul\":12667:12696   */\n      swap1\n      pop\n        /* \"#utility.yul\":12521:12702   */\n      swap3\n      swap2\n      pop\n      pop\n      jump\t// out\n        /* \"#utility.yul\":12708:12837   */\n    tag_230:\n        /* \"#utility.yul\":12772:12776   */\n      0x00\n        /* \"#utility.yul\":12795:12798   */\n      dup2\n        /* \"#utility.yul\":12787:12798   */\n      swap1\n      pop\n        /* \"#utility.yul\":12825:12829   */\n      0x20\n        /* \"#utility.yul\":12820:12823   */\n      dup3\n        /* \"#utility.yul\":12816:12830   */\n      add\n        /* \"#utility.yul\":12808:12830   */\n      swap1\n      pop\n        /* \"#utility.yul\":12708:12837   */\n      swap2\n      swap1\n      pop\n      jump\t// out\n        /* \"#utility.yul\":12843:12942   */\n    tag_231:\n        /* \"#utility.yul\":12914:12935   */\n      tag_394\n        /* \"#utility.yul\":12929:12934   */\n      dup2\n        /* \"#utility.yul\":12914:12935   */\n      tag_200\n      jump\t// in\n    tag_394:\n        /* \"#utility.yul\":12909:12912   */\n      dup3\n        /* \"#utility.yul\":12902:12936   */\n      mstore\n        /* \"#utility.yul\":12843:12942   */\n      pop\n      pop\n      jump\t// out\n        /* \"#utility.yul\":12948:13115   */\n    tag_232:\n        /* \"#utility.yul\":13011:13021   */\n      0x00\n        /* \"#utility.yul\":13032:13072   */\n      tag_396\n        /* \"#utility.yul\":13068:13071   */\n      dup4\n        /* \"#utility.yul\":13060:13066   */\n      dup4\n        /* \"#utility.yul\":13032:13072   */\n      tag_231\n      jump\t// in\n    tag_396:\n        /* \"#utility.yul\":13104:13108   */\n      0x20\n        /* \"#utility.yul\":13099:13102   */\n      dup4\n        /* \"#utility.yul\":13095:13109   */\n      add\n        /* \"#utility.yul\":13081:13109   */\n      swap1\n      pop\n        /* \"#utility.yul\":12948:13115   */\n      swap3\n      swap2\n      pop\n      pop\n      jump\t// out\n        /* \"#utility.yul\":13121:13231   */\n    tag_233:\n        /* \"#utility.yul\":13188:13192   */\n      0x00\n        /* \"#utility.yul\":13220:13224   */\n      0x20\n        /* \"#utility.yul\":13215:13218   */\n      dup3\n        /* \"#utility.yul\":13211:13225   */\n      add\n        /* \"#utility.yul\":13203:13225   */\n      swap1\n      pop\n        /* \"#utility.yul\":13121:13231   */\n      swap2\n      swap1\n      pop\n      jump\t// out\n        /* \"#utility.yul\":13261:13969   */\n    tag_234:\n        /* \"#utility.yul\":13374:13377   */\n      0x00\n        /* \"#utility.yul\":13403:13454   */\n      tag_399\n        /* \"#utility.yul\":13448:13453   */\n      dup3\n        /* \"#utility.yul\":13403:13454   */\n      tag_228\n      jump\t// in\n    tag_399:\n        /* \"#utility.yul\":13470:13553   */\n      tag_400\n        /* \"#utility.yul\":13546:13552   */\n      dup2\n        /* \"#utility.yul\":13541:13544   */\n      dup6\n        /* \"#utility.yul\":13470:13553   */\n      tag_229\n      jump\t// in\n    tag_400:\n        /* \"#utility.yul\":13463:13553   */\n      swap4\n      pop\n        /* \"#utility.yul\":13577:13630   */\n      tag_401\n        /* \"#utility.yul\":13624:13629   */\n      dup4\n        /* \"#utility.yul\":13577:13630   */\n      tag_230\n      jump\t// in\n    tag_401:\n        /* \"#utility.yul\":13653:13660   */\n      dup1\n        /* \"#utility.yul\":13684:13685   */\n      0x00\n        /* \"#utility.yul\":13669:13944   */\n    tag_402:\n        /* \"#utility.yul\":13694:13700   */\n      dup4\n        /* \"#utility.yul\":13691:13692   */\n      dup2\n        /* \"#utility.yul\":13688:13701   */\n      lt\n        /* \"#utility.yul\":13669:13944   */\n      iszero\n      tag_404\n      jumpi\n        /* \"#utility.yul\":13770:13776   */\n      dup2\n        /* \"#utility.yul\":13764:13777   */\n      mload\n        /* \"#utility.yul\":13797:13854   */\n      tag_405\n        /* \"#utility.yul\":13850:13853   */\n      dup9\n        /* \"#utility.yul\":13835:13848   */\n      dup3\n        /* \"#utility.yul\":13797:13854   */\n      tag_232\n      jump\t// in\n    tag_405:\n        /* \"#utility.yul\":13790:13854   */\n      swap8\n      pop\n        /* \"#utility.yul\":13877:13934   */\n      tag_406\n        /* \"#utility.yul\":13927:13933   */\n      dup4\n        /* \"#utility.yul\":13877:13934   */\n      tag_233\n      jump\t// in\n    tag_406:\n        /* \"#utility.yul\":13867:13934   */\n      swap3\n      pop\n        /* \"#utility.yul\":13729:13944   */\n      pop\n        /* \"#utility.yul\":13716:13717   */\n      0x01\n        /* \"#utility.yul\":13713:13714   */\n      dup2\n        /* \"#utility.yul\":13709:13718   */\n      add\n        /* \"#utility.yul\":13704:13718   */\n      swap1\n      pop\n        /* \"#utility.yul\":13669:13944   */\n      jump(tag_402)\n    tag_404:\n        /* \"#utility.yul\":13673:13687   */\n      pop\n        /* \"#utility.yul\":13960:13963   */\n      dup6\n        /* \"#utility.yul\":13953:13963   */\n      swap4\n      pop\n        /* \"#utility.yul\":13379:13969   */\n      pop\n      pop\n      pop\n        /* \"#utility.yul\":13261:13969   */\n      swap3\n      swap2\n      pop\n      pop\n      jump\t// out\n        /* \"#utility.yul\":13975:16208   */\n    tag_45:\n        /* \"#utility.yul\":14678:14682   */\n      0x00\n        /* \"#utility.yul\":14716:14719   */\n      0x0100\n        /* \"#utility.yul\":14705:14714   */\n      dup3\n        /* \"#utility.yul\":14701:14720   */\n      add\n        /* \"#utility.yul\":14693:14720   */\n      swap1\n      pop\n        /* \"#utility.yul\":14766:14775   */\n      dup2\n        /* \"#utility.yul\":14760:14764   */\n      dup2\n        /* \"#utility.yul\":14756:14776   */\n      sub\n        /* \"#utility.yul\":14752:14753   */\n      0x00\n        /* \"#utility.yul\":14741:14750   */\n      dup4\n        /* \"#utility.yul\":14737:14754   */\n      add\n        /* \"#utility.yul\":14730:14777   */\n      mstore\n        /* \"#utility.yul\":14794:14902   */\n      tag_408\n        /* \"#utility.yul\":14897:14901   */\n      dup2\n        /* \"#utility.yul\":14888:14894   */\n      dup12\n        /* \"#utility.yul\":14794:14902   */\n      tag_211\n      jump\t// in\n    tag_408:\n        /* \"#utility.yul\":14786:14902   */\n      swap1\n      pop\n        /* \"#utility.yul\":14949:14958   */\n      dup2\n        /* \"#utility.yul\":14943:14947   */\n      dup2\n        /* \"#utility.yul\":14939:14959   */\n      sub\n        /* \"#utility.yul\":14934:14936   */\n      0x20\n        /* \"#utility.yul\":14923:14932   */\n      dup4\n        /* \"#utility.yul\":14919:14937   */\n      add\n        /* \"#utility.yul\":14912:14960   */\n      mstore\n        /* \"#utility.yul\":14977:15105   */\n      tag_409\n        /* \"#utility.yul\":15100:15104   */\n      dup2\n        /* \"#utility.yul\":15091:15097   */\n      dup11\n        /* \"#utility.yul\":14977:15105   */\n      tag_227\n      jump\t// in\n    tag_409:\n        /* \"#utility.yul\":14969:15105   */\n      swap1\n      pop\n        /* \"#utility.yul\":15152:15161   */\n      dup2\n        /* \"#utility.yul\":15146:15150   */\n      dup2\n        /* \"#utility.yul\":15142:15162   */\n      sub\n        /* \"#utility.yul\":15137:15139   */\n      0x40\n        /* \"#utility.yul\":15126:15135   */\n      dup4\n        /* \"#utility.yul\":15122:15140   */\n      add\n        /* \"#utility.yul\":15115:15163   */\n      mstore\n        /* \"#utility.yul\":15180:15282   */\n      tag_410\n        /* \"#utility.yul\":15277:15281   */\n      dup2\n        /* \"#utility.yul\":15268:15274   */\n      dup10\n        /* \"#utility.yul\":15180:15282   */\n      tag_234\n      jump\t// in\n    tag_410:\n        /* \"#utility.yul\":15172:15282   */\n      swap1\n      pop\n        /* \"#utility.yul\":15329:15338   */\n      dup2\n        /* \"#utility.yul\":15323:15327   */\n      dup2\n        /* \"#utility.yul\":15319:15339   */\n      sub\n        /* \"#utility.yul\":15314:15316   */\n      0x60\n        /* \"#utility.yul\":15303:15312   */\n      dup4\n        /* \"#utility.yul\":15299:15317   */\n      add\n        /* \"#utility.yul\":15292:15340   */\n      mstore\n        /* \"#utility.yul\":15357:15465   */\n      tag_411\n        /* \"#utility.yul\":15460:15464   */\n      dup2\n        /* \"#utility.yul\":15451:15457   */\n      dup9\n        /* \"#utility.yul\":15357:15465   */\n      tag_211\n      jump\t// in\n    tag_411:\n        /* \"#utility.yul\":15349:15465   */\n      swap1\n      pop\n        /* \"#utility.yul\":15513:15522   */\n      dup2\n        /* \"#utility.yul\":15507:15511   */\n      dup2\n        /* \"#utility.yul\":15503:15523   */\n      sub\n        /* \"#utility.yul\":15497:15500   */\n      0x80\n        /* \"#utility.yul\":15486:15495   */\n      dup4\n        /* \"#utility.yul\":15482:15501   */\n      add\n        /* \"#utility.yul\":15475:15524   */\n      mstore\n        /* \"#utility.yul\":15541:15649   */\n      tag_412\n        /* \"#utility.yul\":15644:15648   */\n      dup2\n        /* \"#utility.yul\":15635:15641   */\n      dup8\n        /* \"#utility.yul\":15541:15649   */\n      tag_211\n      jump\t// in\n    tag_412:\n        /* \"#utility.yul\":15533:15649   */\n      swap1\n      pop\n        /* \"#utility.yul\":15697:15706   */\n      dup2\n        /* \"#utility.yul\":15691:15695   */\n      dup2\n        /* \"#utility.yul\":15687:15707   */\n      sub\n        /* \"#utility.yul\":15681:15684   */\n      0xa0\n        /* \"#utility.yul\":15670:15679   */\n      dup4\n        /* \"#utility.yul\":15666:15685   */\n      add\n        /* \"#utility.yul\":15659:15708   */\n      mstore\n        /* \"#utility.yul\":15725:15833   */\n      tag_413\n        /* \"#utility.yul\":15828:15832   */\n      dup2\n        /* \"#utility.yul\":15819:15825   */\n      dup7\n        /* \"#utility.yul\":15725:15833   */\n      tag_211\n      jump\t// in\n    tag_413:\n        /* \"#utility.yul\":15717:15833   */\n      swap1\n      pop\n        /* \"#utility.yul\":15881:15890   */\n      dup2\n        /* \"#utility.yul\":15875:15879   */\n      dup2\n        /* \"#utility.yul\":15871:15891   */\n      sub\n        /* \"#utility.yul\":15865:15868   */\n      0xc0\n        /* \"#utility.yul\":15854:15863   */\n      dup4\n        /* \"#utility.yul\":15850:15869   */\n      add\n        /* \"#utility.yul\":15843:15892   */\n      mstore\n        /* \"#utility.yul\":15909:16017   */\n      tag_414\n        /* \"#utility.yul\":16012:16016   */\n      dup2\n        /* \"#utility.yul\":16003:16009   */\n      dup6\n        /* \"#utility.yul\":15909:16017   */\n      tag_211\n      jump\t// in\n    tag_414:\n        /* \"#utility.yul\":15901:16017   */\n      swap1\n      pop\n        /* \"#utility.yul\":16065:16074   */\n      dup2\n        /* \"#utility.yul\":16059:16063   */\n      dup2\n        /* \"#utility.yul\":16055:16075   */\n      sub\n        /* \"#utility.yul\":16049:16052   */\n      0xe0\n        /* \"#utility.yul\":16038:16047   */\n      dup4\n        /* \"#utility.yul\":16034:16053   */\n      add\n        /* \"#utility.yul\":16027:16076   */\n      mstore\n        /* \"#utility.yul\":16093:16201   */\n      tag_415\n        /* \"#utility.yul\":16196:16200   */\n      dup2\n        /* \"#utility.yul\":16187:16193   */\n      dup5\n        /* \"#utility.yul\":16093:16201   */\n      tag_211\n      jump\t// in\n    tag_415:\n        /* \"#utility.yul\":16085:16201   */\n      swap1\n      pop\n        /* \"#utility.yul\":13975:16208   */\n      swap10\n      swap9\n      pop\n      pop\n      pop\n      pop\n      pop\n      pop\n      pop\n      pop\n      pop\n      jump\t// out\n        /* \"#utility.yul\":16214:16394   */\n    tag_235:\n        /* \"#utility.yul\":16262:16339   */\n      0x4e487b7100000000000000000000000000000000000000000000000000000000\n        /* \"#utility.yul\":16259:16260   */\n      0x00\n        /* \"#utility.yul\":16252:16340   */\n      mstore\n        /* \"#utility.yul\":16359:16363   */\n      0x22\n        /* \"#utility.yul\":16356:16357   */\n      0x04\n        /* \"#utility.yul\":16349:16364   */\n      mstore\n        /* \"#utility.yul\":16383:16387   */\n      0x24\n        /* \"#utility.yul\":16380:16381   */\n      0x00\n        /* \"#utility.yul\":16373:16388   */\n      revert\n        /* \"#utility.yul\":16400:16720   */\n    tag_47:\n        /* \"#utility.yul\":16444:16450   */\n      0x00\n        /* \"#utility.yul\":16481:16482   */\n      0x02\n        /* \"#utility.yul\":16475:16479   */\n      dup3\n        /* \"#utility.yul\":16471:16483   */\n      div\n        /* \"#utility.yul\":16461:16483   */\n      swap1\n      pop\n        /* \"#utility.yul\":16528:16529   */\n      0x01\n        /* \"#utility.yul\":16522:16526   */\n      dup3\n        /* \"#utility.yul\":16518:16530   */\n      and\n        /* \"#utility.yul\":16549:16567   */\n      dup1\n        /* \"#utility.yul\":16539:16620   */\n      tag_418\n      jumpi\n        /* \"#utility.yul\":16605:16609   */\n      0x7f\n        /* \"#utility.yul\":16597:16603   */\n      dup3\n        /* \"#utility.yul\":16593:16610   */\n      and\n        /* \"#utility.yul\":16583:16610   */\n      swap2\n      pop\n        /* \"#utility.yul\":16539:16620   */\n    tag_418:\n        /* \"#utility.yul\":16667:16669   */\n      0x20\n        /* \"#utility.yul\":16659:16665   */\n      dup3\n        /* \"#utility.yul\":16656:16670   */\n      lt\n        /* \"#utility.yul\":16636:16654   */\n      dup2\n        /* \"#utility.yul\":16633:16671   */\n      sub\n        /* \"#utility.yul\":16630:16714   */\n      tag_419\n      jumpi\n        /* \"#utility.yul\":16686:16704   */\n      tag_420\n      tag_235\n      jump\t// in\n    tag_420:\n        /* \"#utility.yul\":16630:16714   */\n    tag_419:\n        /* \"#utility.yul\":16451:16720   */\n      pop\n        /* \"#utility.yul\":16400:16720   */\n      swap2\n      swap1\n      pop\n      jump\t// out\n        /* \"#utility.yul\":16726:16951   */\n    tag_236:\n        /* \"#utility.yul\":16866:16900   */\n      0x4f6e6c7920746865206f7267616e697a65722063616e20656e64207468697320\n        /* \"#utility.yul\":16862:16863   */\n      0x00\n        /* \"#utility.yul\":16854:16860   */\n      dup3\n        /* \"#utility.yul\":16850:16864   */\n      add\n        /* \"#utility.yul\":16843:16901   */\n      mstore\n        /* \"#utility.yul\":16935:16943   */\n      0x6576656e742e0000000000000000000000000000000000000000000000000000\n        /* \"#utility.yul\":16930:16932   */\n      0x20\n        /* \"#utility.yul\":16922:16928   */\n      dup3\n        /* \"#utility.yul\":16918:16933   */\n      add\n        /* \"#utility.yul\":16911:16944   */\n      mstore\n        /* \"#utility.yul\":16726:16951   */\n      pop\n      jump\t// out\n        /* \"#utility.yul\":16957:17323   */\n    tag_237:\n        /* \"#utility.yul\":17099:17102   */\n      0x00\n        /* \"#utility.yul\":17120:17187   */\n      tag_423\n        /* \"#utility.yul\":17184:17186   */\n      0x26\n        /* \"#utility.yul\":17179:17182   */\n      dup4\n        /* \"#utility.yul\":17120:17187   */\n      tag_196\n      jump\t// in\n    tag_423:\n        /* \"#utility.yul\":17113:17187   */\n      swap2\n      pop\n        /* \"#utility.yul\":17196:17289   */\n      tag_424\n        /* \"#utility.yul\":17285:17288   */\n      dup3\n        /* \"#utility.yul\":17196:17289   */\n      tag_236\n      jump\t// in\n    tag_424:\n        /* \"#utility.yul\":17314:17316   */\n      0x40\n        /* \"#utility.yul\":17309:17312   */\n      dup3\n        /* \"#utility.yul\":17305:17317   */\n      add\n        /* \"#utility.yul\":17298:17317   */\n      swap1\n      pop\n        /* \"#utility.yul\":16957:17323   */\n      swap2\n      swap1\n      pop\n      jump\t// out\n        /* \"#utility.yul\":17329:17748   */\n    tag_55:\n        /* \"#utility.yul\":17495:17499   */\n      0x00\n        /* \"#utility.yul\":17533:17535   */\n      0x20\n        /* \"#utility.yul\":17522:17531   */\n      dup3\n        /* \"#utility.yul\":17518:17536   */\n      add\n        /* \"#utility.yul\":17510:17536   */\n      swap1\n      pop\n        /* \"#utility.yul\":17582:17591   */\n      dup2\n        /* \"#utility.yul\":17576:17580   */\n      dup2\n        /* \"#utility.yul\":17572:17592   */\n      sub\n        /* \"#utility.yul\":17568:17569   */\n      0x00\n        /* \"#utility.yul\":17557:17566   */\n      dup4\n        /* \"#utility.yul\":17553:17570   */\n      add\n        /* \"#utility.yul\":17546:17593   */\n      mstore\n        /* \"#utility.yul\":17610:17741   */\n      tag_426\n        /* \"#utility.yul\":17736:17740   */\n      dup2\n        /* \"#utility.yul\":17610:17741   */\n      tag_237\n      jump\t// in\n    tag_426:\n        /* \"#utility.yul\":17602:17741   */\n      swap1\n      pop\n        /* \"#utility.yul\":17329:17748   */\n      swap2\n      swap1\n      pop\n      jump\t// out\n        /* \"#utility.yul\":17754:17934   */\n    tag_72:\n        /* \"#utility.yul\":17802:17879   */\n      0x4e487b7100000000000000000000000000000000000000000000000000000000\n        /* \"#utility.yul\":17799:17800   */\n      0x00\n        /* \"#utility.yul\":17792:17880   */\n      mstore\n        /* \"#utility.yul\":17899:17903   */\n      0x32\n        /* \"#utility.yul\":17896:17897   */\n      0x04\n        /* \"#utility.yul\":17889:17904   */\n      mstore\n        /* \"#utility.yul\":17923:17927   */\n      0x24\n        /* \"#utility.yul\":17920:17921   */\n      0x00\n        /* \"#utility.yul\":17913:17928   */\n      revert\n        /* \"#utility.yul\":17940:18120   */\n    tag_238:\n        /* \"#utility.yul\":17988:18065   */\n      0x4e487b7100000000000000000000000000000000000000000000000000000000\n        /* \"#utility.yul\":17985:17986   */\n      0x00\n        /* \"#utility.yul\":17978:18066   */\n      mstore\n        /* \"#utility.yul\":18085:18089   */\n      0x11\n        /* \"#utility.yul\":18082:18083   */\n      0x04\n        /* \"#utility.yul\":18075:18090   */\n      mstore\n        /* \"#utility.yul\":18109:18113   */\n      0x24\n        /* \"#utility.yul\":18106:18107   */\n      0x00\n        /* \"#utility.yul\":18099:18114   */\n      revert\n        /* \"#utility.yul\":18126:18320   */\n    tag_78:\n        /* \"#utility.yul\":18166:18170   */\n      0x00\n        /* \"#utility.yul\":18186:18206   */\n      tag_430\n        /* \"#utility.yul\":18204:18205   */\n      dup3\n        /* \"#utility.yul\":18186:18206   */\n      tag_191\n      jump\t// in\n    tag_430:\n        /* \"#utility.yul\":18181:18206   */\n      swap2\n      pop\n        /* \"#utility.yul\":18220:18240   */\n      tag_431\n        /* \"#utility.yul\":18238:18239   */\n      dup4\n        /* \"#utility.yul\":18220:18240   */\n      tag_191\n      jump\t// in\n    tag_431:\n        /* \"#utility.yul\":18215:18240   */\n      swap3\n      pop\n        /* \"#utility.yul\":18264:18265   */\n      dup3\n        /* \"#utility.yul\":18261:18262   */\n      dup3\n        /* \"#utility.yul\":18257:18266   */\n      sub\n        /* \"#utility.yul\":18249:18266   */\n      swap1\n      pop\n        /* \"#utility.yul\":18288:18289   */\n      dup2\n        /* \"#utility.yul\":18282:18286   */\n      dup2\n        /* \"#utility.yul\":18279:18290   */\n      gt\n        /* \"#utility.yul\":18276:18313   */\n      iszero\n      tag_432\n      jumpi\n        /* \"#utility.yul\":18293:18311   */\n      tag_433\n      tag_238\n      jump\t// in\n    tag_433:\n        /* \"#utility.yul\":18276:18313   */\n    tag_432:\n        /* \"#utility.yul\":18126:18320   */\n      swap3\n      swap2\n      pop\n      pop\n      jump\t// out\n        /* \"#utility.yul\":18326:18497   */\n    tag_89:\n        /* \"#utility.yul\":18365:18368   */\n      0x00\n        /* \"#utility.yul\":18388:18412   */\n      tag_435\n        /* \"#utility.yul\":18406:18411   */\n      dup3\n        /* \"#utility.yul\":18388:18412   */\n      tag_191\n      jump\t// in\n    tag_435:\n        /* \"#utility.yul\":18379:18412   */\n      swap2\n      pop\n        /* \"#utility.yul\":18434:18438   */\n      0x00\n        /* \"#utility.yul\":18427:18432   */\n      dup3\n        /* \"#utility.yul\":18424:18439   */\n      sub\n        /* \"#utility.yul\":18421:18462   */\n      tag_436\n      jumpi\n        /* \"#utility.yul\":18442:18460   */\n      tag_437\n      tag_238\n      jump\t// in\n    tag_437:\n        /* \"#utility.yul\":18421:18462   */\n    tag_436:\n        /* \"#utility.yul\":18489:18490   */\n      0x01\n        /* \"#utility.yul\":18482:18487   */\n      dup3\n        /* \"#utility.yul\":18478:18491   */\n      sub\n        /* \"#utility.yul\":18471:18491   */\n      swap1\n      pop\n        /* \"#utility.yul\":18326:18497   */\n      swap2\n      swap1\n      pop\n      jump\t// out\n        /* \"#utility.yul\":18503:18736   */\n    tag_95:\n        /* \"#utility.yul\":18542:18545   */\n      0x00\n        /* \"#utility.yul\":18565:18589   */\n      tag_439\n        /* \"#utility.yul\":18583:18588   */\n      dup3\n        /* \"#utility.yul\":18565:18589   */\n      tag_191\n      jump\t// in\n    tag_439:\n        /* \"#utility.yul\":18556:18589   */\n      swap2\n      pop\n        /* \"#utility.yul\":18611:18677   */\n      0xffffffffffffffffffffffffffffffffffffffffffffffffffffffffffffffff\n        /* \"#utility.yul\":18604:18609   */\n      dup3\n        /* \"#utility.yul\":18601:18678   */\n      sub\n        /* \"#utility.yul\":18598:18701   */\n      tag_440\n      jumpi\n        /* \"#utility.yul\":18681:18699   */\n      tag_441\n      tag_238\n      jump\t// in\n    tag_441:\n        /* \"#utility.yul\":18598:18701   */\n    tag_440:\n        /* \"#utility.yul\":18728:18729   */\n      0x01\n        /* \"#utility.yul\":18721:18726   */\n      dup3\n        /* \"#utility.yul\":18717:18730   */\n      add\n        /* \"#utility.yul\":18710:18730   */\n      swap1\n      pop\n        /* \"#utility.yul\":18503:18736   */\n      swap2\n      swap1\n      pop\n      jump\t// out\n        /* \"#utility.yul\":18742:18883   */\n    tag_239:\n        /* \"#utility.yul\":18791:18795   */\n      0x00\n        /* \"#utility.yul\":18814:18817   */\n      dup2\n        /* \"#utility.yul\":18806:18817   */\n      swap1\n      pop\n        /* \"#utility.yul\":18837:18840   */\n      dup2\n        /* \"#utility.yul\":18834:18835   */\n      0x00\n        /* \"#utility.yul\":18827:18841   */\n      mstore\n        /* \"#utility.yul\":18871:18875   */\n      0x20\n        /* \"#utility.yul\":18868:18869   */\n      0x00\n        /* \"#utility.yul\":18858:18876   */\n      keccak256\n        /* \"#utility.yul\":18850:18876   */\n      swap1\n      pop\n        /* \"#utility.yul\":18742:18883   */\n      swap2\n      swap1\n      pop\n      jump\t// out\n        /* \"#utility.yul\":18889:18982   */\n    tag_240:\n        /* \"#utility.yul\":18926:18932   */\n      0x00\n        /* \"#utility.yul\":18973:18975   */\n      0x20\n        /* \"#utility.yul\":18968:18970   */\n      0x1f\n        /* \"#utility.yul\":18961:18966   */\n      dup4\n        /* \"#utility.yul\":18957:18971   */\n      add\n        /* \"#utility.yul\":18953:18976   */\n      div\n        /* \"#utility.yul\":18943:18976   */\n      swap1\n      pop\n        /* \"#utility.yul\":18889:18982   */\n      swap2\n      swap1\n      pop\n      jump\t// out\n        /* \"#utility.yul\":18988:19095   */\n    tag_241:\n        /* \"#utility.yul\":19032:19040   */\n      0x00\n        /* \"#utility.yul\":19082:19087   */\n      dup3\n        /* \"#utility.yul\":19076:19080   */\n      dup3\n        /* \"#utility.yul\":19072:19088   */\n      shl\n        /* \"#utility.yul\":19051:19088   */\n      swap1\n      pop\n        /* \"#utility.yul\":18988:19095   */\n      swap3\n      swap2\n      pop\n      pop\n      jump\t// out\n        /* \"#utility.yul\":19101:19494   */\n    tag_242:\n        /* \"#utility.yul\":19170:19176   */\n      0x00\n        /* \"#utility.yul\":19220:19221   */\n      0x08\n        /* \"#utility.yul\":19208:19218   */\n      dup4\n        /* \"#utility.yul\":19204:19222   */\n      mul\n        /* \"#utility.yul\":19243:19340   */\n      tag_446\n        /* \"#utility.yul\":19273:19339   */\n      0xffffffffffffffffffffffffffffffffffffffffffffffffffffffffffffffff\n        /* \"#utility.yul\":19262:19271   */\n      dup3\n        /* \"#utility.yul\":19243:19340   */\n      tag_241\n      jump\t// in\n    tag_446:\n        /* \"#utility.yul\":19361:19400   */\n      tag_447\n        /* \"#utility.yul\":19391:19399   */\n      dup7\n        /* \"#utility.yul\":19380:19389   */\n      dup4\n        /* \"#utility.yul\":19361:19400   */\n      tag_241\n      jump\t// in\n    tag_447:\n        /* \"#utility.yul\":19349:19400   */\n      swap6\n      pop\n        /* \"#utility.yul\":19433:19437   */\n      dup1\n        /* \"#utility.yul\":19429:19438   */\n      not\n        /* \"#utility.yul\":19422:19427   */\n      dup5\n        /* \"#utility.yul\":19418:19439   */\n      and\n        /* \"#utility.yul\":19409:19439   */\n      swap4\n      pop\n        /* \"#utility.yul\":19482:19486   */\n      dup1\n        /* \"#utility.yul\":19472:19480   */\n      dup7\n        /* \"#utility.yul\":19468:19487   */\n      and\n        /* \"#utility.yul\":19461:19466   */\n      dup5\n        /* \"#utility.yul\":19458:19488   */\n      or\n        /* \"#utility.yul\":19448:19488   */\n      swap3\n      pop\n        /* \"#utility.yul\":19177:19494   */\n      pop\n      pop\n        /* \"#utility.yul\":19101:19494   */\n      swap4\n      swap3\n      pop\n      pop\n      pop\n      jump\t// out\n        /* \"#utility.yul\":19500:19560   */\n    tag_243:\n        /* \"#utility.yul\":19528:19531   */\n      0x00\n        /* \"#utility.yul\":19549:19554   */\n      dup2\n        /* \"#utility.yul\":19542:19554   */\n      swap1\n      pop\n        /* \"#utility.yul\":19500:19560   */\n      swap2\n      swap1\n      pop\n      jump\t// out\n        /* \"#utility.yul\":19566:19708   */\n    tag_244:\n        /* \"#utility.yul\":19616:19625   */\n      0x00\n        /* \"#utility.yul\":19649:19702   */\n      tag_450\n        /* \"#utility.yul\":19667:19701   */\n      tag_451\n        /* \"#utility.yul\":19676:19700   */\n      tag_452\n        /* \"#utility.yul\":19694:19699   */\n      dup5\n        /* \"#utility.yul\":19676:19700   */\n      tag_191\n      jump\t// in\n    tag_452:\n        /* \"#utility.yul\":19667:19701   */\n      tag_243\n      jump\t// in\n    tag_451:\n        /* \"#utility.yul\":19649:19702   */\n      tag_191\n      jump\t// in\n    tag_450:\n        /* \"#utility.yul\":19636:19702   */\n      swap1\n      pop\n        /* \"#utility.yul\":19566:19708   */\n      swap2\n      swap1\n      pop\n      jump\t// out\n        /* \"#utility.yul\":19714:19789   */\n    tag_245:\n        /* \"#utility.yul\":19757:19760   */\n      0x00\n        /* \"#utility.yul\":19778:19783   */\n      dup2\n        /* \"#utility.yul\":19771:19783   */\n      swap1\n      pop\n        /* \"#utility.yul\":19714:19789   */\n      swap2\n      swap1\n      pop\n      jump\t// out\n        /* \"#utility.yul\":19795:20064   */\n    tag_246:\n        /* \"#utility.yul\":19905:19944   */\n      tag_455\n        /* \"#utility.yul\":19936:19943   */\n      dup4\n        /* \"#utility.yul\":19905:19944   */\n      tag_244\n      jump\t// in\n    tag_455:\n        /* \"#utility.yul\":19966:20057   */\n      tag_456\n        /* \"#utility.yul\":20015:20056   */\n      tag_457\n        /* \"#utility.yul\":20039:20055   */\n      dup3\n        /* \"#utility.yul\":20015:20056   */\n      tag_245\n      jump\t// in\n    tag_457:\n        /* \"#utility.yul\":20007:20013   */\n      dup5\n        /* \"#utility.yul\":20000:20004   */\n      dup5\n        /* \"#utility.yul\":19994:20005   */\n      sload\n        /* \"#utility.yul\":19966:20057   */\n      tag_242\n      jump\t// in\n    tag_456:\n        /* \"#utility.yul\":19960:19964   */\n      dup3\n        /* \"#utility.yul\":19953:20058   */\n      sstore\n        /* \"#utility.yul\":19871:20064   */\n      pop\n        /* \"#utility.yul\":19795:20064   */\n      pop\n      pop\n      pop\n      jump\t// out\n        /* \"#utility.yul\":20070:20143   */\n    tag_247:\n        /* \"#utility.yul\":20115:20118   */\n      0x00\n        /* \"#utility.yul\":20070:20143   */\n      swap1\n      jump\t// out\n        /* \"#utility.yul\":20149:20338   */\n    tag_248:\n        /* \"#utility.yul\":20226:20258   */\n      tag_460\n      tag_247\n      jump\t// in\n    tag_460:\n        /* \"#utility.yul\":20267:20332   */\n      tag_461\n        /* \"#utility.yul\":20325:20331   */\n      dup2\n        /* \"#utility.yul\":20317:20323   */\n      dup5\n        /* \"#utility.yul\":20311:20315   */\n      dup5\n        /* \"#utility.yul\":20267:20332   */\n      tag_246\n      jump\t// in\n    tag_461:\n        /* \"#utility.yul\":20202:20338   */\n      pop\n        /* \"#utility.yul\":20149:20338   */\n      pop\n      pop\n      jump\t// out\n        /* \"#utility.yul\":20344:20530   */\n    tag_249:\n        /* \"#utility.yul\":20404:20524   */\n    tag_463:\n        /* \"#utility.yul\":20421:20424   */\n      dup2\n        /* \"#utility.yul\":20414:20419   */\n      dup2\n        /* \"#utility.yul\":20411:20425   */\n      lt\n        /* \"#utility.yul\":20404:20524   */\n      iszero\n      tag_465\n      jumpi\n        /* \"#utility.yul\":20475:20514   */\n      tag_466\n        /* \"#utility.yul\":20512:20513   */\n      0x00\n        /* \"#utility.yul\":20505:20510   */\n      dup3\n        /* \"#utility.yul\":20475:20514   */\n      tag_248\n      jump\t// in\n    tag_466:\n        /* \"#utility.yul\":20448:20449   */\n      0x01\n        /* \"#utility.yul\":20441:20446   */\n      dup2\n        /* \"#utility.yul\":20437:20450   */\n      add\n        /* \"#utility.yul\":20428:20450   */\n      swap1\n      pop\n        /* \"#utility.yul\":20404:20524   */\n      jump(tag_463)\n    tag_465:\n        /* \"#utility.yul\":20344:20530   */\n      pop\n      pop\n      jump\t// out\n        /* \"#utility.yul\":20536:21079   */\n    tag_250:\n        /* \"#utility.yul\":20637:20639   */\n      0x1f\n        /* \"#utility.yul\":20632:20635   */\n      dup3\n        /* \"#utility.yul\":20629:20640   */\n      gt\n        /* \"#utility.yul\":20626:21072   */\n      iszero\n      tag_468\n      jumpi\n        /* \"#utility.yul\":20671:20709   */\n      tag_469\n        /* \"#utility.yul\":20703:20708   */\n      dup2\n        /* \"#utility.yul\":20671:20709   */\n      tag_239\n      jump\t// in\n    tag_469:\n        /* \"#utility.yul\":20755:20784   */\n      tag_470\n        /* \"#utility.yul\":20773:20783   */\n      dup5\n        /* \"#utility.yul\":20755:20784   */\n      tag_240\n      jump\t// in\n    tag_470:\n        /* \"#utility.yul\":20745:20753   */\n      dup2\n        /* \"#utility.yul\":20741:20785   */\n      add\n        /* \"#utility.yul\":20938:20940   */\n      0x20\n        /* \"#utility.yul\":20926:20936   */\n      dup6\n        /* \"#utility.yul\":20923:20941   */\n      lt\n        /* \"#utility.yul\":20920:20969   */\n      iszero\n      tag_471\n      jumpi\n        /* \"#utility.yul\":20959:20967   */\n      dup2\n        /* \"#utility.yul\":20944:20967   */\n      swap1\n      pop\n        /* \"#utility.yul\":20920:20969   */\n    tag_471:\n        /* \"#utility.yul\":20982:21062   */\n      tag_472\n        /* \"#utility.yul\":21038:21060   */\n      tag_473\n        /* \"#utility.yul\":21056:21059   */\n      dup6\n        /* \"#utility.yul\":21038:21060   */\n      tag_240\n      jump\t// in\n    tag_473:\n        /* \"#utility.yul\":21028:21036   */\n      dup4\n        /* \"#utility.yul\":21024:21061   */\n      add\n        /* \"#utility.yul\":21011:21022   */\n      dup3\n        /* \"#utility.yul\":20982:21062   */\n      tag_249\n      jump\t// in\n    tag_472:\n        /* \"#utility.yul\":20641:21072   */\n      pop\n      pop\n        /* \"#utility.yul\":20626:21072   */\n    tag_468:\n        /* \"#utility.yul\":20536:21079   */\n      pop\n      pop\n      pop\n      jump\t// out\n        /* \"#utility.yul\":21085:21202   */\n    tag_251:\n        /* \"#utility.yul\":21139:21147   */\n      0x00\n        /* \"#utility.yul\":21189:21194   */\n      dup3\n        /* \"#utility.yul\":21183:21187   */\n      dup3\n        /* \"#utility.yul\":21179:21195   */\n      shr\n        /* \"#utility.yul\":21158:21195   */\n      swap1\n      pop\n        /* \"#utility.yul\":21085:21202   */\n      swap3\n      swap2\n      pop\n      pop\n      jump\t// out\n        /* \"#utility.yul\":21208:21377   */\n    tag_252:\n        /* \"#utility.yul\":21252:21258   */\n      0x00\n        /* \"#utility.yul\":21285:21336   */\n      tag_476\n        /* \"#utility.yul\":21333:21334   */\n      0x00\n        /* \"#utility.yul\":21329:21335   */\n      not\n        /* \"#utility.yul\":21321:21326   */\n      dup5\n        /* \"#utility.yul\":21318:21319   */\n      0x08\n        /* \"#utility.yul\":21314:21327   */\n      mul\n        /* \"#utility.yul\":21285:21336   */\n      tag_251\n      jump\t// in\n    tag_476:\n        /* \"#utility.yul\":21281:21337   */\n      not\n        /* \"#utility.yul\":21366:21370   */\n      dup1\n        /* \"#utility.yul\":21360:21364   */\n      dup4\n        /* \"#utility.yul\":21356:21371   */\n      and\n        /* \"#utility.yul\":21346:21371   */\n      swap2\n      pop\n        /* \"#utility.yul\":21259:21377   */\n      pop\n        /* \"#utility.yul\":21208:21377   */\n      swap3\n      swap2\n      pop\n      pop\n      jump\t// out\n        /* \"#utility.yul\":21382:21677   */\n    tag_253:\n        /* \"#utility.yul\":21458:21462   */\n      0x00\n        /* \"#utility.yul\":21604:21633   */\n      tag_478\n        /* \"#utility.yul\":21629:21632   */\n      dup4\n        /* \"#utility.yul\":21623:21627   */\n      dup4\n        /* \"#utility.yul\":21604:21633   */\n      tag_252\n      jump\t// in\n    tag_478:\n        /* \"#utility.yul\":21596:21633   */\n      swap2\n      pop\n        /* \"#utility.yul\":21666:21669   */\n      dup3\n        /* \"#utility.yul\":21663:21664   */\n      0x02\n        /* \"#utility.yul\":21659:21670   */\n      mul\n        /* \"#utility.yul\":21653:21657   */\n      dup3\n        /* \"#utility.yul\":21650:21671   */\n      or\n        /* \"#utility.yul\":21642:21671   */\n      swap1\n      pop\n        /* \"#utility.yul\":21382:21677   */\n      swap3\n      swap2\n      pop\n      pop\n      jump\t// out\n        /* \"#utility.yul\":21682:23077   */\n    tag_106:\n        /* \"#utility.yul\":21799:21836   */\n      tag_480\n        /* \"#utility.yul\":21832:21835   */\n      dup3\n        /* \"#utility.yul\":21799:21836   */\n      tag_195\n      jump\t// in\n    tag_480:\n        /* \"#utility.yul\":21901:21919   */\n      0xffffffffffffffff\n        /* \"#utility.yul\":21893:21899   */\n      dup2\n        /* \"#utility.yul\":21890:21920   */\n      gt\n        /* \"#utility.yul\":21887:21943   */\n      iszero\n      tag_481\n      jumpi\n        /* \"#utility.yul\":21923:21941   */\n      tag_482\n      tag_59\n      jump\t// in\n    tag_482:\n        /* \"#utility.yul\":21887:21943   */\n    tag_481:\n        /* \"#utility.yul\":21967:22005   */\n      tag_483\n        /* \"#utility.yul\":21999:22003   */\n      dup3\n        /* \"#utility.yul\":21993:22004   */\n      sload\n        /* \"#utility.yul\":21967:22005   */\n      tag_47\n      jump\t// in\n    tag_483:\n        /* \"#utility.yul\":22052:22119   */\n      tag_484\n        /* \"#utility.yul\":22112:22118   */\n      dup3\n        /* \"#utility.yul\":22104:22110   */\n      dup3\n        /* \"#utility.yul\":22098:22102   */\n      dup6\n        /* \"#utility.yul\":22052:22119   */\n      tag_250\n      jump\t// in\n    tag_484:\n        /* \"#utility.yul\":22146:22147   */\n      0x00\n        /* \"#utility.yul\":22170:22174   */\n      0x20\n        /* \"#utility.yul\":22157:22174   */\n      swap1\n      pop\n        /* \"#utility.yul\":22202:22204   */\n      0x1f\n        /* \"#utility.yul\":22194:22200   */\n      dup4\n        /* \"#utility.yul\":22191:22205   */\n      gt\n        /* \"#utility.yul\":22219:22220   */\n      0x01\n        /* \"#utility.yul\":22214:22832   */\n      dup2\n      eq\n      tag_486\n      jumpi\n        /* \"#utility.yul\":22876:22877   */\n      0x00\n        /* \"#utility.yul\":22893:22899   */\n      dup5\n        /* \"#utility.yul\":22890:22967   */\n      iszero\n      tag_487\n      jumpi\n        /* \"#utility.yul\":22942:22951   */\n      dup3\n        /* \"#utility.yul\":22937:22940   */\n      dup8\n        /* \"#utility.yul\":22933:22952   */\n      add\n        /* \"#utility.yul\":22927:22953   */\n      mload\n        /* \"#utility.yul\":22918:22953   */\n      swap1\n      pop\n        /* \"#utility.yul\":22890:22967   */\n    tag_487:\n        /* \"#utility.yul\":22993:23060   */\n      tag_488\n        /* \"#utility.yul\":23053:23059   */\n      dup6\n        /* \"#utility.yul\":23046:23051   */\n      dup3\n        /* \"#utility.yul\":22993:23060   */\n      tag_253\n      jump\t// in\n    tag_488:\n        /* \"#utility.yul\":22987:22991   */\n      dup7\n        /* \"#utility.yul\":22980:23061   */\n      sstore\n        /* \"#utility.yul\":22849:23071   */\n      pop\n        /* \"#utility.yul\":22184:23071   */\n      jump(tag_485)\n        /* \"#utility.yul\":22214:22832   */\n    tag_486:\n        /* \"#utility.yul\":22266:22270   */\n      0x1f\n        /* \"#utility.yul\":22262:22271   */\n      not\n        /* \"#utility.yul\":22254:22260   */\n      dup5\n        /* \"#utility.yul\":22250:22272   */\n      and\n        /* \"#utility.yul\":22300:22337   */\n      tag_489\n        /* \"#utility.yul\":22332:22336   */\n      dup7\n        /* \"#utility.yul\":22300:22337   */\n      tag_239\n      jump\t// in\n    tag_489:\n        /* \"#utility.yul\":22359:22360   */\n      0x00\n        /* \"#utility.yul\":22373:22581   */\n    tag_490:\n        /* \"#utility.yul\":22387:22394   */\n      dup3\n        /* \"#utility.yul\":22384:22385   */\n      dup2\n        /* \"#utility.yul\":22381:22395   */\n      lt\n        /* \"#utility.yul\":22373:22581   */\n      iszero\n      tag_492\n      jumpi\n        /* \"#utility.yul\":22466:22475   */\n      dup5\n        /* \"#utility.yul\":22461:22464   */\n      dup10\n        /* \"#utility.yul\":22457:22476   */\n      add\n        /* \"#utility.yul\":22451:22477   */\n      mload\n        /* \"#utility.yul\":22443:22449   */\n      dup3\n        /* \"#utility.yul\":22436:22478   */\n      sstore\n        /* \"#utility.yul\":22517:22518   */\n      0x01\n        /* \"#utility.yul\":22509:22515   */\n      dup3\n        /* \"#utility.yul\":22505:22519   */\n      add\n        /* \"#utility.yul\":22495:22519   */\n      swap2\n      pop\n        /* \"#utility.yul\":22564:22566   */\n      0x20\n        /* \"#utility.yul\":22553:22562   */\n      dup6\n        /* \"#utility.yul\":22549:22567   */\n      add\n        /* \"#utility.yul\":22536:22567   */\n      swap5\n      pop\n        /* \"#utility.yul\":22410:22414   */\n      0x20\n        /* \"#utility.yul\":22407:22408   */\n      dup2\n        /* \"#utility.yul\":22403:22415   */\n      add\n        /* \"#utility.yul\":22398:22415   */\n      swap1\n      pop\n        /* \"#utility.yul\":22373:22581   */\n      jump(tag_490)\n    tag_492:\n        /* \"#utility.yul\":22609:22615   */\n      dup7\n        /* \"#utility.yul\":22600:22607   */\n      dup4\n        /* \"#utility.yul\":22597:22616   */\n      lt\n        /* \"#utility.yul\":22594:22773   */\n      iszero\n      tag_493\n      jumpi\n        /* \"#utility.yul\":22667:22676   */\n      dup5\n        /* \"#utility.yul\":22662:22665   */\n      dup10\n        /* \"#utility.yul\":22658:22677   */\n      add\n        /* \"#utility.yul\":22652:22678   */\n      mload\n        /* \"#utility.yul\":22710:22758   */\n      tag_494\n        /* \"#utility.yul\":22752:22756   */\n      0x1f\n        /* \"#utility.yul\":22744:22750   */\n      dup10\n        /* \"#utility.yul\":22740:22757   */\n      and\n        /* \"#utility.yul\":22729:22738   */\n      dup3\n        /* \"#utility.yul\":22710:22758   */\n      tag_252\n      jump\t// in\n    tag_494:\n        /* \"#utility.yul\":22702:22708   */\n      dup4\n        /* \"#utility.yul\":22695:22759   */\n      sstore\n        /* \"#utility.yul\":22617:22773   */\n      pop\n        /* \"#utility.yul\":22594:22773   */\n    tag_493:\n        /* \"#utility.yul\":22819:22820   */\n      0x01\n        /* \"#utility.yul\":22815:22816   */\n      0x02\n        /* \"#utility.yul\":22807:22813   */\n      dup9\n        /* \"#utility.yul\":22803:22817   */\n      mul\n        /* \"#utility.yul\":22799:22821   */\n      add\n        /* \"#utility.yul\":22793:22797   */\n      dup9\n        /* \"#utility.yul\":22786:22822   */\n      sstore\n        /* \"#utility.yul\":22221:22832   */\n      pop\n      pop\n      pop\n        /* \"#utility.yul\":22184:23071   */\n    tag_485:\n      pop\n        /* \"#utility.yul\":21774:23077   */\n      pop\n      pop\n      pop\n        /* \"#utility.yul\":21682:23077   */\n      pop\n      pop\n      jump\t// out\n        /* \"#utility.yul\":23083:23254   */\n    tag_254:\n        /* \"#utility.yul\":23223:23246   */\n      0x496e76616c6964206f7074696f6e20696e6465782e0000000000000000000000\n        /* \"#utility.yul\":23219:23220   */\n      0x00\n        /* \"#utility.yul\":23211:23217   */\n      dup3\n        /* \"#utility.yul\":23207:23221   */\n      add\n        /* \"#utility.yul\":23200:23247   */\n      mstore\n        /* \"#utility.yul\":23083:23254   */\n      pop\n      jump\t// out\n        /* \"#utility.yul\":23260:23626   */\n    tag_255:\n        /* \"#utility.yul\":23402:23405   */\n      0x00\n        /* \"#utility.yul\":23423:23490   */\n      tag_497\n        /* \"#utility.yul\":23487:23489   */\n      0x15\n        /* \"#utility.yul\":23482:23485   */\n      dup4\n        /* \"#utility.yul\":23423:23490   */\n      tag_196\n      jump\t// in\n    tag_497:\n        /* \"#utility.yul\":23416:23490   */\n      swap2\n      pop\n        /* \"#utility.yul\":23499:23592   */\n      tag_498\n        /* \"#utility.yul\":23588:23591   */\n      dup3\n        /* \"#utility.yul\":23499:23592   */\n      tag_254\n      jump\t// in\n    tag_498:\n        /* \"#utility.yul\":23617:23619   */\n      0x20\n        /* \"#utility.yul\":23612:23615   */\n      dup3\n        /* \"#utility.yul\":23608:23620   */\n      add\n        /* \"#utility.yul\":23601:23620   */\n      swap1\n      pop\n        /* \"#utility.yul\":23260:23626   */\n      swap2\n      swap1\n      pop\n      jump\t// out\n        /* \"#utility.yul\":23632:24051   */\n    tag_110:\n        /* \"#utility.yul\":23798:23802   */\n      0x00\n        /* \"#utility.yul\":23836:23838   */\n      0x20\n        /* \"#utility.yul\":23825:23834   */\n      dup3\n        /* \"#utility.yul\":23821:23839   */\n      add\n        /* \"#utility.yul\":23813:23839   */\n      swap1\n      pop\n        /* \"#utility.yul\":23885:23894   */\n      dup2\n        /* \"#utility.yul\":23879:23883   */\n      dup2\n        /* \"#utility.yul\":23875:23895   */\n      sub\n        /* \"#utility.yul\":23871:23872   */\n      0x00\n        /* \"#utility.yul\":23860:23869   */\n      dup4\n        /* \"#utility.yul\":23856:23873   */\n      add\n        /* \"#utility.yul\":23849:23896   */\n      mstore\n        /* \"#utility.yul\":23913:24044   */\n      tag_500\n        /* \"#utility.yul\":24039:24043   */\n      dup2\n        /* \"#utility.yul\":23913:24044   */\n      tag_255\n      jump\t// in\n    tag_500:\n        /* \"#utility.yul\":23905:24044   */\n      swap1\n      pop\n        /* \"#utility.yul\":23632:24051   */\n      swap2\n      swap1\n      pop\n      jump\t// out\n        /* \"#utility.yul\":24057:24227   */\n    tag_256:\n        /* \"#utility.yul\":24197:24219   */\n      0x4576656e74206973206e6f74206163746976652e000000000000000000000000\n        /* \"#utility.yul\":24193:24194   */\n      0x00\n        /* \"#utility.yul\":24185:24191   */\n      dup3\n        /* \"#utility.yul\":24181:24195   */\n      add\n        /* \"#utility.yul\":24174:24220   */\n      mstore\n        /* \"#utility.yul\":24057:24227   */\n      pop\n      jump\t// out\n        /* \"#utility.yul\":24233:24599   */\n    tag_257:\n        /* \"#utility.yul\":24375:24378   */\n      0x00\n        /* \"#utility.yul\":24396:24463   */\n      tag_503\n        /* \"#utility.yul\":24460:24462   */\n      0x14\n        /* \"#utility.yul\":24455:24458   */\n      dup4\n        /* \"#utility.yul\":24396:24463   */\n      tag_196\n      jump\t// in\n    tag_503:\n        /* \"#utility.yul\":24389:24463   */\n      swap2\n      pop\n        /* \"#utility.yul\":24472:24565   */\n      tag_504\n        /* \"#utility.yul\":24561:24564   */\n      dup3\n        /* \"#utility.yul\":24472:24565   */\n      tag_256\n      jump\t// in\n    tag_504:\n        /* \"#utility.yul\":24590:24592   */\n      0x20\n        /* \"#utility.yul\":24585:24588   */\n      dup3\n        /* \"#utility.yul\":24581:24593   */\n      add\n        /* \"#utility.yul\":24574:24593   */\n      swap1\n      pop\n        /* \"#utility.yul\":24233:24599   */\n      swap2\n      swap1\n      pop\n      jump\t// out\n        /* \"#utility.yul\":24605:25024   */\n    tag_113:\n        /* \"#utility.yul\":24771:24775   */\n      0x00\n        /* \"#utility.yul\":24809:24811   */\n      0x20\n        /* \"#utility.yul\":24798:24807   */\n      dup3\n        /* \"#utility.yul\":24794:24812   */\n      add\n        /* \"#utility.yul\":24786:24812   */\n      swap1\n      pop\n        /* \"#utility.yul\":24858:24867   */\n      dup2\n        /* \"#utility.yul\":24852:24856   */\n      dup2\n        /* \"#utility.yul\":24848:24868   */\n      sub\n        /* \"#utility.yul\":24844:24845   */\n      0x00\n        /* \"#utility.yul\":24833:24842   */\n      dup4\n        /* \"#utility.yul\":24829:24846   */\n      add\n        /* \"#utility.yul\":24822:24869   */\n      mstore\n        /* \"#utility.yul\":24886:25017   */\n      tag_506\n        /* \"#utility.yul\":25012:25016   */\n      dup2\n        /* \"#utility.yul\":24886:25017   */\n      tag_257\n      jump\t// in\n    tag_506:\n        /* \"#utility.yul\":24878:25017   */\n      swap1\n      pop\n        /* \"#utility.yul\":24605:25024   */\n      swap2\n      swap1\n      pop\n      jump\t// out\n        /* \"#utility.yul\":25030:25203   */\n    tag_258:\n        /* \"#utility.yul\":25170:25195   */\n      0x596f75206861766520616c726561647920766f7465642e000000000000000000\n        /* \"#utility.yul\":25166:25167   */\n      0x00\n        /* \"#utility.yul\":25158:25164   */\n      dup3\n        /* \"#utility.yul\":25154:25168   */\n      add\n        /* \"#utility.yul\":25147:25196   */\n      mstore\n        /* \"#utility.yul\":25030:25203   */\n      pop\n      jump\t// out\n        /* \"#utility.yul\":25209:25575   */\n    tag_259:\n        /* \"#utility.yul\":25351:25354   */\n      0x00\n        /* \"#utility.yul\":25372:25439   */\n      tag_509\n        /* \"#utility.yul\":25436:25438   */\n      0x17\n        /* \"#utility.yul\":25431:25434   */\n      dup4\n        /* \"#utility.yul\":25372:25439   */\n      tag_196\n      jump\t// in\n    tag_509:\n        /* \"#utility.yul\":25365:25439   */\n      swap2\n      pop\n        /* \"#utility.yul\":25448:25541   */\n      tag_510\n        /* \"#utility.yul\":25537:25540   */\n      dup3\n        /* \"#utility.yul\":25448:25541   */\n      tag_258\n      jump\t// in\n    tag_510:\n        /* \"#utility.yul\":25566:25568   */\n      0x20\n        /* \"#utility.yul\":25561:25564   */\n      dup3\n        /* \"#utility.yul\":25557:25569   */\n      add\n        /* \"#utility.yul\":25550:25569   */\n      swap1\n      pop\n        /* \"#utility.yul\":25209:25575   */\n      swap2\n      swap1\n      pop\n      jump\t// out\n        /* \"#utility.yul\":25581:26000   */\n    tag_116:\n        /* \"#utility.yul\":25747:25751   */\n      0x00\n        /* \"#utility.yul\":25785:25787   */\n      0x20\n        /* \"#utility.yul\":25774:25783   */\n      dup3\n        /* \"#utility.yul\":25770:25788   */\n      add\n        /* \"#utility.yul\":25762:25788   */\n      swap1\n      pop\n        /* \"#utility.yul\":25834:25843   */\n      dup2\n        /* \"#utility.yul\":25828:25832   */\n      dup2\n        /* \"#utility.yul\":25824:25844   */\n      sub\n        /* \"#utility.yul\":25820:25821   */\n      0x00\n        /* \"#utility.yul\":25809:25818   */\n      dup4\n        /* \"#utility.yul\":25805:25822   */\n      add\n        /* \"#utility.yul\":25798:25845   */\n      mstore\n        /* \"#utility.yul\":25862:25993   */\n      tag_512\n        /* \"#utility.yul\":25988:25992   */\n      dup2\n        /* \"#utility.yul\":25862:25993   */\n      tag_259\n      jump\t// in\n    tag_512:\n        /* \"#utility.yul\":25854:25993   */\n      swap1\n      pop\n        /* \"#utility.yul\":25581:26000   */\n      swap2\n      swap1\n      pop\n      jump\t// out\n\n    auxdata: 0xa264697066735822122079f89141d10c99828f47789ca60ef95a791195bea2fc66eb6cba7526db2f275d64736f6c63430008140033\n}\n",
				"bytecode": {
					"linkReferences": {},
					"object": "608060405234801562000010575f80fd5b50620000576040518060400160405280601781526020017f54686520477265617420436f6f6b6965204465626174650000000000000000008152506200017560201b60201c565b6200009d6040518060400160405280601781526020017f44616e63652d4f666620617420746865204f66666963650000000000000000008152506200017560201b60201c565b620000e36040518060400160405280601c81526020017f426174746c65206f662074686520436f75636820506f7461746f6573000000008152506200017560201b60201c565b620001296040518060400160405280601781526020017f50616a616d612046617368696f6e2053686f77646f776e0000000000000000008152506200017560201b60201c565b6200016f6040518060400160405280601f81526020017f546865204570696320506170657220416972706c616e6520436f6e74657374008152506200017560201b60201c565b620005e4565b60015f815480929190620001899062000259565b91905055505f805f60015481526020019081526020015f209050600154815f018190555081816001019081620001c0919062000500565b506001816003015f6101000a81548160ff02191690831515021790555033816009015f6101000a81548173ffffffffffffffffffffffffffffffffffffffff021916908373ffffffffffffffffffffffffffffffffffffffff1602179055505050565b7f4e487b71000000000000000000000000000000000000000000000000000000005f52601160045260245ffd5b5f819050919050565b5f620002658262000250565b91507fffffffffffffffffffffffffffffffffffffffffffffffffffffffffffffffff82036200029a576200029962000223565b5b600182019050919050565b5f81519050919050565b7f4e487b71000000000000000000000000000000000000000000000000000000005f52604160045260245ffd5b7f4e487b71000000000000000000000000000000000000000000000000000000005f52602260045260245ffd5b5f60028204905060018216806200032157607f821691505b602082108103620003375762000336620002dc565b5b50919050565b5f819050815f5260205f209050919050565b5f6020601f8301049050919050565b5f82821b905092915050565b5f600883026200039b7fffffffffffffffffffffffffffffffffffffffffffffffffffffffffffffffff826200035e565b620003a786836200035e565b95508019841693508086168417925050509392505050565b5f819050919050565b5f620003e8620003e2620003dc8462000250565b620003bf565b62000250565b9050919050565b5f819050919050565b6200040383620003c8565b6200041b6200041282620003ef565b8484546200036a565b825550505050565b5f90565b6200043162000423565b6200043e818484620003f8565b505050565b5b818110156200046557620004595f8262000427565b60018101905062000444565b5050565b601f821115620004b4576200047e816200033d565b62000489846200034f565b8101602085101562000499578190505b620004b1620004a8856200034f565b83018262000443565b50505b505050565b5f82821c905092915050565b5f620004d65f1984600802620004b9565b1980831691505092915050565b5f620004f08383620004c5565b9150826002028217905092915050565b6200050b82620002a5565b67ffffffffffffffff811115620005275762000526620002af565b5b62000533825462000309565b6200054082828562000469565b5f60209050601f83116001811462000576575f841562000561578287015190505b6200056d8582620004e3565b865550620005dc565b601f19841662000586866200033d565b5f5b82811015620005af5784890151825560018201915060208501945060208101905062000588565b86831015620005cf5784890151620005cb601f891682620004c5565b8355505b6001600288020188555050505b505050505050565b611b5380620005f25f395ff3fe608060405234801561000f575f80fd5b5060043610610086575f3560e01c806381a60c0d1161005957806381a60c0d1461011a5780639bc2bc711461014e578063b384abef1461016a578063c27a500d1461018657610086565b80630b7914301461008a578063330a347b146100c257806371be2e4a146100de578063761e1af3146100fc575b5f80fd5b6100a4600480360381019061009f9190610e7d565b6101ab565b6040516100b999989796959493929190610f9a565b60405180910390f35b6100dc60048036038101906100d79190610e7d565b6102a5565b005b6100e6610368565b6040516100f3919061102c565b60405180910390f35b61010461036e565b60405161011191906110fc565b60405180910390f35b610134600480360381019061012f9190610e7d565b61058b565b60405161014595949392919061111c565b60405180910390f35b610168600480360381019061016391906112a0565b61065a565b005b610184600480360381019061017f91906112e7565b610704565b005b61018e610941565b6040516101a29897969594939291906114df565b60405180910390f35b5f602052805f5260405f205f91509050805f0154908060010180546101cf906115c0565b80601f01602080910402602001604051908101604052809291908181526020018280546101fb906115c0565b80156102465780601f1061021d57610100808354040283529160200191610246565b820191905f5260205f20905b81548152906001019060200180831161022957829003601f168201915b505050505090806002015490806003015f9054906101000a900460ff1690806004015490806005015490806006015490806007015490806009015f9054906101000a900473ffffffffffffffffffffffffffffffffffffffff16905089565b5f805f8381526020019081526020015f2090503373ffffffffffffffffffffffffffffffffffffffff16816009015f9054906101000a900473ffffffffffffffffffffffffffffffffffffffff1673ffffffffffffffffffffffffffffffffffffffff1614610349576040517f08c379a000000000000000000000000000000000000000000000000000000000815260040161034090611660565b60405180910390fd5b5f816003015f6101000a81548160ff0219169083151502179055505050565b60015481565b60605f60015467ffffffffffffffff81111561038d5761038c61117c565b5b6040519080825280602002602001820160405280156103bb5781602001602082028036833780820191505090505b5090505f60015467ffffffffffffffff8111156103db576103da61117c565b5b6040519080825280602002602001820160405280156104095781602001602082028036833780820191505090505b5090505f600190505b6001548111610582575f805f8381526020019081526020015f2090505f816002015490505f5b600581101561056c578581815181106104545761045361167e565b5b6020026020010151821115610559575f600490505b81811115610510578560018261047f91906116d8565b815181106104905761048f61167e565b5b60200260200101518682815181106104ab576104aa61167e565b5b602002602001018181525050866001826104c591906116d8565b815181106104d6576104d561167e565b5b60200260200101518782815181106104f1576104f061167e565b5b60200260200101818152505080806105089061170b565b915050610469565b50825f01548582815181106105285761052761167e565b5b602002602001018181525050818682815181106105485761054761167e565b5b60200260200101818152505061056c565b808061056490611732565b915050610438565b505050808061057a90611732565b915050610412565b50809250505090565b60605f805f805f805f8881526020019081526020015f2090508060010181600401548260050154836006015484600701548480546105c8906115c0565b80601f01602080910402602001604051908101604052809291908181526020018280546105f4906115c0565b801561063f5780601f106106165761010080835404028352916020019161063f565b820191905f5260205f20905b81548152906001019060200180831161062257829003601f168201915b50505050509450955095509550955095505091939590929450565b60015f81548092919061066c90611732565b91905055505f805f60015481526020019081526020015f209050600154815f0181905550818160010190816106a19190611916565b506001816003015f6101000a81548160ff02191690831515021790555033816009015f6101000a81548173ffffffffffffffffffffffffffffffffffffffff021916908373ffffffffffffffffffffffffffffffffffffffff1602179055505050565b60048110610747576040517f08c379a000000000000000000000000000000000000000000000000000000000815260040161073e90611a2f565b60405180910390fd5b5f805f8481526020019081526020015f209050806003015f9054906101000a900460ff166107aa576040517f08c379a00000000000000000000000000000000000000000000000000000000081526004016107a190611a97565b60405180910390fd5b806008015f3373ffffffffffffffffffffffffffffffffffffffff1673ffffffffffffffffffffffffffffffffffffffff1681526020019081526020015f205f9054906101000a900460ff1615610836576040517f08c379a000000000000000000000000000000000000000000000000000000000815260040161082d90611aff565b60405180910390fd5b5f820361085b57806004015f81548092919061085190611732565b91905055506108cc565b6001820361088157806005015f81548092919061087790611732565b91905055506108cb565b600282036108a757806006015f81548092919061089d90611732565b91905055506108ca565b600382036108c957806007015f8154809291906108c390611732565b91905055505b5b5b5b806002015f8154809291906108e090611732565b91905055506001816008015f3373ffffffffffffffffffffffffffffffffffffffff1673ffffffffffffffffffffffffffffffffffffffff1681526020019081526020015f205f6101000a81548160ff021916908315150217905550505050565b6060806060806060806060805f60015467ffffffffffffffff81111561096a5761096961117c565b5b6040519080825280602002602001820160405280156109985781602001602082028036833780820191505090505b5090505f60015467ffffffffffffffff8111156109b8576109b761117c565b5b6040519080825280602002602001820160405280156109eb57816020015b60608152602001906001900390816109d65790505b5090505f60015467ffffffffffffffff811115610a0b57610a0a61117c565b5b604051908082528060200260200182016040528015610a395781602001602082028036833780820191505090505b5090505f60015467ffffffffffffffff811115610a5957610a5861117c565b5b604051908082528060200260200182016040528015610a875781602001602082028036833780820191505090505b5090505f60015467ffffffffffffffff811115610aa757610aa661117c565b5b604051908082528060200260200182016040528015610ad55781602001602082028036833780820191505090505b5090505f60015467ffffffffffffffff811115610af557610af461117c565b5b604051908082528060200260200182016040528015610b235781602001602082028036833780820191505090505b5090505f60015467ffffffffffffffff811115610b4357610b4261117c565b5b604051908082528060200260200182016040528015610b715781602001602082028036833780820191505090505b5090505f60015467ffffffffffffffff811115610b9157610b9061117c565b5b604051908082528060200260200182016040528015610bbf5781602001602082028036833780820191505090505b5090505f600190505b6001548111610e0e575f805f8381526020019081526020015f209050805f01548a600184610bf691906116d8565b81518110610c0757610c0661167e565b5b602002602001018181525050806001018054610c22906115c0565b80601f0160208091040260200160405190810160405280929190818152602001828054610c4e906115c0565b8015610c995780601f10610c7057610100808354040283529160200191610c99565b820191905f5260205f20905b815481529060010190602001808311610c7c57829003601f168201915b505050505089600184610cac91906116d8565b81518110610cbd57610cbc61167e565b5b6020026020010181905250806003015f9054906101000a900460ff1688600184610ce791906116d8565b81518110610cf857610cf761167e565b5b602002602001019015159081151581525050806004015487600184610d1d91906116d8565b81518110610d2e57610d2d61167e565b5b602002602001018181525050806005015486600184610d4d91906116d8565b81518110610d5e57610d5d61167e565b5b602002602001018181525050806006015485600184610d7d91906116d8565b81518110610d8e57610d8d61167e565b5b602002602001018181525050806007015484600184610dad91906116d8565b81518110610dbe57610dbd61167e565b5b602002602001018181525050806002015483600184610ddd91906116d8565b81518110610dee57610ded61167e565b5b602002602001018181525050508080610e0690611732565b915050610bc8565b5087878787878787879f509f509f509f509f509f509f509f5050505050505050509091929394959697565b5f604051905090565b5f80fd5b5f80fd5b5f819050919050565b610e5c81610e4a565b8114610e66575f80fd5b50565b5f81359050610e7781610e53565b92915050565b5f60208284031215610e9257610e91610e42565b5b5f610e9f84828501610e69565b91505092915050565b610eb181610e4a565b82525050565b5f81519050919050565b5f82825260208201905092915050565b5f5b83811015610eee578082015181840152602081019050610ed3565b5f8484015250505050565b5f601f19601f8301169050919050565b5f610f1382610eb7565b610f1d8185610ec1565b9350610f2d818560208601610ed1565b610f3681610ef9565b840191505092915050565b5f8115159050919050565b610f5581610f41565b82525050565b5f73ffffffffffffffffffffffffffffffffffffffff82169050919050565b5f610f8482610f5b565b9050919050565b610f9481610f7a565b82525050565b5f61012082019050610fae5f83018c610ea8565b8181036020830152610fc0818b610f09565b9050610fcf604083018a610ea8565b610fdc6060830189610f4c565b610fe96080830188610ea8565b610ff660a0830187610ea8565b61100360c0830186610ea8565b61101060e0830185610ea8565b61101e610100830184610f8b565b9a9950505050505050505050565b5f60208201905061103f5f830184610ea8565b92915050565b5f81519050919050565b5f82825260208201905092915050565b5f819050602082019050919050565b61107781610e4a565b82525050565b5f611088838361106e565b60208301905092915050565b5f602082019050919050565b5f6110aa82611045565b6110b4818561104f565b93506110bf8361105f565b805f5b838110156110ef5781516110d6888261107d565b97506110e183611094565b9250506001810190506110c2565b5085935050505092915050565b5f6020820190508181035f83015261111481846110a0565b905092915050565b5f60a0820190508181035f8301526111348188610f09565b90506111436020830187610ea8565b6111506040830186610ea8565b61115d6060830185610ea8565b61116a6080830184610ea8565b9695505050505050565b5f80fd5b5f80fd5b7f4e487b71000000000000000000000000000000000000000000000000000000005f52604160045260245ffd5b6111b282610ef9565b810181811067ffffffffffffffff821117156111d1576111d061117c565b5b80604052505050565b5f6111e3610e39565b90506111ef82826111a9565b919050565b5f67ffffffffffffffff82111561120e5761120d61117c565b5b61121782610ef9565b9050602081019050919050565b828183375f83830152505050565b5f61124461123f846111f4565b6111da565b9050828152602081018484840111156112605761125f611178565b5b61126b848285611224565b509392505050565b5f82601f83011261128757611286611174565b5b8135611297848260208601611232565b91505092915050565b5f602082840312156112b5576112b4610e42565b5b5f82013567ffffffffffffffff8111156112d2576112d1610e46565b5b6112de84828501611273565b91505092915050565b5f80604083850312156112fd576112fc610e42565b5b5f61130a85828601610e69565b925050602061131b85828601610e69565b9150509250929050565b5f81519050919050565b5f82825260208201905092915050565b5f819050602082019050919050565b5f82825260208201905092915050565b5f61136882610eb7565b611372818561134e565b9350611382818560208601610ed1565b61138b81610ef9565b840191505092915050565b5f6113a1838361135e565b905092915050565b5f602082019050919050565b5f6113bf82611325565b6113c9818561132f565b9350836020820285016113db8561133f565b805f5b8581101561141657848403895281516113f78582611396565b9450611402836113a9565b925060208a019950506001810190506113de565b50829750879550505050505092915050565b5f81519050919050565b5f82825260208201905092915050565b5f819050602082019050919050565b61145a81610f41565b82525050565b5f61146b8383611451565b60208301905092915050565b5f602082019050919050565b5f61148d82611428565b6114978185611432565b93506114a283611442565b805f5b838110156114d25781516114b98882611460565b97506114c483611477565b9250506001810190506114a5565b5085935050505092915050565b5f610100820190508181035f8301526114f8818b6110a0565b9050818103602083015261150c818a6113b5565b905081810360408301526115208189611483565b9050818103606083015261153481886110a0565b9050818103608083015261154881876110a0565b905081810360a083015261155c81866110a0565b905081810360c083015261157081856110a0565b905081810360e083015261158481846110a0565b90509998505050505050505050565b7f4e487b71000000000000000000000000000000000000000000000000000000005f52602260045260245ffd5b5f60028204905060018216806115d757607f821691505b6020821081036115ea576115e9611593565b5b50919050565b7f4f6e6c7920746865206f7267616e697a65722063616e20656e642074686973205f8201527f6576656e742e0000000000000000000000000000000000000000000000000000602082015250565b5f61164a602683610ec1565b9150611655826115f0565b604082019050919050565b5f6020820190508181035f8301526116778161163e565b9050919050565b7f4e487b71000000000000000000000000000000000000000000000000000000005f52603260045260245ffd5b7f4e487b71000000000000000000000000000000000000000000000000000000005f52601160045260245ffd5b5f6116e282610e4a565b91506116ed83610e4a565b9250828203905081811115611705576117046116ab565b5b92915050565b5f61171582610e4a565b91505f8203611727576117266116ab565b5b600182039050919050565b5f61173c82610e4a565b91507fffffffffffffffffffffffffffffffffffffffffffffffffffffffffffffffff820361176e5761176d6116ab565b5b600182019050919050565b5f819050815f5260205f209050919050565b5f6020601f8301049050919050565b5f82821b905092915050565b5f600883026117d57fffffffffffffffffffffffffffffffffffffffffffffffffffffffffffffffff8261179a565b6117df868361179a565b95508019841693508086168417925050509392505050565b5f819050919050565b5f61181a61181561181084610e4a565b6117f7565b610e4a565b9050919050565b5f819050919050565b61183383611800565b61184761183f82611821565b8484546117a6565b825550505050565b5f90565b61185b61184f565b61186681848461182a565b505050565b5b818110156118895761187e5f82611853565b60018101905061186c565b5050565b601f8211156118ce5761189f81611779565b6118a88461178b565b810160208510156118b7578190505b6118cb6118c38561178b565b83018261186b565b50505b505050565b5f82821c905092915050565b5f6118ee5f19846008026118d3565b1980831691505092915050565b5f61190683836118df565b9150826002028217905092915050565b61191f82610eb7565b67ffffffffffffffff8111156119385761193761117c565b5b61194282546115c0565b61194d82828561188d565b5f60209050601f83116001811461197e575f841561196c578287015190505b61197685826118fb565b8655506119dd565b601f19841661198c86611779565b5f5b828110156119b35784890151825560018201915060208501945060208101905061198e565b868310156119d057848901516119cc601f8916826118df565b8355505b6001600288020188555050505b505050505050565b7f496e76616c6964206f7074696f6e20696e6465782e00000000000000000000005f82015250565b5f611a19601583610ec1565b9150611a24826119e5565b602082019050919050565b5f6020820190508181035f830152611a4681611a0d565b9050919050565b7f4576656e74206973206e6f74206163746976652e0000000000000000000000005f82015250565b5f611a81601483610ec1565b9150611a8c82611a4d565b602082019050919050565b5f6020820190508181035f830152611aae81611a75565b9050919050565b7f596f75206861766520616c726561647920766f7465642e0000000000000000005f82015250565b5f611ae9601783610ec1565b9150611af482611ab5565b602082019050919050565b5f6020820190508181035f830152611b1681611add565b905091905056fea264697066735822122079f89141d10c99828f47789ca60ef95a791195bea2fc66eb6cba7526db2f275d64736f6c63430008140033",
					"opcodes": "PUSH1 0x80 PUSH1 0x40 MSTORE CALLVALUE DUP1 ISZERO PUSH3 0x10 JUMPI PUSH0 DUP1 REVERT JUMPDEST POP PUSH3 0x57 PUSH1 0x40 MLOAD DUP1 PUSH1 0x40 ADD PUSH1 0x40 MSTORE DUP1 PUSH1 0x17 DUP2 MSTORE PUSH1 0x20 ADD PUSH32 0x54686520477265617420436F6F6B696520446562617465000000000000000000 DUP2 MSTORE POP PUSH3 0x175 PUSH1 0x20 SHL PUSH1 0x20 SHR JUMP JUMPDEST PUSH3 0x9D PUSH1 0x40 MLOAD DUP1 PUSH1 0x40 ADD PUSH1 0x40 MSTORE DUP1 PUSH1 0x17 DUP2 MSTORE PUSH1 0x20 ADD PUSH32 0x44616E63652D4F666620617420746865204F6666696365000000000000000000 DUP2 MSTORE POP PUSH3 0x175 PUSH1 0x20 SHL PUSH1 0x20 SHR JUMP JUMPDEST PUSH3 0xE3 PUSH1 0x40 MLOAD DUP1 PUSH1 0x40 ADD PUSH1 0x40 MSTORE DUP1 PUSH1 0x1C DUP2 MSTORE PUSH1 0x20 ADD PUSH32 0x426174746C65206F662074686520436F75636820506F7461746F657300000000 DUP2 MSTORE POP PUSH3 0x175 PUSH1 0x20 SHL PUSH1 0x20 SHR JUMP JUMPDEST PUSH3 0x129 PUSH1 0x40 MLOAD DUP1 PUSH1 0x40 ADD PUSH1 0x40 MSTORE DUP1 PUSH1 0x17 DUP2 MSTORE PUSH1 0x20 ADD PUSH32 0x50616A616D612046617368696F6E2053686F77646F776E000000000000000000 DUP2 MSTORE POP PUSH3 0x175 PUSH1 0x20 SHL PUSH1 0x20 SHR JUMP JUMPDEST PUSH3 0x16F PUSH1 0x40 MLOAD DUP1 PUSH1 0x40 ADD PUSH1 0x40 MSTORE DUP1 PUSH1 0x1F DUP2 MSTORE PUSH1 0x20 ADD PUSH32 0x546865204570696320506170657220416972706C616E6520436F6E7465737400 DUP2 MSTORE POP PUSH3 0x175 PUSH1 0x20 SHL PUSH1 0x20 SHR JUMP JUMPDEST PUSH3 0x5E4 JUMP JUMPDEST PUSH1 0x1 PUSH0 DUP2 SLOAD DUP1 SWAP3 SWAP2 SWAP1 PUSH3 0x189 SWAP1 PUSH3 0x259 JUMP JUMPDEST SWAP2 SWAP1 POP SSTORE POP PUSH0 DUP1 PUSH0 PUSH1 0x1 SLOAD DUP2 MSTORE PUSH1 0x20 ADD SWAP1 DUP2 MSTORE PUSH1 0x20 ADD PUSH0 KECCAK256 SWAP1 POP PUSH1 0x1 SLOAD DUP2 PUSH0 ADD DUP2 SWAP1 SSTORE POP DUP2 DUP2 PUSH1 0x1 ADD SWAP1 DUP2 PUSH3 0x1C0 SWAP2 SWAP1 PUSH3 0x500 JUMP JUMPDEST POP PUSH1 0x1 DUP2 PUSH1 0x3 ADD PUSH0 PUSH2 0x100 EXP DUP2 SLOAD DUP2 PUSH1 0xFF MUL NOT AND SWAP1 DUP4 ISZERO ISZERO MUL OR SWAP1 SSTORE POP CALLER DUP2 PUSH1 0x9 ADD PUSH0 PUSH2 0x100 EXP DUP2 SLOAD DUP2 PUSH20 0xFFFFFFFFFFFFFFFFFFFFFFFFFFFFFFFFFFFFFFFF MUL NOT AND SWAP1 DUP4 PUSH20 0xFFFFFFFFFFFFFFFFFFFFFFFFFFFFFFFFFFFFFFFF AND MUL OR SWAP1 SSTORE POP POP POP JUMP JUMPDEST PUSH32 0x4E487B7100000000000000000000000000000000000000000000000000000000 PUSH0 MSTORE PUSH1 0x11 PUSH1 0x4 MSTORE PUSH1 0x24 PUSH0 REVERT JUMPDEST PUSH0 DUP2 SWAP1 POP SWAP2 SWAP1 POP JUMP JUMPDEST PUSH0 PUSH3 0x265 DUP3 PUSH3 0x250 JUMP JUMPDEST SWAP2 POP PUSH32 0xFFFFFFFFFFFFFFFFFFFFFFFFFFFFFFFFFFFFFFFFFFFFFFFFFFFFFFFFFFFFFFFF DUP3 SUB PUSH3 0x29A JUMPI PUSH3 0x299 PUSH3 0x223 JUMP JUMPDEST JUMPDEST PUSH1 0x1 DUP3 ADD SWAP1 POP SWAP2 SWAP1 POP JUMP JUMPDEST PUSH0 DUP2 MLOAD SWAP1 POP SWAP2 SWAP1 POP JUMP JUMPDEST PUSH32 0x4E487B7100000000000000000000000000000000000000000000000000000000 PUSH0 MSTORE PUSH1 0x41 PUSH1 0x4 MSTORE PUSH1 0x24 PUSH0 REVERT JUMPDEST PUSH32 0x4E487B7100000000000000000000000000000000000000000000000000000000 PUSH0 MSTORE PUSH1 0x22 PUSH1 0x4 MSTORE PUSH1 0x24 PUSH0 REVERT JUMPDEST PUSH0 PUSH1 0x2 DUP3 DIV SWAP1 POP PUSH1 0x1 DUP3 AND DUP1 PUSH3 0x321 JUMPI PUSH1 0x7F DUP3 AND SWAP2 POP JUMPDEST PUSH1 0x20 DUP3 LT DUP2 SUB PUSH3 0x337 JUMPI PUSH3 0x336 PUSH3 0x2DC JUMP JUMPDEST JUMPDEST POP SWAP2 SWAP1 POP JUMP JUMPDEST PUSH0 DUP2 SWAP1 POP DUP2 PUSH0 MSTORE PUSH1 0x20 PUSH0 KECCAK256 SWAP1 POP SWAP2 SWAP1 POP JUMP JUMPDEST PUSH0 PUSH1 0x20 PUSH1 0x1F DUP4 ADD DIV SWAP1 POP SWAP2 SWAP1 POP JUMP JUMPDEST PUSH0 DUP3 DUP3 SHL SWAP1 POP SWAP3 SWAP2 POP POP JUMP JUMPDEST PUSH0 PUSH1 0x8 DUP4 MUL PUSH3 0x39B PUSH32 0xFFFFFFFFFFFFFFFFFFFFFFFFFFFFFFFFFFFFFFFFFFFFFFFFFFFFFFFFFFFFFFFF DUP3 PUSH3 0x35E JUMP JUMPDEST PUSH3 0x3A7 DUP7 DUP4 PUSH3 0x35E JUMP JUMPDEST SWAP6 POP DUP1 NOT DUP5 AND SWAP4 POP DUP1 DUP7 AND DUP5 OR SWAP3 POP POP POP SWAP4 SWAP3 POP POP POP JUMP JUMPDEST PUSH0 DUP2 SWAP1 POP SWAP2 SWAP1 POP JUMP JUMPDEST PUSH0 PUSH3 0x3E8 PUSH3 0x3E2 PUSH3 0x3DC DUP5 PUSH3 0x250 JUMP JUMPDEST PUSH3 0x3BF JUMP JUMPDEST PUSH3 0x250 JUMP JUMPDEST SWAP1 POP SWAP2 SWAP1 POP JUMP JUMPDEST PUSH0 DUP2 SWAP1 POP SWAP2 SWAP1 POP JUMP JUMPDEST PUSH3 0x403 DUP4 PUSH3 0x3C8 JUMP JUMPDEST PUSH3 0x41B PUSH3 0x412 DUP3 PUSH3 0x3EF JUMP JUMPDEST DUP5 DUP5 SLOAD PUSH3 0x36A JUMP JUMPDEST DUP3 SSTORE POP POP POP POP JUMP JUMPDEST PUSH0 SWAP1 JUMP JUMPDEST PUSH3 0x431 PUSH3 0x423 JUMP JUMPDEST PUSH3 0x43E DUP2 DUP5 DUP5 PUSH3 0x3F8 JUMP JUMPDEST POP POP POP JUMP JUMPDEST JUMPDEST DUP2 DUP2 LT ISZERO PUSH3 0x465 JUMPI PUSH3 0x459 PUSH0 DUP3 PUSH3 0x427 JUMP JUMPDEST PUSH1 0x1 DUP2 ADD SWAP1 POP PUSH3 0x444 JUMP JUMPDEST POP POP JUMP JUMPDEST PUSH1 0x1F DUP3 GT ISZERO PUSH3 0x4B4 JUMPI PUSH3 0x47E DUP2 PUSH3 0x33D JUMP JUMPDEST PUSH3 0x489 DUP5 PUSH3 0x34F JUMP JUMPDEST DUP2 ADD PUSH1 0x20 DUP6 LT ISZERO PUSH3 0x499 JUMPI DUP2 SWAP1 POP JUMPDEST PUSH3 0x4B1 PUSH3 0x4A8 DUP6 PUSH3 0x34F JUMP JUMPDEST DUP4 ADD DUP3 PUSH3 0x443 JUMP JUMPDEST POP POP JUMPDEST POP POP POP JUMP JUMPDEST PUSH0 DUP3 DUP3 SHR SWAP1 POP SWAP3 SWAP2 POP POP JUMP JUMPDEST PUSH0 PUSH3 0x4D6 PUSH0 NOT DUP5 PUSH1 0x8 MUL PUSH3 0x4B9 JUMP JUMPDEST NOT DUP1 DUP4 AND SWAP2 POP POP SWAP3 SWAP2 POP POP JUMP JUMPDEST PUSH0 PUSH3 0x4F0 DUP4 DUP4 PUSH3 0x4C5 JUMP JUMPDEST SWAP2 POP DUP3 PUSH1 0x2 MUL DUP3 OR SWAP1 POP SWAP3 SWAP2 POP POP JUMP JUMPDEST PUSH3 0x50B DUP3 PUSH3 0x2A5 JUMP JUMPDEST PUSH8 0xFFFFFFFFFFFFFFFF DUP2 GT ISZERO PUSH3 0x527 JUMPI PUSH3 0x526 PUSH3 0x2AF JUMP JUMPDEST JUMPDEST PUSH3 0x533 DUP3 SLOAD PUSH3 0x309 JUMP JUMPDEST PUSH3 0x540 DUP3 DUP3 DUP6 PUSH3 0x469 JUMP JUMPDEST PUSH0 PUSH1 0x20 SWAP1 POP PUSH1 0x1F DUP4 GT PUSH1 0x1 DUP2 EQ PUSH3 0x576 JUMPI PUSH0 DUP5 ISZERO PUSH3 0x561 JUMPI DUP3 DUP8 ADD MLOAD SWAP1 POP JUMPDEST PUSH3 0x56D DUP6 DUP3 PUSH3 0x4E3 JUMP JUMPDEST DUP7 SSTORE POP PUSH3 0x5DC JUMP JUMPDEST PUSH1 0x1F NOT DUP5 AND PUSH3 0x586 DUP7 PUSH3 0x33D JUMP JUMPDEST PUSH0 JUMPDEST DUP3 DUP2 LT ISZERO PUSH3 0x5AF JUMPI DUP5 DUP10 ADD MLOAD DUP3 SSTORE PUSH1 0x1 DUP3 ADD SWAP2 POP PUSH1 0x20 DUP6 ADD SWAP5 POP PUSH1 0x20 DUP2 ADD SWAP1 POP PUSH3 0x588 JUMP JUMPDEST DUP7 DUP4 LT ISZERO PUSH3 0x5CF JUMPI DUP5 DUP10 ADD MLOAD PUSH3 0x5CB PUSH1 0x1F DUP10 AND DUP3 PUSH3 0x4C5 JUMP JUMPDEST DUP4 SSTORE POP JUMPDEST PUSH1 0x1 PUSH1 0x2 DUP9 MUL ADD DUP9 SSTORE POP POP POP JUMPDEST POP POP POP POP POP POP JUMP JUMPDEST PUSH2 0x1B53 DUP1 PUSH3 0x5F2 PUSH0 CODECOPY PUSH0 RETURN INVALID PUSH1 0x80 PUSH1 0x40 MSTORE CALLVALUE DUP1 ISZERO PUSH2 0xF JUMPI PUSH0 DUP1 REVERT JUMPDEST POP PUSH1 0x4 CALLDATASIZE LT PUSH2 0x86 JUMPI PUSH0 CALLDATALOAD PUSH1 0xE0 SHR DUP1 PUSH4 0x81A60C0D GT PUSH2 0x59 JUMPI DUP1 PUSH4 0x81A60C0D EQ PUSH2 0x11A JUMPI DUP1 PUSH4 0x9BC2BC71 EQ PUSH2 0x14E JUMPI DUP1 PUSH4 0xB384ABEF EQ PUSH2 0x16A JUMPI DUP1 PUSH4 0xC27A500D EQ PUSH2 0x186 JUMPI PUSH2 0x86 JUMP JUMPDEST DUP1 PUSH4 0xB791430 EQ PUSH2 0x8A JUMPI DUP1 PUSH4 0x330A347B EQ PUSH2 0xC2 JUMPI DUP1 PUSH4 0x71BE2E4A EQ PUSH2 0xDE JUMPI DUP1 PUSH4 0x761E1AF3 EQ PUSH2 0xFC JUMPI JUMPDEST PUSH0 DUP1 REVERT JUMPDEST PUSH2 0xA4 PUSH1 0x4 DUP1 CALLDATASIZE SUB DUP2 ADD SWAP1 PUSH2 0x9F SWAP2 SWAP1 PUSH2 0xE7D JUMP JUMPDEST PUSH2 0x1AB JUMP JUMPDEST PUSH1 0x40 MLOAD PUSH2 0xB9 SWAP10 SWAP9 SWAP8 SWAP7 SWAP6 SWAP5 SWAP4 SWAP3 SWAP2 SWAP1 PUSH2 0xF9A JUMP JUMPDEST PUSH1 0x40 MLOAD DUP1 SWAP2 SUB SWAP1 RETURN JUMPDEST PUSH2 0xDC PUSH1 0x4 DUP1 CALLDATASIZE SUB DUP2 ADD SWAP1 PUSH2 0xD7 SWAP2 SWAP1 PUSH2 0xE7D JUMP JUMPDEST PUSH2 0x2A5 JUMP JUMPDEST STOP JUMPDEST PUSH2 0xE6 PUSH2 0x368 JUMP JUMPDEST PUSH1 0x40 MLOAD PUSH2 0xF3 SWAP2 SWAP1 PUSH2 0x102C JUMP JUMPDEST PUSH1 0x40 MLOAD DUP1 SWAP2 SUB SWAP1 RETURN JUMPDEST PUSH2 0x104 PUSH2 0x36E JUMP JUMPDEST PUSH1 0x40 MLOAD PUSH2 0x111 SWAP2 SWAP1 PUSH2 0x10FC JUMP JUMPDEST PUSH1 0x40 MLOAD DUP1 SWAP2 SUB SWAP1 RETURN JUMPDEST PUSH2 0x134 PUSH1 0x4 DUP1 CALLDATASIZE SUB DUP2 ADD SWAP1 PUSH2 0x12F SWAP2 SWAP1 PUSH2 0xE7D JUMP JUMPDEST PUSH2 0x58B JUMP JUMPDEST PUSH1 0x40 MLOAD PUSH2 0x145 SWAP6 SWAP5 SWAP4 SWAP3 SWAP2 SWAP1 PUSH2 0x111C JUMP JUMPDEST PUSH1 0x40 MLOAD DUP1 SWAP2 SUB SWAP1 RETURN JUMPDEST PUSH2 0x168 PUSH1 0x4 DUP1 CALLDATASIZE SUB DUP2 ADD SWAP1 PUSH2 0x163 SWAP2 SWAP1 PUSH2 0x12A0 JUMP JUMPDEST PUSH2 0x65A JUMP JUMPDEST STOP JUMPDEST PUSH2 0x184 PUSH1 0x4 DUP1 CALLDATASIZE SUB DUP2 ADD SWAP1 PUSH2 0x17F SWAP2 SWAP1 PUSH2 0x12E7 JUMP JUMPDEST PUSH2 0x704 JUMP JUMPDEST STOP JUMPDEST PUSH2 0x18E PUSH2 0x941 JUMP JUMPDEST PUSH1 0x40 MLOAD PUSH2 0x1A2 SWAP9 SWAP8 SWAP7 SWAP6 SWAP5 SWAP4 SWAP3 SWAP2 SWAP1 PUSH2 0x14DF JUMP JUMPDEST PUSH1 0x40 MLOAD DUP1 SWAP2 SUB SWAP1 RETURN JUMPDEST PUSH0 PUSH1 0x20 MSTORE DUP1 PUSH0 MSTORE PUSH1 0x40 PUSH0 KECCAK256 PUSH0 SWAP2 POP SWAP1 POP DUP1 PUSH0 ADD SLOAD SWAP1 DUP1 PUSH1 0x1 ADD DUP1 SLOAD PUSH2 0x1CF SWAP1 PUSH2 0x15C0 JUMP JUMPDEST DUP1 PUSH1 0x1F ADD PUSH1 0x20 DUP1 SWAP2 DIV MUL PUSH1 0x20 ADD PUSH1 0x40 MLOAD SWAP1 DUP2 ADD PUSH1 0x40 MSTORE DUP1 SWAP3 SWAP2 SWAP1 DUP2 DUP2 MSTORE PUSH1 0x20 ADD DUP3 DUP1 SLOAD PUSH2 0x1FB SWAP1 PUSH2 0x15C0 JUMP JUMPDEST DUP1 ISZERO PUSH2 0x246 JUMPI DUP1 PUSH1 0x1F LT PUSH2 0x21D JUMPI PUSH2 0x100 DUP1 DUP4 SLOAD DIV MUL DUP4 MSTORE SWAP2 PUSH1 0x20 ADD SWAP2 PUSH2 0x246 JUMP JUMPDEST DUP3 ADD SWAP2 SWAP1 PUSH0 MSTORE PUSH1 0x20 PUSH0 KECCAK256 SWAP1 JUMPDEST DUP2 SLOAD DUP2 MSTORE SWAP1 PUSH1 0x1 ADD SWAP1 PUSH1 0x20 ADD DUP1 DUP4 GT PUSH2 0x229 JUMPI DUP3 SWAP1 SUB PUSH1 0x1F AND DUP3 ADD SWAP2 JUMPDEST POP POP POP POP POP SWAP1 DUP1 PUSH1 0x2 ADD SLOAD SWAP1 DUP1 PUSH1 0x3 ADD PUSH0 SWAP1 SLOAD SWAP1 PUSH2 0x100 EXP SWAP1 DIV PUSH1 0xFF AND SWAP1 DUP1 PUSH1 0x4 ADD SLOAD SWAP1 DUP1 PUSH1 0x5 ADD SLOAD SWAP1 DUP1 PUSH1 0x6 ADD SLOAD SWAP1 DUP1 PUSH1 0x7 ADD SLOAD SWAP1 DUP1 PUSH1 0x9 ADD PUSH0 SWAP1 SLOAD SWAP1 PUSH2 0x100 EXP SWAP1 DIV PUSH20 0xFFFFFFFFFFFFFFFFFFFFFFFFFFFFFFFFFFFFFFFF AND SWAP1 POP DUP10 JUMP JUMPDEST PUSH0 DUP1 PUSH0 DUP4 DUP2 MSTORE PUSH1 0x20 ADD SWAP1 DUP2 MSTORE PUSH1 0x20 ADD PUSH0 KECCAK256 SWAP1 POP CALLER PUSH20 0xFFFFFFFFFFFFFFFFFFFFFFFFFFFFFFFFFFFFFFFF AND DUP2 PUSH1 0x9 ADD PUSH0 SWAP1 SLOAD SWAP1 PUSH2 0x100 EXP SWAP1 DIV PUSH20 0xFFFFFFFFFFFFFFFFFFFFFFFFFFFFFFFFFFFFFFFF AND PUSH20 0xFFFFFFFFFFFFFFFFFFFFFFFFFFFFFFFFFFFFFFFF AND EQ PUSH2 0x349 JUMPI PUSH1 0x40 MLOAD PUSH32 0x8C379A000000000000000000000000000000000000000000000000000000000 DUP2 MSTORE PUSH1 0x4 ADD PUSH2 0x340 SWAP1 PUSH2 0x1660 JUMP JUMPDEST PUSH1 0x40 MLOAD DUP1 SWAP2 SUB SWAP1 REVERT JUMPDEST PUSH0 DUP2 PUSH1 0x3 ADD PUSH0 PUSH2 0x100 EXP DUP2 SLOAD DUP2 PUSH1 0xFF MUL NOT AND SWAP1 DUP4 ISZERO ISZERO MUL OR SWAP1 SSTORE POP POP POP JUMP JUMPDEST PUSH1 0x1 SLOAD DUP2 JUMP JUMPDEST PUSH1 0x60 PUSH0 PUSH1 0x1 SLOAD PUSH8 0xFFFFFFFFFFFFFFFF DUP2 GT ISZERO PUSH2 0x38D JUMPI PUSH2 0x38C PUSH2 0x117C JUMP JUMPDEST JUMPDEST PUSH1 0x40 MLOAD SWAP1 DUP1 DUP3 MSTORE DUP1 PUSH1 0x20 MUL PUSH1 0x20 ADD DUP3 ADD PUSH1 0x40 MSTORE DUP1 ISZERO PUSH2 0x3BB JUMPI DUP2 PUSH1 0x20 ADD PUSH1 0x20 DUP3 MUL DUP1 CALLDATASIZE DUP4 CALLDATACOPY DUP1 DUP3 ADD SWAP2 POP POP SWAP1 POP JUMPDEST POP SWAP1 POP PUSH0 PUSH1 0x1 SLOAD PUSH8 0xFFFFFFFFFFFFFFFF DUP2 GT ISZERO PUSH2 0x3DB JUMPI PUSH2 0x3DA PUSH2 0x117C JUMP JUMPDEST JUMPDEST PUSH1 0x40 MLOAD SWAP1 DUP1 DUP3 MSTORE DUP1 PUSH1 0x20 MUL PUSH1 0x20 ADD DUP3 ADD PUSH1 0x40 MSTORE DUP1 ISZERO PUSH2 0x409 JUMPI DUP2 PUSH1 0x20 ADD PUSH1 0x20 DUP3 MUL DUP1 CALLDATASIZE DUP4 CALLDATACOPY DUP1 DUP3 ADD SWAP2 POP POP SWAP1 POP JUMPDEST POP SWAP1 POP PUSH0 PUSH1 0x1 SWAP1 POP JUMPDEST PUSH1 0x1 SLOAD DUP2 GT PUSH2 0x582 JUMPI PUSH0 DUP1 PUSH0 DUP4 DUP2 MSTORE PUSH1 0x20 ADD SWAP1 DUP2 MSTORE PUSH1 0x20 ADD PUSH0 KECCAK256 SWAP1 POP PUSH0 DUP2 PUSH1 0x2 ADD SLOAD SWAP1 POP PUSH0 JUMPDEST PUSH1 0x5 DUP2 LT ISZERO PUSH2 0x56C JUMPI DUP6 DUP2 DUP2 MLOAD DUP2 LT PUSH2 0x454 JUMPI PUSH2 0x453 PUSH2 0x167E JUMP JUMPDEST JUMPDEST PUSH1 0x20 MUL PUSH1 0x20 ADD ADD MLOAD DUP3 GT ISZERO PUSH2 0x559 JUMPI PUSH0 PUSH1 0x4 SWAP1 POP JUMPDEST DUP2 DUP2 GT ISZERO PUSH2 0x510 JUMPI DUP6 PUSH1 0x1 DUP3 PUSH2 0x47F SWAP2 SWAP1 PUSH2 0x16D8 JUMP JUMPDEST DUP2 MLOAD DUP2 LT PUSH2 0x490 JUMPI PUSH2 0x48F PUSH2 0x167E JUMP JUMPDEST JUMPDEST PUSH1 0x20 MUL PUSH1 0x20 ADD ADD MLOAD DUP7 DUP3 DUP2 MLOAD DUP2 LT PUSH2 0x4AB JUMPI PUSH2 0x4AA PUSH2 0x167E JUMP JUMPDEST JUMPDEST PUSH1 0x20 MUL PUSH1 0x20 ADD ADD DUP2 DUP2 MSTORE POP POP DUP7 PUSH1 0x1 DUP3 PUSH2 0x4C5 SWAP2 SWAP1 PUSH2 0x16D8 JUMP JUMPDEST DUP2 MLOAD DUP2 LT PUSH2 0x4D6 JUMPI PUSH2 0x4D5 PUSH2 0x167E JUMP JUMPDEST JUMPDEST PUSH1 0x20 MUL PUSH1 0x20 ADD ADD MLOAD DUP8 DUP3 DUP2 MLOAD DUP2 LT PUSH2 0x4F1 JUMPI PUSH2 0x4F0 PUSH2 0x167E JUMP JUMPDEST JUMPDEST PUSH1 0x20 MUL PUSH1 0x20 ADD ADD DUP2 DUP2 MSTORE POP POP DUP1 DUP1 PUSH2 0x508 SWAP1 PUSH2 0x170B JUMP JUMPDEST SWAP2 POP POP PUSH2 0x469 JUMP JUMPDEST POP DUP3 PUSH0 ADD SLOAD DUP6 DUP3 DUP2 MLOAD DUP2 LT PUSH2 0x528 JUMPI PUSH2 0x527 PUSH2 0x167E JUMP JUMPDEST JUMPDEST PUSH1 0x20 MUL PUSH1 0x20 ADD ADD DUP2 DUP2 MSTORE POP POP DUP2 DUP7 DUP3 DUP2 MLOAD DUP2 LT PUSH2 0x548 JUMPI PUSH2 0x547 PUSH2 0x167E JUMP JUMPDEST JUMPDEST PUSH1 0x20 MUL PUSH1 0x20 ADD ADD DUP2 DUP2 MSTORE POP POP PUSH2 0x56C JUMP JUMPDEST DUP1 DUP1 PUSH2 0x564 SWAP1 PUSH2 0x1732 JUMP JUMPDEST SWAP2 POP POP PUSH2 0x438 JUMP JUMPDEST POP POP POP DUP1 DUP1 PUSH2 0x57A SWAP1 PUSH2 0x1732 JUMP JUMPDEST SWAP2 POP POP PUSH2 0x412 JUMP JUMPDEST POP DUP1 SWAP3 POP POP POP SWAP1 JUMP JUMPDEST PUSH1 0x60 PUSH0 DUP1 PUSH0 DUP1 PUSH0 DUP1 PUSH0 DUP9 DUP2 MSTORE PUSH1 0x20 ADD SWAP1 DUP2 MSTORE PUSH1 0x20 ADD PUSH0 KECCAK256 SWAP1 POP DUP1 PUSH1 0x1 ADD DUP2 PUSH1 0x4 ADD SLOAD DUP3 PUSH1 0x5 ADD SLOAD DUP4 PUSH1 0x6 ADD SLOAD DUP5 PUSH1 0x7 ADD SLOAD DUP5 DUP1 SLOAD PUSH2 0x5C8 SWAP1 PUSH2 0x15C0 JUMP JUMPDEST DUP1 PUSH1 0x1F ADD PUSH1 0x20 DUP1 SWAP2 DIV MUL PUSH1 0x20 ADD PUSH1 0x40 MLOAD SWAP1 DUP2 ADD PUSH1 0x40 MSTORE DUP1 SWAP3 SWAP2 SWAP1 DUP2 DUP2 MSTORE PUSH1 0x20 ADD DUP3 DUP1 SLOAD PUSH2 0x5F4 SWAP1 PUSH2 0x15C0 JUMP JUMPDEST DUP1 ISZERO PUSH2 0x63F JUMPI DUP1 PUSH1 0x1F LT PUSH2 0x616 JUMPI PUSH2 0x100 DUP1 DUP4 SLOAD DIV MUL DUP4 MSTORE SWAP2 PUSH1 0x20 ADD SWAP2 PUSH2 0x63F JUMP JUMPDEST DUP3 ADD SWAP2 SWAP1 PUSH0 MSTORE PUSH1 0x20 PUSH0 KECCAK256 SWAP1 JUMPDEST DUP2 SLOAD DUP2 MSTORE SWAP1 PUSH1 0x1 ADD SWAP1 PUSH1 0x20 ADD DUP1 DUP4 GT PUSH2 0x622 JUMPI DUP3 SWAP1 SUB PUSH1 0x1F AND DUP3 ADD SWAP2 JUMPDEST POP POP POP POP POP SWAP5 POP SWAP6 POP SWAP6 POP SWAP6 POP SWAP6 POP SWAP6 POP POP SWAP2 SWAP4 SWAP6 SWAP1 SWAP3 SWAP5 POP JUMP JUMPDEST PUSH1 0x1 PUSH0 DUP2 SLOAD DUP1 SWAP3 SWAP2 SWAP1 PUSH2 0x66C SWAP1 PUSH2 0x1732 JUMP JUMPDEST SWAP2 SWAP1 POP SSTORE POP PUSH0 DUP1 PUSH0 PUSH1 0x1 SLOAD DUP2 MSTORE PUSH1 0x20 ADD SWAP1 DUP2 MSTORE PUSH1 0x20 ADD PUSH0 KECCAK256 SWAP1 POP PUSH1 0x1 SLOAD DUP2 PUSH0 ADD DUP2 SWAP1 SSTORE POP DUP2 DUP2 PUSH1 0x1 ADD SWAP1 DUP2 PUSH2 0x6A1 SWAP2 SWAP1 PUSH2 0x1916 JUMP JUMPDEST POP PUSH1 0x1 DUP2 PUSH1 0x3 ADD PUSH0 PUSH2 0x100 EXP DUP2 SLOAD DUP2 PUSH1 0xFF MUL NOT AND SWAP1 DUP4 ISZERO ISZERO MUL OR SWAP1 SSTORE POP CALLER DUP2 PUSH1 0x9 ADD PUSH0 PUSH2 0x100 EXP DUP2 SLOAD DUP2 PUSH20 0xFFFFFFFFFFFFFFFFFFFFFFFFFFFFFFFFFFFFFFFF MUL NOT AND SWAP1 DUP4 PUSH20 0xFFFFFFFFFFFFFFFFFFFFFFFFFFFFFFFFFFFFFFFF AND MUL OR SWAP1 SSTORE POP POP POP JUMP JUMPDEST PUSH1 0x4 DUP2 LT PUSH2 0x747 JUMPI PUSH1 0x40 MLOAD PUSH32 0x8C379A000000000000000000000000000000000000000000000000000000000 DUP2 MSTORE PUSH1 0x4 ADD PUSH2 0x73E SWAP1 PUSH2 0x1A2F JUMP JUMPDEST PUSH1 0x40 MLOAD DUP1 SWAP2 SUB SWAP1 REVERT JUMPDEST PUSH0 DUP1 PUSH0 DUP5 DUP2 MSTORE PUSH1 0x20 ADD SWAP1 DUP2 MSTORE PUSH1 0x20 ADD PUSH0 KECCAK256 SWAP1 POP DUP1 PUSH1 0x3 ADD PUSH0 SWAP1 SLOAD SWAP1 PUSH2 0x100 EXP SWAP1 DIV PUSH1 0xFF AND PUSH2 0x7AA JUMPI PUSH1 0x40 MLOAD PUSH32 0x8C379A000000000000000000000000000000000000000000000000000000000 DUP2 MSTORE PUSH1 0x4 ADD PUSH2 0x7A1 SWAP1 PUSH2 0x1A97 JUMP JUMPDEST PUSH1 0x40 MLOAD DUP1 SWAP2 SUB SWAP1 REVERT JUMPDEST DUP1 PUSH1 0x8 ADD PUSH0 CALLER PUSH20 0xFFFFFFFFFFFFFFFFFFFFFFFFFFFFFFFFFFFFFFFF AND PUSH20 0xFFFFFFFFFFFFFFFFFFFFFFFFFFFFFFFFFFFFFFFF AND DUP2 MSTORE PUSH1 0x20 ADD SWAP1 DUP2 MSTORE PUSH1 0x20 ADD PUSH0 KECCAK256 PUSH0 SWAP1 SLOAD SWAP1 PUSH2 0x100 EXP SWAP1 DIV PUSH1 0xFF AND ISZERO PUSH2 0x836 JUMPI PUSH1 0x40 MLOAD PUSH32 0x8C379A000000000000000000000000000000000000000000000000000000000 DUP2 MSTORE PUSH1 0x4 ADD PUSH2 0x82D SWAP1 PUSH2 0x1AFF JUMP JUMPDEST PUSH1 0x40 MLOAD DUP1 SWAP2 SUB SWAP1 REVERT JUMPDEST PUSH0 DUP3 SUB PUSH2 0x85B JUMPI DUP1 PUSH1 0x4 ADD PUSH0 DUP2 SLOAD DUP1 SWAP3 SWAP2 SWAP1 PUSH2 0x851 SWAP1 PUSH2 0x1732 JUMP JUMPDEST SWAP2 SWAP1 POP SSTORE POP PUSH2 0x8CC JUMP JUMPDEST PUSH1 0x1 DUP3 SUB PUSH2 0x881 JUMPI DUP1 PUSH1 0x5 ADD PUSH0 DUP2 SLOAD DUP1 SWAP3 SWAP2 SWAP1 PUSH2 0x877 SWAP1 PUSH2 0x1732 JUMP JUMPDEST SWAP2 SWAP1 POP SSTORE POP PUSH2 0x8CB JUMP JUMPDEST PUSH1 0x2 DUP3 SUB PUSH2 0x8A7 JUMPI DUP1 PUSH1 0x6 ADD PUSH0 DUP2 SLOAD DUP1 SWAP3 SWAP2 SWAP1 PUSH2 0x89D SWAP1 PUSH2 0x1732 JUMP JUMPDEST SWAP2 SWAP1 POP SSTORE POP PUSH2 0x8CA JUMP JUMPDEST PUSH1 0x3 DUP3 SUB PUSH2 0x8C9 JUMPI DUP1 PUSH1 0x7 ADD PUSH0 DUP2 SLOAD DUP1 SWAP3 SWAP2 SWAP1 PUSH2 0x8C3 SWAP1 PUSH2 0x1732 JUMP JUMPDEST SWAP2 SWAP1 POP SSTORE POP JUMPDEST JUMPDEST JUMPDEST JUMPDEST DUP1 PUSH1 0x2 ADD PUSH0 DUP2 SLOAD DUP1 SWAP3 SWAP2 SWAP1 PUSH2 0x8E0 SWAP1 PUSH2 0x1732 JUMP JUMPDEST SWAP2 SWAP1 POP SSTORE POP PUSH1 0x1 DUP2 PUSH1 0x8 ADD PUSH0 CALLER PUSH20 0xFFFFFFFFFFFFFFFFFFFFFFFFFFFFFFFFFFFFFFFF AND PUSH20 0xFFFFFFFFFFFFFFFFFFFFFFFFFFFFFFFFFFFFFFFF AND DUP2 MSTORE PUSH1 0x20 ADD SWAP1 DUP2 MSTORE PUSH1 0x20 ADD PUSH0 KECCAK256 PUSH0 PUSH2 0x100 EXP DUP2 SLOAD DUP2 PUSH1 0xFF MUL NOT AND SWAP1 DUP4 ISZERO ISZERO MUL OR SWAP1 SSTORE POP POP POP POP JUMP JUMPDEST PUSH1 0x60 DUP1 PUSH1 0x60 DUP1 PUSH1 0x60 DUP1 PUSH1 0x60 DUP1 PUSH0 PUSH1 0x1 SLOAD PUSH8 0xFFFFFFFFFFFFFFFF DUP2 GT ISZERO PUSH2 0x96A JUMPI PUSH2 0x969 PUSH2 0x117C JUMP JUMPDEST JUMPDEST PUSH1 0x40 MLOAD SWAP1 DUP1 DUP3 MSTORE DUP1 PUSH1 0x20 MUL PUSH1 0x20 ADD DUP3 ADD PUSH1 0x40 MSTORE DUP1 ISZERO PUSH2 0x998 JUMPI DUP2 PUSH1 0x20 ADD PUSH1 0x20 DUP3 MUL DUP1 CALLDATASIZE DUP4 CALLDATACOPY DUP1 DUP3 ADD SWAP2 POP POP SWAP1 POP JUMPDEST POP SWAP1 POP PUSH0 PUSH1 0x1 SLOAD PUSH8 0xFFFFFFFFFFFFFFFF DUP2 GT ISZERO PUSH2 0x9B8 JUMPI PUSH2 0x9B7 PUSH2 0x117C JUMP JUMPDEST JUMPDEST PUSH1 0x40 MLOAD SWAP1 DUP1 DUP3 MSTORE DUP1 PUSH1 0x20 MUL PUSH1 0x20 ADD DUP3 ADD PUSH1 0x40 MSTORE DUP1 ISZERO PUSH2 0x9EB JUMPI DUP2 PUSH1 0x20 ADD JUMPDEST PUSH1 0x60 DUP2 MSTORE PUSH1 0x20 ADD SWAP1 PUSH1 0x1 SWAP1 SUB SWAP1 DUP2 PUSH2 0x9D6 JUMPI SWAP1 POP JUMPDEST POP SWAP1 POP PUSH0 PUSH1 0x1 SLOAD PUSH8 0xFFFFFFFFFFFFFFFF DUP2 GT ISZERO PUSH2 0xA0B JUMPI PUSH2 0xA0A PUSH2 0x117C JUMP JUMPDEST JUMPDEST PUSH1 0x40 MLOAD SWAP1 DUP1 DUP3 MSTORE DUP1 PUSH1 0x20 MUL PUSH1 0x20 ADD DUP3 ADD PUSH1 0x40 MSTORE DUP1 ISZERO PUSH2 0xA39 JUMPI DUP2 PUSH1 0x20 ADD PUSH1 0x20 DUP3 MUL DUP1 CALLDATASIZE DUP4 CALLDATACOPY DUP1 DUP3 ADD SWAP2 POP POP SWAP1 POP JUMPDEST POP SWAP1 POP PUSH0 PUSH1 0x1 SLOAD PUSH8 0xFFFFFFFFFFFFFFFF DUP2 GT ISZERO PUSH2 0xA59 JUMPI PUSH2 0xA58 PUSH2 0x117C JUMP JUMPDEST JUMPDEST PUSH1 0x40 MLOAD SWAP1 DUP1 DUP3 MSTORE DUP1 PUSH1 0x20 MUL PUSH1 0x20 ADD DUP3 ADD PUSH1 0x40 MSTORE DUP1 ISZERO PUSH2 0xA87 JUMPI DUP2 PUSH1 0x20 ADD PUSH1 0x20 DUP3 MUL DUP1 CALLDATASIZE DUP4 CALLDATACOPY DUP1 DUP3 ADD SWAP2 POP POP SWAP1 POP JUMPDEST POP SWAP1 POP PUSH0 PUSH1 0x1 SLOAD PUSH8 0xFFFFFFFFFFFFFFFF DUP2 GT ISZERO PUSH2 0xAA7 JUMPI PUSH2 0xAA6 PUSH2 0x117C JUMP JUMPDEST JUMPDEST PUSH1 0x40 MLOAD SWAP1 DUP1 DUP3 MSTORE DUP1 PUSH1 0x20 MUL PUSH1 0x20 ADD DUP3 ADD PUSH1 0x40 MSTORE DUP1 ISZERO PUSH2 0xAD5 JUMPI DUP2 PUSH1 0x20 ADD PUSH1 0x20 DUP3 MUL DUP1 CALLDATASIZE DUP4 CALLDATACOPY DUP1 DUP3 ADD SWAP2 POP POP SWAP1 POP JUMPDEST POP SWAP1 POP PUSH0 PUSH1 0x1 SLOAD PUSH8 0xFFFFFFFFFFFFFFFF DUP2 GT ISZERO PUSH2 0xAF5 JUMPI PUSH2 0xAF4 PUSH2 0x117C JUMP JUMPDEST JUMPDEST PUSH1 0x40 MLOAD SWAP1 DUP1 DUP3 MSTORE DUP1 PUSH1 0x20 MUL PUSH1 0x20 ADD DUP3 ADD PUSH1 0x40 MSTORE DUP1 ISZERO PUSH2 0xB23 JUMPI DUP2 PUSH1 0x20 ADD PUSH1 0x20 DUP3 MUL DUP1 CALLDATASIZE DUP4 CALLDATACOPY DUP1 DUP3 ADD SWAP2 POP POP SWAP1 POP JUMPDEST POP SWAP1 POP PUSH0 PUSH1 0x1 SLOAD PUSH8 0xFFFFFFFFFFFFFFFF DUP2 GT ISZERO PUSH2 0xB43 JUMPI PUSH2 0xB42 PUSH2 0x117C JUMP JUMPDEST JUMPDEST PUSH1 0x40 MLOAD SWAP1 DUP1 DUP3 MSTORE DUP1 PUSH1 0x20 MUL PUSH1 0x20 ADD DUP3 ADD PUSH1 0x40 MSTORE DUP1 ISZERO PUSH2 0xB71 JUMPI DUP2 PUSH1 0x20 ADD PUSH1 0x20 DUP3 MUL DUP1 CALLDATASIZE DUP4 CALLDATACOPY DUP1 DUP3 ADD SWAP2 POP POP SWAP1 POP JUMPDEST POP SWAP1 POP PUSH0 PUSH1 0x1 SLOAD PUSH8 0xFFFFFFFFFFFFFFFF DUP2 GT ISZERO PUSH2 0xB91 JUMPI PUSH2 0xB90 PUSH2 0x117C JUMP JUMPDEST JUMPDEST PUSH1 0x40 MLOAD SWAP1 DUP1 DUP3 MSTORE DUP1 PUSH1 0x20 MUL PUSH1 0x20 ADD DUP3 ADD PUSH1 0x40 MSTORE DUP1 ISZERO PUSH2 0xBBF JUMPI DUP2 PUSH1 0x20 ADD PUSH1 0x20 DUP3 MUL DUP1 CALLDATASIZE DUP4 CALLDATACOPY DUP1 DUP3 ADD SWAP2 POP POP SWAP1 POP JUMPDEST POP SWAP1 POP PUSH0 PUSH1 0x1 SWAP1 POP JUMPDEST PUSH1 0x1 SLOAD DUP2 GT PUSH2 0xE0E JUMPI PUSH0 DUP1 PUSH0 DUP4 DUP2 MSTORE PUSH1 0x20 ADD SWAP1 DUP2 MSTORE PUSH1 0x20 ADD PUSH0 KECCAK256 SWAP1 POP DUP1 PUSH0 ADD SLOAD DUP11 PUSH1 0x1 DUP5 PUSH2 0xBF6 SWAP2 SWAP1 PUSH2 0x16D8 JUMP JUMPDEST DUP2 MLOAD DUP2 LT PUSH2 0xC07 JUMPI PUSH2 0xC06 PUSH2 0x167E JUMP JUMPDEST JUMPDEST PUSH1 0x20 MUL PUSH1 0x20 ADD ADD DUP2 DUP2 MSTORE POP POP DUP1 PUSH1 0x1 ADD DUP1 SLOAD PUSH2 0xC22 SWAP1 PUSH2 0x15C0 JUMP JUMPDEST DUP1 PUSH1 0x1F ADD PUSH1 0x20 DUP1 SWAP2 DIV MUL PUSH1 0x20 ADD PUSH1 0x40 MLOAD SWAP1 DUP2 ADD PUSH1 0x40 MSTORE DUP1 SWAP3 SWAP2 SWAP1 DUP2 DUP2 MSTORE PUSH1 0x20 ADD DUP3 DUP1 SLOAD PUSH2 0xC4E SWAP1 PUSH2 0x15C0 JUMP JUMPDEST DUP1 ISZERO PUSH2 0xC99 JUMPI DUP1 PUSH1 0x1F LT PUSH2 0xC70 JUMPI PUSH2 0x100 DUP1 DUP4 SLOAD DIV MUL DUP4 MSTORE SWAP2 PUSH1 0x20 ADD SWAP2 PUSH2 0xC99 JUMP JUMPDEST DUP3 ADD SWAP2 SWAP1 PUSH0 MSTORE PUSH1 0x20 PUSH0 KECCAK256 SWAP1 JUMPDEST DUP2 SLOAD DUP2 MSTORE SWAP1 PUSH1 0x1 ADD SWAP1 PUSH1 0x20 ADD DUP1 DUP4 GT PUSH2 0xC7C JUMPI DUP3 SWAP1 SUB PUSH1 0x1F AND DUP3 ADD SWAP2 JUMPDEST POP POP POP POP POP DUP10 PUSH1 0x1 DUP5 PUSH2 0xCAC SWAP2 SWAP1 PUSH2 0x16D8 JUMP JUMPDEST DUP2 MLOAD DUP2 LT PUSH2 0xCBD JUMPI PUSH2 0xCBC PUSH2 0x167E JUMP JUMPDEST JUMPDEST PUSH1 0x20 MUL PUSH1 0x20 ADD ADD DUP2 SWAP1 MSTORE POP DUP1 PUSH1 0x3 ADD PUSH0 SWAP1 SLOAD SWAP1 PUSH2 0x100 EXP SWAP1 DIV PUSH1 0xFF AND DUP9 PUSH1 0x1 DUP5 PUSH2 0xCE7 SWAP2 SWAP1 PUSH2 0x16D8 JUMP JUMPDEST DUP2 MLOAD DUP2 LT PUSH2 0xCF8 JUMPI PUSH2 0xCF7 PUSH2 0x167E JUMP JUMPDEST JUMPDEST PUSH1 0x20 MUL PUSH1 0x20 ADD ADD SWAP1 ISZERO ISZERO SWAP1 DUP2 ISZERO ISZERO DUP2 MSTORE POP POP DUP1 PUSH1 0x4 ADD SLOAD DUP8 PUSH1 0x1 DUP5 PUSH2 0xD1D SWAP2 SWAP1 PUSH2 0x16D8 JUMP JUMPDEST DUP2 MLOAD DUP2 LT PUSH2 0xD2E JUMPI PUSH2 0xD2D PUSH2 0x167E JUMP JUMPDEST JUMPDEST PUSH1 0x20 MUL PUSH1 0x20 ADD ADD DUP2 DUP2 MSTORE POP POP DUP1 PUSH1 0x5 ADD SLOAD DUP7 PUSH1 0x1 DUP5 PUSH2 0xD4D SWAP2 SWAP1 PUSH2 0x16D8 JUMP JUMPDEST DUP2 MLOAD DUP2 LT PUSH2 0xD5E JUMPI PUSH2 0xD5D PUSH2 0x167E JUMP JUMPDEST JUMPDEST PUSH1 0x20 MUL PUSH1 0x20 ADD ADD DUP2 DUP2 MSTORE POP POP DUP1 PUSH1 0x6 ADD SLOAD DUP6 PUSH1 0x1 DUP5 PUSH2 0xD7D SWAP2 SWAP1 PUSH2 0x16D8 JUMP JUMPDEST DUP2 MLOAD DUP2 LT PUSH2 0xD8E JUMPI PUSH2 0xD8D PUSH2 0x167E JUMP JUMPDEST JUMPDEST PUSH1 0x20 MUL PUSH1 0x20 ADD ADD DUP2 DUP2 MSTORE POP POP DUP1 PUSH1 0x7 ADD SLOAD DUP5 PUSH1 0x1 DUP5 PUSH2 0xDAD SWAP2 SWAP1 PUSH2 0x16D8 JUMP JUMPDEST DUP2 MLOAD DUP2 LT PUSH2 0xDBE JUMPI PUSH2 0xDBD PUSH2 0x167E JUMP JUMPDEST JUMPDEST PUSH1 0x20 MUL PUSH1 0x20 ADD ADD DUP2 DUP2 MSTORE POP POP DUP1 PUSH1 0x2 ADD SLOAD DUP4 PUSH1 0x1 DUP5 PUSH2 0xDDD SWAP2 SWAP1 PUSH2 0x16D8 JUMP JUMPDEST DUP2 MLOAD DUP2 LT PUSH2 0xDEE JUMPI PUSH2 0xDED PUSH2 0x167E JUMP JUMPDEST JUMPDEST PUSH1 0x20 MUL PUSH1 0x20 ADD ADD DUP2 DUP2 MSTORE POP POP POP DUP1 DUP1 PUSH2 0xE06 SWAP1 PUSH2 0x1732 JUMP JUMPDEST SWAP2 POP POP PUSH2 0xBC8 JUMP JUMPDEST POP DUP8 DUP8 DUP8 DUP8 DUP8 DUP8 DUP8 DUP8 SWAP16 POP SWAP16 POP SWAP16 POP SWAP16 POP SWAP16 POP SWAP16 POP SWAP16 POP SWAP16 POP POP POP POP POP POP POP POP POP SWAP1 SWAP2 SWAP3 SWAP4 SWAP5 SWAP6 SWAP7 SWAP8 JUMP JUMPDEST PUSH0 PUSH1 0x40 MLOAD SWAP1 POP SWAP1 JUMP JUMPDEST PUSH0 DUP1 REVERT JUMPDEST PUSH0 DUP1 REVERT JUMPDEST PUSH0 DUP2 SWAP1 POP SWAP2 SWAP1 POP JUMP JUMPDEST PUSH2 0xE5C DUP2 PUSH2 0xE4A JUMP JUMPDEST DUP2 EQ PUSH2 0xE66 JUMPI PUSH0 DUP1 REVERT JUMPDEST POP JUMP JUMPDEST PUSH0 DUP2 CALLDATALOAD SWAP1 POP PUSH2 0xE77 DUP2 PUSH2 0xE53 JUMP JUMPDEST SWAP3 SWAP2 POP POP JUMP JUMPDEST PUSH0 PUSH1 0x20 DUP3 DUP5 SUB SLT ISZERO PUSH2 0xE92 JUMPI PUSH2 0xE91 PUSH2 0xE42 JUMP JUMPDEST JUMPDEST PUSH0 PUSH2 0xE9F DUP5 DUP3 DUP6 ADD PUSH2 0xE69 JUMP JUMPDEST SWAP2 POP POP SWAP3 SWAP2 POP POP JUMP JUMPDEST PUSH2 0xEB1 DUP2 PUSH2 0xE4A JUMP JUMPDEST DUP3 MSTORE POP POP JUMP JUMPDEST PUSH0 DUP2 MLOAD SWAP1 POP SWAP2 SWAP1 POP JUMP JUMPDEST PUSH0 DUP3 DUP3 MSTORE PUSH1 0x20 DUP3 ADD SWAP1 POP SWAP3 SWAP2 POP POP JUMP JUMPDEST PUSH0 JUMPDEST DUP4 DUP2 LT ISZERO PUSH2 0xEEE JUMPI DUP1 DUP3 ADD MLOAD DUP2 DUP5 ADD MSTORE PUSH1 0x20 DUP2 ADD SWAP1 POP PUSH2 0xED3 JUMP JUMPDEST PUSH0 DUP5 DUP5 ADD MSTORE POP POP POP POP JUMP JUMPDEST PUSH0 PUSH1 0x1F NOT PUSH1 0x1F DUP4 ADD AND SWAP1 POP SWAP2 SWAP1 POP JUMP JUMPDEST PUSH0 PUSH2 0xF13 DUP3 PUSH2 0xEB7 JUMP JUMPDEST PUSH2 0xF1D DUP2 DUP6 PUSH2 0xEC1 JUMP JUMPDEST SWAP4 POP PUSH2 0xF2D DUP2 DUP6 PUSH1 0x20 DUP7 ADD PUSH2 0xED1 JUMP JUMPDEST PUSH2 0xF36 DUP2 PUSH2 0xEF9 JUMP JUMPDEST DUP5 ADD SWAP2 POP POP SWAP3 SWAP2 POP POP JUMP JUMPDEST PUSH0 DUP2 ISZERO ISZERO SWAP1 POP SWAP2 SWAP1 POP JUMP JUMPDEST PUSH2 0xF55 DUP2 PUSH2 0xF41 JUMP JUMPDEST DUP3 MSTORE POP POP JUMP JUMPDEST PUSH0 PUSH20 0xFFFFFFFFFFFFFFFFFFFFFFFFFFFFFFFFFFFFFFFF DUP3 AND SWAP1 POP SWAP2 SWAP1 POP JUMP JUMPDEST PUSH0 PUSH2 0xF84 DUP3 PUSH2 0xF5B JUMP JUMPDEST SWAP1 POP SWAP2 SWAP1 POP JUMP JUMPDEST PUSH2 0xF94 DUP2 PUSH2 0xF7A JUMP JUMPDEST DUP3 MSTORE POP POP JUMP JUMPDEST PUSH0 PUSH2 0x120 DUP3 ADD SWAP1 POP PUSH2 0xFAE PUSH0 DUP4 ADD DUP13 PUSH2 0xEA8 JUMP JUMPDEST DUP2 DUP2 SUB PUSH1 0x20 DUP4 ADD MSTORE PUSH2 0xFC0 DUP2 DUP12 PUSH2 0xF09 JUMP JUMPDEST SWAP1 POP PUSH2 0xFCF PUSH1 0x40 DUP4 ADD DUP11 PUSH2 0xEA8 JUMP JUMPDEST PUSH2 0xFDC PUSH1 0x60 DUP4 ADD DUP10 PUSH2 0xF4C JUMP JUMPDEST PUSH2 0xFE9 PUSH1 0x80 DUP4 ADD DUP9 PUSH2 0xEA8 JUMP JUMPDEST PUSH2 0xFF6 PUSH1 0xA0 DUP4 ADD DUP8 PUSH2 0xEA8 JUMP JUMPDEST PUSH2 0x1003 PUSH1 0xC0 DUP4 ADD DUP7 PUSH2 0xEA8 JUMP JUMPDEST PUSH2 0x1010 PUSH1 0xE0 DUP4 ADD DUP6 PUSH2 0xEA8 JUMP JUMPDEST PUSH2 0x101E PUSH2 0x100 DUP4 ADD DUP5 PUSH2 0xF8B JUMP JUMPDEST SWAP11 SWAP10 POP POP POP POP POP POP POP POP POP POP JUMP JUMPDEST PUSH0 PUSH1 0x20 DUP3 ADD SWAP1 POP PUSH2 0x103F PUSH0 DUP4 ADD DUP5 PUSH2 0xEA8 JUMP JUMPDEST SWAP3 SWAP2 POP POP JUMP JUMPDEST PUSH0 DUP2 MLOAD SWAP1 POP SWAP2 SWAP1 POP JUMP JUMPDEST PUSH0 DUP3 DUP3 MSTORE PUSH1 0x20 DUP3 ADD SWAP1 POP SWAP3 SWAP2 POP POP JUMP JUMPDEST PUSH0 DUP2 SWAP1 POP PUSH1 0x20 DUP3 ADD SWAP1 POP SWAP2 SWAP1 POP JUMP JUMPDEST PUSH2 0x1077 DUP2 PUSH2 0xE4A JUMP JUMPDEST DUP3 MSTORE POP POP JUMP JUMPDEST PUSH0 PUSH2 0x1088 DUP4 DUP4 PUSH2 0x106E JUMP JUMPDEST PUSH1 0x20 DUP4 ADD SWAP1 POP SWAP3 SWAP2 POP POP JUMP JUMPDEST PUSH0 PUSH1 0x20 DUP3 ADD SWAP1 POP SWAP2 SWAP1 POP JUMP JUMPDEST PUSH0 PUSH2 0x10AA DUP3 PUSH2 0x1045 JUMP JUMPDEST PUSH2 0x10B4 DUP2 DUP6 PUSH2 0x104F JUMP JUMPDEST SWAP4 POP PUSH2 0x10BF DUP4 PUSH2 0x105F JUMP JUMPDEST DUP1 PUSH0 JUMPDEST DUP4 DUP2 LT ISZERO PUSH2 0x10EF JUMPI DUP2 MLOAD PUSH2 0x10D6 DUP9 DUP3 PUSH2 0x107D JUMP JUMPDEST SWAP8 POP PUSH2 0x10E1 DUP4 PUSH2 0x1094 JUMP JUMPDEST SWAP3 POP POP PUSH1 0x1 DUP2 ADD SWAP1 POP PUSH2 0x10C2 JUMP JUMPDEST POP DUP6 SWAP4 POP POP POP POP SWAP3 SWAP2 POP POP JUMP JUMPDEST PUSH0 PUSH1 0x20 DUP3 ADD SWAP1 POP DUP2 DUP2 SUB PUSH0 DUP4 ADD MSTORE PUSH2 0x1114 DUP2 DUP5 PUSH2 0x10A0 JUMP JUMPDEST SWAP1 POP SWAP3 SWAP2 POP POP JUMP JUMPDEST PUSH0 PUSH1 0xA0 DUP3 ADD SWAP1 POP DUP2 DUP2 SUB PUSH0 DUP4 ADD MSTORE PUSH2 0x1134 DUP2 DUP9 PUSH2 0xF09 JUMP JUMPDEST SWAP1 POP PUSH2 0x1143 PUSH1 0x20 DUP4 ADD DUP8 PUSH2 0xEA8 JUMP JUMPDEST PUSH2 0x1150 PUSH1 0x40 DUP4 ADD DUP7 PUSH2 0xEA8 JUMP JUMPDEST PUSH2 0x115D PUSH1 0x60 DUP4 ADD DUP6 PUSH2 0xEA8 JUMP JUMPDEST PUSH2 0x116A PUSH1 0x80 DUP4 ADD DUP5 PUSH2 0xEA8 JUMP JUMPDEST SWAP7 SWAP6 POP POP POP POP POP POP JUMP JUMPDEST PUSH0 DUP1 REVERT JUMPDEST PUSH0 DUP1 REVERT JUMPDEST PUSH32 0x4E487B7100000000000000000000000000000000000000000000000000000000 PUSH0 MSTORE PUSH1 0x41 PUSH1 0x4 MSTORE PUSH1 0x24 PUSH0 REVERT JUMPDEST PUSH2 0x11B2 DUP3 PUSH2 0xEF9 JUMP JUMPDEST DUP2 ADD DUP2 DUP2 LT PUSH8 0xFFFFFFFFFFFFFFFF DUP3 GT OR ISZERO PUSH2 0x11D1 JUMPI PUSH2 0x11D0 PUSH2 0x117C JUMP JUMPDEST JUMPDEST DUP1 PUSH1 0x40 MSTORE POP POP POP JUMP JUMPDEST PUSH0 PUSH2 0x11E3 PUSH2 0xE39 JUMP JUMPDEST SWAP1 POP PUSH2 0x11EF DUP3 DUP3 PUSH2 0x11A9 JUMP JUMPDEST SWAP2 SWAP1 POP JUMP JUMPDEST PUSH0 PUSH8 0xFFFFFFFFFFFFFFFF DUP3 GT ISZERO PUSH2 0x120E JUMPI PUSH2 0x120D PUSH2 0x117C JUMP JUMPDEST JUMPDEST PUSH2 0x1217 DUP3 PUSH2 0xEF9 JUMP JUMPDEST SWAP1 POP PUSH1 0x20 DUP2 ADD SWAP1 POP SWAP2 SWAP1 POP JUMP JUMPDEST DUP3 DUP2 DUP4 CALLDATACOPY PUSH0 DUP4 DUP4 ADD MSTORE POP POP POP JUMP JUMPDEST PUSH0 PUSH2 0x1244 PUSH2 0x123F DUP5 PUSH2 0x11F4 JUMP JUMPDEST PUSH2 0x11DA JUMP JUMPDEST SWAP1 POP DUP3 DUP2 MSTORE PUSH1 0x20 DUP2 ADD DUP5 DUP5 DUP5 ADD GT ISZERO PUSH2 0x1260 JUMPI PUSH2 0x125F PUSH2 0x1178 JUMP JUMPDEST JUMPDEST PUSH2 0x126B DUP5 DUP3 DUP6 PUSH2 0x1224 JUMP JUMPDEST POP SWAP4 SWAP3 POP POP POP JUMP JUMPDEST PUSH0 DUP3 PUSH1 0x1F DUP4 ADD SLT PUSH2 0x1287 JUMPI PUSH2 0x1286 PUSH2 0x1174 JUMP JUMPDEST JUMPDEST DUP2 CALLDATALOAD PUSH2 0x1297 DUP5 DUP3 PUSH1 0x20 DUP7 ADD PUSH2 0x1232 JUMP JUMPDEST SWAP2 POP POP SWAP3 SWAP2 POP POP JUMP JUMPDEST PUSH0 PUSH1 0x20 DUP3 DUP5 SUB SLT ISZERO PUSH2 0x12B5 JUMPI PUSH2 0x12B4 PUSH2 0xE42 JUMP JUMPDEST JUMPDEST PUSH0 DUP3 ADD CALLDATALOAD PUSH8 0xFFFFFFFFFFFFFFFF DUP2 GT ISZERO PUSH2 0x12D2 JUMPI PUSH2 0x12D1 PUSH2 0xE46 JUMP JUMPDEST JUMPDEST PUSH2 0x12DE DUP5 DUP3 DUP6 ADD PUSH2 0x1273 JUMP JUMPDEST SWAP2 POP POP SWAP3 SWAP2 POP POP JUMP JUMPDEST PUSH0 DUP1 PUSH1 0x40 DUP4 DUP6 SUB SLT ISZERO PUSH2 0x12FD JUMPI PUSH2 0x12FC PUSH2 0xE42 JUMP JUMPDEST JUMPDEST PUSH0 PUSH2 0x130A DUP6 DUP3 DUP7 ADD PUSH2 0xE69 JUMP JUMPDEST SWAP3 POP POP PUSH1 0x20 PUSH2 0x131B DUP6 DUP3 DUP7 ADD PUSH2 0xE69 JUMP JUMPDEST SWAP2 POP POP SWAP3 POP SWAP3 SWAP1 POP JUMP JUMPDEST PUSH0 DUP2 MLOAD SWAP1 POP SWAP2 SWAP1 POP JUMP JUMPDEST PUSH0 DUP3 DUP3 MSTORE PUSH1 0x20 DUP3 ADD SWAP1 POP SWAP3 SWAP2 POP POP JUMP JUMPDEST PUSH0 DUP2 SWAP1 POP PUSH1 0x20 DUP3 ADD SWAP1 POP SWAP2 SWAP1 POP JUMP JUMPDEST PUSH0 DUP3 DUP3 MSTORE PUSH1 0x20 DUP3 ADD SWAP1 POP SWAP3 SWAP2 POP POP JUMP JUMPDEST PUSH0 PUSH2 0x1368 DUP3 PUSH2 0xEB7 JUMP JUMPDEST PUSH2 0x1372 DUP2 DUP6 PUSH2 0x134E JUMP JUMPDEST SWAP4 POP PUSH2 0x1382 DUP2 DUP6 PUSH1 0x20 DUP7 ADD PUSH2 0xED1 JUMP JUMPDEST PUSH2 0x138B DUP2 PUSH2 0xEF9 JUMP JUMPDEST DUP5 ADD SWAP2 POP POP SWAP3 SWAP2 POP POP JUMP JUMPDEST PUSH0 PUSH2 0x13A1 DUP4 DUP4 PUSH2 0x135E JUMP JUMPDEST SWAP1 POP SWAP3 SWAP2 POP POP JUMP JUMPDEST PUSH0 PUSH1 0x20 DUP3 ADD SWAP1 POP SWAP2 SWAP1 POP JUMP JUMPDEST PUSH0 PUSH2 0x13BF DUP3 PUSH2 0x1325 JUMP JUMPDEST PUSH2 0x13C9 DUP2 DUP6 PUSH2 0x132F JUMP JUMPDEST SWAP4 POP DUP4 PUSH1 0x20 DUP3 MUL DUP6 ADD PUSH2 0x13DB DUP6 PUSH2 0x133F JUMP JUMPDEST DUP1 PUSH0 JUMPDEST DUP6 DUP2 LT ISZERO PUSH2 0x1416 JUMPI DUP5 DUP5 SUB DUP10 MSTORE DUP2 MLOAD PUSH2 0x13F7 DUP6 DUP3 PUSH2 0x1396 JUMP JUMPDEST SWAP5 POP PUSH2 0x1402 DUP4 PUSH2 0x13A9 JUMP JUMPDEST SWAP3 POP PUSH1 0x20 DUP11 ADD SWAP10 POP POP PUSH1 0x1 DUP2 ADD SWAP1 POP PUSH2 0x13DE JUMP JUMPDEST POP DUP3 SWAP8 POP DUP8 SWAP6 POP POP POP POP POP POP SWAP3 SWAP2 POP POP JUMP JUMPDEST PUSH0 DUP2 MLOAD SWAP1 POP SWAP2 SWAP1 POP JUMP JUMPDEST PUSH0 DUP3 DUP3 MSTORE PUSH1 0x20 DUP3 ADD SWAP1 POP SWAP3 SWAP2 POP POP JUMP JUMPDEST PUSH0 DUP2 SWAP1 POP PUSH1 0x20 DUP3 ADD SWAP1 POP SWAP2 SWAP1 POP JUMP JUMPDEST PUSH2 0x145A DUP2 PUSH2 0xF41 JUMP JUMPDEST DUP3 MSTORE POP POP JUMP JUMPDEST PUSH0 PUSH2 0x146B DUP4 DUP4 PUSH2 0x1451 JUMP JUMPDEST PUSH1 0x20 DUP4 ADD SWAP1 POP SWAP3 SWAP2 POP POP JUMP JUMPDEST PUSH0 PUSH1 0x20 DUP3 ADD SWAP1 POP SWAP2 SWAP1 POP JUMP JUMPDEST PUSH0 PUSH2 0x148D DUP3 PUSH2 0x1428 JUMP JUMPDEST PUSH2 0x1497 DUP2 DUP6 PUSH2 0x1432 JUMP JUMPDEST SWAP4 POP PUSH2 0x14A2 DUP4 PUSH2 0x1442 JUMP JUMPDEST DUP1 PUSH0 JUMPDEST DUP4 DUP2 LT ISZERO PUSH2 0x14D2 JUMPI DUP2 MLOAD PUSH2 0x14B9 DUP9 DUP3 PUSH2 0x1460 JUMP JUMPDEST SWAP8 POP PUSH2 0x14C4 DUP4 PUSH2 0x1477 JUMP JUMPDEST SWAP3 POP POP PUSH1 0x1 DUP2 ADD SWAP1 POP PUSH2 0x14A5 JUMP JUMPDEST POP DUP6 SWAP4 POP POP POP POP SWAP3 SWAP2 POP POP JUMP JUMPDEST PUSH0 PUSH2 0x100 DUP3 ADD SWAP1 POP DUP2 DUP2 SUB PUSH0 DUP4 ADD MSTORE PUSH2 0x14F8 DUP2 DUP12 PUSH2 0x10A0 JUMP JUMPDEST SWAP1 POP DUP2 DUP2 SUB PUSH1 0x20 DUP4 ADD MSTORE PUSH2 0x150C DUP2 DUP11 PUSH2 0x13B5 JUMP JUMPDEST SWAP1 POP DUP2 DUP2 SUB PUSH1 0x40 DUP4 ADD MSTORE PUSH2 0x1520 DUP2 DUP10 PUSH2 0x1483 JUMP JUMPDEST SWAP1 POP DUP2 DUP2 SUB PUSH1 0x60 DUP4 ADD MSTORE PUSH2 0x1534 DUP2 DUP9 PUSH2 0x10A0 JUMP JUMPDEST SWAP1 POP DUP2 DUP2 SUB PUSH1 0x80 DUP4 ADD MSTORE PUSH2 0x1548 DUP2 DUP8 PUSH2 0x10A0 JUMP JUMPDEST SWAP1 POP DUP2 DUP2 SUB PUSH1 0xA0 DUP4 ADD MSTORE PUSH2 0x155C DUP2 DUP7 PUSH2 0x10A0 JUMP JUMPDEST SWAP1 POP DUP2 DUP2 SUB PUSH1 0xC0 DUP4 ADD MSTORE PUSH2 0x1570 DUP2 DUP6 PUSH2 0x10A0 JUMP JUMPDEST SWAP1 POP DUP2 DUP2 SUB PUSH1 0xE0 DUP4 ADD MSTORE PUSH2 0x1584 DUP2 DUP5 PUSH2 0x10A0 JUMP JUMPDEST SWAP1 POP SWAP10 SWAP9 POP POP POP POP POP POP POP POP POP JUMP JUMPDEST PUSH32 0x4E487B7100000000000000000000000000000000000000000000000000000000 PUSH0 MSTORE PUSH1 0x22 PUSH1 0x4 MSTORE PUSH1 0x24 PUSH0 REVERT JUMPDEST PUSH0 PUSH1 0x2 DUP3 DIV SWAP1 POP PUSH1 0x1 DUP3 AND DUP1 PUSH2 0x15D7 JUMPI PUSH1 0x7F DUP3 AND SWAP2 POP JUMPDEST PUSH1 0x20 DUP3 LT DUP2 SUB PUSH2 0x15EA JUMPI PUSH2 0x15E9 PUSH2 0x1593 JUMP JUMPDEST JUMPDEST POP SWAP2 SWAP1 POP JUMP JUMPDEST PUSH32 0x4F6E6C7920746865206F7267616E697A65722063616E20656E64207468697320 PUSH0 DUP3 ADD MSTORE PUSH32 0x6576656E742E0000000000000000000000000000000000000000000000000000 PUSH1 0x20 DUP3 ADD MSTORE POP JUMP JUMPDEST PUSH0 PUSH2 0x164A PUSH1 0x26 DUP4 PUSH2 0xEC1 JUMP JUMPDEST SWAP2 POP PUSH2 0x1655 DUP3 PUSH2 0x15F0 JUMP JUMPDEST PUSH1 0x40 DUP3 ADD SWAP1 POP SWAP2 SWAP1 POP JUMP JUMPDEST PUSH0 PUSH1 0x20 DUP3 ADD SWAP1 POP DUP2 DUP2 SUB PUSH0 DUP4 ADD MSTORE PUSH2 0x1677 DUP2 PUSH2 0x163E JUMP JUMPDEST SWAP1 POP SWAP2 SWAP1 POP JUMP JUMPDEST PUSH32 0x4E487B7100000000000000000000000000000000000000000000000000000000 PUSH0 MSTORE PUSH1 0x32 PUSH1 0x4 MSTORE PUSH1 0x24 PUSH0 REVERT JUMPDEST PUSH32 0x4E487B7100000000000000000000000000000000000000000000000000000000 PUSH0 MSTORE PUSH1 0x11 PUSH1 0x4 MSTORE PUSH1 0x24 PUSH0 REVERT JUMPDEST PUSH0 PUSH2 0x16E2 DUP3 PUSH2 0xE4A JUMP JUMPDEST SWAP2 POP PUSH2 0x16ED DUP4 PUSH2 0xE4A JUMP JUMPDEST SWAP3 POP DUP3 DUP3 SUB SWAP1 POP DUP2 DUP2 GT ISZERO PUSH2 0x1705 JUMPI PUSH2 0x1704 PUSH2 0x16AB JUMP JUMPDEST JUMPDEST SWAP3 SWAP2 POP POP JUMP JUMPDEST PUSH0 PUSH2 0x1715 DUP3 PUSH2 0xE4A JUMP JUMPDEST SWAP2 POP PUSH0 DUP3 SUB PUSH2 0x1727 JUMPI PUSH2 0x1726 PUSH2 0x16AB JUMP JUMPDEST JUMPDEST PUSH1 0x1 DUP3 SUB SWAP1 POP SWAP2 SWAP1 POP JUMP JUMPDEST PUSH0 PUSH2 0x173C DUP3 PUSH2 0xE4A JUMP JUMPDEST SWAP2 POP PUSH32 0xFFFFFFFFFFFFFFFFFFFFFFFFFFFFFFFFFFFFFFFFFFFFFFFFFFFFFFFFFFFFFFFF DUP3 SUB PUSH2 0x176E JUMPI PUSH2 0x176D PUSH2 0x16AB JUMP JUMPDEST JUMPDEST PUSH1 0x1 DUP3 ADD SWAP1 POP SWAP2 SWAP1 POP JUMP JUMPDEST PUSH0 DUP2 SWAP1 POP DUP2 PUSH0 MSTORE PUSH1 0x20 PUSH0 KECCAK256 SWAP1 POP SWAP2 SWAP1 POP JUMP JUMPDEST PUSH0 PUSH1 0x20 PUSH1 0x1F DUP4 ADD DIV SWAP1 POP SWAP2 SWAP1 POP JUMP JUMPDEST PUSH0 DUP3 DUP3 SHL SWAP1 POP SWAP3 SWAP2 POP POP JUMP JUMPDEST PUSH0 PUSH1 0x8 DUP4 MUL PUSH2 0x17D5 PUSH32 0xFFFFFFFFFFFFFFFFFFFFFFFFFFFFFFFFFFFFFFFFFFFFFFFFFFFFFFFFFFFFFFFF DUP3 PUSH2 0x179A JUMP JUMPDEST PUSH2 0x17DF DUP7 DUP4 PUSH2 0x179A JUMP JUMPDEST SWAP6 POP DUP1 NOT DUP5 AND SWAP4 POP DUP1 DUP7 AND DUP5 OR SWAP3 POP POP POP SWAP4 SWAP3 POP POP POP JUMP JUMPDEST PUSH0 DUP2 SWAP1 POP SWAP2 SWAP1 POP JUMP JUMPDEST PUSH0 PUSH2 0x181A PUSH2 0x1815 PUSH2 0x1810 DUP5 PUSH2 0xE4A JUMP JUMPDEST PUSH2 0x17F7 JUMP JUMPDEST PUSH2 0xE4A JUMP JUMPDEST SWAP1 POP SWAP2 SWAP1 POP JUMP JUMPDEST PUSH0 DUP2 SWAP1 POP SWAP2 SWAP1 POP JUMP JUMPDEST PUSH2 0x1833 DUP4 PUSH2 0x1800 JUMP JUMPDEST PUSH2 0x1847 PUSH2 0x183F DUP3 PUSH2 0x1821 JUMP JUMPDEST DUP5 DUP5 SLOAD PUSH2 0x17A6 JUMP JUMPDEST DUP3 SSTORE POP POP POP POP JUMP JUMPDEST PUSH0 SWAP1 JUMP JUMPDEST PUSH2 0x185B PUSH2 0x184F JUMP JUMPDEST PUSH2 0x1866 DUP2 DUP5 DUP5 PUSH2 0x182A JUMP JUMPDEST POP POP POP JUMP JUMPDEST JUMPDEST DUP2 DUP2 LT ISZERO PUSH2 0x1889 JUMPI PUSH2 0x187E PUSH0 DUP3 PUSH2 0x1853 JUMP JUMPDEST PUSH1 0x1 DUP2 ADD SWAP1 POP PUSH2 0x186C JUMP JUMPDEST POP POP JUMP JUMPDEST PUSH1 0x1F DUP3 GT ISZERO PUSH2 0x18CE JUMPI PUSH2 0x189F DUP2 PUSH2 0x1779 JUMP JUMPDEST PUSH2 0x18A8 DUP5 PUSH2 0x178B JUMP JUMPDEST DUP2 ADD PUSH1 0x20 DUP6 LT ISZERO PUSH2 0x18B7 JUMPI DUP2 SWAP1 POP JUMPDEST PUSH2 0x18CB PUSH2 0x18C3 DUP6 PUSH2 0x178B JUMP JUMPDEST DUP4 ADD DUP3 PUSH2 0x186B JUMP JUMPDEST POP POP JUMPDEST POP POP POP JUMP JUMPDEST PUSH0 DUP3 DUP3 SHR SWAP1 POP SWAP3 SWAP2 POP POP JUMP JUMPDEST PUSH0 PUSH2 0x18EE PUSH0 NOT DUP5 PUSH1 0x8 MUL PUSH2 0x18D3 JUMP JUMPDEST NOT DUP1 DUP4 AND SWAP2 POP POP SWAP3 SWAP2 POP POP JUMP JUMPDEST PUSH0 PUSH2 0x1906 DUP4 DUP4 PUSH2 0x18DF JUMP JUMPDEST SWAP2 POP DUP3 PUSH1 0x2 MUL DUP3 OR SWAP1 POP SWAP3 SWAP2 POP POP JUMP JUMPDEST PUSH2 0x191F DUP3 PUSH2 0xEB7 JUMP JUMPDEST PUSH8 0xFFFFFFFFFFFFFFFF DUP2 GT ISZERO PUSH2 0x1938 JUMPI PUSH2 0x1937 PUSH2 0x117C JUMP JUMPDEST JUMPDEST PUSH2 0x1942 DUP3 SLOAD PUSH2 0x15C0 JUMP JUMPDEST PUSH2 0x194D DUP3 DUP3 DUP6 PUSH2 0x188D JUMP JUMPDEST PUSH0 PUSH1 0x20 SWAP1 POP PUSH1 0x1F DUP4 GT PUSH1 0x1 DUP2 EQ PUSH2 0x197E JUMPI PUSH0 DUP5 ISZERO PUSH2 0x196C JUMPI DUP3 DUP8 ADD MLOAD SWAP1 POP JUMPDEST PUSH2 0x1976 DUP6 DUP3 PUSH2 0x18FB JUMP JUMPDEST DUP7 SSTORE POP PUSH2 0x19DD JUMP JUMPDEST PUSH1 0x1F NOT DUP5 AND PUSH2 0x198C DUP7 PUSH2 0x1779 JUMP JUMPDEST PUSH0 JUMPDEST DUP3 DUP2 LT ISZERO PUSH2 0x19B3 JUMPI DUP5 DUP10 ADD MLOAD DUP3 SSTORE PUSH1 0x1 DUP3 ADD SWAP2 POP PUSH1 0x20 DUP6 ADD SWAP5 POP PUSH1 0x20 DUP2 ADD SWAP1 POP PUSH2 0x198E JUMP JUMPDEST DUP7 DUP4 LT ISZERO PUSH2 0x19D0 JUMPI DUP5 DUP10 ADD MLOAD PUSH2 0x19CC PUSH1 0x1F DUP10 AND DUP3 PUSH2 0x18DF JUMP JUMPDEST DUP4 SSTORE POP JUMPDEST PUSH1 0x1 PUSH1 0x2 DUP9 MUL ADD DUP9 SSTORE POP POP POP JUMPDEST POP POP POP POP POP POP JUMP JUMPDEST PUSH32 0x496E76616C6964206F7074696F6E20696E6465782E0000000000000000000000 PUSH0 DUP3 ADD MSTORE POP JUMP JUMPDEST PUSH0 PUSH2 0x1A19 PUSH1 0x15 DUP4 PUSH2 0xEC1 JUMP JUMPDEST SWAP2 POP PUSH2 0x1A24 DUP3 PUSH2 0x19E5 JUMP JUMPDEST PUSH1 0x20 DUP3 ADD SWAP1 POP SWAP2 SWAP1 POP JUMP JUMPDEST PUSH0 PUSH1 0x20 DUP3 ADD SWAP1 POP DUP2 DUP2 SUB PUSH0 DUP4 ADD MSTORE PUSH2 0x1A46 DUP2 PUSH2 0x1A0D JUMP JUMPDEST SWAP1 POP SWAP2 SWAP1 POP JUMP JUMPDEST PUSH32 0x4576656E74206973206E6F74206163746976652E000000000000000000000000 PUSH0 DUP3 ADD MSTORE POP JUMP JUMPDEST PUSH0 PUSH2 0x1A81 PUSH1 0x14 DUP4 PUSH2 0xEC1 JUMP JUMPDEST SWAP2 POP PUSH2 0x1A8C DUP3 PUSH2 0x1A4D JUMP JUMPDEST PUSH1 0x20 DUP3 ADD SWAP1 POP SWAP2 SWAP1 POP JUMP JUMPDEST PUSH0 PUSH1 0x20 DUP3 ADD SWAP1 POP DUP2 DUP2 SUB PUSH0 DUP4 ADD MSTORE PUSH2 0x1AAE DUP2 PUSH2 0x1A75 JUMP JUMPDEST SWAP1 POP SWAP2 SWAP1 POP JUMP JUMPDEST PUSH32 0x596F75206861766520616C726561647920766F7465642E000000000000000000 PUSH0 DUP3 ADD MSTORE POP JUMP JUMPDEST PUSH0 PUSH2 0x1AE9 PUSH1 0x17 DUP4 PUSH2 0xEC1 JUMP JUMPDEST SWAP2 POP PUSH2 0x1AF4 DUP3 PUSH2 0x1AB5 JUMP JUMPDEST PUSH1 0x20 DUP3 ADD SWAP1 POP SWAP2 SWAP1 POP JUMP JUMPDEST PUSH0 PUSH1 0x20 DUP3 ADD SWAP1 POP DUP2 DUP2 SUB PUSH0 DUP4 ADD MSTORE PUSH2 0x1B16 DUP2 PUSH2 0x1ADD JUMP JUMPDEST SWAP1 POP SWAP2 SWAP1 POP JUMP INVALID LOG2 PUSH5 0x6970667358 0x22 SLT KECCAK256 PUSH26 0xF89141D10C99828F47789CA60EF95A791195BEA2FC66EB6CBA75 0x26 0xDB 0x2F 0x27 0x5D PUSH5 0x736F6C6343 STOP ADDMOD EQ STOP CALLER "
				},
				"gasEstimates": {
					"creation": {
						"codeDepositCost": "1399000",
						"executionCost": "infinite",
						"totalCost": "infinite"
					},
					"external": {
						"createEvent(string)": "infinite",
						"endEvent(uint256)": "26958",
						"eventCount()": "2470",
						"events(uint256)": "infinite",
						"getAllEvents()": "infinite",
						"getResults(uint256)": "infinite",
						"getTop5EventIds()": "infinite",
						"vote(uint256,uint256)": "infinite"
					}
				},
				"methodIdentifiers": {
					"createEvent(string)": "9bc2bc71",
					"endEvent(uint256)": "330a347b",
					"eventCount()": "71be2e4a",
					"events(uint256)": "0b791430",
					"getAllEvents()": "c27a500d",
					"getResults(uint256)": "81a60c0d",
					"getTop5EventIds()": "761e1af3",
					"vote(uint256,uint256)": "b384abef"
				}
			},
			"storageLayout": {
				"storage": [
					{
						"astId": 29,
						"contract": "d-app/Voting.sol:VotingDApp",
						"label": "events",
						"offset": 0,
						"slot": "0",
						"type": "t_mapping(t_uint256,t_struct(Event)24_storage)"
					},
					{
						"astId": 31,
						"contract": "d-app/Voting.sol:VotingDApp",
						"label": "eventCount",
						"offset": 0,
						"slot": "1",
						"type": "t_uint256"
					}
				],
				"types": {
					"t_address": {
						"encoding": "inplace",
						"label": "address",
						"numberOfBytes": "20"
					},
					"t_bool": {
						"encoding": "inplace",
						"label": "bool",
						"numberOfBytes": "1"
					},
					"t_mapping(t_address,t_bool)": {
						"encoding": "mapping",
						"key": "t_address",
						"label": "mapping(address => bool)",
						"numberOfBytes": "32",
						"value": "t_bool"
					},
					"t_mapping(t_uint256,t_struct(Event)24_storage)": {
						"encoding": "mapping",
						"key": "t_uint256",
						"label": "mapping(uint256 => struct VotingDApp.Event)",
						"numberOfBytes": "32",
						"value": "t_struct(Event)24_storage"
					},
					"t_string_storage": {
						"encoding": "bytes",
						"label": "string",
						"numberOfBytes": "32"
					},
					"t_struct(Event)24_storage": {
						"encoding": "inplace",
						"label": "struct VotingDApp.Event",
						"members": [
							{
								"astId": 3,
								"contract": "d-app/Voting.sol:VotingDApp",
								"label": "id",
								"offset": 0,
								"slot": "0",
								"type": "t_uint256"
							},
							{
								"astId": 5,
								"contract": "d-app/Voting.sol:VotingDApp",
								"label": "name",
								"offset": 0,
								"slot": "1",
								"type": "t_string_storage"
							},
							{
								"astId": 7,
								"contract": "d-app/Voting.sol:VotingDApp",
								"label": "totalVotes",
								"offset": 0,
								"slot": "2",
								"type": "t_uint256"
							},
							{
								"astId": 9,
								"contract": "d-app/Voting.sol:VotingDApp",
								"label": "active",
								"offset": 0,
								"slot": "3",
								"type": "t_bool"
							},
							{
								"astId": 11,
								"contract": "d-app/Voting.sol:VotingDApp",
								"label": "vote1",
								"offset": 0,
								"slot": "4",
								"type": "t_uint256"
							},
							{
								"astId": 13,
								"contract": "d-app/Voting.sol:VotingDApp",
								"label": "vote2",
								"offset": 0,
								"slot": "5",
								"type": "t_uint256"
							},
							{
								"astId": 15,
								"contract": "d-app/Voting.sol:VotingDApp",
								"label": "vote3",
								"offset": 0,
								"slot": "6",
								"type": "t_uint256"
							},
							{
								"astId": 17,
								"contract": "d-app/Voting.sol:VotingDApp",
								"label": "vote4",
								"offset": 0,
								"slot": "7",
								"type": "t_uint256"
							},
							{
								"astId": 21,
								"contract": "d-app/Voting.sol:VotingDApp",
								"label": "hasVoted",
								"offset": 0,
								"slot": "8",
								"type": "t_mapping(t_address,t_bool)"
							},
							{
								"astId": 23,
								"contract": "d-app/Voting.sol:VotingDApp",
								"label": "organizer",
								"offset": 0,
								"slot": "9",
								"type": "t_address"
							}
						],
						"numberOfBytes": "320"
					},
					"t_uint256": {
						"encoding": "inplace",
						"label": "uint256",
						"numberOfBytes": "32"
					}
				}
			},
			"userdoc": {
				"kind": "user",
				"methods": {},
				"version": 1
			}
		}
	}
}